:020000040800F2
:1000000000900020898C00081D8A0008238A0008BF
:1000100000000000000000000000000000000000E0
:10002000000000000000000000000000E10B0108DB
:100030000000000000000000010D0108C1EA0008F6
:10004000D98C000800000000D98C0008D98C000869
:10005000D98C0008D98C0008D98C0008D98C0008EC
:1000600000000000298A0008418A0008658A00080B
:10007000D98C0008898A0008D98C0008000000008B
:10008000D98C0008A18A0008D98C0008D98C0008F6
:10009000D98C0008D98C0008D98C0008D98C0008AC
:1000A000D98C0008D98C0008D98C0008B98A0008BE
:0800B000D18A0008E98A00086A
:1000C00010B5064C2378002B07D1054B002B02D02E
:1000D000044800E000BF0123237010BDC8020020C7
:1000E000000000002C6B0108044B10B5002B03D05E
:1000F0000349044800E000BF10BDC04600000000F6
:10010000CC0200202C6B01080023C25C0133002AC2
:10011000FBD1581E7047000002B4714649084900DF
:10012000095C49008E4402BC7047C04603B4714666
:10013000490840004900095E49008E4403BC7047ED
:10014000002243088B4274D303098B425FD3030A16
:100150008B4244D3030B8B4228D3030C8B420DD329
:10016000FF22090212BA030C8B4202D312120902B7
:1001700065D0030B8B4219D300E0090AC30B8B42F5
:1001800001D3CB03C01A5241830B8B4201D38B03A3
:10019000C01A5241430B8B4201D34B03C01A524148
:1001A000030B8B4201D30B03C01A5241C30A8B428B
:1001B00001D3CB02C01A5241830A8B4201D38B0276
:1001C000C01A5241430A8B4201D34B02C01A52411A
:1001D000030A8B4201D30B02C01A5241CDD2C3098C
:1001E0008B4201D3CB01C01A524183098B4201D308
:1001F0008B01C01A524143098B4201D34B01C01AF3
:10020000524103098B4201D30B01C01A5241C3086A
:100210008B4201D3CB00C01A524183088B4201D3D9
:100220008B00C01A524143088B4201D34B00C01AC5
:100230005241411A00D20146524110467047FFE731
:1002400001B5002000F0F0F802BDC0460029F7D04B
:1002500076E7704703460B437FD4002243088B4266
:1002600074D303098B425FD3030A8B4244D3030B3D
:100270008B4228D3030C8B420DD3FF22090212BA02
:10028000030C8B4202D31212090265D0030B8B427E
:1002900019D300E0090AC30B8B4201D3CB03C01A68
:1002A0005241830B8B4201D38B03C01A5241430B43
:1002B0008B4201D34B03C01A5241030B8B4201D333
:1002C0000B03C01A5241C30A8B4201D3CB02C01A9E
:1002D0005241830A8B4201D38B02C01A5241430A16
:1002E0008B4201D34B02C01A5241030A8B4201D305
:1002F0000B02C01A5241CDD2C3098B4201D3CB01AC
:10030000C01A524183098B4201D38B01C01A52415A
:1003100043098B4201D34B01C01A524103098B425E
:1003200001D30B01C01A5241C3088B4201D3CB0049
:10033000C01A524183088B4201D38B00C01A52412C
:1003400043088B4201D34B00C01A5241411A00D2DC
:1003500001465241104670475DE0CA0F00D0494245
:10036000031000D34042534000229C4603098B42B5
:100370002DD3030A8B4212D3FC22890112BA030A3D
:100380008B420CD3890192118B4208D389019211BF
:100390008B4204D389013AD0921100E08909C30944
:1003A0008B4201D3CB01C01A524183098B4201D346
:1003B0008B01C01A524143098B4201D34B01C01A31
:1003C000524103098B4201D30B01C01A5241C308A9
:1003D0008B4201D3CB00C01A524183088B4201D318
:1003E0008B00C01A5241D9D243088B4201D34B0033
:1003F000C01A5241411A00D20146634652415B1075
:10040000104601D34042002B00D549427047634655
:100410005B1000D3404201B5002000F005F802BD9A
:100420000029F8D016E770477047C0468446100090
:1004300062468C461900634600E0C0461FB501F0D5
:10044000E5FE002801D40021C8421FBD10B501F00F
:1004500035FE4042013010BD10B501F0D7FE002836
:1004600001DB002010BD012010BDC04610B501F019
:10047000CDFE002801DD002010BD012010BDC046CA
:1004800010B501F05DFE002801DC002010BD012048
:1004900010BDC04610B501F053FE002801DA00205F
:1004A00010BD012010BDC046844608006146FFE72C
:1004B0001FB500F0C9FB002801D40021C8421FBDB0
:1004C00010B500F055FB4042013010BD10B500F0F2
:1004D000BBFB002801DB002010BD012010BDC04681
:1004E00010B500F0B1FB002801DD002010BD012097
:1004F00010BDC04610B500F061FB002801DC0020F3
:1005000010BD012010BDC04610B500F057FB0028FB
:1005100001DA002010BD012010BDC04670B50022D8
:100520000C4B04000D00FFF7B5FF002804D120009C
:10053000290002F031FD70BD064B00222000290089
:1005400002F08AF902F028FD80231B069C466044D5
:10055000F1E7C0460000E04170B505000C00002244
:10056000002328002100FFF777FF002808D128008A
:10057000210000F00FF802000B001000190070BD00
:1005800080231B06E118280000F004F800234242F3
:100590008B41F2E770B500220B4B0D00040001F017
:1005A00099FEFFF7BBFF060002F05CFD0022074B3F
:1005B00001F090FE02000B002000290002F04CF92F
:1005C000FFF7ACFF310070BD0000F03D0000F041CE
:1005D00070B50600080002F015FD0022064B01F080
:1005E00079FE0D000400300002F03CFD2B002200DB
:1005F00000F016FF70BDC0460000F041F8B5474658
:10060000CE464A0243024500C40F500A80464800C5
:100610005B0A000E9209944680B51E0081460200D6
:100620002D0EDF00C90F8C4224D0281A00280EDDC1
:10063000002A3ED16246002A00D1FDE0421E012878
:1006400000D137E1FF2800D1A9E0100039E00028EF
:1006500063D04B46521B002D00D0E0E0002F00D1AC
:10066000CEE0531E012A00D155E1FF2A00D194E0CB
:100670001A00D9E02A1A002A00DC99E0002862D08A
:10068000FF2D00D18BE080236146DB0419438C46AB
:100690001B2A00DCD2E00123DB195A016AD501359F
:1006A000FF2D5BD00122A3491A405B080B40134386
:1006B0001CE0FF2D00D172E080236246DB041A4368
:1006C00094461B2800DC90E00123FB1A5A0151D507
:1006D0009B019E09300002F0B9FD330005388340CC
:1006E000854200DC75E0944A2D1A13405A0704D065
:1006F0000F221A40042A00D004335A013CD5681C4A
:10070000FE2D2BD09B015E0AC0B2C0053043E4072A
:100710002043C0BCB946B046F8BDFE206A1C10425A
:1007200072D1002D00D0AEE0002F00D1ECE0634686
:100730000020002BE9D0FB1A5A0100D4F3E06346F5
:100740000C00DB1BD2E7614600295BD0511E012A59
:1007500000D1A7E0FF2A22D00A0099E7FF20002657
:10076000D3E7FE216A1C114273D0FF2AF6D0150090
:1007700067447B085A07BBD1DB08FF2D0FD05B0213
:100780005E0AE8B2C1E76246002A08D08022D2039E
:10079000134204D04046104201D10C004346002BC6
:1007A000DCD08026F6031E437602FF20760AACE7F3
:1007B000002AD6D0421B002D5CD0FF28EED080232B
:1007C000DB041F431B2A00DC82E001234D46634407
:1007D00063E72022401B0130121A19009340C140E8
:1007E0005A1E934100250B4380E7202361461B1AC4
:1007F000994062460B00C240591E8B41134364E787
:100800000C0043461500B8E76346FE1A730145D451
:10081000002E00D05EE700240020002675E7FF2BA5
:10082000BBD08023DB041F431B2A47DD0123624624
:100830000C004D46D31A49E705009EE76146202388
:10084000D1409B1A62469A4013005A1E93410B43B3
:1008500022E7002D46D1002F62D063460020002BF6
:1008600000D152E73B0063445A0183D5324A013537
:1008700013407FE7002FC4D0531E012A12D0FF2A55
:100880008CD01A009EE7002F00D07CE76346002B37
:1008900083D180260024FF20F60336E763460C0050
:1008A000DE1B17E73B00634401255A0100D461E7D2
:1008B0000225F7E663460125FB1A07E720239B1A6A
:1008C00038009F403B00D0405A1E93410343AEE79F
:1008D00020239B1A39009F403B00D1405A1E934170
:1008E0000B4373E7002F00D158E76246002A00D17E
:1008F00055E78022D203134200D150E7414611420E
:1009000000D04CE743464AE76346002B83D00C00F7
:1009100046460020F9E663460C00DB1B0135D5E6B0
:1009200046460020F1E6002B00D023E700240026F5
:10093000EBE6C046FFFFFF7DFFFFFFFBF0B54F4634
:100940004646D6464502C0B547000C1C6D0A3F0E10
:10095000C60F002F00D16FE0FF2F00D174E00023FD
:10096000802299469A46ED00D20415437F3F6302E8
:100970005B0A984663001B0EE40F002B4DD0FF2B43
:1009800045D042468021D200C90411438846002246
:100990007F3B3100FF1A4B466140C9B20F2B00D993
:1009A000B8E070489B00C3589F4600239846260035
:1009B000454692465346022B00D18DE0032B00D1D1
:1009C000A1E0012B18D03B007F33002B6DDD6A07BF
:1009D00004D00F222A40042A00D004352A0103D56E
:1009E000614B1D403B008033FE2B00DD74E0AA010B
:1009F000520AD8B202E00E0000200022C005F6071D
:100A000010433043E0BCBA46B146A846F0BD434669
:100A1000002B3FD10222FF3F03E04346002B2DD1A4
:100A2000012231004B466140C9B213430F2B38D825
:100A30004E489B00C3589F46002D13D1042399466E
:100A4000033B00279A4692E7002D05D108239946DB
:100A5000063BFF279A468AE70C239946093BFF2766
:100A60009A4684E7280002F0F1FB7627431F9D4059
:100A700000237F4299469A463F1A78E7404602F0A3
:100A8000E5FB4246431F9A4076235B4290461B1A81
:100A900000227EE703234A461A439146FC33032291
:100AA00077E70E00FF200022A8E70122D31A1B2BB4
:100AB000A2DC9E372A00BD40DA406B1E9D411543E3
:100AC0006A0704D00F222A40042A00D004356A01A4
:100AD00044D50120002291E7FF2000228EE78022EA
:100AE0000026FF20D20389E7002398468022D20304
:100AF000154208D04346134205D11A43520226003C
:100B0000FF20520A7AE78022D2032A435202FF20B2
:100B1000520A73E742466B015501AB421AD21B20C1
:100B20000022013F01261C0052005B00002C01DB6B
:100B30009D4201D85B1B324301380028F3D1581E77
:100B4000834113431D003B007F330E00002B00DD6B
:100B50003DE7AAE71A2001225B1BE3E7AA01002078
:100B6000520A4BE720830108FFFFFFF7608301086B
:100B700070B5420045024E024C00C30F6D0A0120C1
:100B8000120E760A240EC90FFF2A06D0FF2C03D0BE
:100B9000A24201D1B54206D070BD002DFCD1FF2C80
:100BA000FAD1002EF8D18B4206D00120002AF3D1D1
:100BB0002800431E9841EFE70020EDE770B54200A2
:100BC00045024E024C00C30F6D0A120E760A240E27
:100BD000C80FFF2A1BD0FF2C0ED0002A1BD1002CDF
:100BE00001D1002E1CD0002D0CD083421CD002213C
:100BF000581E0840013870BD002E22D1002AF4D1C1
:100C0000002DF2D10028F6D101204042F3E7002D5B
:100C100017D1FF2CF0D0002CE7D1002EE5D1E6E76C
:100C20000020002DE7D0E2E7A24205DCEADBB54276
:100C300002D8E7D30020DEE74342584140000138A4
:100C4000D9E702204042D6E770B5420045024E0285
:100C50004C00C30F6D0A120E760A240EC80FFF2A2D
:100C60000BD0FF2C0DD0002A1FD1002C16D1002E46
:100C700014D10020002D10D009E0002D0CD1FF2C44
:100C800013D1002E08D1002A08D0834212D00221AD
:100C9000581E0840013800E0022070BD002DF4D13C
:100CA0000028FAD101204042F7E7002CEDD1002EB8
:100CB000EBD1ECE7A24205DCF2DBB54202D8EFD380
:100CC0000020EAE74342584140000138E5E7C046CA
:100CD00043025B0AF0B54F4646469946D646C30FD7
:100CE00045009846C0B54B460F1C2D0E00D1CBE0F9
:100CF000FF2D00D1CFE08022DB00D2041A43002375
:100D0000914600269A467F3D7C027B00640A1B0EBA
:100D1000FF0F002B00D1A9E0FF2B11D08022E400AF
:100D2000D204144342467F3B5B197A400020D2B282
:100D30005D1C0A2E13DD3A000B2E47D047463FE0DC
:100D40002B00FF33002C1ED10222164342460135F0
:100D50007A40D2B2FF350A2E00DDE4E00220022EF6
:100D60001CDC013E012E42D802283DD0012866D16C
:100D700000200021C0050843D2071043E0BCBA465A
:100D8000B146A846F0BD03221643424601357A40DB
:100D9000D2B2FF350A2E00DDE4E003200121B1408C
:100DA000A626F60031420AD19026B600314216D16D
:100DB000B93EFF3E0E421AD0A146824600E017001F
:100DC00053463A00022B0FD04C4650460328CDD153
:100DD0008021C90321434902FF20490ACAE7802133
:100DE0000022FF20C903C5E7FF200021C2E7200C35
:100DF00049462404240C27000E0C0904090C7443F2
:100E00004F4346434843390C001909188C4203D913
:100E100080204002844666443F0408043F0CC01909
:100E20008401671EBC41090C800E891904438901A5
:100E30000C43090171D5012361081C400C432B00B0
:100E40007F33002B51DD610704D00F21214004299D
:100E500000D00434210103D5434B1C402B008033C8
:100E6000FE2BC1DCA101490AD8B283E7002C2CD1AA
:100E7000012342461E432B007A400120D2B25D1C62
:100E80000A2E00DD57E76AE7002B10D10123042664
:100E900000259A4638E7002B04D102230826FF25B7
:100EA0009A4631E703230C26FF259A462CE748464D
:100EB00002F0CCF94A46431F76259A4000236D4242
:100EC000914600269A462D1A1EE7200002F0BEF930
:100ED0004246431F9C402B1A763B7A400020D2B2F8
:100EE0005D1C0A2E00DD26E739E70121CB1A1B2BFA
:100EF00000DD3DE79E352100AC40D940631E9C419A
:100F000021434B0704D00F230B40042B00D00431A6
:100F10004B0104D5012000212CE71D008FE789013A
:100F20000020490A26E702230F2E0CD180214B46D0
:100F3000C9030B420DD00C420BD1214349023A00A8
:100F4000FF20490A16E70B2E00D0F7E6A1469A4685
:100F500036E780214B46C903194349024246FF2028
:100F6000490A07E70323DFE7FFFFFFF7F0B5C646AF
:100F700043025B0A4500DA00C40F48024F00944662
:100F8000420A1E00904600B52D0E3F0EC90F800983
:100F9000FF2F59D0012251408C4239D0EA1B002A40
:100FA00058DD002F68D0FF2D00D1D1E08023DB0475
:100FB00018431B2A00DCE3E001236246D31A5A01DE
:100FC00000D4ACE09B019E09300002F03FF93300F1
:100FD00005388340854200DCC6E0B24A2D1A134032
:100FE0005A0704D00F221A40042A00D004335A01B1
:100FF00000D497E06A1CFE2D00D184E09B015E0ABC
:10100000D2B2D0053043E407204380BCB846F0BDDF
:10101000EA1B002A41DD002F6BD0FF2D00D197E0A5
:101020008023DB0418431B2A00DCCCE0012363444B
:101030005A0174D50135FF2D65D001229A491A4015
:101040005B080B401343CBE700281FD08C4222D013
:101050002A00FF3A002A35D07A1B002D00D099E0F3
:101060006346002B00D1DDE0531E012A00D105E1CB
:10107000FF2A6BD01A0094E0002873D0511E012A79
:1010800000D1DFE0FF2A63D00A0092E7012251403D
:10109000A14200D082E72A00FF3A002A36D07A1B0C
:1010A000002D00D1AAE0FF2F00D1DAE080236146B5
:1010B000DB0419438C461B2A00DCD4E001233D00ED
:1010C0001B18B5E7FE276A1C174271D1002D00D00E
:1010D0009EE06346002B00D1D5E00022002800D11D
:1010E0008FE71B1A5E0100D4D6E063460C00C31ADA
:1010F00076E7002836D0511E012A00D19AE0FF2A57
:1011000026D00A008FE7FF2200267AE7FE276A1C16
:10111000174262D0FF2AF6D01500604443085A07F0
:1011200000D05FE7DB08FF2D12D05B025E0AEAB257
:1011300067E76246002A00D193E0002808D08022A9
:10114000D203134204D04046104201D10C00434662
:10115000002BD8D08026F6031E437602FF22760AA3
:101160004FE743461500DEE72022401B0130121AEC
:1011700019009340C1405A1E934100250B432FE7AD
:1011800020239B1A010098400300D1405A1E93412E
:101190000B4312E7FF2FD9D080236446DB041C43A6
:1011A000A4461B2A52DD01230C003D00C31A06E7AA
:1011B00063461E1A730139D4002E00D004E70024C0
:1011C000002200261DE720239B1A010098400300FF
:1011D000D1405A1E93410B4329E7002DA9D1634604
:1011E000002B56D00022002800D10AE703006344F8
:1011F0005A0194D52B4A0135134090E76346002BE2
:10120000AFD0531E012A15D0FF2A2AD01A0052E768
:101210006246002A91D1002898D180260024FF221E
:10122000F603EEE60C00434615007CE763460C002F
:10123000C61AC9E60300634401255A0100D46EE7CB
:101240000225FAE6634601251B1AB8E66446202308
:10125000D4409B1A62469A4013005A1E934123437E
:10126000A2E7434674E761462023D1409B1A6246B9
:101270009A4013005A1E93410B4320E763460C002B
:101280000125C31A9BE6002899D00C00464600228F
:10129000B7E646460022B4E6002B00D03FE7002424
:1012A0000026AEE6FFFFFFFBFFFFFF7D410242008D
:1012B000C30F490A0020120E7E2A03DD9D2A02DD9B
:1012C000094A98187047802000040143952A07DCDA
:1012D0009620821AD1404842002BF3D10800F1E752
:1012E000963A9140F7E7C046FFFFFF7F70B50028B0
:1012F00013D0C317C5185D40C40F280001F0A6FF26
:101300009E2301001B1A962B0FDC082831D00839C8
:101310008D406D026D0AD8B202E000240020002545
:10132000C0052843E407204370BD992B0CDD05223E
:10133000121A2800D040020008001B308540280007
:10134000451EA84102431500052916DC2A000F4856
:1013500002406E0709D00F263540042D05D0043217
:10136000550102D59F2302405B1A9201550AD8B25B
:10137000D6E76D0296206D0AD2E74A1F95402A00F3
:10138000024802406E07F0D0E5E7C046FFFFFFFBD2
:1013900070B5041E0ED001F059FF9E2301001B1AE8
:1013A000962B0CDC08282CD008398C406402640A87
:1013B000D8B201E000200024C005204370BD992B65
:1013C0000ADD020020001B3290400200501E8241C4
:1013D0000520401AC4401443052916DC22000F489A
:1013E0000240650709D00F252C40042C05D004329B
:1013F000540102D59F2302405B1A9201540AD8B2CD
:10140000DAE764029620640AD6E74A1F9440220075
:10141000024802406507F0D0E5E7C046FFFFFFFB4A
:10142000F0B54F464646D6460400C0B51F000B0334
:1014300010004E005B0ACD0F610F7A001943E300E4
:101440003C03FF0FBC46640A470F2743760D520D3D
:10145000C000B9468046B71A654500D19BE0002F11
:1014600000DC84E0002A00D1BEE0C84A964200D1E8
:1014700024E180224C4612041443A146382F00DD9B
:1014800067E11F2F00DDD6E120224C46D21B94409D
:10149000A2464446FC402000544604434046904047
:1014A000421E90414A46FA400443891A1C1BA3423B
:1014B000924152428B1A9A4653461B0200D4D4E002
:1014C00053465A02530A9A465346002B00D104E170
:1014D000504601F0BBFE0300083B20222000D21A38
:1014E0005146D040994002009C400A43B34200DA82
:1014F00002E19B1B591C1F2900DDA7E020231000DF
:1015000026005B1A9C409840CE40CA40631E9C4116
:101510003043924600260443630709D00F2323403B
:10152000042B05D0231DA342A4416442A2441C0005
:1015300053461B0200D49BE0944B01369E4200D1DF
:10154000B8E053469249E4080B4019005B07234377
:1015500072054C02240B520D1205ED0722432A435B
:1015600018001100E0BCBA46B146A846F0BD002FF5
:1015700048D0971B002E00D00EE10C001C4300D178
:10158000B7E17C1E012F00D126E2804DAF4200D191
:10159000D5E1270007E1002F00DCB2E0002A47D0A8
:1015A0007A4A964200D189E080224C4612041443C4
:1015B000A146382F6BDC1F2F00DC6EE13A00484655
:1015C000203AD0408446202F07D040224846D21BE4
:1015D000904002004046104380464046421E9041E3
:1015E00062460400144357E04A46024300D103E137
:1015F0007A1E012F00D193E1644CA74200D18AE109
:1016000017003BE7634C721C224200D0E0E00A0066
:101610001A43002E00D074E1002A00D1D0E14A46DE
:10162000024300D0E3E14A07DB081343C90829E07D
:101630004A46024300D17DE17A1E012F00D1E0E04D
:10164000524CA74200D166E11700B2E710001F3BE1
:10165000D840202903D040235B1A9A401443631ECC
:101660009C41002300269A460443630700D055E7B7
:101670005246E3085207134352463700D108434A03
:1016800097421FD009037A050C0B520D64E74246BE
:101690004C461443621E9441E4189C4292415242CB
:1016A00092468A4453461B02DFD5384B01369E4290
:1016B00000D0B3E03200002400234DE74A07DB08E6
:1016C0001343C9081A000A4300D100E2802424030E
:1016D0000C4324032D4A240B3EE7200001F0B6FD05
:1016E000030018331F2B00DCF7E622000838824085
:1016F0000024B34200DBFCE6F61A254B1A40924662
:101700000AE7002F2BD0971B002E00D1B8E01F4C0A
:10171000A24200D11CE1802424042143382F00DDA3
:101720001EE11F2F00DD9EE120260C00F61B180095
:10173000B340B440F8405E1EB341F94004431C433B
:101740008944444444459B415B424B449A461600BD
:10175000A8E742464C461443621E9441A6E60D4C4F
:10176000721C224200D0A8E00A001A43002E00D0CA
:101770000AE1002A00D15EE14A46024300D061E15D
:101780004A07DB081343C9087CE7C046FF0700008F
:10179000FFFF7FFFFE070000CF4CA24200D1CEE04A
:1017A000802424042143382F5BDC1F2F00DDDCE084
:1017B00020250C00ED1B1E00AB40AC40FE405D1E22
:1017C000AB413443F9401C434B465B1A99464CE00D
:1017D0004A461C1A881AA34292415242924602007B
:1017E0005046121A9246120278D45346234300D030
:1017F0006AE60021002545E74A07DB081343C908CC
:101800003DE71C189C429B4149448A465B429A44EE
:10181000534601261B0200D427E702265246AF4B4F
:1018200001211A401300214062080A43DC075B08CB
:101830009A46144370E63A004C46203AD440A446F7
:10184000202F07D040224846D21B9040020040463D
:10185000104380464046421E9041624604001443B5
:1018600024E619430C00631E9C4143461C1BA04503
:101870009B4149465B42CB1A9A46654616001BE6D9
:101880000C001C4300D1C7E07C1E012F00D1F9E001
:10189000914EB7425CD0270040E720224C4640469C
:1018A000D21B9440F840044340469040421E904171
:1018B0004A46FA4004438918EEE6874CA24200D11A
:1018C000F9E6181898429B4149445B42CB18DC0763
:1018D00040085B089A4616000443C6E64246D41AFE
:1018E000A04580414B464042591A0B1A9A4665461C
:1018F000EAE54B464A46C0085B0765460343D10804
:10190000BDE6002A00D08EE04B46034317D180216C
:1019100000250903DAE64A07DB081343C908D1E6C4
:101920001C1A4A46A3429B41891A5B42CB1A9A462B
:101930000126C1E54A07DB081343C9089FE6434671
:10194000D8084B464A465B0765460343D108B9E6CB
:101950004346D8084B464A465B070343D108B1E6E5
:1019600019430C00631E9C41EBE63C000D00203C3B
:10197000E540202F03D04024E41BA1400B431C0072
:10198000631E9C412C4370E7002AE1D04A46024383
:10199000C1D04A07DB0813438022C9081203114251
:1019A00008D04846C408144204D143462100DB084D
:1019B000420713435A0FDB005207DB08134381E64B
:1019C0004B46034300D114E74B464A46C0085B0729
:1019D00065460343D10855E6C41AA04580414B46ED
:1019E0004042591A0B1A9A466546012664E51C1AAC
:1019F0004A46A34280418A1A4042121A9246120273
:101A000049D54246D41AA04580414B464042591A16
:101A10000B1A9A4665467FE54B464A46C0085B0767
:101A20000343D1082BE64A46DB08024338D14A0774
:101A30001343C90846E64B464A46C0085B070343C2
:101A4000D1081FE61C189C429B4149448A465B42D0
:101A50009A4453461B0200D407E652461F4B012608
:101A60001A40924601E63C000E00203CE640202F42
:101A700003D04024E41BA1400B431C00631E9C4187
:101A800034435EE643448342804149448A464042AF
:101A90001C008244BCE65346234300D1A9E6E4E59A
:101AA0004A0713438022C9081203114209D048464D
:101AB000C408144205D1434665462100DB084207AD
:101AC00013435A0FDB00DB0852071343FAE50023E8
:101AD000014A1C0040E5C046FF070000FFFF7FFFF2
:101AE000F0B557464E464546DE46E0B50C031F00AE
:101AF0004B0081469246050085B0240B5B0DCE0F4E
:101B0000002B00D152E1D24A934200D16EE1420F44
:101B1000E40014438022120422439046CD4AC500BB
:101B200093469B440023994600933C037B00504618
:101B3000240B5B0DFF0F002B00D11AE1C44A934226
:101B400000D15EE1420FE4002243802424041443C8
:101B5000C04AC10094465A466344D31A9B460020AB
:101B600033007B409A464B460F2B27D8BA4A9B003E
:101B7000D3589F46B246009B022B16D0032B00D1B0
:101B800087E2012B00D0D5E00023002200251B05B1
:101B900013435246D20713432800190005B0F0BC86
:101BA000BB46B246A946A046F0BD00220025A84B80
:101BB000EDE7BA46A0460D000090DCE7444500D2B0
:101BC000C4E100D1BFE101235B429C462E004046A8
:101BD0000025E34423020C0E1C431B0C99462304EE
:101BE0000A021F0C494600920197FEF72FFB0200E4
:101BF0007A430B04310C804619438A4207D90123EA
:101C00005B429C460919E0448C4200D801E2881AE4
:101C10004946FEF71BFB019A360442430904360C81
:101C200003000E43B24204D93619013BB44200D836
:101C3000E9E1B01A4246009E12041A43330C1F0019
:101C4000110C9046029313043204160C32001B0C44
:101C50005A4303967B434E437943170CBC469B196A
:101C600063449E4203D980267602B44661441E0C2A
:101C7000711816041B04360C9E19884202D312D127
:101C8000B54210D243465A1E009B9C4665441F0035
:101C90009D429B415B421B19C018844200D29EE1C9
:101CA00000D199E19046AE1BB542AD41401A6D425C
:101CB000401B844200D1D2E14946FEF7C7FA019A9F
:101CC0000B044243310C050019438A4200D96CE1F0
:101CD000881A4946FEF7BAFA019A360442430904C3
:101CE000360C03000E43B24200D953E10398B61AF2
:101CF00002002D041D43029F2B041B0C5A437B43FF
:101D00009C46290C4843130C84446344794398420D
:101D100003D98020400284466144180C12041B043D
:101D2000120C40189B18864200D200E100D1FBE063
:101D300001231D43494B5B44002B00DCAAE06A07EA
:101D400000D03DE1E9084246D20106D54246444B67
:101D50001A4080239046DB005B44424A934200DDF8
:101D600023E742465B05550752020D43120B5B0DFC
:101D70000DE75146214300D17CE0002C00D1FBE06F
:101D8000200001F063FA02000B3A1D239B1A524611
:101D90000100DA40534608398B408C401900144347
:101DA000314B58449B4683440020D9E6030023432B
:101DB000984644D0002C00D1CFE0200001F046FA34
:101DC000010002000B391D235B1A49461000D9405F
:101DD000083884400B004D46234398468540234BEA
:101DE0009B1A9B460023994600939EE602002243DD
:101DF00090461DD108229B46022300259146009360
:101E000093E65146214309D102234A461A43184B0F
:101E100091469C4600240220E344A1E603234A465F
:101E20001A43134B91469C4651460320E34497E6E0
:101E30000C229B460323A0469146009375E604239B
:101E4000994600239B460133002500936DE6C0466A
:101E5000FF07000001FCFFFFA0830108FF03000053
:101E6000FFFFFFFEFE070000F30300000DFCFFFF75
:101E700001F8FFFF4A4601231A439146002401203E
:101E80006EE6002380229A460025884B12037EE6E8
:101E900001256D420122D21A382A00DD74E61F2A7C
:101EA00000DCBDE01F214942CB1A4146D9400B005E
:101EB000202A04D041467E4A5A4491400D432900CD
:101EC0004A1E9141194307231D0000220D400B4279
:101ED00000D1D0E00F2200230A40042A00D1C7E03D
:101EE0000A1D8A42894149425B1811001A0200D436
:101EF000BEE001230022002549E68022434612036A
:101F0000134208D0144206D122431203BA460D00F0
:101F1000664B120B3BE68022434612031A43120320
:101F2000B246624B120B32E6002B00D102E7A61933
:101F30006A1EA64200D289E0864200D29FE000D10C
:101F4000AFE01500F4E6A94200D93CE64346DE07BF
:101F500058086B081E43ED073CE601F077F90100D5
:101F60000200153120321C2900DC2CE74B460838D2
:101F700083400025984632E701F068F903001A0013
:101F8000153220301C2A00DCFFE65446083B0021B5
:101F90009C4005E73619013BB44200D9A6E6B2429F
:101FA00000D8A3E6831E3619A0E60919013D8C422C
:101FB00000D98DE68A4200D88AE6851E091987E68F
:101FC0000F222A40042A00D1BCE6291DA942AD41B6
:101FD0006D42C908A844B6E6AF4200D962E6814224
:101FE00004D800D05EE6AE4200D85BE602235B4236
:101FF0009C46009BE0449C4665449D429B415B425D
:102000001B19C0184FE6B24200D812E6831E3619DB
:102010000FE68A4200D8FAE5831E98460919F6E5CC
:10202000244B28005B4441469D409940D0406B1EA4
:102030009D41434601432943D3404A0700D155E718
:102040000F220A40042A00D04AE74FE715008642D3
:1020500000D06DE6009A9A4200D069E66AE6164B17
:102060005B44002B00DC13E701250021A8446AE64D
:102070005D075B021A0BC90800230D4387E5009931
:10208000023D4A008A42BF417F423F19F619009241
:10209000DDE78022434612031A431203034B120B5F
:1020A00075E500999942EAD31500D3E7FF070000D0
:1020B0003E0400001E040000FF030000F0B54E4681
:1020C0004546DE4657469046E0B517001A03120B08
:1020D0000500844619480E034C0091465A00DB0F58
:1020E0009B46360B640DC90F520D844219D08242B3
:1020F00010D0012094420ED14E450CD10120C44590
:1021000009D1594517D0002C05D130002843431E72
:10211000984100E00120F0BCBB46B246A946A0466B
:10212000F0BD330001202B43F5D1A242F3D14B4641
:102130003B43F0D1E2E70020EDE7C046FF07000097
:10214000F0B54746CE460400180016001B031B0BD3
:102150002D4D4A00994680B543000F03A446B04672
:102160003F0B520DC90F5B0DC00FAA4221D0AB42ED
:1021700013D0002A22D13C43002B02D14D462E43DE
:1021800022D0002C10D0814222D0022001390840F8
:102190000138C0BCB946B046F0BD4D462E4329D1EA
:1021A000002AF0D13C43EED10028F2D10120404278
:1021B000EFE73D0025431DD19342EED0002BE2D145
:1021C0004C462643DFD1E0E70020002CE1D0DCE7DD
:1021D0009A420ADCE8DB4F45D7D80ED000204F45A5
:1021E000D7D20029E2D00800D3E74342584140004B
:1021F0000138CEE702204042CBE7C445C5D80020D5
:10220000C445C6D2EDE7C046FF070000F0B547461B
:10221000CE460400180016001B031B0B2C4D4A0071
:10222000994680B543000F03A446B0463F0B520DBC
:10223000C90F5B0DC00FAA420DD0AB4210D0002ACF
:1022400027D13C43002B11D14D462E430ED1002007
:10225000002C15D00EE03D00254310D1934218D13B
:102260004D462E430BD1002A02D13C43002C0BD00B
:10227000814214D0022001390840013800E00220D8
:10228000C0BCB946B046F0BD0028F9D1012040429B
:10229000F6E7002BECD14C462643E9D1EAE79A4217
:1022A00004DD4342584140000138E9E79A42EBDB44
:1022B0004F45DFD806D000204F45E1D20029E5D0B8
:1022C0000800DDE7C445D5D80020C445D8D2F5E7DD
:1022D000FF070000F0B54546DE4657464E46E0B5DE
:1022E0001F000B031B0B9B464D00CB0F04009146B8
:1022F000984687B06D0D00D1CDE1CE4B9D4200D107
:10230000E9E15A46430FD2001343802212041A43D4
:10231000C3009A46C84B93469C460023002665445A
:1023200000933C037B004846240B5B0DFF0F002B02
:1023300000D189E1BF4A934219D0420FE400224301
:10234000802424041443BC4A00219446424663443A
:102350005B190193019B7A400133C000D2B2029312
:102360000A2E1CDD3A000B2E5ED0474656E0494649
:10237000B04B2143EB18019300292AD1802002227F
:1023800000012B0084461643424663447A40D2B291
:1023900002930A2E00DD31E2002000240221022EE9
:1023A00026DC013E012E52D802294CD0012900D052
:1023B00018E10023002400251B052343D207134303
:1023C0002800190007B0F0BCBB46B246A946A0469B
:1023D000F0BD8021032209012B008C4616434246A2
:1023E00063447A40D2B202930A2E00DD28E2032130
:1023F0000125B540AC46A6266346F600354033427B
:102400000BD19026B600334218D1B93EFF3E1E4292
:102410001DD0A3468246009100E0170000993A00C3
:10242000022910D05C4650460329BFD180231B03EC
:102430001C43240305007F4B240BBDE780240022AE
:102440007C4B2403B8E7002400257A4BB4E75346BD
:102450001E04360C1F0C3300010C0004000C434317
:10246000984603007B43994633004B439C464346C2
:102470000D001B0C9A467D43CC44D4440095E145A5
:1024800004D980235B0299464D44009563461B0C9A
:102490001D0063461B049C4643461B041B0C9846C8
:1024A000634643440393230C984633002404240CCE
:1024B00063439C4623007B43994643465E435F4308
:1024C0004E446346B2461E0C5644B14503D98023A0
:1024D0005B0299464F44330C99463B004B440593AD
:1024E0006346AC461F043F0C3604F619B4446346F9
:1024F00004935B461B0C9C465B461F043F0C3B0051
:1025000043439946634643439A464B4660461B0CF9
:102510009B4648437943514459448A4503D9802313
:102520005B029A4650440B0C9A464B461B041B0C0C
:1025300099463B006343090445464944994663462E
:102540005C436B439C464B461B0C98466F433F19BC
:1025500047445044BC4203D980235B029846C4449C
:10256000049B009D98464544B542B6417342984647
:102570004B461E04059B3C049946360CA4194C445A
:10258000A14683466E18C1448E428941CB445D46C4
:1025900049426D189C42A441C1459B4183458041FD
:1025A0008D4289415B4264421C434042039B494245
:1025B000014370023F0C1843E419471EB8416418E8
:1025C0006444F60D61023043EC0D6E020C4330435F
:1025D000C90100D4F1E00121430801400B43E007A9
:1025E000184364081549029B8C466344002B00DCA9
:1025F00097E0410709D00F210140042905D0011DB2
:1026000081428041404224180800E10106D5802122
:10261000C9008C460A4B1C40029B634409498B420B
:1026200000DD10E76107C50864025B050D43240B5C
:102630005B0DC1E6FF07000001FCFFFFFF03000088
:10264000FFFFFFFEFE0700004B46234359D0002C3E
:1026500000D1A3E0200000F0F9FD010003000B39D8
:102660001D22521A49461800D1404A460838824075
:10267000844010000C43744AEB1A9446424663446B
:102680000193019B7A4001330021D2B202930A2EBA
:1026900000DD67E683E65B4603439A462AD05B4645
:1026A000002B6DD0584600F0D1FD010003000B391E
:1026B0001D22521A210018005D46D140083885407D
:1026C0000A0084402A439346A2465F4D0026ED1A35
:1026D0000023009325E65B4603439A4605D1002379
:1026E0009B460233082600931BE6032382460C26F2
:1026F000009316E600239B46013304260025009331
:102700000FE64246013301951E43019B7A40013397
:10271000002400200121D2B202930A2E00DD21E61E
:102720003DE60121C91A382900DD42E61F2947DDAF
:102730001F2625007642F31ADD402B00202905D004
:102740004249029D8C466544AC402043411E88416D
:10275000184307231D000024054003424AD00F23DD
:1027600000240340042B42D0031D83428041404299
:102770002418180023023AD50123002400251BE663
:1027800000F064FD01000300153120331C298FDDAA
:102790000838002284409246A34696E700F056FD92
:1027A00001000300153120331C2900DC58E702002A
:1027B0004C46083A002094405DE7019B029311E7E4
:1027C000234B26009C460300029DCB406544AE404F
:1027D0001E430300AB40581E834130001843CC40D9
:1027E0004307C7D00F230340042BBDD1C2E76507C1
:1027F0006402240BC00800230543DDE50025022305
:102800000F2E0CD180245B46240323420ED021429C
:102810000CD10C4324033A000E4B240BCCE50B2EB9
:1028200000D0A2E58B46AA460093F7E580245B46DC
:1028300024031C43240342465546064B240BBBE5A8
:102840004D4621000323DBE70DFCFFFF3E040000A3
:102850001E040000FF070000F0B557464E464546EF
:10286000DE46E0B50D000400190010002B035B0AE2
:10287000620F1A43E3000C03640A470F2743D04C4E
:102880006E00914683B04A00C0009846A246760D7D
:10289000ED0F520DC90F0190A24200D1B9E0012401
:1028A00061408B468D4200D18DE0B41AA446002CC5
:1028B00000DCB7E0002A00D1CBE0C14A964200D14B
:1028C00086E18022120417436246382A00DDA4E123
:1028D0001F2A00DD1DE2614620223C00521A010041
:1028E00090409440421E90416246A0466446D740C4
:1028F0004A46E1404446D21B91460C4304431C1B0C
:10290000A34292414B4652429B1A9A4653461B029F
:1029100000D42BE153465A02530A9A465346002BE1
:1029200000D166E1504600F091FC0300083B2022F4
:102930002000D21A5146D040994002009C400A43E0
:102940009E4200DD64E19B1B591C1F2900DDFEE057
:102950002023100026005B1A9C409840CE40CA40BD
:10296000631E9C413043924600260443630709D00E
:102970000F232340042B05D0231DA342A44164420E
:10298000A2441C0053461B0200D4F2E08C4B0136DB
:102990009E4200D10FE153468A49E4080B401900DA
:1029A0005B07234372054C02240B520D1205224390
:1029B000ED072A431800110003B0F0BCBB46B24635
:1029C000A946A046F0BDB41AA446002C59DD002A41
:1029D00000D1B0E0564500D1FAE08022120417433E
:1029E0006246382A00DDD4E01F2A00DCC0E139004D
:1029F000203AD1406246202A06D064464022121B6B
:102A00003C00944004430194019C621E94410C4399
:102A1000C3E03C0004432BD08B468D422ED06A4C41
:102A2000A446B4446446002C5FD0941BA446002EF8
:102A300000D020E14C461C4300D1C7E161464C1E4A
:102A4000012900D123E25E4DAC4500D1D8E1A44676
:102A50001AE13A00024300D1E4E02200013A012CDD
:102A600000D1C3E156498C4200D1B1E094462BE736
:102A7000012461408B468D4200D016E752498C46B6
:102A8000B4446446002C00D1D3E0911B8C46002E48
:102A900000D15EE14A498A4200D1BEE180214C4624
:102AA00009040C43A1466146382900DDBAE11F291B
:102AB00000DD27E22024641A4946A1401E00884612
:102AC0006146A340CE4041465C1EA34131431943B9
:102AD0000C0063464946D9407F18241884429B4124
:102AE0005B429A461600BA445DE0384C721C2242A2
:102AF00000D0DFE04A461A43002E00D05CE1002AF5
:102B000000D1CFE13A00024300D17FE11C1A4A46CE
:102B1000A3428941D21B4942521A9246120200D462
:102B20000AE2C41AA04280414B464042FF1A3B1AB7
:102B30009A465D461AE73A00024373D02200013AF2
:102B4000012C00D1CBE0544542D0944648E7100018
:102B50001F3BD840202903D040235B1A9A401443DE
:102B6000631E9C41002300269A460443630700D05D
:102B7000FEE65246E308520713435246B446D208D3
:102B80000F498C452AD01203140B62465205520D90
:102B90000CE73C000443621E9441E4189C429241BD
:102BA00052424A44924653461B02DFD5044B01363B
:102BB0009E4200D0A0E0320000240023F6E6C0468A
:102BC000FF070000FFFF7FFF01F8FFFFFE07000087
:102BD000DB084A46520713434A46D20819001143FC
:102BE00000D1B5E18024240314432403D54A240BE7
:102BF000DCE6200000F02AFB030018331F2B00DC6A
:102C000095E622000838824000249E4200DC9AE6C5
:102C1000F61ACD4B1A409246A8E63C000443621EC9
:102C200094416CE64A46DB08520713434A46D208F1
:102C3000A6E7C64C721C224200D0ACE04A461A43BA
:102C4000002E00D005E1002A00D156E13A000243EF
:102C500000D1DBE01C189C429B414F44BA465B42CA
:102C60009A4453461B0200D480E75246B64B0126D5
:102C70001A4092467AE7B34CA24200D1C0E08024C9
:102C80004D4624042543A9466446382C53DC61464E
:102C90001F2C00DDCDE020251E002D1B4C46AB4037
:102CA000AC40CE405D1EAB41344323434C46CC4048
:102CB0003F1B45E04A461C1AD11BA3429241524297
:102CC00092460A005146521A9246120200D583E0FB
:102CD0005346234300D021E60022002553E71C1869
:102CE0009C429B414F44BA465B429A44534601265C
:102CF0001B0200D43AE702265246934B01211A40A8
:102D00001300214062080A43DC075B089A4614431B
:102D10002CE63900203AD1406246202A06D064468B
:102D20004022121B3C00944004430194019C621E0B
:102D300094410C43E3E5494619430B005C1EA34153
:102D4000C41AA0429B415B42FB1A9A465D4616009C
:102D5000DCE54946194300D1AEE0614664460139DD
:102D6000012C00D1E0E0774CA44556D08C469AE681
:102D7000614620223C00521A944001009040A04637
:102D80006446421E90416246E1404446D7400C43AF
:102D90000443B94401E76B498A4200D10CE7181893
:102DA00098429B414F445B42FB18DC0740085B089C
:102DB0009A4616000443D9E6002A00D081E03B0081
:102DC00003431DD18022002512030BE7C0087B07B7
:102DD0005D460343FA08D3E6C41AA04280414B463D
:102DE0004042FF1A3B1A9A465D4697E51C1A4A462E
:102DF000A3429B41D71B5B42FB1A9A46012685E5FD
:102E0000C0087B075D460343FA08E7E64A46DB084D
:102E1000520713434A46D208B5E6C0087B0703436E
:102E2000FA08DBE6494619430B00591E8B411C008A
:102E300053E64D46203CE540202905D04024641A45
:102E40004946A1400B43984643465C1EA3412B4391
:102E500076E7002AE1D03A00DB08024300D1B8E669
:102E60004A465207802413434A462403D20822428A
:102E700007D0FE08264204D15D463200C3087F0712
:102E80003B43590FDB004907DB080B43A6E6C41A96
:102E9000A04280414B464042FF1A3B1A9A465D468B
:102EA000012633E53B00034300D115E7C0087B074B
:102EB0005D460343FA0866E6C0087B070343FA0849
:102EC0005EE63A00DB08024300D182E64A4652073A
:102ED000802413434A462403D208224207D0FE0826
:102EE000264204D15D463200C3087F073B43590F99
:102EF000DB00DB0849070B4370E6C0087B07034390
:102F0000FA0840E64C462039CC406146202906D0DC
:102F100066464021891B4E468E40334398464346C1
:102F2000591E8B411C43D8E51C18844280414F44F4
:102F3000BA4640428244D9E65346234300D1CBE609
:102F400014E6C046FF070000FFFF7FFFFE070000FA
:102F50000023014A1C0029E5FF07000070B50500A9
:102F60000C481C0316005B000A034900120B490DB4
:102F7000240B5B0D814208D0064A0020934203D106
:102F800020003043431E984170BD01202A43FBD1ED
:102F9000F2E7C046FF0700000A0030B5134C5300AB
:102FA00009030500090B00205B0DD20FA34204DDCD
:102FB0000F48834202DD0F4BD01830BD8020400304
:102FC00001430D48C01A1F2808DD0C48C31AD94018
:102FD0000B005842002AF0D11800EEE7084CC5401B
:102FE000A446634499400B002B43F2E7FE03000024
:102FF0001D040000FFFFFF7F3304000013040000E6
:10300000EDFBFFFF70B5002816D0C317C5185D4053
:10301000C40F280000F01AF9114B1B1A0A2816DCFD
:1030200002002E00153296400B22121AD5405B0585
:103030002D032D0B5B0D03E000240023002500264B
:103040001B052B43E40723433000190070BD0B38E8
:1030500085405B052D0300262D0B5B0DF0E7C04678
:103060001E04000010B5041E10D000F0EFF80F4B46
:103070001B1A0A2811DC0B222100121AD14015302C
:103080000A035B058440120B5B0D01E00023002264
:103090001B0513432000190010BD22000B3882408D
:1030A0005B0512030024120B5B0DF1E71E04000008
:1030B00070B542024300C40FFE201B0E591C550A76
:1030C00008420CD0E02189008C466D07120B634446
:1030D0001B051343E40723432800190070BD002B90
:1030E00014D1002D1BD0280000F0B0F80A281CDCF9
:1030F0000B232A001B1ADA40030015339D400E4BA8
:1031000012031B1A5B05120B5B0DE1E7002D09D0C2
:10311000130B802212031A436D07084BD8E70023D4
:103120000022D5E70022054BD2E703002A000B3B23
:103130009A400025E3E7C04689030000FF0700002E
:103140000200F0B54B000D03400F5B0DCC0F6D0A74
:103150003A490543581CD70008420AD03849591843
:10316000FE2916DDFF200022C0051043E40720439E
:10317000F0BD002B06D13D4326D005229201520A14
:10318000D8B2F1E72F43EDD08022D203FF202A43AB
:10319000EAE700291BDD9201501E8241ED007F0FFE
:1031A0002A433A43530747D00F231340042B00D040
:1031B00004328023DB0413403ED0481CFE29D1D0CA
:1031C0009201520AC0B2CFE700200022CCE70A00E9
:1031D00017322FDB802636042E431E256D1A1F2D35
:1031E00011DD02225242521A3100D140202D04D06A
:1031F000144A944663449E4037433A00531E9A4112
:103200000A430021CEE7104A3800944663449840B0
:103210003A00411E88419E40EA403043024300216B
:103220005307C1D180211300C90401200B400A4279
:10323000C6D1A3E70023A0E70B009FE7FE0700002D
:1032400080FCFFFFA2FCFFFF82FCFFFF1C2101238B
:103250001B04984201D3000C10391B0A984201D379
:10326000000A08391B09984201D30009043902A257
:10327000105C40187047C0460403020201010101BE
:10328000000000000000000080B500AFBFF34F8FCA
:10329000C046044B044ADA60BFF34F8FC046C046B5
:1032A000FDE7C04600ED00E00400FA0580B582B0FD
:1032B00000AF80235A01A023DB051100180007F09E
:1032C0008BF903007B607B681800BD4602B080BDAF
:1032D00080B582B000AF80231B01064A19001000A0
:1032E00007F07AF903007B607B681800BD4602B0E6
:1032F00080BDC0460004005080B582B000AF80237E
:103300005B01064A1900100007F066F903007B60B4
:103310007B681800BD4602B080BDC0460004005066
:1033200080B582B000AF80239B01064A19001000CF
:1033300007F052F903007B607B681800BD4602B0BD
:1033400080BDC0460004005080B582B000AF80232D
:10335000DB01064A1900100007F03EF903007B600C
:103360007B681800BD4602B080BDC0460004005016
:1033700080B582B000AF80231B020D4A19001000F7
:1033800007F02AF903003B60FB1D4F221A703B68CF
:10339000012B03D1FB1D4F221A7002E0FB1D4322BB
:1033A0001A70FB1D1B781800BD4602B080BDC046D8
:1033B0000004005080B582B000AF80235A00A023E3
:1033C000DB051100180007F007F903007B607B683C
:1033D0001800BD4602B080BD80B500AF0449054B62
:1033E0000422180005F0E0FFC046BD4680BDC0467F
:1033F000DC0900204805002080B582B000AF0B4BEF
:103400001B681800FDF7C4FF031C7B60084B1B689A
:103410007968181CFDF75CFC031C0649181CFDF7B5
:1034200057FC031C181CBD4602B080BDDC090020FF
:10343000080000200000304180B500AF0A4B5B68F7
:103440001800FDF7A5FF021C084B1B68191C101C77
:10345000FDF73EFC031C0649181CFDF739FC031C54
:10346000181CBD4680BDC046DC09002008000020B5
:103470000000304180B500AF0A4B9B681800FDF793
:1034800087FF021C084B1B68191C101CFDF720FC51
:10349000031C8321C905181CFDF71AFC031C181C0A
:1034A000BD4680BDDC0900200800002080B500AFCB
:1034B0000A4BDB681800FDF76BFF021C084B1B680A
:1034C000191C101CFDF704FC031C191C181CFDF72B
:1034D00095F8031C181CBD4680BDC046DC090020C1
:1034E0000800002080B582B000AF78607B68012BB7
:1034F00006D10A4B01222021180007F08AF808E0C3
:103500007B68002B05D1054B00222021180007F015
:1035100080F8C046BD4602B080BDC04600040050E1
:1035200080B582B000AF78607B68012B06D10A4B72
:1035300001220421180007F06CF808E07B68002BDA
:1035400005D1054B00220421180007F062F8C0469F
:10355000BD4602B080BDC046000C005080B582B0B0
:1035600000AF78607B68012B06D10A4B0122022153
:10357000180007F04EF808E07B68002B05D1054BDA
:1035800000220221180007F044F8C046BD4602B0F0
:1035900080BDC046000C005080B582B000AF78609E
:1035A0007B68012B06D10A4B01220121180007F08C
:1035B00030F808E07B68002B05D1054B0022012183
:1035C000180007F026F8C046BD4602B080BDC046D0
:1035D000000C005080B582B000AF78607B68012B92
:1035E00008D180231902A023DB050122180007F06F
:1035F00010F80AE07B68002B07D180231902A02372
:10360000DB050022180007F004F8C046BD4602B0F2
:1036100080BD000080B582B000AF78607B68012B70
:1036200006D10A4B01228021180006F0F2FF08E0C3
:103630007B68002B05D1054B00228021180006F085
:10364000E8FFC046BD4602B080BDC046000800503D
:1036500080B582B000AF78607B68012B06D10A4B41
:1036600001224021180006F0D4FF08E07B68002BFF
:1036700005D1054B00224021180006F0CAFFC046C4
:10368000BD4602B080BDC0460008005080B500AF06
:103690000120FFF7DDFF0020FFF7BCFFAF239B00F9
:1036A000180005F057FB0120FFF7B4FFFA235B0079
:1036B000180005F04FFB0020FFF7ACFFAF239B0085
:1036C000180005F047FB0020FFF7C2FFAF239B0067
:1036D000180005F03FFB0120FFF79CFFFA235B0079
:1036E000180005F037FB0120FFF7B2FFC82005F0F6
:1036F00031FB0020FFF78EFFC046BD4680BD0000B5
:1037000080B582B000AF7860254A264B00211800B2
:103710000FF084FC244B1B680C221A622349244BB3
:103720000122180009F0A0FE224B6422002118009B
:103730000FF074FC7B681800FCF7E6FC03005A22CB
:103740009A429B415B42DAB21B4B1B68013B5942D8
:103750004B41DBB21340DBB2002B03D0174B1800F8
:1037600004F044FD7A68134B110018000FF00BFEB3
:10377000104B1800FCF7C8FC03001A000D4BD218C0
:103780000F4B1000190003231A000FF00FFE094B16
:10379000180004F069FDC046BD4602B080BDC046B9
:1037A000DE030000D40D0020A0070020B01300208D
:1037B0000C070020741600200C0000206C6B010820
:1037C0008C6B010880B582B000AF7860254B1B6818
:1037D0000C221A622449254B0122180009F044FEEC
:1037E000234A244B002118000FF018FC224B6422BE
:1037F000002118000FF012FC7B681800FCF784FC15
:1038000003005A229A429B415B42DAB21B4B1B686F
:10381000013B59424B41DBB21340DBB2002B03D0DA
:10382000174B180004F0E2FC7A68134B11001800E3
:103830000FF0A9FD104B1800FCF766FC03001A00FE
:103840000D4BD2180F4B1000190003231A000FF074
:10385000ADFD094B180004F007FDC046BD4602B09F
:1038600080BDC046A0070020B01300200C07002038
:10387000DE030000D40D0020741600200C00002090
:103880006C6B01088C6B010890B585B000AF786057
:10389000124B1B680C221A621149124B01221800AC
:1038A00009F0E2FD104A114B002118000FF0B6FBA1
:1038B0000C243B190322002118000FF0AFFB3B1929
:1038C0001A221A707B68180004F0E8FC3B191800F3
:1038D00004F0CAFCC046BD4605B090BDA00700205C
:1038E000B01300200C070020DE030000D40D0020E0
:1038F00080B582B000AF104B1B680C221A620F49D2
:103900000F4B0122180009F0AFFD0E4A0E4B0021AB
:1039100018000FF083FB3B1D0322002118000FF05D
:103920007DFB3B1D1A221A703B1D180004F09CFC05
:10393000C046BD4602B080BDA0070020B0130020E5
:103940000C070020DE030000D40D002090B587B0E6
:1039500000AF78603960FA235A001C4B0021180030
:103960000FF05CFB1623FB1800221A8000233B613A
:1039700005F0E6F90300FB601AE016243B191A88EB
:10398000124BD11801235B421148012209F08AFC35
:103990003B191A883B1901321A807A680B4B1100C7
:1039A00018000FF0EBFB031E02D001233B6107E080
:1039B00005F0C6F90200FB68D21A3B689A42DCD9CE
:1039C000C0461800BD4607B090BDC0461814002080
:1039D0000C07002090B589B000AFF860B9607A603C
:1039E0003B60604B6422002118000FF017FBFA23A4
:1039F0009A005D4B002118000FF010FB05F0A0F9B4
:103A00000300FB618DE0462005F0A4F9574B1B78BD
:103A1000002B00D175E0554A534B110018000FF0F0
:103A2000B2FCBA6B504B110018000FF0A7FB03005B
:103A3000BB61BB69002B4BD0BB681B78002B06D148
:103A4000BA69484B110018000FF09DFC72E0BA688B
:103A5000454B110018000FF091FB03007B613B68A0
:103A60001B78002B06D17A693E4B110018000FF02D
:103A70008AFC5FE03A683C4B110018000FF07EFBB7
:103A8000031E3AD07B687A69D3181800FCF73CFB18
:103A900004003B681800FCF737FB03009C422CD95C
:103AA0007B687A69D3183968002218000FF061FB2F
:103AB00003003B613B691800FCF726FB0300572B12
:103AC0001BD83A69274B110018000FF05CFC31E05D
:103AD000274A254B110018000FF050FB031E07D199
:103AE000244A214B110018000FF048FB031E04D09C
:103AF000214B180004F07AFB1CE0204B00221A60D6
:103B00000FE01E4B1B685A1C1C4B1A601B4B1B689A
:103B1000092B06DDFFF7BAFD03F02AFC174B002244
:103B20001A6005F00DF90200FB69D21A7B6B9A420C
:103B300000D868E70B4B1B78002B0BD1104B1800FB
:103B400004F054FB084B180004F050FB3B6B1800CA
:103B500004F04CFB642005F0FDF8024B1800BD4654
:103B600009B090BD30170020EC090020D40D0020D2
:103B7000146C01081C6C0108246C01082C1700202F
:103B8000306C010880B584B004AF2C4B00221A6061
:103B90002B4B1800FFF7B4FD642005F0DBF8294B30
:103BA0001B68294829492A4A02920193294B00930C
:103BB000030005220020FFF70DFF0300002118007D
:103BC0000EF09EF902000B0010001900FFF7B8FA82
:103BD000021C1A4B1A60194B1B681F49181CFCF772
:103BE00089FC031E0AD00120FFF7B8FC1B4B012201
:103BF0001A601B4B180004F0F9FA16E0194B180074
:103C000004F0F4FA184B180004F0F0FA174B0022F5
:103C10001A60124B00221A6003F0AAFB144B180022
:103C200004F0E4FA0020FFF799FC044B1B68181C11
:103C3000FDF73CFB03001800BD4680BD981700202F
:103C4000386C010814000020406C0108446C010825
:103C50004C6C0108506C01080000A04014180020B2
:103C6000706C01087C6C0108846C010870160020DF
:103C7000946C010880B584B004AF0A4B1800FFF7BC
:103C80003FFD094A09490A4B02930A4B01930A4B2B
:103C9000009313000C220020FFF79CFE0300180085
:103CA000BD4680BDA46C0108B06C0108B46C01086D
:103CB000BC6C010888130000C06C010880B584B09A
:103CC00004AF0B4B1800FFF71BFD0A4B1B680A489B
:103CD0000A490B4A029201930A4B009303000822FF
:103CE0000020FFF777FE03001800BD4680BDC046E8
:103CF000406D010814000020B06C01084C6D0108F3
:103D0000BC6C0108546D010890B587B004AF012365
:103D10007B60544B1800FCF7F7F90300042B3BD9E8
:103D2000514B6422002118000FF078F94E4B4F4A96
:103D300013CA13C303CA03C312781A70494A4A4B01
:103D4000110018000FF072F9494B00221A601CE0B4
:103D50007B68013B7B60444B1800FFF7D1FC454B6F
:103D60001B6845484449454A02920193444B0093DD
:103D7000030000220020FFF72DFE03001800FCF7CF
:103D8000C3F903001A003A4B1A607B68002B03DD6D
:103D9000374B1B68002BDBDD3A4B180004F0DAFFD1
:103DA0000023042B3DD9304B6422002118000FF072
:103DB00035F92D4B344A13CA13C303CA03C312780F
:103DC0001A70324A284B110018000FF02FF9012306
:103DD0007B60274B00221A601CE07B68013B7B6004
:103DE000214B1800FFF78CFC224B1B68224822490C
:103DF000224A02920193264B0093030000220020E6
:103E0000FFF7E8FD03001800FCF77EF903001A0035
:103E1000174B1A607B68002B03DD154B1B68002BCA
:103E2000DBDD134B1B68002B07D01A4B180004F086
:103E3000DDF9194B01221A6002E0174B00221A60CB
:103E4000104B180004F086FF144B180000F092F895
:103E5000FA235B00180004F07DFFC046BD4603B0A6
:103E600090BDC0461C000020B41300203070010833
:103E70007016002010000020BC6D01084870010879
:103E800054700108DC0500007C7001081018002047
:103E900094700108BC700108141800200C16002052
:103EA00080B586B004AF01237B60294B00221A60E5
:103EB00040E07B68013B7B60264B1800FCF724F94F
:103EC0000300042B19D9244B1800FFF719FC234BCE
:103ED0001B6823482249234A02920193224B0093F4
:103EE000030000220520FFF775FD03001800FCF712
:103EF0000BF903001A00164B1A600023042B19D982
:103F00001A4B1800FFF7FCFB144B1B6814481449AC
:103F1000144A02920193144B0093030000220520DF
:103F2000FFF758FD03001800FCF7EEF803001A0035
:103F3000074B1A607B68002B03DD054B1B68002BC9
:103F4000B7DD0B4B00221A60C046BD4602B080BDF3
:103F5000701600201C000020CC7001081400002006
:103F6000BC6D0108DC700108E87001080C710108E3
:103F70001418002080B584B000AF78600123FB6086
:103F80006E4B1B68002B00DCCEE06D4B1800FCF77D
:103F9000BBF80300042B61D90123FB60674B0022AF
:103FA0001A6010E0FB68013BFB60664B1800FFF7EE
:103FB000A7FBFA239A00644B11001800FFF7C6FC18
:103FC00002005E4B1A60FB68002B03DD5B4B1B6835
:103FD000002BE7DD594B1B68002B31DD0123FB6013
:103FE000564B00221A6010E0FB68013BFB607B68C7
:103FF0001800FFF749FCFA239A00544B11001800EF
:10400000FFF7A4FC02004D4B1A60FB68002B03DD98
:104010004A4B1B68002BE7DD484B1B68002B06DC76
:104020004B4B180004F0E2F8FFF762FC16E0494B36
:10403000180004F0DBF87B68180004F0D7F80DE0F6
:10404000454B1800FFF720FC444B180004F0CEF855
:104050007B68180004F0CAF8FFF74AFC0023042B21
:1040600068D90123FB60354B00221A6010E0FB6821
:10407000013BFB603A4B1800FFF742FBFA239A0022
:10408000314B11001800FFF761FC02002B4B1A6046
:10409000FB68002B03DD294B1B68002BE7DD274B5A
:1040A0001B68002B31DD0123FB60244B00221A60CA
:1040B00010E0FB68013BFB607B681800FFF7E4FB46
:1040C000FA239A00214B11001800FFF73FFC020071
:1040D0001A4B1A60FB68002B03DD184B1B68002B82
:1040E000E7DD164B1B68002B06DC1E4B180004F0A6
:1040F0007DF8FFF7FDFB1DE0164B180004F076F885
:104100007B68180004F072F814E0134B1800FFF7F6
:10411000BBFB154B180004F069F87B68180004F02D
:1041200065F8FFF7E5FB05E0104B180004F05EF8BA
:1041300000F080FAC046BD4604B080BD7016002075
:104140001C0000201C7101082C710108307101084D
:1041500038710108607101086C71010874710108FF
:104160009C710108AC710108D4710108FC7101084F
:1041700090B597B010AFCB4B0422002118000EF081
:104180004DFFC94B0422002118000EF047FFC74B1A
:104190000422002118000EF041FFC54B042200212B
:1041A00018000EF03BFFC34B0422002118000EF054
:1041B00035FFC14B0522002118000EF02FFFBF4B29
:1041C0000522002118000EF029FFBD4B0622002118
:1041D00018000EF023FFBB4B0622002118000EF042
:1041E0001DFFB94B0622002118000EF017FFB74B38
:1041F0000622002118000EF011FFB54B0622002107
:1042000018000EF00BFFB34B0622002118000EF031
:1042100005FFB14B0622002118000EF0FFFEAF4B48
:104220000622002118000EF0F9FEAD4B06220021F7
:1042300018000EF0F3FEAB4B0622002118000EF022
:10424000EDFE9D4B78221A809C4B78221A809C4B65
:1042500078221A80A34B78221A80924B78221A80F7
:10426000914B78221A809E4B78221A80954B7822A7
:104270001A808E4B78221A80984B78221A80924BA3
:1042800078221A808A4B78221A80934B78221A80DF
:104290008E4B78221A80874B78221A808D4B782299
:1042A0001A808B4B78221A80C8239A008E4B0021EB
:1042B00018000EF0B3FE8D4B1800FFF783FAFA23B7
:1042C0005B00180004F046FD894A874B1100180076
:1042D0000EF054FF03007B607B685A1E9341DCB2F2
:1042E0007B681800FBF710FF030001229A429B41F4
:1042F0005B42DBB22340DBB2002B42D000237B6168
:1043000033E07B69012B06D1FA686B4B1100180072
:104310000FF039F826E07B69022B06D1FA68674B6B
:10432000110018000FF02FF81CE07B69032B06D159
:10433000FA68634B110018000FF025F812E07B6952
:10434000042B06D1FA68674B110018000FF01BF818
:1043500008E07B69072B05D1FA68524B1100180061
:104360000FF011F87B6901337B617B683A1D61496D
:1043700018000EF0FEFE0300FB60FB68002BC0D1AE
:1043800003E05D4B180003F031FF5C4A564B11000F
:1043900018000EF0F3FE03003B603B685A1E934189
:1043A000DCB23B681800FBF7AFFE030001229A4223
:1043B0009B415B42DBB22340DBB2002B00D1B7E074
:1043C00000233B61A8E03B69032B06D1BA68364B5A
:1043D000110018000EF0D7FF9BE03B690A2B06D1B5
:1043E000BA683F4B110018000EF0CDFF91E03B6919
:1043F000092B06D1BA68334B110018000EF0C3FF29
:1044000087E03B690D2B06D1BA68284B11001800D4
:104410000EF0B9FF7DE03B69142B06D1BA682F4B33
:10442000110018000EF0AFFF73E03B69132B06D1AB
:10443000BA68254B110018000EF0A5FF69E03B6932
:10444000172B06D1BA681A4B110018000EF09BFF0B
:104450005FE03B691E2B06D1BA681F4B11001800A4
:104460000EF091FF55E03B691D2B06D1BA68174B42
:10447000110018000EF087FF4BE03B69212B06D19D
:10448000BA680C4B110018000EF07DFF41E03B694B
:10449000282B35D1BA680F4B110018000EF073FFAE
:1044A00037E0C0469C170020C0170020D41700201A
:1044B000E8170020FC170020A0170020A8170020F4
:1044C000B0170020C4170020D8170020EC170020D8
:1044D0000018002008180020F4170020E017002022
:1044E000CC170020B8170020D40D00202C72010832
:1044F00038720108406C0108447201085C720108BE
:104500003B69272B05D1BA68244B110018000EF027
:104510003AFF3B6901333B613B683A002049180090
:104520000EF027FE0300BB60BB68002B00D04AE7FB
:104530001C4B5022002118000EF070FD1A4B1B6816
:10454000181CFCF7B3FE0400184A19491548194B0A
:104550000E93124B0D93184B0C93184B0B93184B57
:104560000A93184B0993184B0893184B0793184B51
:104570000693184B0593184B0493184B0393184B51
:104580000293184B0193184B0093130022000EF076
:10459000D9FC044B1800BD4607B090BD00180020A0
:1045A000406C0108DC16002098170020A01700209E
:1045B00068720108FC17002008180020E817002086
:1045C000EC170020F4170020D4170020D817002083
:1045D000E0170020C0170020C4170020CC170020CF
:1045E000B8170020B0170020A817002080B584B0AD
:1045F00004AF0B4B1800FFF783F80A4B1B680A48FF
:1046000009490A4A02920193094B009303000022D0
:104610000020FFF7DFF903001800BD4680BDC0464B
:10462000AC72010814000020BC6D0108BC6C0108CC
:10463000B872010880B500AFFFF732FCFFF764FBEA
:10464000C046BD4680BD000080B584B000AF786034
:1046500001F0F6FF0300FB60174B1B68002B10DD19
:10466000164B180003F0C2FD154B180003F0BEFDF9
:104670007B681800FFF77EFC124B180003F0B6FDB4
:104680000FE0114B1B68012B03D1104B180003F0F6
:10469000ADFD0F4B180003F0A9FD094B180003F006
:1046A000A5FD0C4AFB681100180001F0D1FFC046BF
:1046B000BD4604B080BDC04614180020D872010861
:1046C00010180020EC7201080C000020FC72010898
:1046D000207301083C73010890B589B004AF78607D
:1046E0000523FB60394B00221A6064E0FA23DB00EB
:1046F000180004F02FFBFB68013BFB60344B642285
:10470000002118000EF08AFC314B324A13CA13C341
:104710001188198092789A707A682D4B11001800D0
:104720000EF084FC2A4B1800FBF7EEFC03001A0085
:10473000274BD218284B100019000A231A000EF03C
:1047400035FE234B1800FEF7DBFF244B1B68244883
:104750002349244A02920193234B00930300002231
:104760000020FFF737F903001800FBF7CDFC03002A
:104770001A00164B1A60154B1B68002B1BDD1B4BD8
:104780001800FEF7BDFF154B1B6815481449154A64
:1047900002920193164B0093030000220020FFF7C2
:1047A00019F903001800FBF7AFFC03001A00074BD0
:1047B0001A60064B1B68FB68002B03DD034B1B686C
:1047C000002B93DDC046BD4605B090BD701600209D
:1047D000B413002090730108A07301081400002096
:1047E000BC6D0108BC6C0108AC730108CC730108F6
:1047F000DC73010880B586B004AF8C4B180003F061
:10480000F5FC0A233B6000237B60D5E0884B180051
:1048100004F0A0FA3B68013B3B60864B1800FEF7B2
:104820006FFF854B1B6885488449854A0292019336
:10483000844B0093030000220020FFF7CBF8030015
:104840001800FBF761FC03007B607B68002B00DC39
:10485000B2E07D4B180003F0C9FC00237B607B4B6A
:104860001800FEF74DFF744B1B6874487349744A77
:1048700002920193764B0093030000220020FFF781
:10488000A9F803001800FBF73FFC03007B60684BAE
:10489000180004F05FFA7B68002B00DC8CE06D4BA5
:1048A000180003F0A3FC00237B606B4B1800FEF79D
:1048B00027FF614B1B6861486049614A029201937E
:1048C000664B0093030000220020FFF783F80300EB
:1048D0001800FBF719FC03007B607B68002B6BDD85
:1048E0005F4B1B68002B21D15E4B180003F07EFC50
:1048F00000237B605C4B1800FEF702FF4E4B1B68E9
:104900004E484E494E4A02920193584B0093030081
:1049100000220020FFF75EF803001800FBF7F4FB0D
:1049200003007B604E4B01221A6024E04C4B1B6855
:10493000012B20D14E4B180003F058FC00237B6064
:104940004C4B1800FEF7DCFE3B4B1B683B483B49D9
:104950003B4A02920193484B00930300002200203F
:10496000FFF738F803001800FBF7CEFB03007B606D
:104970003B4B00221A607B68002B1DDD3F4B18006B
:1049800003F034FC00237B603D4B1800FEF7B8FEBB
:10499000294B1B6829482949294A02920193394B1E
:1049A0000093030000220020FFF714F80300180012
:1049B000FBF7AAFB03007B603B68002B03DD7B68F1
:1049C000002B00DC22E7304B180003F00FFC022321
:1049D0003B6000237B601AE03B68013B3B602B4B54
:1049E0001800FEF78DFE2A4B1B6814481349294A0C
:1049F00002920193284B0093030000220F20FEF740
:104A0000E9FF03001800FBF77FFB03007B603B68B6
:104A1000002B02DD7B68002BDEDD204B180004F04C
:104A200099F9C046BD4602B080BDC0460074010879
:104A3000B80B00003474010810000020BC6D0108A0
:104A4000BC6C0108407401085C740108947401088E
:104A5000BC740108DC7401081C7501083C75010870
:104A60001800002060750108A4750108D0750108C0
:104A7000F075010834760108607601088076010837
:104A8000B4760108DC760108F87601082C77010875
:104A900014000020387701084C77010870170000D7
:104AA00080B586B004AFD04B180004F053F9002352
:104AB0007B600A233B6002233B6000237B601AE09B
:104AC0003B68013B3B60C94B1800FEF719FEC84B21
:104AD0001B68C848C749C84A02920193C74B009354
:104AE000030000220F20FEF775FF03001800FBF7FC
:104AF0000BFB03007B603B68002B02DD7B68002B17
:104B0000DEDD02233B6000237B601AE03B68013B53
:104B10003B60BB4B1800FEF7F3FDB54B1B68B54877
:104B2000B449B54A02920193B64B009303000022A8
:104B30000F20FEF74FFF03001800FBF7E5FA030014
:104B40007B603B68002B02DD7B68002BDEDDFA23F7
:104B5000DB00180004F0FEF8FFF74CFE02233B6078
:104B600000237B601AE03B68013B3B609F4B1800D1
:104B7000FEF7C6FD9E4B1B689E489E499E4A0292C8
:104B80000193A14B0093030000220A20FEF722FFAD
:104B900003001800FBF7B8FA03007B603B68002BAA
:104BA00002DD7B68002BDEDD02233B6000237B609F
:104BB0001AE03B68013B3B60914B1800FEF7A0FDFB
:104BC0008B4B1B688B488B498B4A029201938D4B10
:104BD0000093030000220A20FEF7FCFE03001800E9
:104BE000FBF792FA03007B603B68002B02DD7B68D9
:104BF000002BDEDD0A233B6000237B60E8E03B689E
:104C0000013B3B60814B1800FEF77AFD784B1B6837
:104C100078487849784A029201937D4B00930300CB
:104C200000220520FEF7D6FE03001800FBF76CFA01
:104C300003007B60FA239B00180004F08BF87B686C
:104C4000002B00DCC4E0734B1800FEF759FD684BE5
:104C50001B6868486749684A029201936E4B00934B
:104C6000030000220020FEF7B5FE03001800FBF74A
:104C70004BFA03007B607B68002B00DCA8E0674BED
:104C80001800FEF73DFD5A4B1B685A4859495A4ACD
:104C900002920193624B0093030000220020FEF772
:104CA00099FE03001800FBF72FFA03007B607B6876
:104CB000002B00DC8CE05B4B1800FEF721FD4C4B19
:104CC0001B684C484B494C4A02920193564B009347
:104CD000030000220020FEF77DFE03001800FBF712
:104CE00013FA03007B607B68002B71DD4F4B1800CB
:104CF000FEF706FD3E4B1B683E483E493E4A029287
:104D000001934B4B0093030000220020FEF762FE4C
:104D100003001800FBF7F8F903007B607B68002BA9
:104D200056DD444B180004F015F87B68002B4FDD6E
:104D3000414B1800FEF7E4FC2D4B1B682D482D4914
:104D40002D4A029201933D4B009303000022002064
:104D5000FEF740FE03001800FBF7D6F903007B6066
:104D60007B68002B34DDFA239B00180003F0F2FF70
:104D7000334B1B68002B08D1324B180003F036FA76
:104D8000314B1800FFF7A8FC0BE02D4B1B68012BE3
:104D900007D12E4B180003F029FA2D4B1800FFF70E
:104DA0009BFCFA239B00180003F0D4FF294B18004A
:104DB00003F01CFAFA239B00180003F0CBFFFFF767
:104DC00015FCFA239B00180003F0C4FFFFF70EFC4C
:104DD0003B68002B03DD7B68002B00DC0FE7C0463F
:104DE000BD4602B080BDC046881300006877010848
:104DF00014000020BC6D0108BC6C0108707701082C
:104E0000106C01088477010898770108AC770108D5
:104E1000B8770108E0770108EC77010814780108F9
:104E2000207801083C780108487801087878010862
:104E300088780108B80B0000B4780108C47801082C
:104E400018000020EC78010828790108347901085D
:104E50006C7901087479010880B582B000AF020056
:104E6000FB1D1A70FA239B00F91D0448012207F06C
:104E700091F9C046BD4602B080BDC0465C06002028
:104E800080B500AFA023DB0500221021180005F03B
:104E9000C0FB0620FFF7E0FFA023DB050122102165
:104EA000180005F0B6FBC046BD4680BD80B500AF1A
:104EB000A023DB0500221021180005F0AAFB042026
:104EC000FFF7CAFFA023DB0501221021180005F01F
:104ED000A0FBC046BD4680BD80B582B000AF786003
:104EE000FA239B0079680448032207F053F9C0466F
:104EF000BD4602B080BDC0465C06002090B585B0BE
:104F000002AF78600A00BB1C1A80BB1C1C887A6840
:104F100079680548FA239B000093230007F092FA72
:104F2000C046BD4603B090BD5C060020F0B5A1B000
:104F300004AFA023DB0500221021180005F069FB57
:104F40009020FFF789FF64243B1900221A703B1957
:104F500000225A703B1900229A703B190022DA7025
:104F60003B1900221A713B1900225A713B19180093
:104F7000FFF7B2FF3B1902211800FFF7BFFFA02384
:104F8000DB0501221021180005F043FB3B191B78BB
:104F90001A003B195B784C4938000DF0D3FF3B00F9
:104FA000180003F023F9A023DB05002210211800CC
:104FB00005F02FFB9F20FFF74FFF25007B190022F4
:104FC0001A707B1900225A707B1900229A707B1983
:104FD0000022DA707B1900221A717B1900225A71A3
:104FE0007B1903211800FFF789FFA023DB050122AD
:104FF0001021180005F00DFB7B191B781A007B1996
:105000005B781C007B199B783049380000932300A3
:105010000DF098FF3B00180003F0E8F8A023DB0533
:1050200000221021180005F0F4FA4B20FFF714FFBE
:1050300029007B1800221A707B1800225A707B18F6
:1050400000229A707B180022DA707B1800221A71F5
:105050007B1800225A71FA239B000C0039191C4856
:10506000042207F097F83B1906211800FFF746FFC6
:10507000A023DB0501221021180005F0CAFA210047
:105080007B181B781E007B185B789C467B189B78EE
:105090001A007B18DB781C007B181B791D007B181D
:1050A0005B790C49380003930295019400926346A2
:1050B00032000DF047FF3B00180003F097F8C046A0
:1050C000BD461DB0F0BDC046B0790108D0790108D9
:1050D0005C060020EC79010880B582B000AF7860F2
:1050E000FFF7CEFEA023DB0500221021180005F0FB
:1050F00090FA2020FFF7B0FE7B681800FFF7ECFE67
:10510000A023DB0501221021180005F082FAFFF729
:10511000CDFE03F093F8C046BD4602B080BD80B519
:1051200000AFFFF7ADFEA023DB0500221021180021
:1051300005F06FFAC720FFF78FFEA023DB050122E1
:105140001021180005F065FAFFF7B0FEC046BD4615
:1051500080BD80B584B000AFF860B960BB1D1A8017
:10516000FFF78EFEA023DB0500221021180005F0BA
:1051700050FA0220FFF770FEFB681800FFF7ACFE44
:10518000BB1D1A88BB6811001800FFF7B7FEA023EB
:10519000DB0501221021180005F03BFAFFF786FE1F
:1051A00003F04CF8C046BD4604B080BD80B584B065
:1051B00000AFF860B960BB1D1A80A023DB05002298
:1051C0001021180005F025FA0320FFF745FEFB68C3
:1051D0001800FFF781FEBB1D1A88BB68110018007C
:1051E000FFF78CFEA023DB0501221021180005F03B
:1051F00010FAC046BD4604B080BD000080B584B042
:1052000000AF78601A4B1B781B02194A52789B1822
:105210001B02174A92789B187A68D318FB60FB68C8
:10522000002B02DA134A944663441B14DAB2104B83
:105230001A70FB68104A134003D5013B0F4A134311
:105240000133002B00DAFF331B12DAB2084B5A701D
:10525000FB680B4A134003D5013B0A4A1343013351
:10526000DAB2034B9A70C046BD4604B080BDC0465A
:1052700030000020FFFF0000FFFF00800000FFFF64
:10528000FF00008000FFFFFF80B582B000AF7860B4
:105290000A00BB1C1A80BB1C1B88FE2B0BD8BB1C36
:1052A0001A887968064B1800FFF753FF80235B00CC
:1052B0001800FFF7A3FFC046BD4602B080BDC04640
:1052C0003000002080B582B000AF094B1B781B0274
:1052D000074A52789B181B027B607B68054A934201
:1052E00001DC012300E000231800BD4602B080BDB0
:1052F00030000020FF00030090B5C5B000AF802350
:105300005A01644B002118000DF088FE80235A01D9
:10531000614B002118000DF081FEFFF7D3FF030061
:10532000012B05D15D4B180002F060FF0023ACE0BB
:1053300001235B421800FFF761FF594B5B781A00AD
:105340000F2313407A1DFF3213607B1DFF331B6850
:1053500001337A1DFF321360514B5B781B09DAB2BF
:105360004F4B5A704E4B5B781B01DAB24C4B5A7064
:105370004B4B00229A707B1DFF331B689BB21B02B4
:105380009AB24449464B1800FFF710FF01238622CA
:105390005200BA1813606AE080235A003B1D0021B6
:1053A00018000DF03BFE002384225200BA1813604F
:1053B00033E07B1DFF331A6886235B00FB181B68F4
:1053C000D31A1A02842040003B181B68D318314AB4
:1053D000D15C344B882464001B19DA193B181B6814
:1053E000D3180A1C1A702F4B1B19DA1901007B18ED
:1053F0001B68D3181B78FF2B08D12A4B1B19DA190D
:105400007B181B68D31800221A700CE0842252000B
:10541000BB181B680133BA18136084235B00FB18A8
:105420001B68FF2BC5DD1F4B882252009B18DB1920
:10543000FF22002199543A1D174B110018000DF05E
:10544000F5FD154B1800FAF75FFE03001A00124B2A
:10545000D218154B1000190003231A000DF0A6FFF7
:1054600086225200BB181B680133BA1813608623CA
:105470005B00FB181A687B1DFF331B689A428BDDAB
:10548000074B1800FFF728FE01231800BD4645B062
:1054900090BDC0461819002018290020407A010844
:1054A00030000020F4FEFFFF8C6B010880B5C2B015
:1054B00000AFFFF707FF0300012B42D100237A1D45
:1054C000FF321360214B180002F090FE00237A1D7A
:1054D000FF3213601DE07B1DFF331B687A1DFF3216
:1054E00012681B49381D0DF02DFD3B1D1800FAF701
:1054F0000BFE03009BB201339AB23B1D1100180052
:10550000FFF7C2FE7B1DFF331B6801337A1DFF329C
:1055100013607B1DFF331B68042BDCDD00237A1D29
:10552000FF32136008E0FFF7E7FE7B1DFF331B68C7
:1055300001337A1DFF3213607B1DFF331B68012B83
:10554000F1DDC046BD4642B080BDC046507A01087C
:105550006C7A010880B500AFFFF7E1FD034B18003E
:1055600003F0F8FBC046BD4680BDC0463075000064
:10557000B0B5C94CA54400AFF860B9607A603B6033
:10558000C64BC824A4001B19DB19C54A1188198011
:1055900092789A7080235A0086239B00F91814256C
:1055A0007B191800FFF702FEBC4B1B19DB19012207
:1055B0005A7080235A008C235B00F9187B1918005D
:1055C000FFF7F4FDB54B1B19DB1902225A7080233B
:1055D0005A001823F9187B191800FFF7E7FD00237C
:1055E000C7229200B9180B600023C62189007918E0
:1055F0000B600023BA18136018E0C72080003B1826
:105600001B68FA68D218C6239B00FB1819683B1860
:105610001B68CB181178A34AC824A4001219D21908
:10562000D1543B181B6801333A181360FB6818000B
:10563000FAF76AFD0200C72189007B181B689A42AD
:1056400003D37B181B680F2BD7DDC6229200BB1833
:105650001B681033BA1813600023C7229200BA18CF
:10566000136018E0C72080003B181B68BA68D21886
:10567000C6239B00FB1819683B181B68CB181178D0
:10568000884AC824A4001219D219D1543B181B68A7
:1056900001333A181360BB681800FAF735FD0200B1
:1056A000C72189007B181B689A4203D37B181B68AB
:1056B000632BD7DDC6229200BB181B686433BA186F
:1056C00013600023C7229200BA18136018E0C720A5
:1056D00080003B181B687A68D218C6239B00FB1811
:1056E00019683B181B68CB1811786E4AC824A400AF
:1056F0001219D219D1543B181B6801333A181360A0
:105700007B681800FAF700FD0200C72189007B18AA
:105710001B689A4203D37B181B683B2BD7DD002301
:10572000C6229200BA1813600023C7229200BA184A
:10573000136018E0C72080003B181B683A68D21835
:10574000C6239B00FB1819683B181B68CB181178FF
:10575000554AC824A4001219D219D1543B181B6809
:1057600001333A1813603B681800FAF7CDFC0200C9
:10577000C72189007B181B689A4203D37B181B68DA
:10578000272BD7DDC6229200BB181B682833BA1816
:1057900013600023C7229200BA1813601DE0C720CF
:1057A00080003B181B68CA22920008215218D219A7
:1057B0001268D218C6239B00FB1819683B181B6897
:1057C000CB181178384AC824A4001219D219D15420
:1057D0003B181B6801333A181360CA239B00082248
:1057E0009B18DB191B681800FAF78EFC0200C72112
:1057F00089007B181B689A4203D37B181B68272BF0
:10580000CDDDC6229200BB181B682833BA1813607E
:105810000023C7229200BA1813601DE0C720800041
:105820003B181B68CB22920008215218D21912682B
:10583000D218C6239B00FB1819683B181B68CB18AD
:105840001178194AC824A4001219D219D1543B184E
:105850001B6801333A181360CB239B0008229B1866
:10586000DB191B681800FAF74FFC0200C7218900FA
:105870007B181B689A4203D37B181B68272BCDDD4E
:105880000023C6229200BA1813600023C722920098
:10589000BA18136028E0C046E0FCFFFFF4FCFFFFED
:1058A000447B0108F8FEFFFFF8FDFFFFC7208000E2
:1058B0003B181B68CC22920008215218D21912689A
:1058C000D218C6239B00FB1819683B181B68CB181D
:1058D00011782F4AC824A4001219D219D1543B18A8
:1058E0001B6801333A181360CC239B0008229B18D5
:1058F000DB191B681800FAF707FC0200C7218900B2
:105900007B181B689A4203D37B181B68FF2BCDDDE5
:10591000C6229200BB181B680133FF33BA1813600C
:105920001C4BC825AD005B19DB1900225A701424EA
:105930003B191800FFF7D0FB80235A0086239B00F9
:10594000F9183B191800FFF704FC124B5B19DB191F
:1059500001225A7080235A008C235B00F9183B19EE
:105960001800FFF7F6FB0B4B5B19DB1902225A708C
:1059700080235A001823F9183B191800FFF7E9FB98
:1059800001231800BD46C8239B009D44B0BDC046FE
:10599000F8FCFFFFF4FCFFFF80B582B000AF3B1DB9
:1059A0000F4A1188198092789A7080235A000D4B03
:1059B000002118000DF032FB0A493B1D102218008F
:1059C000FFF7F4FB074B1800FAF79EFB0300012BCF
:1059D00001D9044B00E0044B1800BD4602B080BD65
:1059E000447B010818180020487B010880B582B06C
:1059F00000AF3B1D094A1188198092789A703B1DAF
:105A000010229A7006493B1D64221800FFF7CEFB56
:105A1000034B1800BD4602B080BDC046447B010860
:105A20001818002080B582B000AF3B1D094A1188CC
:105A3000198092789A703B1D74229A7006493B1D1A
:105A40003C221800FFF7B2FB034B1800BD4602B022
:105A500080BDC046447B01081818002080B582B084
:105A600000AF3B1D074A1188198092789A70064949
:105A70003B1D28221800FFF799FB034B1800BD4679
:105A800002B080BD587B01081818002080B582B094
:105A900000AF3B1D094A1188198092789A703B1D0E
:105AA00028229A7006493B1D28221800FFF77EFB2A
:105AB000034B1800BD4602B080BDC046587B0108AC
:105AC0001818002080B582B000AF3B1D094A11882C
:105AD000198092789A703B1D50229A7006493B1D9E
