:020000040800F2
:10000000009000209D690008596800085B6800089E
:1000100000000000000000000000000000000000E0
:1000200000000000000000000000000035B00008E3
:100030000000000000000000A1B00008559C00086E
:10004000ED69000800000000ED690008ED69000896
:10005000ED690008ED690008ED690008ED69000828
:10006000000000005D6800086D68000885680008F1
:10007000ED6900089D680008ED69000800000000B7
:10008000ED690008AD680008ED690008ED69000839
:10009000ED690008ED690008ED690008ED690008E8
:1000A000ED690008ED690008ED690008BD68000809
:0800B000CD680008DD680008BE
:1000C00010B5064C2378002B07D1054B002B02D02E
:1000D000044800E000BF0123237010BDD0020020BF
:1000E000000000002C0D0108044B10B5002B03D0BC
:1000F0000349044800E000BF10BDC04600000000F6
:10010000D40200202C0D01080023C25C0133002A18
:10011000FBD1581E7047000002B4714649084900DF
:10012000095649008E4402BC7047C04602B471466D
:1001300049084900095C49008E4402BC7047C0462A
:1001400003B47146490840004900095E49008E44E5
:1001500003BC7047002243088B4274D303098B42CF
:100160005FD3030A8B4244D3030B8B4228D3030C87
:100170008B420DD3FF22090212BA030C8B4202D329
:100180001212090265D0030B8B4219D300E0090A51
:10019000C30B8B4201D3CB03C01A5241830B8B425A
:1001A00001D38B03C01A5241430B8B4201D34B0343
:1001B000C01A5241030B8B4201D30B03C01A5241A8
:1001C000C30A8B4201D3CB02C01A5241830A8B422D
:1001D00001D38B02C01A5241430A8B4201D34B0216
:1001E000C01A5241030A8B4201D30B02C01A52417A
:1001F000CDD2C3098B4201D3CB01C01A524183092E
:100200008B4201D38B01C01A524143098B4201D367
:100210004B01C01A524103098B4201D30B01C01A92
:100220005241C3088B4201D3CB00C01A524183080C
:100230008B4201D38B00C01A524143088B4201D339
:100240004B00C01A5241411A00D201465241104699
:100250007047FFE701B5002000F0F0F802BDC0468E
:100260000029F7D076E7704703460B437FD400227E
:1002700043088B4274D303098B425FD3030A8B423A
:1002800044D3030B8B4228D3030C8B420DD3FF22A4
:10029000090212BA030C8B4202D31212090265D072
:1002A000030B8B4219D300E0090AC30B8B4201D325
:1002B000CB03C01A5241830B8B4201D38B03C01A6C
:1002C0005241430B8B4201D34B03C01A5241030BE3
:1002D0008B4201D30B03C01A5241C30A8B4201D394
:1002E000CB02C01A5241830A8B4201D38B02C01A3F
:1002F0005241430A8B4201D34B02C01A5241030AB6
:100300008B4201D30B02C01A5241CDD2C3098B429A
:1003100001D3CB01C01A524183098B4201D38B0117
:10032000C01A524143098B4201D34B01C01A5241BA
:1003300003098B4201D30B01C01A5241C3088B42FF
:1003400001D3CB00C01A524183088B4201D38B00EA
:10035000C01A524143088B4201D34B00C01A52418C
:10036000411A00D201465241104670475DE0CA0F63
:1003700000D04942031000D34042534000229C4623
:1003800003098B422DD3030A8B4212D3FC2289012D
:1003900012BA030A8B420CD3890192118B4208D303
:1003A000890192118B4204D389013AD0921100E065
:1003B0008909C3098B4201D3CB01C01A5241830979
:1003C0008B4201D38B01C01A524143098B4201D3A6
:1003D0004B01C01A524103098B4201D30B01C01AD1
:1003E0005241C3088B4201D3CB00C01A524183084B
:1003F0008B4201D38B00C01A5241D9D243088B42A1
:1004000001D34B00C01A5241411A00D20146634643
:1004100052415B10104601D34042002B00D54942A7
:10042000704763465B1000D3404201B5002000F0E6
:1004300005F802BD0029F8D016E770477047C0469E
:100440008446100062468C461900634600E0C046B0
:100450001FB501F0E5FE002801D40021C8421FBDF0
:1004600010B501F035FE4042013010BD10B501F06D
:10047000D7FE002801DB002010BD012010BDC046C2
:1004800010B501F0CDFE002801DD002010BD0120D7
:1004900010BDC04610B501F05DFE002801DC002053
:1004A00010BD012010BDC04610B501F053FE00285C
:1004B00001DA002010BD012010BDC04684460800AE
:1004C0006146FFE71FB500F0C9FB002801D40021F9
:1004D000C8421FBD10B500F055FB4042013010BDB1
:1004E00010B500F0BBFB002801DB002010BD01208F
:1004F00010BDC04610B500F0B1FB002801DD0020A2
:1005000010BD012010BDC04610B500F061FB0028F1
:1005100001DC002010BD012010BDC04610B500F068
:1005200057FB002801DA002010BD012010BDC04695
:1005300070B500220C4B04000D00FFF7B5FF00283A
:1005400004D12000290002F031FD70BD064B0022CD
:100550002000290002F08AF902F028FD80231B0602
:100560009C466044F1E7C0460000E04170B50500DC
:100570000C000022002328002100FFF777FF00284D
:1005800008D12800210000F00FF802000B00100035
:10059000190070BD80231B06E118280000F004F844
:1005A000002342428B41F2E770B500220B4B0D0055
:1005B000040001F099FEFFF7BBFF060002F05CFDAE
:1005C0000022074B01F090FE02000B0020002900E2
:1005D00002F04CF9FFF7ACFF310070BD0000F03DB8
:1005E0000000F04170B50600080002F015FD002281
:1005F000064B01F079FE0D000400300002F03CFDD6
:100600002B00220000F016FF70BDC0460000F04134
:10061000F8B54746CE464A0243024500C40F500A89
:10062000804648005B0A000E9209944680B51E0081
:10063000814602002D0EDF00C90F8C4224D0281AFB
:1006400000280EDD002A3ED16246002A00D1FDE0DE
:10065000421E012800D137E1FF2800D1A9E0100097
:1006600039E0002863D04B46521B002D00D0E0E05B
:10067000002F00D1CEE0531E012A00D155E1FF2A00
:1006800000D194E01A00D9E02A1A002A00DC99E08F
:10069000002862D0FF2D00D18BE080236146DB046F
:1006A00019438C461B2A00DCD2E00123DB195A01D6
:1006B0006AD50135FF2D5BD00122A3491A405B08A2
:1006C0000B4013431CE0FF2D00D172E080236246F3
:1006D000DB041A4394461B2800DC90E00123FB1A3C
:1006E0005A0151D59B019E09300002F0B9FD33003B
:1006F00005388340854200DC75E0944A2D1A13408A
:100700005A0704D00F221A40042A00D004335A0199
:100710003CD5681CFE2D2BD09B015E0AC0B2C005E3
:100720003043E4072043C0BCB946B046F8BDFE20C4
:100730006A1C104272D1002D00D0AEE0002F00D113
:10074000ECE063460020002BE9D0FB1A5A0100D4EC
:10075000F3E063460C00DB1BD2E7614600295BD067
:10076000511E012A00D1A7E0FF2A22D00A0099E7F2
:10077000FF200026D3E7FE216A1C114273D0FF2A16
:10078000F6D0150067447B085A07BBD1DB08FF2D64
:100790000FD05B025E0AE8B2C1E76246002A08D0C9
:1007A0008022D203134204D04046104201D10C00F3
:1007B0004346002BDCD08026F6031E437602FF2042
:1007C000760AACE7002AD6D0421B002D5CD0FF2869
:1007D000EED08023DB041F431B2A00DC82E00123D0
:1007E0004D46634463E72022401B0130121A190072
:1007F0009340C1405A1E934100250B4380E72023BC
:1008000061461B1A994062460B00C240591E8B413B
:10081000134364E70C0043461500B8E76346FE1A2D
:10082000730145D4002E00D05EE70024002000268E
:1008300075E7FF2BBBD08023DB041F431B2A47DD5A
:10084000012362460C004D46D31A49E705009EE796
:1008500061462023D1409B1A62469A4013005A1EDB
:1008600093410B4322E7002D46D1002F62D063460F
:100870000020002B00D152E73B0063445A0183D58E
:10088000324A013513407FE7002FC4D0531E012A9E
:1008900012D0FF2A8CD01A009EE7002F00D07CE7F0
:1008A0006346002B83D180260024FF20F60336E721
:1008B00063460C00DE1B17E73B00634401255A0129
:1008C00000D461E70225F7E663460125FB1A07E736
:1008D00020239B1A38009F403B00D0405A1E934172
:1008E0000343AEE720239B1A39009F403B00D140D1
:1008F0005A1E93410B4373E7002F00D158E762461D
:10090000002A00D155E78022D203134200D150E7DC
:100910004146114200D04CE743464AE76346002B6C
:1009200083D00C0046460020F9E663460C00DB1B32
:100930000135D5E646460020F1E6002B00D023E73E
:1009400000240026EBE6C046FFFFFF7DFFFFFFFB14
:10095000F0B54F464646D6464502C0B547000C1C8A
:100960006D0A3F0EC60F002F00D16FE0FF2F00D1A0
:1009700074E00023802299469A46ED00D204154384
:100980007F3F63025B0A984663001B0EE40F002B57
:100990004DD0FF2B45D042468021D200C9041143DF
:1009A000884600227F3B3100FF1A4B466140C9B2A6
:1009B0000F2B00D9B8E070489B00C3589F46002316
:1009C00098462600454692465346022B00D18DE0BC
:1009D000032B00D1A1E0012B18D03B007F33002B6B
:1009E0006DDD6A0704D00F222A40042A00D00435A6
:1009F0002A0103D5614B1D403B008033FE2B00DDF7
:100A000074E0AA01520AD8B202E00E0000200022CF
:100A1000C005F60710433043E0BCBA46B146A846CD
:100A2000F0BD4346002B3FD10222FF3F03E0434687
:100A3000002B2DD1012231004B466140C9B2134336
:100A40000F2B38D84E489B00C3589F46002D13D11A
:100A500004239946033B00279A4692E7002D05D1CF
:100A600008239946063BFF279A468AE70C239946B6
:100A7000093BFF279A4684E7280002F0F1FB76271E
:100A8000431F9D4000237F4299469A463F1A78E7CC
:100A9000404602F0E5FB4246431F9A4076235B4204
:100AA00090461B1A00227EE703234A461A439146CA
:100AB000FC33032277E70E00FF200022A8E7012283
:100AC000D31A1B2BA2DC9E372A00BD40DA406B1ED6
:100AD0009D4115436A0704D00F222A40042A00D002
:100AE00004356A0144D50120002291E7FF2000224D
:100AF0008EE780220026FF20D20389E70023984654
:100B00008022D203154208D04346134205D11A432E
:100B100052022600FF20520A7AE78022D2032A439B
:100B20005202FF20520A73E742466B015501AB4265
:100B30001AD21B200022013F01261C0052005B003C
:100B4000002C01DB9D4201D85B1B32430138002899
:100B5000F3D1581E834113431D003B007F330E0029
:100B6000002B00DD3DE7AAE71A2001225B1BE3E72B
:100B7000AA010020520A4BE7000E0108FFFFFFF711
:100B8000400E010870B5420045024E024C00C30FF2
:100B90006D0A0120120E760A240EC90FFF2A06D014
:100BA000FF2C03D0A24201D1B54206D070BD002D6A
:100BB000FCD1FF2CFAD1002EF8D18B4206D00120B7
:100BC000002AF3D12800431E9841EFE70020EDE70B
:100BD00070B5420045024E024C00C30F6D0A120E62
:100BE000760A240EC80FFF2A1BD0FF2C0ED0002A35
:100BF0001BD1002C01D1002E1CD0002D0CD0834223
:100C00001CD00221581E0840013870BD002E22D190
:100C1000002AF4D1002DF2D10028F6D10120404263
:100C2000F3E7002D17D1FF2CF0D0002CE7D1002ED8
:100C3000E5D1E6E70020002DE7D0E2E7A24205DC9F
:100C4000EADBB54202D8E7D30020DEE74342584151
:100C500040000138D9E702204042D6E770B5420093
:100C600045024E024C00C30F6D0A120E760A240E86
:100C7000C80FFF2A0BD0FF2C0DD0002A1FD1002C4B
:100C800016D1002E14D10020002D10D009E0002D27
:100C90000CD1FF2C13D1002E08D1002A08D083429A
:100CA00012D00221581E0840013800E0022070BD19
:100CB000002DF4D10028FAD101204042F7E7002CA2
:100CC000EDD1002EEBD1ECE7A24205DCF2DBB54220
:100CD00002D8EFD30020EAE74342584140000138F0
:100CE000E5E7C04643025B0AF0B54F4646469946E3
:100CF000D646C30F45009846C0B54B460F1C2D0E77
:100D000000D1CBE0FF2D00D1CFE08022DB00D20468
:100D10001A430023914600269A467F3D7C027B00C1
:100D2000640A1B0EFF0F002B00D1A9E0FF2B11D08E
:100D30008022E400D204144342467F3B5B197A4090
:100D40000020D2B25D1C0A2E13DD3A000B2E47D0D4
:100D500047463FE02B00FF33002C1ED102221643F2
:100D6000424601357A40D2B2FF350A2E00DDE4E07A
:100D70000220022E1CDC013E012E42D802283DD06A
:100D8000012866D100200021C0050843D207104386
:100D9000E0BCBA46B146A846F0BD0322164342461F
:100DA00001357A40D2B2FF350A2E00DDE4E003209F
:100DB0000121B140A626F60031420AD19026B600A4
:100DC000314216D1B93EFF3E0E421AD0A1468246AC
:100DD00000E0170053463A00022B0FD04C46504615
:100DE0000328CDD18021C90321434902FF20490AAC
:100DF000CAE780210022FF20C903C5E7FF200021A8
:100E0000C2E7200C49462404240C27000E0C0904D8
:100E1000090C74434F4346434843390C00190918E1
:100E20008C4203D980204002844666443F04080473
:100E30003F0CC0198401671EBC41090C800E891942
:100E4000044389010C43090171D5012361081C4049
:100E50000C432B007F33002B51DD610704D00F21A1
:100E60002140042900D00434210103D5434B1C4008
:100E70002B008033FE2BC1DCA101490AD8B283E7E5
:100E8000002C2CD1012342461E432B007A40012026
:100E9000D2B25D1C0A2E00DD57E76AE7002B10D1A5
:100EA0000123042600259A4638E7002B04D10223AB
:100EB0000826FF259A4631E703230C26FF259A468C
:100EC0002CE7484602F0CCF94A46431F76259A4063
:100ED00000236D42914600269A462D1A1EE72000F7
:100EE00002F0BEF94246431F9C402B1A763B7A40E3
:100EF0000020D2B25D1C0A2E00DD26E739E7012171
:100F0000CB1A1B2B00DD3DE79E352100AC40D940BC
:100F1000631E9C4121434B0704D00F230B40042B3D
:100F200000D004314B0104D5012000212CE71D0025
:100F30008FE789010020490A26E702230F2E0CD1F2
:100F400080214B46C9030B420DD00C420BD12143EB
:100F500049023A00FF20490A16E70B2E00D0F7E6B7
:100F6000A1469A4636E780214B46C90319434902F8
:100F70004246FF20490A07E70323DFE7FFFFFFF7A9
:100F8000F0B5C64643025B0A4500DA00C40F4802CA
:100F90004F009446420A1E00904600B52D0E3F0EAB
:100FA000C90F8009FF2F59D0012251408C4239D0FE
:100FB000EA1B002A58DD002F68D0FF2D00D1D1E0B8
:100FC0008023DB0418431B2A00DCE3E00123624694
:100FD000D31A5A0100D4ACE09B019E09300002F004
:100FE0003FF9330005388340854200DCC6E0B24A51
:100FF0002D1A13405A0704D00F221A40042A00D099
:1010000004335A0100D497E06A1CFE2D00D184E01D
:101010009B015E0AD2B2D0053043E407204380BC76
:10102000B846F0BDEA1B002A41DD002F6BD0FF2D32
:1010300000D197E08023DB0418431B2A00DCCCE0BE
:10104000012363445A0174D50135FF2D65D0012277
:101050009A491A405B080B401343CBE700281FD086
:101060008C4222D02A00FF3A002A35D07A1B002D6C
:1010700000D099E06346002B00D1DDE0531E012A29
:1010800000D105E1FF2A6BD01A0094E0002873D04C
:10109000511E012A00D1DFE0FF2A63D00A0092E747
:1010A00001225140A14200D082E72A00FF3A002AE3
:1010B00036D07A1B002D00D1AAE0FF2F00D1DAE054
:1010C00080236146DB0419438C461B2A00DCD4E0F4
:1010D00001233D001B18B5E7FE276A1C174271D19A
:1010E000002D00D09EE06346002B00D1D5E0002209
:1010F000002800D18FE71B1A5E0100D4D6E06346BA
:101100000C00C31A76E7002836D0511E012A00D100
:101110009AE0FF2A26D00A008FE7FF2200267AE70E
:10112000FE276A1C174262D0FF2AF6D015006044E1
:1011300043085A0700D05FE7DB08FF2D12D05B029F
:101140005E0AEAB267E76246002A00D193E000280F
:1011500008D08022D203134204D04046104201D16D
:101160000C004346002BD8D08026F6031E4376029F
:10117000FF22760A4FE743461500DEE72022401B98
:101180000130121A19009340C1405A1E93410025A4
:101190000B432FE720239B1A010098400300D14006
:1011A0005A1E93410B4312E7FF2FD9D08023644688
:1011B000DB041C43A4461B2A52DD01230C003D0026
:1011C000C31A06E763461E1A730139D4002E00D0F5
:1011D00004E70024002200261DE720239B1A0100BB
:1011E00098400300D1405A1E93410B4329E7002D3C
:1011F000A9D16346002B56D00022002800D10AE76F
:10120000030063445A0194D52B4A0135134090E7FB
:101210006346002BAFD0531E012A15D0FF2A2AD0D7
:101220001A0052E76246002A91D1002898D1802600
:101230000024FF22F603EEE60C00434615007CE78F
:1012400063460C00C61AC9E60300634401255A012F
:1012500000D46EE70225FAE6634601251B1AB8E6BC
:1012600064462023D4409B1A62469A4013005A1EBB
:1012700093412343A2E7434674E761462023D140CC
:101280009B1A62469A4013005A1E93410B4320E773
:1012900063460C000125C31A9BE6002899D00C0078
:1012A00046460022B7E646460022B4E6002B00D0B0
:1012B0003FE700240026AEE6FFFFFFFBFFFFFF7DB8
:1012C00041024200C30F490A0020120E7E2A03DDAC
:1012D0009D2A02DD094A98187047802000040143C6
:1012E000952A07DC9620821AD1404842002BF3D180
:1012F0000800F1E7963A9140F7E7C046FFFFFF7F0D
:1013000070B5002813D0C317C5185D40C40F28005E
:1013100001F0A6FF9E2301001B1A962B0FDC082864
:1013200031D008398D406D026D0AD8B202E0002438
:1013300000200025C0052843E407204370BD992BF9
:101340000CDD0522121A2800D040020008001B30D4
:1013500085402800451EA84102431500052916DCDA
:101360002A000F4802406E0709D00F263540042D91
:1013700005D00432550102D59F2302405B1A920129
:10138000550AD8B2D6E76D0296206D0AD2E74A1FF9
:1013900095402A00024802406E07F0D0E5E7C046BB
:1013A000FFFFFFFB70B5041E0ED001F059FF9E2316
:1013B00001001B1A962B0CDC08282CD008398C4015
:1013C0006402640AD8B201E000200024C005204372
:1013D00070BD992B0ADD020020001B3290400200F4
:1013E000501E82410520401AC4401443052916DCD2
:1013F00022000F480240650709D00F252C40042C1D
:1014000005D00432540102D59F2302405B1A920199
:10141000540AD8B2DAE764029620640AD6E74A1F73
:1014200094402200024802406507F0D0E5E7C0463C
:10143000FFFFFFFBF0B54F464646D6460400C0B559
:101440001F000B0310004E005B0ACD0F610F7A00E6
:101450001943E3003C03FF0FBC46640A470F2743D0
:10146000760D520DC000B9468046B71A654500D1C9
:101470009BE0002F00DC84E0002A00D1BEE0C84AD7
:10148000964200D124E180224C4612041443A14626
:10149000382F00DD67E11F2F00DDD6E120224C460A
:1014A000D21B9440A2464446FC40200054460443CC
:1014B00040469040421E90414A46FA400443891AF1
:1014C0001C1BA342924152428B1A9A4653461B025E
:1014D00000D4D4E053465A02530A9A465346002B8E
:1014E00000D104E1504601F0BBFE0300083B20227E
:1014F0002000D21A5146D040994002009C400A4335
:10150000B34200DA02E19B1B591C1F2900DDA7E052
:101510002023100026005B1A9C409840CE40CA4011
:10152000631E9C413043924600260443630709D062
:101530000F232340042B05D0231DA342A441644262
:10154000A2441C0053461B0200D49BE0944B01367E
:101550009E4200D1B8E053469249E4080B4019007E
:101560005B07234372054C02240B520D1205ED0755
:1015700022432A4318001100E0BCBA46B146A846EF
:10158000F0BD002F48D0971B002E00D00EE10C00BC
:101590001C4300D1B7E17C1E012F00D126E2804D13
:1015A000AF4200D1D5E1270007E1002F00DCB2E017
:1015B000002A47D07A4A964200D189E080224C46E0
:1015C00012041443A146382F6BDC1F2F00DC6EE1A0
:1015D0003A004846203AD0408446202F07D0402287
:1015E0004846D21B90400200404610438046404689
:1015F000421E904162460400144357E04A460243AB
:1016000000D103E17A1E012F00D193E1644CA7427F
:1016100000D18AE117003BE7634C721C224200D0E4
:10162000E0E00A001A43002E00D074E1002A00D145
:10163000D0E14A46024300D0E3E14A07DB08134306
:10164000C90829E04A46024300D17DE17A1E012FF4
:1016500000D1E0E0524CA74200D166E11700B2E7AA
:1016600010001F3BD840202903D040235B1A9A402A
:101670001443631E9C41002300269A4604436307DB
:1016800000D055E75246E30852071343524637004D
:10169000D108434A97421FD009037A050C0B520D1B
:1016A00064E742464C461443621E9441E4189C424F
:1016B0009241524292468A4453461B02DFD5384B30
:1016C00001369E4200D0B3E03200002400234DE7F3
:1016D0004A07DB081343C9081A000A4300D100E295
:1016E000802424030C4324032D4A240B3EE72000CE
:1016F00001F0B6FD030018331F2B00DCF7E62200D3
:10170000083882400024B34200DBFCE6F61A254B81
:101710001A4092460AE7002F2BD0971B002E00D1CB
:10172000B8E01F4CA24200D11CE1802424042143D4
:10173000382F00DD1EE11F2F00DD9EE120260C006A
:10174000F61B1800B340B440F8405E1EB341F940A8
:1017500004431C438944444444459B415B424B44FD
:101760009A461600A8E742464C461443621E94412E
:10177000A6E60D4C721C224200D0A8E00A001A43D3
:10178000002E00D00AE1002A00D15EE14A46024361
:1017900000D061E14A07DB081343C9087CE7C04673
:1017A000FF070000FFFF7FFFFE070000CF4CA242B3
:1017B00000D1CEE0802424042143382F5BDC1F2F8E
:1017C00000DDDCE020250C00ED1B1E00AB40AC4032
:1017D000FE405D1EAB413443F9401C434B465B1A4F
:1017E00099464CE04A461C1A881AA342924152423A
:1017F000924602005046121A9246120278D453467C
:10180000234300D06AE60021002545E74A07DB08AC
:101810001343C9083DE71C189C429B4149448A4632
:101820005B429A44534601261B0200D427E7022656
:101830005246AF4B01211A401300214062080A436F
:10184000DC075B089A46144370E63A004C46203A9F
:10185000D440A446202F07D040224846D21B9040B7
:1018600002004046104380464046421E9041624678
:101870000400144324E619430C00631E9C414346B4
:101880001C1BA0459B4149465B42CB1A9A466546C4
:1018900016001BE60C001C4300D1C7E07C1E012F84
:1018A00000D1F9E0914EB7425CD0270040E72022FA
:1018B0004C464046D21B9440F8400443404690407A
:1018C000421E90414A46FA4004438918EEE6874C8E
:1018D000A24200D1F9E6181898429B4149445B4264
:1018E000CB18DC0740085B089A4616000443C6E69E
:1018F0004246D41AA04580414B464042591A0B1A21
:101900009A466546EAE54B464A46C0085B07654687
:101910000343D108BDE6002A00D08EE04B460343C6
:1019200017D1802100250903DAE64A07DB081343B3
:10193000C908D1E61C1A4A46A3429B41891A5B4258
:10194000CB1A9A460126C1E54A07DB081343C908AA
:101950009FE64346D8084B464A465B076546034325
:10196000D108B9E64346D8084B464A465B070343CD
:10197000D108B1E619430C00631E9C41EBE63C0024
:101980000D00203CE540202F03D04024E41BA14063
:101990000B431C00631E9C412C4370E7002AE1D0DE
:1019A0004A460243C1D04A07DB0813438022C908D4
:1019B0001203114208D04846C408144204D14346D9
:1019C0002100DB08420713435A0FDB005207DB08F4
:1019D000134381E64B46034300D114E74B464A4686
:1019E000C0085B0765460343D10855E6C41AA04505
:1019F00080414B464042591A0B1A9A4665460126C9
:101A000064E51C1A4A46A34280418A1A4042121ACF
:101A10009246120249D54246D41AA04580414B460F
:101A20004042591A0B1A9A4665467FE54B464A468C
:101A3000C0085B070343D1082BE64A46DB08024394
:101A400038D14A071343C90846E64B464A46C00800
:101A50005B070343D1081FE61C189C429B41494485
:101A60008A465B429A4453461B0200D407E652461C
:101A70001F4B01261A40924601E63C000E00203C16
:101A8000E640202F03D04024E41BA1400B431C0060
:101A9000631E9C4134435EE6434483428041494493
:101AA0008A4640421C008244BCE65346234300D190
:101AB000A9E6E4E54A0713438022C908120311424C
:101AC00009D04846C408144205D143466546210062
:101AD000DB08420713435A0FDB00DB0852071343AE
:101AE000FAE50023014A1C0040E5C046FF0700005C
:101AF000FFFF7FFFF0B557464E464546DE46E0B550
:101B00000C031F004B0081469246050085B0240B54
:101B10005B0DCE0F002B00D152E1D24A934200D18F
:101B20006EE1420FE40014438022120422439046E7
:101B3000CD4AC50093469B440023994600933C033D
:101B40007B005046240B5B0DFF0F002B00D11AE1E8
:101B5000C44A934200D15EE1420FE4002243802454
:101B600024041443C04AC10094465A466344D31A1D
:101B70009B46002033007B409A464B460F2B27D8CC
:101B8000BA4A9B00D3589F46B246009B022B16D000
:101B9000032B00D187E2012B00D0D5E000230022E7
:101BA00000251B0513435246D20713432800190092
:101BB00005B0F0BCBB46B246A946A046F0BD002227
:101BC0000025A84BEDE7BA46A0460D000090DCE7E3
:101BD000444500D2C4E100D1BFE101235B429C46F1
:101BE0002E0040460025E34423020C0E1C431B0C30
:101BF000994623040A021F0C494600920197FEF7FA
:101C00002FFB02007A430B04310C804619438A42B1
:101C100007D901235B429C460919E0448C4200D855
:101C200001E2881A4946FEF71BFB019A360442433B
:101C30000904360C03000E43B24204D93619013BA5
:101C4000B44200D8E9E1B01A4246009E12041A4399
:101C5000330C1F00110C9046029313043204160C2F
:101C600032001B0C5A4303967B434E437943170CB7
:101C7000BC469B1963449E4203D980267602B44633
:101C800061441E0C711816041B04360C9E19884200
:101C900002D312D1B54210D243465A1E009B9C4635
:101CA00065441F009D429B415B421B19C018844242
:101CB00000D29EE100D199E19046AE1BB542AD4104
:101CC000401A6D42401B844200D1D2E14946FEF7E2
:101CD000C7FA019A0B044243310C050019438A42AA
:101CE00000D96CE1881A4946FEF7BAFA019A36041F
:101CF00042430904360C03000E43B24200D953E1BB
:101D00000398B61A02002D041D43029F2B041B0CDE
:101D10005A437B439C46290C4843130C8444634438
:101D20007943984203D98020400284466144180CCC
:101D300012041B04120C40189B18864200D200E1CA
:101D400000D1FBE001231D43494B5B44002B00DC29
:101D5000AAE06A0700D03DE1E9084246D20106D573
:101D60004246444B1A4080239046DB005B44424A83
:101D7000934200DD23E742465B05550752020D43BF
:101D8000120B5B0D0DE75146214300D17CE0002C86
:101D900000D1FBE0200001F063FA02000B3A1D23A2
:101DA0009B1A52460100DA40534608398B408C405A
:101DB00019001443314B58449B4683440020D9E614
:101DC00003002343984644D0002C00D1CFE02000EC
:101DD00001F046FA010002000B391D235B1A494647
:101DE0001000D940083884400B004D4623439846E4
:101DF0008540234B9B1A9B460023994600939EE601
:101E00000200224390461DD108229B460223002552
:101E10009146009393E65146214309D102234A4655
:101E20001A43184B91469C4600240220E344A1E645
:101E300003234A461A43134B91469C4651460320BE
:101E4000E34497E60C229B460323A0469146009369
:101E500075E60423994600239B4601330025009331
:101E60006DE6C046FF07000001FCFFFF800E010881
:101E7000FF030000FFFFFFFEFE070000F30300006A
:101E80000DFCFFFF01F8FFFF4A4601231A4391466C
:101E9000002401206EE6002380229A460025884B0C
:101EA00012037EE601256D420122D21A382A00DD96
:101EB00074E61F2A00DCBDE01F214942CB1A4146CF
:101EC000D9400B00202A04D041467E4A5A44914012
:101ED0000D4329004A1E9141194307231D0000228A
:101EE0000D400B4200D1D0E00F2200230A40042A0B
:101EF00000D1C7E00A1D8A42894149425B1811009E
:101F00001A0200D4BEE001230022002549E6802207
:101F100043461203134208D0144206D1224312034F
:101F2000BA460D00664B120B3BE680224346120375
:101F30001A431203B246624B120B32E6002B00D159
:101F400002E7A6196A1EA64200D289E0864200D2A4
:101F50009FE000D1AFE01500F4E6A94200D93CE6CD
:101F60004346DE0758086B081E43ED073CE601F0C8
:101F700077F901000200153120321C2900DC2CE722
:101F80004B46083883400025984632E701F068F94F
:101F900003001A00153220301C2A00DCFFE65446EC
:101FA000083B00219C4005E73619013BB44200D9AB
:101FB000A6E6B24200D8A3E6831E3619A0E60919A8
:101FC000013D8C4200D98DE68A4200D88AE6851E02
:101FD000091987E60F222A40042A00D1BCE6291DF0
:101FE000A942AD416D42C908A844B6E6AF4200D946
:101FF00062E6814204D800D05EE6AE4200D85BE6DD
:1020000002235B429C46009BE0449C4665449D4203
:102010009B415B421B19C0184FE6B24200D812E642
:10202000831E36190FE68A4200D8FAE5831E9846C9
:102030000919F6E5244B28005B4441469D40994030
:10204000D0406B1E9D41434601432943D3404A077C
:1020500000D155E70F220A40042A00D04AE74FE793
:102060001500864200D06DE6009A9A4200D069E6DB
:102070006AE6164B5B44002B00DC13E701250021C8
:10208000A8446AE65D075B021A0BC90800230D43EA
:1020900087E50099023D4A008A42BF417F423F19CD
:1020A000F6190092DDE78022434612031A43120319
:1020B000034B120B75E500999942EAD31500D3E75B
:1020C000FF0700003E0400001E040000FF030000A4
:1020D000F0B54E464546DE4657469046E0B51700F9
:1020E0001A03120B0500844619480E034C00914652
:1020F0005A00DB0F9B46360B640DC90F520D84420C
:1021000019D0824210D0012094420ED14E450CD1FC
:102110000120C44509D1594517D0002C05D1300004
:102120002843431E984100E00120F0BCBB46B24664
:10213000A946A046F0BD330001202B43F5D1A242B1
:10214000F3D14B463B43F0D1E2E70020EDE7C04638
:10215000FF070000F0B54746CE4604001800160001
:102160001B031B0B2D4D4A00994680B543000F03FE
:10217000A446B0463F0B520DC90F5B0DC00FAA42DB
:1021800021D0AB4213D0002A22D13C43002B02D1F4
:102190004D462E4322D0002C10D0814222D0022066
:1021A000013908400138C0BCB946B046F0BD4D46C3
:1021B0002E4329D1002AF0D13C43EED10028F2D1A0
:1021C00001204042EFE73D0025431DD19342EED070
:1021D000002BE2D14C462643DFD1E0E70020002C63
:1021E000E1D0DCE79A420ADCE8DB4F45D7D80ED0D5
:1021F00000204F45D7D20029E2D00800D3E7434260
:10220000584140000138CEE702204042CBE7C445A8
:10221000C5D80020C445C6D2EDE7C046FF07000080
:10222000F0B54746CE460400180016001B031B0BF2
:102230002C4D4A00994680B543000F03A446B04692
:102240003F0B520DC90F5B0DC00FAA420DD0AB4220
:1022500010D0002A27D13C43002B11D14D462E43EC
:102260000ED10020002C15D00EE03D00254310D1EA
:10227000934218D14D462E430BD1002A02D13C4344
:10228000002C0BD0814214D00220013908400138C3
:1022900000E00220C0BCB946B046F0BD0028F9D12C
:1022A00001204042F6E7002BECD14C462643E9D111
:1022B000EAE79A4204DD4342584140000138E9E729
:1022C0009A42EBDB4F45DFD806D000204F45E1D2E4
:1022D0000029E5D00800DDE7C445D5D80020C44575
:1022E000D8D2F5E7FF070000F0B54546DE46574671
:1022F0004E46E0B51F000B031B0B9B464D00CB0F5A
:1023000004009146984687B06D0D00D1CDE1CE4BCB
:102310009D4200D1E9E15A46430FD2001343802287
:1023200012041A43C3009A46C84B93469C460023A6
:102330000026654400933C037B004846240B5B0D5C
:10234000FF0F002B00D189E1BF4A934219D0420F01
:10235000E4002243802424041443BC4A0021944610
:10236000424663445B190193019B7A400133C000EC
:10237000D2B202930A2E1CDD3A000B2E5ED04746E5
:1023800056E04946B04B2143EB18019300292AD16E
:102390008020022200012B008446164342466344FB
:1023A0007A40D2B202930A2E00DD31E200200024EE
:1023B0000221022E26DC013E012E52D802294CD0E9
:1023C000012900D018E10023002400251B05234328
:1023D000D20713432800190007B0F0BCBB46B24631
:1023E000A946A046F0BD8021032209012B008C469E
:1023F0001643424663447A40D2B202930A2E00DD6D
:1024000028E203210125B540AC46A6266346F60026
:10241000354033420BD19026B600334218D1B93E35
:10242000FF3E1E421DD0A3468246009100E01700E9
:1024300000993A00022910D05C4650460329BFD1CA
:1024400080231B031C43240305007F4B240BBDE7A3
:10245000802400227C4B2403B8E7002400257A4B1B
:10246000B4E753461E04360C1F0C3300010C000465
:10247000000C4343984603007B43994633004B438B
:102480009C4643460D001B0C9A467D43CC44D444E5
:102490000095E14504D980235B0299464D4400959F
:1024A00063461B0C1D0063461B049C4643461B04ED
:1024B0001B0C9846634643440393230C9846330011
:1024C0002404240C63439C4623007B4399464346E3
:1024D0005E435F434E446346B2461E0C5644B145CC
:1024E00003D980235B0299464F44330C99463B0045
:1024F0004B4405936346AC461F043F0C3604F61963
:10250000B444634604935B461B0C9C465B461F0425
:102510003F0C3B0043439946634643439A464B4630
:1025200060461B0C9B4648437943514459448A45B5
:1025300003D980235B029A4650440B0C9A464B46C3
:102540001B041B0C99463B00634309044546494460
:10255000994663465C436B439C464B461B0C98462E
:102560006F433F1947445044BC4203D980235B0268
:102570009846C444049B009D98464544B542B641E4
:10258000734298464B461E04059B3C049946360C04
:10259000A4194C44A14683466E18C1448E42894119
:1025A000CB445D4649426D189C42A441C1459B41C4
:1025B000834580418D4289415B4264421C434042D5
:1025C000039B4942014370023F0C1843E419471E24
:1025D000B84164186444F60D61023043EC0D6E029C
:1025E0000C433043C90100D4F1E00121430801400C
:1025F0000B43E007184364081549029B8C4663446B
:10260000002B00DC97E0410709D00F21014004298D
:1026100005D0011D81428041404224180800E1019B
:1026200006D58021C9008C460A4B1C40029B63449E
:1026300009498B4200DD10E76107C50864025B05AC
:102640000D43240B5B0DC1E6FF07000001FCFFFFFB
:10265000FF030000FFFFFFFEFE0700004B46234381
:1026600059D0002C00D1A3E0200000F0F9FD0100BA
:1026700003000B391D22521A49461800D1404A4620
:1026800008388240844010000C43744AEB1A944688
:10269000424663440193019B7A4001330021D2B248
:1026A00002930A2E00DD67E683E65B4603439A4603
:1026B0002AD05B46002B6DD0584600F0D1FD0100BA
:1026C00003000B391D22521A210018005D46D1402B
:1026D000083885400A0084402A439346A2465F4D4D
:1026E0000026ED1A0023009325E65B4603439A4635
:1026F00005D100239B460233082600931BE60323E3
:1027000082460C26009316E600239B4601330426DE
:10271000002500930FE64246013301951E43019BBD
:102720007A400133002400200121D2B202930A2E04
:1027300000DD21E63DE60121C91A382900DD42E627
:102740001F2947DD1F2625007642F31ADD402B00A6
:10275000202905D04249029D8C466544AC40204367
:10276000411E8841184307231D00002405400342F1
:102770004AD00F2300240340042B42D0031D834280
:10278000804140422418180023023AD50123002436
:1027900000251BE600F064FD010003001531203325
:1027A0001C298FDD0838002284409246A34696E714
:1027B00000F056FD01000300153120331C2900DC18
:1027C00058E702004C46083A002094405DE7019B20
:1027D000029311E7234B26009C460300029DCB4049
:1027E0006544AE401E430300AB40581E8341300099
:1027F0001843CC404307C7D00F230340042BBDD15F
:10280000C2E765076402240BC00800230543DDE529
:10281000002502230F2E0CD180245B462403234283
:102820000ED021420CD10C4324033A000E4B240B52
:10283000CCE50B2E00D0A2E58B46AA460093F7E527
:1028400080245B4624031C43240342465546064B22
:10285000240BBBE54D4621000323DBE70DFCFFFF06
:102860003E0400001E040000FF070000F0B55746BC
:102870004E464546DE46E0B50D0004001900100046
:102880002B035B0A620F1A43E3000C03640A470F31
:102890002743D04C6E00914683B04A00C000984652
:1028A000A246760DED0F520DC90F0190A24200D144
:1028B000B9E0012461408B468D4200D18DE0B41A0D
:1028C000A446002C00DCB7E0002A00D1CBE0C14ACE
:1028D000964200D186E18022120417436246382ACC
:1028E00000DDA4E11F2A00DD1DE2614620223C003C
:1028F000521A010090409440421E90416246A04608
:102900006446D7404A46E1404446D21B91460C43B8
:1029100004431C1BA34292414B4652429B1A9A46C7
:1029200053461B0200D42BE153465A02530A9A46DF
:102930005346002B00D166E1504600F091FC0300A5
:10294000083B20222000D21A5146D0409940020074
:102950009C400A439E4200DD64E19B1B591C1F29D9
:1029600000DDFEE02023100026005B1A9C4098400A
:10297000CE40CA40631E9C41304392460026044329
:10298000630709D00F232340042B05D0231DA34246
:10299000A4416442A2441C0053461B0200D4F2E04E
:1029A0008C4B01369E4200D10FE153468A49E40820
:1029B0000B4019005B07234372054C02240B520D98
:1029C00012052243ED072A431800110003B0F0BCA2
:1029D000BB46B246A946A046F0BDB41AA446002C98
:1029E00059DD002A00D1B0E0564500D1FAE080223E
:1029F000120417436246382A00DDD4E01F2A00DCA7
:102A0000C0E13900203AD1406246202A06D064460F
:102A10004022121B3C00944004430194019C621E1E
:102A200094410C43C3E03C0004432BD08B468D42C1
:102A30002ED06A4CA446B4446446002C5FD0941B4C
:102A4000A446002E00D020E14C461C4300D1C7E133
:102A500061464C1E012900D123E25E4DAC4500D1F8
:102A6000D8E1A4461AE13A00024300D1E4E0220092
:102A7000013A012C00D1C3E156498C4200D1B1E0AA
:102A800094462BE7012461408B468D4200D016E727
:102A900052498C46B4446446002C00D1D3E0911BCB
:102AA0008C46002E00D15EE14A498A4200D1BEE147
:102AB00080214C4609040C43A1466146382900DDBB
:102AC000BAE11F2900DD27E22024641A4946A1400B
:102AD0001E0088466146A340CE4041465C1EA3418D
:102AE000314319430C0063464946D9407F182418E6
:102AF00084429B415B429A461600BA445DE0384CE2
:102B0000721C224200D0DFE04A461A43002E00D059
:102B10005CE1002A00D1CFE13A00024300D17FE11D
:102B20001C1A4A46A3428941D21B4942521A924674
:102B3000120200D40AE2C41AA04280414B4640422D
:102B4000FF1A3B1A9A465D461AE73A00024373D0D1
:102B50002200013A012C00D1CBE0544542D09446EA
:102B600048E710001F3BD840202903D040235B1AC0
:102B70009A401443631E9C41002300269A46044356
:102B8000630700D0FEE65246E3085207134352465D
:102B9000B446D2080F498C452AD01203140B624662
:102BA0005205520D0CE73C000443621E9441E418A8
:102BB0009C42924152424A44924653461B02DFD500
:102BC000044B01369E4200D0A0E0320000240023D6
:102BD000F6E6C046FF070000FFFF7FFF01F8FFFF9A
:102BE000FE070000DB084A46520713434A46D20854
:102BF0001900114300D1B5E18024240314432403B8
:102C0000D54A240BDCE6200000F02AFB0300183331
:102C10001F2B00DC95E622000838824000249E42EB
:102C200000DC9AE6F61ACD4B1A409246A8E63C0024
:102C30000443621E94416CE64A46DB085207134384
:102C40004A46D208A6E7C64C721C224200D0ACE02D
:102C50004A461A43002E00D005E1002A00D156E171
:102C60003A00024300D1DBE01C189C429B414F44D8
:102C7000BA465B429A4453461B0200D480E7524650
:102C8000B64B01261A4092467AE7B34CA24200D1D5
:102C9000C0E080244D4624042543A9466446382CD0
:102CA00053DC61461F2C00DDCDE020251E002D1BCE
:102CB0004C46AB40AC40CE405D1EAB413443234359
:102CC0004C46CC403F1B45E04A461C1AD11BA34250
:102CD0009241524292460A005146521A92461202BC
:102CE00000D583E05346234300D021E6002200258F
:102CF00053E71C189C429B414F44BA465B429A449E
:102D0000534601261B0200D43AE702265246934B53
:102D100001211A401300214062080A43DC075B08C6
:102D20009A4614432CE63900203AD1406246202AC4
:102D300006D064464022121B3C0094400443019498
:102D4000019C621E94410C43E3E5494619430B0084
:102D50005C1EA341C41AA0429B415B42FB1A9A46E7
:102D60005D461600DCE54946194300D1AEE06146F8
:102D700064460139012C00D1E0E0774CA44556D0DF
:102D80008C469AE6614620223C00521A944001008B
:102D90009040A0466446421E90416246E14044464F
:102DA000D7400C430443B94401E76B498A4200D140
:102DB0000CE7181898429B414F445B42FB18DC0714
:102DC00040085B089A4616000443D9E6002A00D062
:102DD00081E03B0003431DD18022002512030BE755
:102DE000C0087B075D460343FA08D3E6C41AA04235
:102DF00080414B464042FF1A3B1A9A465D4697E592
:102E00001C1A4A46A3429B41D71B5B42FB1A9A46B7
:102E1000012685E5C0087B075D460343FA08E7E61F
:102E20004A46DB08520713434A46D208B5E6C008B3
:102E30007B070343FA08DBE6494619430B00591E9A
:102E40008B411C0053E64D46203CE540202905D02F
:102E50004024641A4946A1400B43984643465C1EF1
:102E6000A3412B4376E7002AE1D03A00DB08024376
:102E700000D1B8E64A465207802413434A46240349
:102E8000D208224207D0FE08264204D15D46320015
:102E9000C3087F073B43590FDB004907DB080B439F
:102EA000A6E6C41AA04280414B464042FF1A3B1A94
:102EB0009A465D46012633E53B00034300D115E702
:102EC000C0087B075D460343FA0866E6C0087B0737
:102ED0000343FA085EE63A00DB08024300D182E6CB
:102EE0004A465207802413434A462403D20822420A
:102EF00007D0FE08264204D15D463200C3087F0792
:102F00003B43590FDB00DB0849070B4370E6C00861
:102F10007B070343FA0840E64C462039CC40614623
:102F2000202906D066464021891B4E468E403343F9
:102F300098464346591E8B411C43D8E51C188442D1
:102F400080414F44BA4640428244D9E65346234327
:102F500000D1CBE614E6C046FF070000FFFF7FFF6D
:102F6000FE0700000023014A1C0029E5FF070000BE
:102F700070B505000C481C0316005B000A034900ED
:102F8000120B490D240B5B0D814208D0064A00202C
:102F9000934203D120003043431E984170BD01206D
:102FA0002A43FBD1F2E7C046FF0700000A0030B514
:102FB000134C530009030500090B00205B0DD20FD1
:102FC000A34204DD0F48834202DD0F4BD01830BD11
:102FD0008020400301430D48C01A1F2808DD0C481B
:102FE000C31AD9400B005842002AF0D11800EEE76E
:102FF000084CC540A446634499400B002B43F2E7BC
:10300000FE0300001D040000FFFFFF7F33040000EB
:1030100013040000EDFBFFFF70B5002816D0C317A6
:10302000C5185D40C40F280000F01AF9114B1B1A97
:103030000A2816DC02002E00153296400B22121AC6
:10304000D5405B052D032D0B5B0D03E00024002311
:10305000002500261B052B43E407234330001900FD
:1030600070BD0B3885405B052D0300262D0B5B0DD5
:10307000F0E7C0461E04000010B5041E10D000F09A
:10308000EFF80F4B1B1A0A2811DC0B222100121A31
:10309000D14015300A035B058440120B5B0D01E043
:1030A000002300221B0513432000190010BD22003D
:1030B0000B3882405B0512030024120B5B0DF1E715
:1030C0001E04000070B542024300C40FFE201B0E18
:1030D000591C550A08420CD0E02189008C466D0726
:1030E000120B63441B051343E40723432800190014
:1030F00070BD002B14D1002D1BD0280000F0B0F8BB
:103100000A281CDC0B232A001B1ADA4003001533A3
:103110009D400E4B12031B1A5B05120B5B0DE1E782
:10312000002D09D0130B802212031A436D07084BA0
:10313000D8E700230022D5E70022054BD2E70300A1
:103140002A000B3B9A400025E3E7C04689030000B4
:10315000FF0700000200F0B54B000D03400F5B0DB0
:10316000CC0F6D0A3A490543581CD70008420AD0D3
:1031700038495918FE2916DDFF200022C0051043EA
:10318000E4072043F0BD002B06D13D4326D00522A5
:103190009201520AD8B2F1E72F43EDD08022D20338
:1031A000FF202A43EAE700291BDD9201501E8241DD
:1031B000ED007F0F2A433A43530747D00F231340B4
:1031C000042B00D004328023DB0413403ED0481C83
:1031D000FE29D1D09201520AC0B2CFE700200022CE
:1031E000CCE70A0017322FDB802636042E431E253B
:1031F0006D1A1F2D11DD02225242521A3100D140A8
:10320000202D04D0144A944663449E4037433A002C
:10321000531E9A410A430021CEE7104A38009446D3
:10322000634498403A00411E88419E40EA40304342
:10323000024300215307C1D180211300C90401209A
:103240000B400A42C6D1A3E70023A0E70B009FE78B
:10325000FE07000080FCFFFFA2FCFFFF82FCFFFFD7
:103260001C2101231B04984201D3000C10391B0AB6
:10327000984201D3000A08391B09984201D300097A
:10328000043902A2105C40187047C04604030202D1
:10329000010101010000000000000000064B10B514
:1032A0001868FEF77FF8054B1968FDF71BFD044908
:1032B000FDF718FD10BDC04608030020B400002033
:1032C00000003041064B10B55868FEF76BF8054B0F
:1032D0001968FDF707FD0449FDF704FD10BDC04660
:1032E00008030020B400002000003041064B10B558
:1032F0009868FEF757F8054B1968FDF7F3FC832132
:10330000C905FDF7EFFC10BD08030020B400002044
:10331000064B10B5D868FEF745F8054B1968FDF760
:10332000E1FC011CFDF774F910BDC0460803002044
:10333000B400002037B50C220A4D04002B681A6235
:10334000FCF7E2FE210082B2074B280006F020FACB
:10335000064B01A928000B8002220A2306F018FA66
:1033600037BDC046183E0020881300000D0A00003B
:103370000C2270B5064D04002B681A62FCF7C4FEDF
:10338000962382B2210028005B0006F001FA70BD8E
:10339000F03C0020802110B50248890104F06AF950
:1033A00010BDC04600040050802110B50248C9017C
:1033B00004F060F910BDC04600040050802110B533
:1033C0000448090204F056F94F23012800D00C3BB1
:1033D000180010BD000400508021A02010B5490045
:1033E000C00504F047F910BD10B5012006F0C0FC7F
:1033F000FBE7000010B501224021024804F040F92B
:1034000010BDC0460008005010B5012280210248BE
:1034100004F036F910BDC04600080050012210B576
:103420001100024804F02CF910BDC046000C0050F9
:103430000C22064810B5036805491A629623EE323D
:103440005B00920006F00CFA10BDC046183E00204A
:10345000AC3E00200023F0B54B4C06222360636095
:10346000A360E36023616361FA238BB0474D08AE2C
:103470009B000293019200960123D021280035324F
:1034800004F064FB3088424B778842BA1A80414B83
:103490007ABA1A80B388C0BA5ABAD9BA3E4B0791E1
:1034A0003E491A800491FFF7B7FD00223C4BFEF71E
:1034B0001BFFFFF74FFE0499FFBA08603949380037
:1034C0000591FFF7A9FD0022354BFEF70DFFFFF731
:1034D00041FE05990860344907980691FFF79CFD65
:1034E00000222F4BFEF700FFFFF734FEFA230622DF
:1034F00006999B0008600293019200960123D02157
:1035000028003D3204F022FB3088284B758842BAEF
:103510001A80274BB7886ABA1A80264B7ABA1A8063
:10352000C0BAFFF779FD0022234BFEF7E3FAFFF75D
:1035300011FE224BEDBA061C18602800FFF76CFD47
:1035400000221D4BFEF7D6FAFFF704FE1C4BFFBA14
:10355000051C18603800FFF75FFD0022164BFEF7D0
:10356000C9FAFFF7F7FD174BE6601860049B256169
:103570001B6860612360059B1B686360069B1B687A
:10358000A3600BB0F0BDC046EC020020EC3B002075
:103590002003002022030020240300202803002011
:1035A0000000103F2C0300203003002038120020C0
:1035B0003A1200203C1200200060604030120020CF
:1035C000341200204012002010B5012006F0D0FB7C
:1035D000FBE7000070B5AF25FA26194CFFF70AFF8C
:1035E000AD0000228021200004F04AF87600280077
:1035F00003F024FAFFF708FF300003F01FFA00225F
:103600008021200004F03CF8280003F017FA002283
:103610004021200004F034F8280003F00FFAFFF7EF
:10362000F3FE300003F00AFAFFF7E4FEC82003F0CF
:1036300005FA00228021200004F022F870BDC04667
:103640000008005070B500210500154A154809F022
:10365000E5FD0C22144B15491B6815481A620B3AFC
:1036600006F03EFA134C64220021200009F0D6FD3A
:103670002800FCF749FD104B1B68012B04D15A2888
:1036800002D90E48FFF756FE2900200009F07BFF03
:103690000B49200009F0CAFD2000FFF769FE70BD4C
:1036A000DE03000045050020843D00204405002085
:1036B000F03C0020CC110020C4000020C00E010806
:1036C000E90F01080C2270B50500154B15491B6860
:1036D00015481A620B3A06F003FA0021134A1448FF
:1036E00009F09CFD134C64220021200009F096FD96
:1036F0002800FCF709FD104B1B68012B04D15A2848
:1037000002D90E48FFF716FE2900200009F03BFF02
:103710000B49200009F08AFD2000FFF729FE70BD4B
:10372000843D002044050020F03C0020DE03000022
:1037300045050020CC110020C4000020C00E010867
:10374000E90F0108F7B50C27134B144C1B68050053
:103750001F6201222000124906F0C2F90021114A1D
:10376000114809F05BFD6B4602220021581D09F04B
:1037700055FD1A2301AE3370236828001F62FCF741
:10378000C3FC290082B2094B200006F001F830008A
:10379000FFF7EEFDF7BDC046843D0020F03C002061
:1037A00044050020DE0300004505002088130000CA
:1037B0000C220D4B13B51B680C491A620C480B3ACE
:1037C00006F08EF900210B4A0B4809F027FD6B46E5
:1037D00002220021581D09F021FD1A2301AC20000E
:1037E0002370FFF7C5FD13BD843D00204405002074
:1037F000F03C0020DE03000045050020FA22F8B569
:10380000520006000C000E48002109F007FD03F0ED
:103810000FF9050003F00CF90A4F401BA04207D92D
:103820000948FFF787FD3800FFF784FD002006E018
:103830003100380009F0A2FD0028EBD00120F8BDCE
:10384000D10F0020450500204F0F0108F0B5BA4BFD
:10385000A1B0180004220021129309F0DFFCB74E3A
:1038600004220021300009F0D9FCB54F04220021C8
:10387000380009F0D3FCB34B042200211800109348
:1038800009F0CCFCB04B042200211800119309F080
:10389000C5FCAE4B052200211800139309F0BEFCB5
:1038A000AB4B052200211800149309F0B7FCA94B7B
:1038B000062200211800159309F0B0FCA64B062241
:1038C00000211800169309F0A9FCA44B0622002140
:1038D0001800179309F0A2FCA14B06220021180042
:1038E000189309F09BFC9F4B0622002118001993A6
:1038F00009F094FC9C4B0622002118001A9309F051
:103900008DFC9A4B0622180000211B9309F086FCBF
:10391000974D06220021280009F080FC954B0622D5
:10392000002118001C9309F079FC934B0622180023
:1039300000211D9309F072FC904C1398210009F0AE
:1039400022FE2100149809F01EFE2100159809F0AE
:103950001AFE21001D9809F016FE2100129809F0A8
:1039600012FE2100300009F00EFE21001C9809F023
:103970000AFE2100169809F006FE2100380009F021
:1039800002FE2100280009F0FEFD2100179809F031
:10399000FAFD2100109809F0F6FD21001B9809F0AE
:1039A000F2FD2100189809F0EEFD2100119809F0B0
:1039B000EAFD21001A9809F0E6FD2100199809F0A6
:1039C000E2FDC8226E4D00219200280009F026FC7D
:1039D0006C48FFF777FEFA20400003F02FF828002C
:1039E000694909F0CBFC04001E90FCF78DFB002C0C
:1039F00002D00024012810D86448FFF79BFC13E094
:103A0000601E062808D8FCF791FB044C4E500707AF
:103A100052004E4809F0B7FD01345D491E981EAAB8
:103A200009F0A7FC011EEBD128005A4909F0A6FCB9
:103A300004001F90FCF768FB002C02D00024012832
:103A400049D8554C50220021200009F0E7FB534B88
:103A50003E4D1868FDF734FC119B02000E93414B5C
:103A60004F490D93404B20000C93109B08970B93EC
:103A70003B4B05960A933D4B0993384B07933C4BC0
:103A80000693354B04933B4B03933B4B0293314BD3
:103A900001932F4B00932B0009F054FB200021B021
:103AA000F0BD2B48B6E72B48B4E73348B2E712988D
:103AB000B0E7FCF73BFB32300F0F340F0F0F0F0F47
:103AC00038360F0F3A0F0F0F0F0F3E3C2000133800
:103AD0001528EED901342E491F981FAA09F049FC78
:103AE000011EAED00D2CF1DC022CF3DDE01E0A2805
:103AF000F0D8FCF711FB06EFEFEFEFEF0C0AEFEF5A
:103B00000E00300009F03FFDE4E71A48FAE71248DA
:103B1000F8E73800F6E71648F4E71048F2E710989F
:103B2000F0E71248EEE70E48ECE71198EAE70E4896
:103B3000E8E70C48E6E7C046A0330020A4330020A5
:103B4000A8330020AC330020B03300201C13002029
:103B500021130020F8120020FE1200200413002080
:103B60000A130020101300204C03002046030020FD
:103B7000400300203A03002034030020480D0108D0
:103B800045050020660F0108700F0108790F010834
:103B9000931C0108900F0108C8390020C8110020AB
:103BA000990F010807B56B46D91DFA230870012249
:103BB00002489B0004F078FE07BDC046403C002050
:103BC00010B5A024E40500221021200003F058FDC8
:103BD0000620FFF7E7FF01221021200003F050FD2F
:103BE00010BD10B5A024E40500221021200003F030
:103BF00047FD0420FFF7D6FF01221021200003F02B
:103C00003FFD10BDFA2310B5034C01000322200034
:103C10009B0004F049FE10BD403C002007B50B009E
:103C2000FA210200890000910248110004F0FAFE16
:103C300007BDC046403C002070B5A0260025F60513
:103C4000A0B000221021300004AC03F019FD902038
:103C5000FFF7A8FF20000495A580FFF7D3FF200001
:103C60000221FFF7DBFF30000122102103F008FDE5
:103C700063782278284907A809F064FA07A8FFF7B3
:103C800059FB2A001021300003F0FAFC9F20FFF7B7
:103C900089FF200003210495A580FFF7BFFF3000B6
:103CA0000122102103F0ECFCA078637822781B49F4
:103CB000009007A809F046FA07A8FFF73BFB2A0087
:103CC0001021300003F0DCFC4B20FFF76BFFFA23E0
:103CD00004229B00210012480495A58004F0E4FD15
:103CE00020000621FFF79AFF30000122102103F087
:103CF000C7FC6079637822780390207909490290A3
:103D0000E0780190A078009007A809F01BFA07A8B6
:103D1000FFF710FB20B070BDCC0F0108EC0F0108BD
:103D2000403C00200810010870B5A0250400ED05F6
:103D3000FFF746FF00221021280003F0A1FC2020FD
:103D4000FFF730FF2000FFF75DFF28000122102160
:103D500003F096FCFFF745FFFFF76AFB70BD10B557
:103D6000A024E405FFF72CFF00221021200003F01F
:103D700087FCC720FFF716FF01221021200003F067
:103D80007FFCFFF72EFF10BDF8B5A0270600150039
:103D90000C00FF05FFF714FF00221021380003F08C
:103DA0006FFC0220FFF7FEFE3000FFF72BFF29001B
:103DB0002000FFF733FF38000122102103F060FCE0
:103DC000FFF70FFFFFF734FBF8BDF8B5A02706009B
:103DD00015000C00FF0500221021380003F050FCF4
:103DE0000320FFF7DFFE3000FFF70CFF2900200063
:103DF000FFF714FF38000122102103F041FCF8BD49
:103E00000100114A137850781B02181893780002A9
:103E1000C0184018C3179BB21B181B1413700B4B10
:103E2000034003D50A49013B0B430133D917C9B2FB
:103E3000CB181B125370074B184003D5064B0138A3
:103E40001843013090707047BF000020FFFF0080D2
:103E50000000FFFFFF00008000FFFFFF0A0010B519
:103E6000FE2908D8044B01001800FFF78DFF8020C1
:103E70004000FFF7C5FF10BDBF0000200020054A2D
:103E8000137852781B029B18034A1B029A42404146
:103E90007047C046BF000020FF0003008022F0B53D
:103EA0002B4FC1B000215201380009F0B7F9802230
:103EB000284E00215201300009F0B0F9FFF7DEFF73
:103EC000012805D12448FFF735FA002041B0F0BDA4
:103ED00001200F244042FFF793FF204D39006B78FB
:103EE00028001C401B091B016B70002301342202B7
:103EF000AB70FFF76AFF013C24020021FF226846F5
:103F000009F08CF9002339196846CA5CC254FF2AAB
:103F100017D10021C154FF2300226B441A70694657
:103F2000300009F083F930000D4909F07FF9013CB8
:103F30000C4BFF3C9C42E0D12800FFF7F5FE01202E
:103F4000C4E78022013352009342DDD1E3E7C0464B
:103F500052130020522300202A100108BF00002025
:103F6000E90F010800FFFFFF10B5C0B0FFF786FFA3
:103F7000012818D10D48FFF7DDF9002423002200A5
:103F80000B49684609F0DEF86846FCF7BDF80130D9
:103F900081B201346846FFF761FF052CEED1FFF7CF
:103FA0007DFFFFF77BFF40B010BDC0463710010812
:103FB0005310010810B5FFF7D2FE024802F03EFD93
:103FC00010BDC04630750000F0B5554C0700A54443
:103FD0000191544902920331032205A8039309F089
:103FE000E5FA802206AD2900520005A8FFF7EDFE94
:103FF000012304AA5371802246AE3100520005A865
:10400000FFF7E3FE022304AA5371802286A952001F
:1040100005A8FFF7DAFE00243800FCF775F8A04287
:1040200001D3102C01D1002408E03B5D2B55013455
:10403000F2E7019A2B19125D01341A740198FCF70A
:1040400063F8A04201D3642CF3D1002423AF03E032
:10405000029B1B5D3B5501340298FCF755F8A042CA
:1040600001D33C2CF4D1002403E0039B1B5D3355AA
:1040700001340398FCF748F8A04201D3282CF4D16E
:10408000002450AF03E0CC9B1B5D3B550134CC9822
:10409000FCF73AF8A04201D3282CF4D100245AAFFF
:1040A00003E0CD9B1B5D3B550134CD98FCF72CF80C
:1040B000A04201D3282CF4D1002486AF03E0CE9B8C
:1040C0001B5DE3550134CE98FCF71EF8A04203D3E4
:1040D00080235B009C42F2D1002304AA537105A8FF
:1040E000FFF722FE8022290005A85200FFF74CFEB0
:1040F0000124802204AB31005C7105A85200FFF757
:1041000043FE022304AA5371802205A8520086A907
:10411000FFF73AFE2000C7239B009D44F0BDC04638
:10412000E4FCFFFF480D010813B50D4903220331DC
:1041300001A809F03BFA80220A4C0021520020001D
:1041400009F06CF801A810222100FFF73EFE2000C4
:10415000FBF7DAFF012800D8034C200016BDC0464B
:10416000480D0108133400202B11010837B5084908
:1041700001AD28000322033109F018FA1023054C81
:10418000280064222100AB70FFF71FFE20003EBD17
:10419000480D01081334002037B5084901AD280047
:1041A0000322033109F002FA7423054C28003C2253
:1041B0002100AB70FFF709FE20003EBD480D01084D
:1041C0001334002013B507490322063101A809F072
:1041D000EDF9054C01A828222100FFF7F6FD20008B
:1041E00016BDC046480D01081334002037B50849F4
:1041F00001AD28000322063109F0D8F92822054C28
:1042000028002100AA70FFF7E0FD20003EBDC04657
:10421000480D01081334002037B5084901AD2800C6
:104220000322063109F0C2F95023054C2800282248
:104230002100AB70FFF7C9FD20003EBD480D01080D
:104240001334002070B5FFF705F9134C616820683E
:10425000FCF7DEF9A168FCF7DBF91049051CFCF757
:1042600053F90123002814D10D49281CFCF738F913
:10427000022300280DD12169E068FCF7C9F96169C2
:10428000FCF7C6F90549FCF73FF90323002800D1E4
:104290000300180070BDC046EC0200200000FA4484
:1042A0000000FAC4002370B5104C114D20002360AB
:1042B0006360A360E36023616361A361002329005D
:1042C0002830E361236209F05EF9200029002B30D9
:1042D00009F059F9200029002E3009F054F9200086
:1042E00029003D3009F04FF970BDC046F4040020AC
:1042F000221D0108F0B5254E46220021300097B05E
:1043000008F08CFF224CE269012A3CD104212148AB
:1043100003F0B6F9E068FEF7D5FE14901591206918
:10432000FEF7D0FE12901391A068FEF7CBFE10901E
:104330001191236A27000E936069FEF7C3FE0C906B
:104340000D91A069FEF7BEFE23000A900B912B335E
:1043500008936068FEF7B6FE2300069007912833A5
:1043600004932068FEF7AEFE2300029003910A4DED
:104370002E3300933D373B0029003000E26908F0FE
:10438000E1FE17B0F0BD0022C0E7C0467C39002036
:10439000F4040020000C00503911010870B50D49DB
:1043A000051CFCF7D5FAFCF78BFF04006420604382
:1043B000FCF7A6FF011C281CFCF7E2FD0649FCF7F0
:1043C000C7FA051C2000FCF79BFF291CFCF720F90D
:1043D00070BDC0460000C8420000704270B50500C4
:1043E000074C32220021200008F018FF2B00062184
:1043F000044A200008F072FE2000FEF79BFF70BD0B
:10440000AF3E002028110108030000201A78002A7E
:1044100000D1704701335040F8E710B52A2104005D
:1044200008F011FF10220021013007F001FF0023E6
:10443000C2B201340134611E09782A2904D1981AC4
:1044400042425041C0B210BD4B40F3E71FB50F4888
:10445000FEF770FFFFF7F0FB0D4C0E4B2200210022
:10446000200061340C3232310193009302945330B6
:10447000FFF7AAFD0848FEF75DFFFFF755FEFEF7C0
:1044800059FFFA20C00002F0D9FA1FBD77110108C8
:10449000480D010899110108A711010800B593B052
:1044A0003422002105A808F0B9FE0021102201A83D
:1044B00008F0B4FE8020800003F078FC022305930E
:1044C000FE3340220893002305A809930A920C9317
:1044D00003F098FC011E01D072B6FEE7072301939A
:1044E000A02302900390DB0101A8049303F0E8FEEF
:1044F000002801D072B6FEE713B000BDF0B58DB054
:1045000002F076FAFFF7CAFF1422002107A808F08C
:1045100085FE04220126D34D08216B6BA020134396
:104520006B636B6B8E2713400293029B6B6B1C3289
:1045300013436B636B6BCC4C13400393039B6B6B0C
:104540001E3A33436B636B6BC00533400493049B8B
:104550006B6BBF0013436B636B6B13400593059B41
:104560006B6B00220B436B636B6B0B40069321005C
:10457000069B03F085F80022C021BC4803F080F8B8
:1045800000220721BA4803F07BF800223900B9481D
:1045900003F076F8A0200794002407A9C005089628
:1045A00009940A9402F0B4FFF223B248DB0107A990
:1045B00007930894099402F0ABFF8023AD481B02D7
:1045C00007A907930894099602F0A2FF8023A02070
:1045D0005B0007A9C00507930894099602F098FFAD
:1045E0008023A0205B0107A9C005079308940994C4
:1045F00002F08EFFC0239D4807A9079308960994EF
:104600000A9402F085FF0723994807A907930896A3
:1046100009940A9402F07CFF07970C27954807A994
:10462000089609940A9402F073FFAB6B220033439F
:10463000AB63AB6B0321334009200193019B02F074
:1046400055FD092002F07CFD220003210A2002F022
:104650004DFD0A2002F074FD220003210B2002F020
:1046600045FD0B2002F06CFD3A00210007A808F080
:10467000D5FD814D814B04222B608023DB056B60CF
:1046800080239B032B61AB19DC772B002C331C7030
:104690002B0028003C332C83AC60EC606A61AC7664
:1046A000EA616C62AC622C636C63AC631C70EC649A
:1046B00002F0E6F9A04201D072B6FEE7704B099015
:1046C00007930423280007A9089302F043FB00285E
:1046D00001D072B6FEE76B4B28000793082307A9A9
:1046E000089302F037FB002801D072B6FEE7664B54
:1046F000280007A90793089702F02CFB002801D097
:1047000072B6FEE7614C624BA0602360614B206192
:104710006061A061E061206220006360E66003F0F8
:10472000DDF8011E01D072B6FEE7200003F0F4FAB6
:10473000011E01D072B6FEE7200003F013FB031E3A
:1047400001D072B6FEE75448544A07210260822223
:1047500052004260E022D200C26080229200826158
:10476000F93AFF3A836003614361C26103624362C5
:104770008362C1620363426304F01EF8051E01D028
:1047800072B6FEE701003A0007A808F047FD444C66
:10479000444B20002360444BA5606360F423FF3347
:1047A000E360A56104F076FB002801D072B6FEE755
:1047B0000790099007A9200004F096FB002801D07B
:1047C00072B6FEE7394C3A4B962623600C2500233F
:1047D0002000B6016660A360E36023616561A361A8
:1047E000E36123626362A36205F0F0F8011E01D069
:1047F00072B6FEE7200005F0EBF9011E01D072B69B
:10480000FEE7200005F004FA002801D072B6FEE7AA
:10481000200005F0BFF9002801D072B6FEE7254C54
:10482000254BA060E0602061A061E06120626062D1
:10483000A062200023606660656105F0C7F8011E74
:1048400001D072B6FEE7200005F0C2F9011E01D0CA
:1048500072B6FEE7200005F0DBF900282ED072B614
:10486000FEE7C04600100240108000000008005023
:10487000000C005000040050183A002000240140B1
:1048800002000004000200240008002CEC3B002081
:1048900000540040140E0000403C00200030014055
:1048A000A43C0020001000403F1F0000F03C00200E
:1048B00000380140843D002000440040200005F005
:1048C00069F9031E01D072B6FEE71A481A4A46601B
:1048D00002608360C360036145618361C3610362F9
:1048E0004362836205F072F8041E01D072B6FEE7DF
:1048F00005F0BCF90221114A102005F047FA104BCF
:10490000210018600F4A104805F0E0F90F4B210014
:1049100018600F4A0F4805F0D9F90F4B21001860B5
:104920000E4A0F4805F0D2F90E4B186005F0B0F9A9
:10493000FEE7C046183E002000480040041E010863
:10494000043F0020E01D0108B1610008843500200B
:10495000941D0108E933000840050020BC1D010832
:10496000C9350008B833002070B50421074802F0AB
:104970008DFE074C074D2368002B02D1FFF762FC28
:1049800028602B68002B00DD236070BD000C0050F8
:104990001C03002018030020F7B5037806002D2B18
:1049A00041D1394F0136002433781D00303DEAB241
:1049B000092A3BD9022293432C2B06D1334D0136D1
:1049C00030783038C3B2092B3ED9201C391CFCF793
:1049D00089F920223378041C9343452B21D1737825
:1049E0002D2B42D02A4D013600203778303FFBB2C4
:1049F000092B3DD9FEF766FB06000F00281CFEF7C9
:104A000061FB32003B000BF085FA06000F00201C12
:104A1000FEF758FB32003B00FDF766FCFEF79AFB01
:104A2000041C201CFEBDFE27BF05BCE71849201C46
:104A3000FCF758F9041C2800FCF762FC211CFBF76A
:104A4000E7FD0136041CAFE7FCF75AFC291CFCF714
:104A500049F9011C201CFBF7DBFD0D49041C281C37
:104A6000FBF776FF0136051CAAE7084D0236BBE7C7
:104A70000749FCF737F901903800FCF741FC019930
:104A8000FBF7C6FD0136B0E7000080BFCDCCCC3DC2
:104A900000002041F8B5374F0025390008F006FC2A
:104AA0000400002C00D1F8BD012D0CD132480622A3
:104AB00021002E3008F0E6FB3900002008F0F6FB5C
:104AC00001350400EDE70A2D09D0032D10D1200097
:104AD000FFF762FFFFF762FC274B1860ECE74E21FF
:104AE000200008F0B0FB42425041234BD861E3E77D
:104AF000042D1DD0052D21D0062D27D0092D28D11C
:104B00001E4E0A220021300008F088FB0023E25CE0
:104B1000F2540133042BFAD12E333371023B7371FB
:104B200023791548B37163793100F3713D3002E0A8
:104B300011482830210008F026FDBDE72000FFF7CE
:104B40002BFFFFF72BFC0C4B5860B5E70A482B30C6
:104B5000F0E7072D05D12000FFF71EFF064B9861F7
:104B6000AAE7082DA8D12000FFF716FF024B5861D5
:104B7000A2E7C046931C0108F4040020773500200A
:104B800070B50D4C0025210008F090FB002800D1E5
:104B900070BD0F2D09D1FFF7FFFE084B18612100F2
:104BA000002008F083FB0135F0E7102DF7D1FFF767
:104BB000F3FE024BD860F2E7931C0108F4040020D6
:104BC00070B50D4C0025210008F070FB002800D1C5
:104BD00070BD072D09D106F0A5FB084B1862210016
:104BE000002008F063FB0135F0E7092DF7D1FFF74E
:104BF000D3FE024B9860F2E7931C0108F4040020F6
:104C000070B50400FFF709FC0025060001280ED14D
:104C10002000FBF779FA032809D920001B4908F086
:104C2000ADFBA84205D02000FFF734FF3500280077
:104C300070BD2000164908F0A1FB002804D0200018
:104C4000FFF7BEFF0225F2E72000124908F096FBAD
:104C5000002804D02000FFF793FF0325E7E720009A
:104C60000D4908F08BFB04250028E0D120000B49FA
:104C700008F084FB0135061ED9D12000084908F050
:104C80007DFB35000028D2D00635D0E7B7110108EA
:104C9000BD110108C3110108C9110108CF11010894
:104CA000D511010837B50B4D2800FBF72DFA052863
:104CB00009D9094C002321002800019301AA08F01A
:104CC00058FB002800D137BDFFF79AFF21000020D4
:104CD00001AAF4E794350020E90F010870470000AD
:104CE00070B5164CA04219D1154B1968002914D182
:104CF000144B1B68012B10D1134D2B78002B03D0C4
:104D00002800124A08F08AFA0C22236829001A6245
:104D1000E1222000920004F0E3FE70BD0C4B9842AB
:104D2000FBD1084B1A68012AF7D10023094905680D
:104D300024680B700C332B622362ECE7843D002067
:104D4000883500209400002094350020E7030000FF
:104D5000F03C002044050020034B026810B59A4245
:104D600001D101F059FE10BD002C0140002307497C
:104D700010B50B70064B07481A680C2313620268C3
:104D80001362012204F0ACFE10BDC04644050020B1
:104D9000843D0020F03C0020F0B5464E85B00091E7
:104DA00003920021642230001F0008F037FAFA2233
:104DB000414C00219200200008F030FA01F038FE4A
:104DC000029001F035FE029BC01A0B9B984217D847
:104DD000462001F033FE39490B780193002B5BD05C
:104DE000200008F0D0FB0C99200008F0C7FA011E43
:104DF00042D0009B1B78002B14D1300008F0C3FB7D
:104E00003378002B08D12E48FEF794FA2000FEF7E5
:104E100091FA0A98FEF78EFA642001F00FFE300036
:104E200005B0F0BD2000009908F0A8FA3B78050015
:104E3000002B01D12900E0E73900200008F09EFA9C
:104E4000002815D0039BED182800FBF75DF90190B1
:104E50003800FBF759F9019B834209D92800002249
:104E6000390008F086FA0500FBF74EF95728E1D91A
:104E70000022144B1A60A4E72000134908F07EFAC0
:104E8000002805D12000114908F078FA0028EFD059
:104E90000F48FEF74FFAB3E70A4D2B6801332B603A
:104EA000092B00DC8DE7FEF795FBFFF75FFF019B09
:104EB0002B6086E76D0F0020850B00204505002044
:104EC000F0110108C4390020DB110108E1110108CB
:104ED000E61101081FB50848FEF7B4FB074A084B66
:104EE0000292084A08490192084A002000920C22C6
:104EF000FFF752FF05B000BDF5110108411501088B
:104F0000EB140108881300000012010807120108C1
:104F10001FB50948FEF796FB084A094B0292094A59
:104F20000949126800200192084A00920822FFF7FE
:104F300033FF05B000BDC0462A1201084115010823
:104F4000EB140108C8000020331201083A120108CE
:104F500030B500250F4C85B00F482560FBF7D4F81D
:104F6000042812D90D48FEF76DFB0D4B0D49029335
:104F70000D4B2A001B68052001930C4B00930B007E
:104F8000FFF70AFFFBF7C0F820600022084B1A6009
:104F900005B030BD90350020D0000020A0140108DD
:104FA000AE140108EB0F0108C8000020B714010877
:104FB000B43300207FB5204E3000FBF7A5F81F4D1D
:104FC000042822D91E4C64220021200008F026F972
:104FD0001C49200008F0D7FA31000026200008F014
:104FE00025F920002E60FEF72DFB174B1749029381
:104FF000174B32001B6830000193164B00930B00D7
:10500000FFF7CAFEFBF780F82860134801F016FD91
:105010002B68002B03D01148FEF78CF90123104AAE
:105020000D48136001F00AFD0E4800F023F8FA2045
:10503000400001F003FD7FBDD0000020903500202E
:10504000210B0020D8140108ED140108EB0F010812
:10505000CC000020F8140108DC0500002015010830
:10506000B43300201335002010B5FFF771FFFFF7B0
:10507000A1FF10BD70B51F4D04002B68002B32DD61
:105080001D48FBF741F8042824D900261B482E6050
:10509000FEF7D8FAFA211A488900FEF7AFFB28601C
:1050A000B04218DD20002E60FEF74CFBFA211548B7
:1050B0008900FEF7A3FB2860B04205DC1248FEF72A
:1050C00039F9FEF775FB05E01048FEF733F92000CB
:1050D000FEF730F970BD0E48FEF734FB0D48FEF7C1
:1050E00029F92000EBE70C48FEF724F9FFF7BCFF95
:1050F000F0E7C04690350020D00000202F150108B1
:10510000640F01083C150108441501086C150108DD
:10511000751501087A150108A215010870B504007B
:1051200001F086FC0E4B0F4D1B68002B0CDD0E486A
:10513000FEF700F92800FEF7FDF82000FFF79AFFC0
:105140000A48FEF7F7F870BD094B1B68012B02D126
:105150000848FEF7EFF80848FEF7ECF82800F0E7FB
:10516000B4330020AE3E00200D160108D215010810
:10517000C4000020E2150108051601081FB5094802
:10518000FEF760FA0022084B08490293084B100012
:105190001B680193074B00930B00FFF7FDFD05B063
:1051A00000BDC0462116010841150108EB0F01089A
:1051B000C80000202D1601080022F0B50526264B58
:1051C00087B005901A60FA20C00001F037FC234C2C
:1051D00064220021200008F021F82000204908F076
:1051E000D2F92000059908F021F81E49200008F0A6
:1051F0001DF82000FEF726FA00221B4B1B4F0293DE
:1052000004933B681A4C01931A4B21001000009341
:105210002300FFF7C1FDFAF777FF0F4D2860002844
:1052200011D01548FEF70EFA0022049B21000293CC
:105230003B6810000193114B00932300FFF7ACFD76
:10524000FAF762FF2860013E002E02D02B68002B87
:10525000B9DD07B0F0BDC04690350020210B00201D
:105260004A1601085916010841150108C800002016
:10527000EB0F010863160108801601088D1601085E
:10528000F0B5674887B0FEF755F80A2304936548E0
:1052900001F0D4FB6448FEF7D5F90022634E644D5B
:1052A00002962B68634C0193634B2100100000931E
:1052B0002300FFF771FDFAF727FF002836D1002001
:1052C000049B013B0493002B01D00028DFD05B48F6
:1052D000FEF730F85A4F3800FEF7B4F9594B5A4EE2
:1052E000029304933368534C0193584B00222100DE
:1052F000059300930F202300FFF74EFDFAF704FFFC
:10530000051E0ED13800FEF79DF9049B2A0002937A
:10531000336821000193059B0F2000932300FFF7C2
:105320003BFD4B4801F08AFB07B0F0BD4948FEF752
:1053300001F84948FEF786F9002202962B68210001
:105340000193464B100000932300FFF725FDFAF769
:10535000DBFE0700334801F071FB002FAFD040485F
:10536000FDF7E8FF3F48FEF76DF9002202962B6833
:10537000210001933C4B100000932300FFF70CFD2C
:10538000FAF7C2FE00289AD0384B1F680593002F09
:1053900019D13748FDF7CEFF3648FEF753F902968C
:1053A0002B683A000193344B21000093380023000E
:1053B000FFF7F2FCFAF7A8FE0123059A1360002814
:1053C00000D17CE701E0012F15D02C48FDF7B2FF9A
:1053D0002B48FEF737F90022144B21000293144B9F
:1053E00010001B680193274B00932300FFF7D4FCA8
:1053F000FAF78AFE64E72448FDF79CFF2348FEF78E
:1054000021F9002202962B6821000193204B100005
:1054100000932300FFF7C0FCFAF776FE0023CCE7E9
:10542000B0160108B80B0000E1160108411501088B
:10543000CC000020EB0F0108EC16010884190108CC
:10544000B6190108C2190108C8000020D4190108C2
:1054500070170000071701083D17010862170108BF
:105460007F170108BD170108DD1701089C00002007
:10547000FE1701083F1801086A180108871801087B
:10548000B9180108DE180108F71801083A190108CF
:1054900065190108F0B5974889B001F0CFFA964D2B
:1054A0002800FEF7CFF8954B954F029305933B6884
:1054B000944C0193944B00222100069300930F20FB
:1054C0002300FFF769FCFAF71FFE061E0ED1280025
:1054D000FEF7B8F8059B320002933B682100019368
:1054E000069B0F2000932300FFF756FC02268748F7
:1054F000FEF7A8F8059B002202933B682100019368
:10550000834B0F2000932300FFF746FC012E04D0AD
:10551000FAF7FAFD01260028E9D0FA20C00001F0D0
:105520008DFAFFF7ADFE2800FEF78CF8734B744F31
:10553000029305933B68734E0193764B0022310032
:10554000069300930A203300FFF726FCFAF7DCFDF0
:10555000079000280ED12800FEF774F8059B310053
:1055600002933B680A200193069B079A009333003D
:10557000FFF712FC02256548FEF764F8059B002240
:1055800002933B6831000193614B0A200093330082
:10559000FFF702FC012D04D0FAF7B6FD0125002823
:1055A000E9D00A23FA260593B6005B48FEF74AF8CD
:1055B000524F534D02972B6800220193574B210005
:1055C000009305202300FFF7E7FBFAF79DFD069007
:1055D000300001F033FA069B002B09D10025059B12
:1055E000013B0593002B01D0002DDED009B0F0BDAA
:1055F0004B48FEF727F8002202972B682100019301
:10560000484B100000932300FFF7C6FBFAF77CFD20
:105610000028E3D04448FEF715F8002202972B68D3
:1056200021000193414B100000932300FFF7B4FBCE
:10563000FAF76AFD0028D1D03D48FEF703F80022B2
:1056400002972B68210001933A4B1000009323002E
:10565000FFF7A2FBFAF758FD0028BFD03648FDF748
:10566000F1FF002202972B6821000193334B1000B9
:1056700000932300FFF790FBFAF746FD0028ADD01A
:105680002F4801F0DBF92F48FDF7DCFF00220297DD
:105690002B68210001932C4B100000932300FFF78F
:1056A0007BFBFAF731FD051E98D0300001F0C6F9FA
:1056B000264B1B68002B16D12548FDF73BFE2548DD
:1056C000FFF77AFD300001F0B9F92348FDF732FE0B
:1056D000300001F0B3F9FFF751FD300001F0AEF9F1
:1056E000FFF74CFD7BE7012BECD11C48FDF722FEB8
:1056F0001B48E5E788130000EF1901084115010870
:10570000C8000020EB0F0108F5190108280F010857
:10571000081A01081A1A01082D1A0108391A010875
:10572000611A01086C1A0108931A01089E1A0108EF
:10573000B81A0108C31A0108F01A0108FF1A010873
:10574000B80B00002B1B0108381B01089C0000202F
:105750005F1B0108981B0108E11B0108A21B01083F
:10576000D91B01087FB50023214D22482B60FDF78E
:1057700069FF642001F062F91F4A204B0292204A1F
:1057800020491268002001921F4A00920522FFF76B
:1057900003FB002106F0B4FCFDF7DCFC1B4928608C
:1057A000FAF7B2FE1A4E041E0ED01A480122022148
:1057B00001F066FF012318483360FDF7BBFD286840
:1057C000FBF77EFD04B070BD1448FDF7B3FD14482F
:1057D000FDF7B0FD134B34601C60FFF7C7FA1248A9
:1057E000FDF7A8FD220002210A4801F049FFE6E783
:1057F000C81100201A1C010860160108931C01083A
:10580000C8000020221C0108281C01080000A0403C
:10581000B4330020000C0050461C01084F1C010846
:10582000571C010890350020651C01081FB5FEF7C4
:10583000C1FB074C074B22002100074861340C32A2
:1058400032310294019300931D30FEF7BDFB1FBD62
:10585000480D0108721C0108C80D0108F0B53F4B46
:105860008DB01422002118001D0007F0D7FC3C4B1E
:105870001E22180000218027069307F0CFFCA020ED
:105880007F013900C00501F0F5FE8021354C364E10
:1058900020600901300001F0EDFE39006060300049
:1058A00001F0E8FEA060FDF775FD304B079318602E
:1058B000FDF77AFD2E4B08931860FDF77FFD2D4B09
:1058C00009931870FDF788FD2B4B0A931860FDF7BC
:1058D0000DFD2A4B0B931860FDF71AFD284F386019
:1058E000FDF7DCFC274E3060FDF7ECFC1422706005
:1058F0000021280007F092FC1E220021069807F0E4
:105900008DFC214B21491B6806980393204B1B6893
:105910000293204B1B680193A36800930CCC07F003
:1059200011FC099B1C4C1B7805930A9B1B68049374
:105930003868FDF7C7FB029003910B9B1868FDF7D1
:10594000C1FB00900191079B089A210028001B6869
:10595000126807F0F7FB0DB0F0BDC046BC33002065
:105960008C04002080040020000400501813002044
:1059700004030020900000209C330020B404002089
:10598000E412002008340020E43E0020801C0108BE
:10599000B0040020AC040020951C010870B504215F
:1059A0000400234801F072FE224DAC4225D1224B67
:1059B0001B68002B20D1214C2000FAF7A5FB0A28F8
:1059C00008D92000FFF76EF9FEF794FCFEF7CCFF34
:1059D000FFF744FF1A4B1B68012B0DD12378002BD6
:1059E00004D000212000174A07F018FCE122210012
:1059F0009200280004F074F870BD134DAC42FBD146
:105A0000124C2000FAF780FBE1239B00984206D25B
:105A10000F490B78002B02D0200007F007FC084B41
:105A20001A68012AE8D1002309490B70E1E7C04652
:105A3000000C0050843D0020883500209435002063
:105A400094000020E7030000F03C00204505002002
:105A500044050020F0B5914C642287B0002120005D
:105A600007F0DCFB8E49200007F08DFD8D492000FA
:105A700007F0DCFB8C49200007F0D8FB8B4D8C4BEA
:105A80008C492A681B680391013266D1012B64D1CD
:105A90002B60023B0B60884A884B8949019212684F
:105AA0001B680491013264D1012B62D1019A136009
:105AB0000A00023B1360834B83491F68381CFAF7C6
:105AC0000FFD431E9841814B06001A68013206D132
:105AD000002804D001221A607D4B023A1A607A49EC
