:020000040800F2
:1000000000900020A5620008596100085B610008AB
:1000100000000000000000000000000000000000E0
:1000200000000000000000000000000065B20008B1
:100030000000000000000000D1B20008999C0008F8
:10004000F562000800000000F5620008F562000893
:10005000F5620008F5620008F5620008F562000824
:10006000000000005D6100086D6100088561000806
:10007000F56200089D610008F562000800000000BC
:10008000F5620008AD610008F5620008F56200083D
:10009000F5620008F5620008F5620008F5620008E4
:1000A000F5620008F5620008F5620008BD6100080D
:0800B000CD610008DD610008CC
:1000C00010B5064C2378002B07D1054B002B02D02E
:1000D000044800E000BF0123237010BD0802002087
:1000E00000000000000F0108044B10B5002B03D0E6
:1000F0000349044800E000BF10BDC04600000000F6
:100100000C020020000F01080023C25C0133002A0A
:10011000FBD1581E7047000002B4714649084900DF
:10012000095C49008E4402BC7047C04603B4714666
:10013000490840004900095E49008E4403BC7047ED
:10014000002243088B4274D303098B425FD3030A16
:100150008B4244D3030B8B4228D3030C8B420DD329
:10016000FF22090212BA030C8B4202D312120902B7
:1001700065D0030B8B4219D300E0090AC30B8B42F5
:1001800001D3CB03C01A5241830B8B4201D38B03A3
:10019000C01A5241430B8B4201D34B03C01A524148
:1001A000030B8B4201D30B03C01A5241C30A8B428B
:1001B00001D3CB02C01A5241830A8B4201D38B0276
:1001C000C01A5241430A8B4201D34B02C01A52411A
:1001D000030A8B4201D30B02C01A5241CDD2C3098C
:1001E0008B4201D3CB01C01A524183098B4201D308
:1001F0008B01C01A524143098B4201D34B01C01AF3
:10020000524103098B4201D30B01C01A5241C3086A
:100210008B4201D3CB00C01A524183088B4201D3D9
:100220008B00C01A524143088B4201D34B00C01AC5
:100230005241411A00D20146524110467047FFE731
:1002400001B5002000F0F0F802BDC0460029F7D04B
:1002500076E7704703460B437FD4002243088B4266
:1002600074D303098B425FD3030A8B4244D3030B3D
:100270008B4228D3030C8B420DD3FF22090212BA02
:10028000030C8B4202D31212090265D0030B8B427E
:1002900019D300E0090AC30B8B4201D3CB03C01A68
:1002A0005241830B8B4201D38B03C01A5241430B43
:1002B0008B4201D34B03C01A5241030B8B4201D333
:1002C0000B03C01A5241C30A8B4201D3CB02C01A9E
:1002D0005241830A8B4201D38B02C01A5241430A16
:1002E0008B4201D34B02C01A5241030A8B4201D305
:1002F0000B02C01A5241CDD2C3098B4201D3CB01AC
:10030000C01A524183098B4201D38B01C01A52415A
:1003100043098B4201D34B01C01A524103098B425E
:1003200001D30B01C01A5241C3088B4201D3CB0049
:10033000C01A524183088B4201D38B00C01A52412C
:1003400043088B4201D34B00C01A5241411A00D2DC
:1003500001465241104670475DE0CA0F00D0494245
:10036000031000D34042534000229C4603098B42B5
:100370002DD3030A8B4212D3FC22890112BA030A3D
:100380008B420CD3890192118B4208D389019211BF
:100390008B4204D389013AD0921100E08909C30944
:1003A0008B4201D3CB01C01A524183098B4201D346
:1003B0008B01C01A524143098B4201D34B01C01A31
:1003C000524103098B4201D30B01C01A5241C308A9
:1003D0008B4201D3CB00C01A524183088B4201D318
:1003E0008B00C01A5241D9D243088B4201D34B0033
:1003F000C01A5241411A00D20146634652415B1075
:10040000104601D34042002B00D549427047634655
:100410005B1000D3404201B5002000F005F802BD9A
:100420000029F8D016E770477047C0468446100090
:1004300062468C461900634600E0C0461FB501F0D5
:10044000E5FE002801D40021C8421FBD10B501F00F
:1004500035FE4042013010BD10B501F0D7FE002836
:1004600001DB002010BD012010BDC04610B501F019
:10047000CDFE002801DD002010BD012010BDC046CA
:1004800010B501F05DFE002801DC002010BD012048
:1004900010BDC04610B501F053FE002801DA00205F
:1004A00010BD012010BDC046844608006146FFE72C
:1004B0001FB500F0C9FB002801D40021C8421FBDB0
:1004C00010B500F055FB4042013010BD10B500F0F2
:1004D000BBFB002801DB002010BD012010BDC04681
:1004E00010B500F0B1FB002801DD002010BD012097
:1004F00010BDC04610B500F061FB002801DC0020F3
:1005000010BD012010BDC04610B500F057FB0028FB
:1005100001DA002010BD012010BDC04670B50022D8
:100520000C4B04000D00FFF7B5FF002804D120009C
:10053000290002F031FD70BD064B00222000290089
:1005400002F08AF902F028FD80231B069C466044D5
:10055000F1E7C0460000E04170B505000C00002244
:10056000002328002100FFF777FF002808D128008A
:10057000210000F00FF802000B001000190070BD00
:1005800080231B06E118280000F004F800234242F3
:100590008B41F2E770B500220B4B0D00040001F017
:1005A00099FEFFF7BBFF060002F05CFD0022074B3F
:1005B00001F090FE02000B002000290002F04CF92F
:1005C000FFF7ACFF310070BD0000F03D0000F041CE
:1005D00070B50600080002F015FD0022064B01F080
:1005E00079FE0D000400300002F03CFD2B002200DB
:1005F00000F016FF70BDC0460000F041F8B5474658
:10060000CE464A0243024500C40F500A80464800C5
:100610005B0A000E9209944680B51E0081460200D6
:100620002D0EDF00C90F8C4224D0281A00280EDDC1
:10063000002A3ED16246002A00D1FDE0421E012878
:1006400000D137E1FF2800D1A9E0100039E00028EF
:1006500063D04B46521B002D00D0E0E0002F00D1AC
:10066000CEE0531E012A00D155E1FF2A00D194E0CB
:100670001A00D9E02A1A002A00DC99E0002862D08A
:10068000FF2D00D18BE080236146DB0419438C46AB
:100690001B2A00DCD2E00123DB195A016AD501359F
:1006A000FF2D5BD00122A3491A405B080B40134386
:1006B0001CE0FF2D00D172E080236246DB041A4368
:1006C00094461B2800DC90E00123FB1A5A0151D507
:1006D0009B019E09300002F0B9FD330005388340CC
:1006E000854200DC75E0944A2D1A13405A0704D065
:1006F0000F221A40042A00D004335A013CD5681C4A
:10070000FE2D2BD09B015E0AC0B2C0053043E4072A
:100710002043C0BCB946B046F8BDFE206A1C10425A
:1007200072D1002D00D0AEE0002F00D1ECE0634686
:100730000020002BE9D0FB1A5A0100D4F3E06346F5
:100740000C00DB1BD2E7614600295BD0511E012A59
:1007500000D1A7E0FF2A22D00A0099E7FF20002657
:10076000D3E7FE216A1C114273D0FF2AF6D0150090
:1007700067447B085A07BBD1DB08FF2D0FD05B0213
:100780005E0AE8B2C1E76246002A08D08022D2039E
:10079000134204D04046104201D10C004346002BC6
:1007A000DCD08026F6031E437602FF20760AACE7F3
:1007B000002AD6D0421B002D5CD0FF28EED080232B
:1007C000DB041F431B2A00DC82E001234D46634407
:1007D00063E72022401B0130121A19009340C140E8
:1007E0005A1E934100250B4380E7202361461B1AC4
:1007F000994062460B00C240591E8B41134364E787
:100800000C0043461500B8E76346FE1A730145D451
:10081000002E00D05EE700240020002675E7FF2BA5
:10082000BBD08023DB041F431B2A47DD0123624624
:100830000C004D46D31A49E705009EE76146202388
:10084000D1409B1A62469A4013005A1E93410B43B3
:1008500022E7002D46D1002F62D063460020002BF6
:1008600000D152E73B0063445A0183D5324A013537
:1008700013407FE7002FC4D0531E012A12D0FF2A55
:100880008CD01A009EE7002F00D07CE76346002B37
:1008900083D180260024FF20F60336E763460C0050
:1008A000DE1B17E73B00634401255A0100D461E7D2
:1008B0000225F7E663460125FB1A07E720239B1A6A
:1008C00038009F403B00D0405A1E93410343AEE79F
:1008D00020239B1A39009F403B00D1405A1E934170
:1008E0000B4373E7002F00D158E76246002A00D17E
:1008F00055E78022D203134200D150E7414611420E
:1009000000D04CE743464AE76346002B83D00C00F7
:1009100046460020F9E663460C00DB1B0135D5E6B0
:1009200046460020F1E6002B00D023E700240026F5
:10093000EBE6C046FFFFFF7DFFFFFFFBF0B54F4634
:100940004646D6464502C0B547000C1C6D0A3F0E10
:10095000C60F002F00D16FE0FF2F00D174E00023FD
:10096000802299469A46ED00D20415437F3F6302E8
:100970005B0A984663001B0EE40F002B4DD0FF2B43
:1009800045D042468021D200C90411438846002246
:100990007F3B3100FF1A4B466140C9B20F2B00D993
:1009A000B8E070489B00C3589F4600239846260035
:1009B000454692465346022B00D18DE0032B00D1D1
:1009C000A1E0012B18D03B007F33002B6DDD6A07BF
:1009D00004D00F222A40042A00D004352A0103D56E
:1009E000614B1D403B008033FE2B00DD74E0AA010B
:1009F000520AD8B202E00E0000200022C005F6071D
:100A000010433043E0BCBA46B146A846F0BD434669
:100A1000002B3FD10222FF3F03E04346002B2DD1A4
:100A2000012231004B466140C9B213430F2B38D825
:100A30004E489B00C3589F46002D13D1042399466E
:100A4000033B00279A4692E7002D05D108239946DB
:100A5000063BFF279A468AE70C239946093BFF2766
:100A60009A4684E7280002F0F1FB7627431F9D4059
:100A700000237F4299469A463F1A78E7404602F0A3
:100A8000E5FB4246431F9A4076235B4290461B1A81
:100A900000227EE703234A461A439146FC33032291
:100AA00077E70E00FF200022A8E70122D31A1B2BB4
:100AB000A2DC9E372A00BD40DA406B1E9D411543E3
:100AC0006A0704D00F222A40042A00D004356A01A4
:100AD00044D50120002291E7FF2000228EE78022EA
:100AE0000026FF20D20389E7002398468022D20304
:100AF000154208D04346134205D11A43520226003C
:100B0000FF20520A7AE78022D2032A435202FF20B2
:100B1000520A73E742466B015501AB421AD21B20C1
:100B20000022013F01261C0052005B00002C01DB6B
:100B30009D4201D85B1B324301380028F3D1581E77
:100B4000834113431D003B007F330E00002B00DD6B
:100B50003DE7AAE71A2001225B1BE3E7AA01002078
:100B6000520A4BE7D80F0108FFFFFFF718100108E2
:100B700070B5420045024E024C00C30F6D0A0120C1
:100B8000120E760A240EC90FFF2A06D0FF2C03D0BE
:100B9000A24201D1B54206D070BD002DFCD1FF2C80
:100BA000FAD1002EF8D18B4206D00120002AF3D1D1
:100BB0002800431E9841EFE70020EDE770B54200A2
:100BC00045024E024C00C30F6D0A120E760A240E27
:100BD000C80FFF2A1BD0FF2C0ED0002A1BD1002CDF
:100BE00001D1002E1CD0002D0CD083421CD002213C
:100BF000581E0840013870BD002E22D1002AF4D1C1
:100C0000002DF2D10028F6D101204042F3E7002D5B
:100C100017D1FF2CF0D0002CE7D1002EE5D1E6E76C
:100C20000020002DE7D0E2E7A24205DCEADBB54276
:100C300002D8E7D30020DEE74342584140000138A4
:100C4000D9E702204042D6E770B5420045024E0285
:100C50004C00C30F6D0A120E760A240EC80FFF2A2D
:100C60000BD0FF2C0DD0002A1FD1002C16D1002E46
:100C700014D10020002D10D009E0002D0CD1FF2C44
:100C800013D1002E08D1002A08D0834212D00221AD
:100C9000581E0840013800E0022070BD002DF4D13C
:100CA0000028FAD101204042F7E7002CEDD1002EB8
:100CB000EBD1ECE7A24205DCF2DBB54202D8EFD380
:100CC0000020EAE74342584140000138E5E7C046CA
:100CD00043025B0AF0B54F4646469946D646C30FD7
:100CE00045009846C0B54B460F1C2D0E00D1CBE0F9
:100CF000FF2D00D1CFE08022DB00D2041A43002375
:100D0000914600269A467F3D7C027B00640A1B0EBA
:100D1000FF0F002B00D1A9E0FF2B11D08022E400AF
:100D2000D204144342467F3B5B197A400020D2B282
:100D30005D1C0A2E13DD3A000B2E47D047463FE0DC
:100D40002B00FF33002C1ED10222164342460135F0
:100D50007A40D2B2FF350A2E00DDE4E00220022EF6
:100D60001CDC013E012E42D802283DD0012866D16C
:100D700000200021C0050843D2071043E0BCBA465A
:100D8000B146A846F0BD03221643424601357A40DB
:100D9000D2B2FF350A2E00DDE4E003200121B1408C
:100DA000A626F60031420AD19026B600314216D16D
:100DB000B93EFF3E0E421AD0A146824600E017001F
:100DC00053463A00022B0FD04C4650460328CDD153
:100DD0008021C90321434902FF20490ACAE7802133
:100DE0000022FF20C903C5E7FF200021C2E7200C35
:100DF00049462404240C27000E0C0904090C7443F2
:100E00004F4346434843390C001909188C4203D913
:100E100080204002844666443F0408043F0CC01909
:100E20008401671EBC41090C800E891904438901A5
:100E30000C43090171D5012361081C400C432B00B0
:100E40007F33002B51DD610704D00F21214004299D
:100E500000D00434210103D5434B1C402B008033C8
:100E6000FE2BC1DCA101490AD8B283E7002C2CD1AA
:100E7000012342461E432B007A400120D2B25D1C62
:100E80000A2E00DD57E76AE7002B10D10123042664
:100E900000259A4638E7002B04D102230826FF25B7
:100EA0009A4631E703230C26FF259A462CE748464D
:100EB00002F0CCF94A46431F76259A4000236D4242
:100EC000914600269A462D1A1EE7200002F0BEF930
:100ED0004246431F9C402B1A763B7A400020D2B2F8
:100EE0005D1C0A2E00DD26E739E70121CB1A1B2BFA
:100EF00000DD3DE79E352100AC40D940631E9C419A
:100F000021434B0704D00F230B40042B00D00431A6
:100F10004B0104D5012000212CE71D008FE789013A
:100F20000020490A26E702230F2E0CD180214B46D0
:100F3000C9030B420DD00C420BD1214349023A00A8
:100F4000FF20490A16E70B2E00D0F7E6A1469A4685
:100F500036E780214B46C903194349024246FF2028
:100F6000490A07E70323DFE7FFFFFFF7F0B5C646AF
:100F700043025B0A4500DA00C40F48024F00944662
:100F8000420A1E00904600B52D0E3F0EC90F800983
:100F9000FF2F59D0012251408C4239D0EA1B002A40
:100FA00058DD002F68D0FF2D00D1D1E08023DB0475
:100FB00018431B2A00DCE3E001236246D31A5A01DE
:100FC00000D4ACE09B019E09300002F03FF93300F1
:100FD00005388340854200DCC6E0B24A2D1A134032
:100FE0005A0704D00F221A40042A00D004335A01B1
:100FF00000D497E06A1CFE2D00D184E09B015E0ABC
:10100000D2B2D0053043E407204380BCB846F0BDDF
:10101000EA1B002A41DD002F6BD0FF2D00D197E0A5
:101020008023DB0418431B2A00DCCCE0012363444B
:101030005A0174D50135FF2D65D001229A491A4015
:101040005B080B401343CBE700281FD08C4222D013
:101050002A00FF3A002A35D07A1B002D00D099E0F3
:101060006346002B00D1DDE0531E012A00D105E1CB
:10107000FF2A6BD01A0094E0002873D0511E012A79
:1010800000D1DFE0FF2A63D00A0092E7012251403D
:10109000A14200D082E72A00FF3A002A36D07A1B0C
:1010A000002D00D1AAE0FF2F00D1DAE080236146B5
:1010B000DB0419438C461B2A00DCD4E001233D00ED
:1010C0001B18B5E7FE276A1C174271D1002D00D00E
:1010D0009EE06346002B00D1D5E00022002800D11D
:1010E0008FE71B1A5E0100D4D6E063460C00C31ADA
:1010F00076E7002836D0511E012A00D19AE0FF2A57
:1011000026D00A008FE7FF2200267AE7FE276A1C16
:10111000174262D0FF2AF6D01500604443085A07F0
:1011200000D05FE7DB08FF2D12D05B025E0AEAB257
:1011300067E76246002A00D193E0002808D08022A9
:10114000D203134204D04046104201D10C00434662
:10115000002BD8D08026F6031E437602FF22760AA3
:101160004FE743461500DEE72022401B0130121AEC
:1011700019009340C1405A1E934100250B432FE7AD
:1011800020239B1A010098400300D1405A1E93412E
:101190000B4312E7FF2FD9D080236446DB041C43A6
:1011A000A4461B2A52DD01230C003D00C31A06E7AA
:1011B00063461E1A730139D4002E00D004E70024C0
:1011C000002200261DE720239B1A010098400300FF
:1011D000D1405A1E93410B4329E7002DA9D1634604
:1011E000002B56D00022002800D10AE703006344F8
:1011F0005A0194D52B4A0135134090E76346002BE2
:10120000AFD0531E012A15D0FF2A2AD01A0052E768
:101210006246002A91D1002898D180260024FF221E
:10122000F603EEE60C00434615007CE763460C002F
:10123000C61AC9E60300634401255A0100D46EE7CB
:101240000225FAE6634601251B1AB8E66446202308
:10125000D4409B1A62469A4013005A1E934123437E
:10126000A2E7434674E761462023D1409B1A6246B9
:101270009A4013005A1E93410B4320E763460C002B
:101280000125C31A9BE6002899D00C00464600228F
:10129000B7E646460022B4E6002B00D03FE7002424
:1012A0000026AEE6FFFFFFFBFFFFFF7D410242008D
:1012B000C30F490A0020120E7E2A03DD9D2A02DD9B
:1012C000094A98187047802000040143952A07DCDA
:1012D0009620821AD1404842002BF3D10800F1E752
:1012E000963A9140F7E7C046FFFFFF7F70B50028B0
:1012F00013D0C317C5185D40C40F280001F0A6FF26
:101300009E2301001B1A962B0FDC082831D00839C8
:101310008D406D026D0AD8B202E000240020002545
:10132000C0052843E407204370BD992B0CDD05223E
:10133000121A2800D040020008001B308540280007
:10134000451EA84102431500052916DC2A000F4856
:1013500002406E0709D00F263540042D05D0043217
:10136000550102D59F2302405B1A9201550AD8B25B
:10137000D6E76D0296206D0AD2E74A1F95402A00F3
:10138000024802406E07F0D0E5E7C046FFFFFFFBD2
:1013900070B5041E0ED001F059FF9E2301001B1AE8
:1013A000962B0CDC08282CD008398C406402640A87
:1013B000D8B201E000200024C005204370BD992B65
:1013C0000ADD020020001B3290400200501E8241C4
:1013D0000520401AC4401443052916DC22000F489A
:1013E0000240650709D00F252C40042C05D004329B
:1013F000540102D59F2302405B1A9201540AD8B2CD
:10140000DAE764029620640AD6E74A1F9440220075
:10141000024802406507F0D0E5E7C046FFFFFFFB4A
:10142000F0B54F464646D6460400C0B51F000B0334
:1014300010004E005B0ACD0F610F7A001943E300E4
:101440003C03FF0FBC46640A470F2743760D520D3D
:10145000C000B9468046B71A654500D19BE0002F11
:1014600000DC84E0002A00D1BEE0C84A964200D1E8
:1014700024E180224C4612041443A146382F00DD9B
:1014800067E11F2F00DDD6E120224C46D21B94409D
:10149000A2464446FC402000544604434046904047
:1014A000421E90414A46FA400443891A1C1BA3423B
:1014B000924152428B1A9A4653461B0200D4D4E002
:1014C00053465A02530A9A465346002B00D104E170
:1014D000504601F0BBFE0300083B20222000D21A38
:1014E0005146D040994002009C400A43B34200DA82
:1014F00002E19B1B591C1F2900DDA7E020231000DF
:1015000026005B1A9C409840CE40CA40631E9C4116
:101510003043924600260443630709D00F2323403B
:10152000042B05D0231DA342A4416442A2441C0005
:1015300053461B0200D49BE0944B01369E4200D1DF
:10154000B8E053469249E4080B4019005B07234377
:1015500072054C02240B520D1205ED0722432A435B
:1015600018001100E0BCBA46B146A846F0BD002FF5
:1015700048D0971B002E00D00EE10C001C4300D178
:10158000B7E17C1E012F00D126E2804DAF4200D191
:10159000D5E1270007E1002F00DCB2E0002A47D0A8
:1015A0007A4A964200D189E080224C4612041443C4
:1015B000A146382F6BDC1F2F00DC6EE13A00484655
:1015C000203AD0408446202F07D040224846D21BE4
:1015D000904002004046104380464046421E9041E3
:1015E00062460400144357E04A46024300D103E137
:1015F0007A1E012F00D193E1644CA74200D18AE109
:1016000017003BE7634C721C224200D0E0E00A0066
:101610001A43002E00D074E1002A00D1D0E14A46DE
:10162000024300D0E3E14A07DB081343C90829E07D
:101630004A46024300D17DE17A1E012F00D1E0E04D
:10164000524CA74200D166E11700B2E710001F3BE1
:10165000D840202903D040235B1A9A401443631ECC
:101660009C41002300269A460443630700D055E7B7
:101670005246E3085207134352463700D108434A03
:1016800097421FD009037A050C0B520D64E74246BE
:101690004C461443621E9441E4189C4292415242CB
:1016A00092468A4453461B02DFD5384B01369E4290
:1016B00000D0B3E03200002400234DE74A07DB08E6
:1016C0001343C9081A000A4300D100E2802424030E
:1016D0000C4324032D4A240B3EE7200001F0B6FD05
:1016E000030018331F2B00DCF7E622000838824085
:1016F0000024B34200DBFCE6F61A254B1A40924662
:101700000AE7002F2BD0971B002E00D1B8E01F4C0A
:10171000A24200D11CE1802424042143382F00DDA3
:101720001EE11F2F00DD9EE120260C00F61B180095
:10173000B340B440F8405E1EB341F94004431C433B
:101740008944444444459B415B424B449A461600BD
:10175000A8E742464C461443621E9441A6E60D4C4F
:10176000721C224200D0A8E00A001A43002E00D0CA
:101770000AE1002A00D15EE14A46024300D061E15D
:101780004A07DB081343C9087CE7C046FF0700008F
:10179000FFFF7FFFFE070000CF4CA24200D1CEE04A
:1017A000802424042143382F5BDC1F2F00DDDCE084
:1017B00020250C00ED1B1E00AB40AC40FE405D1E22
:1017C000AB413443F9401C434B465B1A99464CE00D
:1017D0004A461C1A881AA34292415242924602007B
:1017E0005046121A9246120278D45346234300D030
:1017F0006AE60021002545E74A07DB081343C908CC
:101800003DE71C189C429B4149448A465B429A44EE
:10181000534601261B0200D427E702265246AF4B4F
:1018200001211A401300214062080A43DC075B08CB
:101830009A46144370E63A004C46203AD440A446F7
:10184000202F07D040224846D21B9040020040463D
:10185000104380464046421E9041624604001443B5
:1018600024E619430C00631E9C4143461C1BA04503
:101870009B4149465B42CB1A9A46654616001BE6D9
:101880000C001C4300D1C7E07C1E012F00D1F9E001
:10189000914EB7425CD0270040E720224C4640469C
:1018A000D21B9440F840044340469040421E904171
:1018B0004A46FA4004438918EEE6874CA24200D11A
:1018C000F9E6181898429B4149445B42CB18DC0763
:1018D00040085B089A4616000443C6E64246D41AFE
:1018E000A04580414B464042591A0B1A9A4665461C
:1018F000EAE54B464A46C0085B0765460343D10804
:10190000BDE6002A00D08EE04B46034317D180216C
:1019100000250903DAE64A07DB081343C908D1E6C4
:101920001C1A4A46A3429B41891A5B42CB1A9A462B
:101930000126C1E54A07DB081343C9089FE6434671
:10194000D8084B464A465B0765460343D108B9E6CB
:101950004346D8084B464A465B070343D108B1E6E5
:1019600019430C00631E9C41EBE63C000D00203C3B
:10197000E540202F03D04024E41BA1400B431C0072
:10198000631E9C412C4370E7002AE1D04A46024383
:10199000C1D04A07DB0813438022C9081203114251
:1019A00008D04846C408144204D143462100DB084D
:1019B000420713435A0FDB005207DB08134381E64B
:1019C0004B46034300D114E74B464A46C0085B0729
:1019D00065460343D10855E6C41AA04580414B46ED
:1019E0004042591A0B1A9A466546012664E51C1AAC
:1019F0004A46A34280418A1A4042121A9246120273
:101A000049D54246D41AA04580414B464042591A16
:101A10000B1A9A4665467FE54B464A46C0085B0767
:101A20000343D1082BE64A46DB08024338D14A0774
:101A30001343C90846E64B464A46C0085B070343C2
:101A4000D1081FE61C189C429B4149448A465B42D0
:101A50009A4453461B0200D407E652461F4B012608
:101A60001A40924601E63C000E00203CE640202F42
:101A700003D04024E41BA1400B431C00631E9C4187
:101A800034435EE643448342804149448A464042AF
:101A90001C008244BCE65346234300D1A9E6E4E59A
:101AA0004A0713438022C9081203114209D048464D
:101AB000C408144205D1434665462100DB084207AD
:101AC00013435A0FDB00DB0852071343FAE50023E8
:101AD000014A1C0040E5C046FF070000FFFF7FFFF2
:101AE000F0B557464E464546DE46E0B50C031F00AE
:101AF0004B0081469246050085B0240B5B0DCE0F4E
:101B0000002B00D152E1D24A934200D16EE1420F44
:101B1000E40014438022120422439046CD4AC500BB
:101B200093469B440023994600933C037B00504618
:101B3000240B5B0DFF0F002B00D11AE1C44A934226
:101B400000D15EE1420FE4002243802424041443C8
:101B5000C04AC10094465A466344D31A9B460020AB
:101B600033007B409A464B460F2B27D8BA4A9B003E
:101B7000D3589F46B246009B022B16D0032B00D1B0
:101B800087E2012B00D0D5E00023002200251B05B1
:101B900013435246D20713432800190005B0F0BC86
:101BA000BB46B246A946A046F0BD00220025A84B80
:101BB000EDE7BA46A0460D000090DCE7444500D2B0
:101BC000C4E100D1BFE101235B429C462E004046A8
:101BD0000025E34423020C0E1C431B0C99462304EE
:101BE0000A021F0C494600920197FEF72FFB0200E4
:101BF0007A430B04310C804619438A4207D90123EA
:101C00005B429C460919E0448C4200D801E2881AE4
:101C10004946FEF71BFB019A360442430904360C81
:101C200003000E43B24204D93619013BB44200D836
:101C3000E9E1B01A4246009E12041A43330C1F0019
:101C4000110C9046029313043204160C32001B0C44
:101C50005A4303967B434E437943170CBC469B196A
:101C600063449E4203D980267602B44661441E0C2A
:101C7000711816041B04360C9E19884202D312D127
:101C8000B54210D243465A1E009B9C4665441F0035
:101C90009D429B415B421B19C018844200D29EE1C9
:101CA00000D199E19046AE1BB542AD41401A6D425C
:101CB000401B844200D1D2E14946FEF7C7FA019A9F
:101CC0000B044243310C050019438A4200D96CE1F0
:101CD000881A4946FEF7BAFA019A360442430904C3
:101CE000360C03000E43B24200D953E10398B61AF2
:101CF00002002D041D43029F2B041B0C5A437B43FF
:101D00009C46290C4843130C84446344794398420D
:101D100003D98020400284466144180C12041B043D
:101D2000120C40189B18864200D200E100D1FBE063
:101D300001231D43494B5B44002B00DCAAE06A07EA
:101D400000D03DE1E9084246D20106D54246444B67
:101D50001A4080239046DB005B44424A934200DDF8
:101D600023E742465B05550752020D43120B5B0DFC
:101D70000DE75146214300D17CE0002C00D1FBE06F
:101D8000200001F063FA02000B3A1D239B1A524611
:101D90000100DA40534608398B408C401900144347
:101DA000314B58449B4683440020D9E6030023432B
:101DB000984644D0002C00D1CFE0200001F046FA34
:101DC000010002000B391D235B1A49461000D9405F
:101DD000083884400B004D46234398468540234BEA
:101DE0009B1A9B460023994600939EE602002243DD
:101DF00090461DD108229B46022300259146009360
:101E000093E65146214309D102234A461A43184B0F
:101E100091469C4600240220E344A1E603234A465F
:101E20001A43134B91469C4651460320E34497E6E0
:101E30000C229B460323A0469146009375E604239B
:101E4000994600239B460133002500936DE6C0466A
:101E5000FF07000001FCFFFF58100108FF0300000E
:101E6000FFFFFFFEFE070000F30300000DFCFFFF75
:101E700001F8FFFF4A4601231A439146002401203E
:101E80006EE6002380229A460025884B12037EE6E8
:101E900001256D420122D21A382A00DD74E61F2A7C
:101EA00000DCBDE01F214942CB1A4146D9400B005E
:101EB000202A04D041467E4A5A4491400D432900CD
:101EC0004A1E9141194307231D0000220D400B4279
:101ED00000D1D0E00F2200230A40042A00D1C7E03D
:101EE0000A1D8A42894149425B1811001A0200D436
:101EF000BEE001230022002549E68022434612036A
:101F0000134208D0144206D122431203BA460D00F0
:101F1000664B120B3BE68022434612031A43120320
:101F2000B246624B120B32E6002B00D102E7A61933
:101F30006A1EA64200D289E0864200D29FE000D10C
:101F4000AFE01500F4E6A94200D93CE64346DE07BF
:101F500058086B081E43ED073CE601F077F90100D5
:101F60000200153120321C2900DC2CE74B460838D2
:101F700083400025984632E701F068F903001A0013
:101F8000153220301C2A00DCFFE65446083B0021B5
:101F90009C4005E73619013BB44200D9A6E6B2429F
:101FA00000D8A3E6831E3619A0E60919013D8C422C
:101FB00000D98DE68A4200D88AE6851E091987E68F
:101FC0000F222A40042A00D1BCE6291DA942AD41B6
:101FD0006D42C908A844B6E6AF4200D962E6814224
:101FE00004D800D05EE6AE4200D85BE602235B4236
:101FF0009C46009BE0449C4665449D429B415B425D
:102000001B19C0184FE6B24200D812E6831E3619DB
:102010000FE68A4200D8FAE5831E98460919F6E5CC
:10202000244B28005B4441469D409940D0406B1EA4
:102030009D41434601432943D3404A0700D155E718
:102040000F220A40042A00D04AE74FE715008642D3
:1020500000D06DE6009A9A4200D069E66AE6164B17
:102060005B44002B00DC13E701250021A8446AE64D
:102070005D075B021A0BC90800230D4387E5009931
:10208000023D4A008A42BF417F423F19F619009241
:10209000DDE78022434612031A431203034B120B5F
:1020A00075E500999942EAD31500D3E7FF070000D0
:1020B0003E0400001E040000FF030000F0B54E4681
:1020C0004546DE4657469046E0B517001A03120B08
:1020D0000500844619480E034C0091465A00DB0F58
:1020E0009B46360B640DC90F520D844219D08242B3
:1020F00010D0012094420ED14E450CD10120C44590
:1021000009D1594517D0002C05D130002843431E72
:10211000984100E00120F0BCBB46B246A946A0466B
:10212000F0BD330001202B43F5D1A242F3D14B4641
:102130003B43F0D1E2E70020EDE7C046FF07000097
:10214000F0B54746CE460400180016001B031B0BD3
:102150002D4D4A00994680B543000F03A446B04672
:102160003F0B520DC90F5B0DC00FAA4221D0AB42ED
:1021700013D0002A22D13C43002B02D14D462E43DE
:1021800022D0002C10D0814222D0022001390840F8
:102190000138C0BCB946B046F0BD4D462E4329D1EA
:1021A000002AF0D13C43EED10028F2D10120404278
:1021B000EFE73D0025431DD19342EED0002BE2D145
:1021C0004C462643DFD1E0E70020002CE1D0DCE7DD
:1021D0009A420ADCE8DB4F45D7D80ED000204F45A5
:1021E000D7D20029E2D00800D3E74342584140004B
:1021F0000138CEE702204042CBE7C445C5D80020D5
:10220000C445C6D2EDE7C046FF070000F0B547461B
:10221000CE460400180016001B031B0B2C4D4A0071
:10222000994680B543000F03A446B0463F0B520DBC
:10223000C90F5B0DC00FAA420DD0AB4210D0002ACF
:1022400027D13C43002B11D14D462E430ED1002007
:10225000002C15D00EE03D00254310D1934218D13B
:102260004D462E430BD1002A02D13C43002C0BD00B
:10227000814214D0022001390840013800E00220D8
:10228000C0BCB946B046F0BD0028F9D1012040429B
:10229000F6E7002BECD14C462643E9D1EAE79A4217
:1022A00004DD4342584140000138E9E79A42EBDB44
:1022B0004F45DFD806D000204F45E1D20029E5D0B8
:1022C0000800DDE7C445D5D80020C445D8D2F5E7DD
:1022D000FF070000F0B54546DE4657464E46E0B5DE
:1022E0001F000B031B0B9B464D00CB0F04009146B8
:1022F000984687B06D0D00D1CDE1CE4B9D4200D107
:10230000E9E15A46430FD2001343802212041A43D4
:10231000C3009A46C84B93469C460023002665445A
:1023200000933C037B004846240B5B0DFF0F002B02
:1023300000D189E1BF4A934219D0420FE400224301
:10234000802424041443BC4A00219446424663443A
:102350005B190193019B7A400133C000D2B2029312
:102360000A2E1CDD3A000B2E5ED0474656E0494649
:10237000B04B2143EB18019300292AD1802002227F
:1023800000012B0084461643424663447A40D2B291
:1023900002930A2E00DD31E2002000240221022EE9
:1023A00026DC013E012E52D802294CD0012900D052
:1023B00018E10023002400251B052343D207134303
:1023C0002800190007B0F0BCBB46B246A946A0469B
:1023D000F0BD8021032209012B008C4616434246A2
:1023E00063447A40D2B202930A2E00DD28E2032130
:1023F0000125B540AC46A6266346F600354033427B
:102400000BD19026B600334218D1B93EFF3E1E4292
:102410001DD0A3468246009100E0170000993A00C3
:10242000022910D05C4650460329BFD180231B03EC
:102430001C43240305007F4B240BBDE780240022AE
:102440007C4B2403B8E7002400257A4BB4E75346BD
:102450001E04360C1F0C3300010C0004000C434317
:10246000984603007B43994633004B439C464346C2
:102470000D001B0C9A467D43CC44D4440095E145A5
:1024800004D980235B0299464D44009563461B0C9A
:102490001D0063461B049C4643461B041B0C9846C8
:1024A000634643440393230C984633002404240CCE
:1024B00063439C4623007B43994643465E435F4308
:1024C0004E446346B2461E0C5644B14503D98023A0
:1024D0005B0299464F44330C99463B004B440593AD
:1024E0006346AC461F043F0C3604F619B4446346F9
:1024F00004935B461B0C9C465B461F043F0C3B0051
:1025000043439946634643439A464B4660461B0CF9
:102510009B4648437943514459448A4503D9802313
:102520005B029A4650440B0C9A464B461B041B0C0C
:1025300099463B006343090445464944994663462E
:102540005C436B439C464B461B0C98466F433F19BC
:1025500047445044BC4203D980235B029846C4449C
:10256000049B009D98464544B542B6417342984647
:102570004B461E04059B3C049946360CA4194C445A
:10258000A14683466E18C1448E428941CB445D46C4
:1025900049426D189C42A441C1459B4183458041FD
:1025A0008D4289415B4264421C434042039B494245
:1025B000014370023F0C1843E419471EB8416418E8
:1025C0006444F60D61023043EC0D6E020C4330435F
:1025D000C90100D4F1E00121430801400B43E007A9
:1025E000184364081549029B8C466344002B00DCA9
:1025F00097E0410709D00F210140042905D0011DB2
:1026000081428041404224180800E10106D5802122
:10261000C9008C460A4B1C40029B634409498B420B
:1026200000DD10E76107C50864025B050D43240B5C
:102630005B0DC1E6FF07000001FCFFFFFF03000088
:10264000FFFFFFFEFE0700004B46234359D0002C3E
:1026500000D1A3E0200000F0F9FD010003000B39D8
:102660001D22521A49461800D1404A460838824075
:10267000844010000C43744AEB1A9446424663446B
:102680000193019B7A4001330021D2B202930A2EBA
:1026900000DD67E683E65B4603439A462AD05B4645
:1026A000002B6DD0584600F0D1FD010003000B391E
:1026B0001D22521A210018005D46D140083885407D
:1026C0000A0084402A439346A2465F4D0026ED1A35
:1026D0000023009325E65B4603439A4605D1002379
:1026E0009B460233082600931BE6032382460C26F2
:1026F000009316E600239B46013304260025009331
:102700000FE64246013301951E43019B7A40013397
:10271000002400200121D2B202930A2E00DD21E61E
:102720003DE60121C91A382900DD42E61F2947DDAF
:102730001F2625007642F31ADD402B00202905D004
:102740004249029D8C466544AC402043411E88416D
:10275000184307231D000024054003424AD00F23DD
:1027600000240340042B42D0031D83428041404299
:102770002418180023023AD50123002400251BE663
:1027800000F064FD01000300153120331C298FDDAA
:102790000838002284409246A34696E700F056FD92
:1027A00001000300153120331C2900DC58E702002A
:1027B0004C46083A002094405DE7019B029311E7E4
:1027C000234B26009C460300029DCB406544AE404F
:1027D0001E430300AB40581E834130001843CC40D9
:1027E0004307C7D00F230340042BBDD1C2E76507C1
:1027F0006402240BC00800230543DDE50025022305
:102800000F2E0CD180245B46240323420ED021429C
:102810000CD10C4324033A000E4B240BCCE50B2EB9
:1028200000D0A2E58B46AA460093F7E580245B46DC
:1028300024031C43240342465546064B240BBBE5A8
:102840004D4621000323DBE70DFCFFFF3E040000A3
:102850001E040000FF070000F0B557464E464546EF
:10286000DE46E0B50D000400190010002B035B0AE2
:10287000620F1A43E3000C03640A470F2743D04C4E
:102880006E00914683B04A00C0009846A246760D7D
:10289000ED0F520DC90F0190A24200D1B9E0012401
:1028A00061408B468D4200D18DE0B41AA446002CC5
:1028B00000DCB7E0002A00D1CBE0C14A964200D14B
:1028C00086E18022120417436246382A00DDA4E123
:1028D0001F2A00DD1DE2614620223C00521A010041
:1028E00090409440421E90416246A0466446D740C4
:1028F0004A46E1404446D21B91460C4304431C1B0C
:10290000A34292414B4652429B1A9A4653461B029F
:1029100000D42BE153465A02530A9A465346002BE1
:1029200000D166E1504600F091FC0300083B2022F4
:102930002000D21A5146D040994002009C400A43E0
:102940009E4200DD64E19B1B591C1F2900DDFEE057
:102950002023100026005B1A9C409840CE40CA40BD
:10296000631E9C413043924600260443630709D00E
:102970000F232340042B05D0231DA342A44164420E
:10298000A2441C0053461B0200D4F2E08C4B0136DB
:102990009E4200D10FE153468A49E4080B401900DA
:1029A0005B07234372054C02240B520D1205224390
:1029B000ED072A431800110003B0F0BCBB46B24635
:1029C000A946A046F0BDB41AA446002C59DD002A41
:1029D00000D1B0E0564500D1FAE08022120417433E
:1029E0006246382A00DDD4E01F2A00DCC0E139004D
:1029F000203AD1406246202A06D064464022121B6B
:102A00003C00944004430194019C621E94410C4399
:102A1000C3E03C0004432BD08B468D422ED06A4C41
:102A2000A446B4446446002C5FD0941BA446002EF8
:102A300000D020E14C461C4300D1C7E161464C1E4A
:102A4000012900D123E25E4DAC4500D1D8E1A44676
:102A50001AE13A00024300D1E4E02200013A012CDD
:102A600000D1C3E156498C4200D1B1E094462BE736
:102A7000012461408B468D4200D016E752498C46B6
:102A8000B4446446002C00D1D3E0911B8C46002E48
:102A900000D15EE14A498A4200D1BEE180214C4624
:102AA00009040C43A1466146382900DDBAE11F291B
:102AB00000DD27E22024641A4946A1401E00884612
:102AC0006146A340CE4041465C1EA34131431943B9
:102AD0000C0063464946D9407F18241884429B4124
:102AE0005B429A461600BA445DE0384C721C2242A2
:102AF00000D0DFE04A461A43002E00D05CE1002AF5
:102B000000D1CFE13A00024300D17FE11C1A4A46CE
:102B1000A3428941D21B4942521A9246120200D462
:102B20000AE2C41AA04280414B464042FF1A3B1AB7
:102B30009A465D461AE73A00024373D02200013AF2
:102B4000012C00D1CBE0544542D0944648E7100018
:102B50001F3BD840202903D040235B1A9A401443DE
:102B6000631E9C41002300269A460443630700D05D
:102B7000FEE65246E308520713435246B446D208D3
:102B80000F498C452AD01203140B62465205520D90
:102B90000CE73C000443621E9441E4189C429241BD
:102BA00052424A44924653461B02DFD5044B01363B
:102BB0009E4200D0A0E0320000240023F6E6C0468A
:102BC000FF070000FFFF7FFF01F8FFFFFE07000087
:102BD000DB084A46520713434A46D20819001143FC
:102BE00000D1B5E18024240314432403D54A240BE7
:102BF000DCE6200000F02AFB030018331F2B00DC6A
:102C000095E622000838824000249E4200DC9AE6C5
:102C1000F61ACD4B1A409246A8E63C000443621EC9
:102C200094416CE64A46DB08520713434A46D208F1
:102C3000A6E7C64C721C224200D0ACE04A461A43BA
:102C4000002E00D005E1002A00D156E13A000243EF
:102C500000D1DBE01C189C429B414F44BA465B42CA
:102C60009A4453461B0200D480E75246B64B0126D5
:102C70001A4092467AE7B34CA24200D1C0E08024C9
:102C80004D4624042543A9466446382C53DC61464E
:102C90001F2C00DDCDE020251E002D1B4C46AB4037
:102CA000AC40CE405D1EAB41344323434C46CC4048
:102CB0003F1B45E04A461C1AD11BA3429241524297
:102CC00092460A005146521A9246120200D583E0FB
:102CD0005346234300D021E60022002553E71C1869
:102CE0009C429B414F44BA465B429A44534601265C
:102CF0001B0200D43AE702265246934B01211A40A8
:102D00001300214062080A43DC075B089A4614431B
:102D10002CE63900203AD1406246202A06D064468B
:102D20004022121B3C00944004430194019C621E0B
:102D300094410C43E3E5494619430B005C1EA34153
:102D4000C41AA0429B415B42FB1A9A465D4616009C
:102D5000DCE54946194300D1AEE0614664460139DD
:102D6000012C00D1E0E0774CA44556D08C469AE681
:102D7000614620223C00521A944001009040A04637
:102D80006446421E90416246E1404446D7400C43AF
:102D90000443B94401E76B498A4200D10CE7181893
:102DA00098429B414F445B42FB18DC0740085B089C
:102DB0009A4616000443D9E6002A00D081E03B0081
:102DC00003431DD18022002512030BE7C0087B07B7
:102DD0005D460343FA08D3E6C41AA04280414B463D
:102DE0004042FF1A3B1A9A465D4697E51C1A4A462E
:102DF000A3429B41D71B5B42FB1A9A46012685E5FD
:102E0000C0087B075D460343FA08E7E64A46DB084D
:102E1000520713434A46D208B5E6C0087B0703436E
:102E2000FA08DBE6494619430B00591E8B411C008A
:102E300053E64D46203CE540202905D04024641A45
:102E40004946A1400B43984643465C1EA3412B4391
:102E500076E7002AE1D03A00DB08024300D1B8E669
:102E60004A465207802413434A462403D20822428A
:102E700007D0FE08264204D15D463200C3087F0712
:102E80003B43590FDB004907DB080B43A6E6C41A96
:102E9000A04280414B464042FF1A3B1A9A465D468B
:102EA000012633E53B00034300D115E7C0087B074B
:102EB0005D460343FA0866E6C0087B070343FA0849
:102EC0005EE63A00DB08024300D182E64A4652073A
:102ED000802413434A462403D208224207D0FE0826
:102EE000264204D15D463200C3087F073B43590F99
:102EF000DB00DB0849070B4370E6C0087B07034390
:102F0000FA0840E64C462039CC406146202906D0DC
:102F100066464021891B4E468E40334398464346C1
:102F2000591E8B411C43D8E51C18844280414F44F4
:102F3000BA4640428244D9E65346234300D1CBE609
:102F400014E6C046FF070000FFFF7FFFFE070000FA
:102F50000023014A1C0029E5FF07000070B50500A9
:102F60000C481C0316005B000A034900120B490DB4
:102F7000240B5B0D814208D0064A0020934203D106
:102F800020003043431E984170BD01202A43FBD1ED
:102F9000F2E7C046FF0700000A0030B5134C5300AB
:102FA00009030500090B00205B0DD20FA34204DDCD
:102FB0000F48834202DD0F4BD01830BD8020400304
:102FC00001430D48C01A1F2808DD0C48C31AD94018
:102FD0000B005842002AF0D11800EEE7084CC5401B
:102FE000A446634499400B002B43F2E7FE03000024
:102FF0001D040000FFFFFF7F3304000013040000E6
:10300000EDFBFFFF70B5002816D0C317C5185D4053
:10301000C40F280000F01AF9114B1B1A0A2816DCFD
:1030200002002E00153296400B22121AD5405B0585
:103030002D032D0B5B0D03E000240023002500264B
:103040001B052B43E40723433000190070BD0B38E8
:1030500085405B052D0300262D0B5B0DF0E7C04678
:103060001E04000010B5041E10D000F0EFF80F4B46
:103070001B1A0A2811DC0B222100121AD14015302C
:103080000A035B058440120B5B0D01E00023002264
:103090001B0513432000190010BD22000B3882408D
:1030A0005B0512030024120B5B0DF1E71E04000008
:1030B00070B542024300C40FFE201B0E591C550A76
:1030C00008420CD0E02189008C466D07120B634446
:1030D0001B051343E40723432800190070BD002B90
:1030E00014D1002D1BD0280000F0B0F80A281CDCF9
:1030F0000B232A001B1ADA40030015339D400E4BA8
:1031000012031B1A5B05120B5B0DE1E7002D09D0C2
:10311000130B802212031A436D07084BD8E70023D4
:103120000022D5E70022054BD2E703002A000B3B23
:103130009A400025E3E7C04689030000FF0700002E
:103140000200F0B54B000D03400F5B0DCC0F6D0A74
:103150003A490543581CD70008420AD03849591843
:10316000FE2916DDFF200022C0051043E40720439E
:10317000F0BD002B06D13D4326D005229201520A14
:10318000D8B2F1E72F43EDD08022D203FF202A43AB
:10319000EAE700291BDD9201501E8241ED007F0FFE
:1031A0002A433A43530747D00F231340042B00D040
:1031B00004328023DB0413403ED0481CFE29D1D0CA
:1031C0009201520AC0B2CFE700200022CCE70A00E9
:1031D00017322FDB802636042E431E256D1A1F2D35
:1031E00011DD02225242521A3100D140202D04D06A
:1031F000144A944663449E4037433A00531E9A4112
:103200000A430021CEE7104A3800944663449840B0
:103210003A00411E88419E40EA403043024300216B
:103220005307C1D180211300C90401200B400A4279
:10323000C6D1A3E70023A0E70B009FE7FE0700002D
:1032400080FCFFFFA2FCFFFF82FCFFFF1C2101238B
:103250001B04984201D3000C10391B0A984201D379
:10326000000A08391B09984201D30009043902A257
:10327000105C40187047C0460403020201010101BE
:10328000000000000000000010B5064B1868FEF7B3
:103290007FF8054B1968FDF71BFD0449FDF718FD84
:1032A00010BDC046400200200C000020000030414C
:1032B00010B5064B5868FEF76BF8054B1968FDF71B
:1032C00007FD0449FDF704FD10BDC0464002002083
:1032D0000C0000200000304110B5064B9868FEF746
:1032E00057F8054B1968FDF7F3FC8321C905FDF775
:1032F000EFFC10BD400200200C00002010B5064B72
:10330000D868FEF745F8054B1968FDF7E1FC011C8C
:10331000FDF774F910BDC046400200200C000020EB
:1033200030B583B004000B4D2B680C221A62FCF7F9
:10333000EBFE82B2084B2100280006F0F7F901A944
:10334000064B0B800A230222280006F0EFF903B097
:1033500030BDC04654450020881300000D0A00000F
:1033600070B50400064D2B680C221A62FCF7CCFEE7
:10337000962382B25B002100280006F0D7F970BDC9
:103380002C44002010B5074803680C221A629623CB
:10339000EE32054C5B009200210006F041FA20005D
:1033A00010BDC04654450020E8450020F0B5DE467B
:1033B00057464E464546E0B589B0534C002323603E
:1033C0006360A360E360236163615048FA239B005C
:1033D0009B46029306239846019306AD0095053B54
:1033E0003B22D021059004F02BF92B781B02687842
:1033F000184300B2464B1880AB781B02EF781F438E
:103400003FB2444B1F802B791B026E791E4336B2AC
:10341000414B1E80414B9A46FFF7F4FD0022404B82
:10342000FEF758FFFFF78CFE534618603D4B994658
:103430003800FFF7E7FD0022394BFEF74BFFFFF79F
:103440007FFE4B461860384F3000FFF7DBFD00224F
:10345000334BFEF73FFFFFF773FE38605B46029386
:10346000434601930095053B4322D021059804F083
:10347000E7F82B781B026878184300B22B4B1880B2
:10348000AB781B02EE781E4336B2294B1E802B7997
:103490001B026D791D432DB2264B1D80FFF7B2FD37
:1034A0000022254BFEF71CFBFFF74AFE8046234B0C
:1034B00018603000FFF7A6FD00221F4BFEF710FB3F
:1034C000FFF73EFE061C1E4B18602800FFF79AFD12
:1034D0000022194BFEF704FBFFF732FE194B186070
:1034E00053461B6823604B461B6863603B68A360C0
:1034F0004346E36026616061200009B0F0BCBB4632
:10350000B246A946A046F0BD240200202843002070
:10351000580200205A0200205C02002060020020B5
:103520000000103F6402002068020020A41B00205D
:10353000A61B0020A81B0020006060409C1B0020F0
:10354000A01B0020AC1B002010B58021890102487F
:1035500003F0C2FD10BDC0460004005010B580212C
:10356000C901024803F0B8FD10BDC0460004005078
:1035700010B580210902054803F0AEFD431E5A42F2
:1035800053415B420C201840433010BD00040050F2
:1035900010B58021A0204900C00503F09DFD10BD9D
:1035A00010B5012006F00AFCFBE710B5012006F07B
:1035B00005FCFBE710B58020400007F0E5FF054B58
:1035C0001860002304495A5C83540133402BFAD11C
:1035D00010BDC046103D0020D81E0108F0B5DE46E3
:1035E00057464E464546E0B54A4CA5440400019175
:1035F0001600494B1B68002B22D0B30723D1B30818
:103600005A0091469944A319013B1B783D3B5A420D
:1036100053414A46D31A9946A319023B1B783D3BB6
:103620005A4253414A46D31A9946002E57D03A4B34
:103630001B682000042100241D00B4464E460DE006
:10364000FFF7B8FFD9E73548FFF76AFE002055E0DD
:1036500044460B1D0430614541D219000200037835
:103660000027BB463D2B01D0EB5C9B4653780027DF
:10367000B9463D2B01D0EB5C994693780027B846BC
:103680003D2B01D0EB5C9846D27800239A463D2A28
:1036900001D0AB5C9A46B442DBD25B469B044A46FF
:1036A000120391464B444246920190464344534490
:1036B0009B46631C9A465B461F0C03AA1755B245EE
:1036C00025D2A71CB8461F0A03AA5346D754B045B3
:1036D000BED20334424603AF5B46BB54B9E7019BFD
:1036E0005902012301390E4A891802AAD41C0D4837
:1036F000E25CCA5401338342FAD1012085239B0046
:103700009D44F0BCBB46B246A946A046F0BD544617
:103710009FE7C046ECFDFFFF103D00209810010818
:10372000FC0200200102000070B5204C0122402163
:10373000200003F0D7FC00228021200003F0D2FCFF
:10374000AF25AD00280002F0FDFD01228021200000
:1037500003F0C8FCFA267600300002F0F3FD0022E8
:103760008021200003F0BEFC280002F0EBFD0022C7
:103770004021200003F0B6FC280002F0E3FD012206
:103780008021200003F0AEFC300002F0DBFD0122BE
:103790004021200003F0A6FCC82002F0D3FD002247
:1037A0008021200003F09EFC70BDC0460008005040
:1037B00070B505001848194A002109F019FE184B88
:1037C0001B680C221A62174917480B3A06F09AF93F
:1037D00016486422002109F00BFE2800FCF794FC37
:1037E000134B1B68012B01D15A2810D80F4C29000C
:1037F000200009F0B2FF2000FCF786FC20180D49DC
:10380000032209F0BDFF2000FFF7AAFD70BD0A48A2
:10381000FFF786FDEAE7C046B80E0020DE03000091
:10382000C0440020F80200202C440020381B002057
:1038300014000020C8100108A8100108F0B5C64601
:1038400000B584B005007D4B1B680C221A627C49D0
:103850007C480B3A06F056F97B48FA229200002188
:1038600009F0C6FD79486422002109F0C1FD280055
:10387000FCF74AFC764B1B68012B01D15A281ED855
:10388000724C2900200009F068FF2000FCF73CFC86
:1038900020187049032209F073FF6F4B01221A6050
:1038A0006E48FFF73DFD2000FFF73AFD2000FFF7CF
:1038B00057FD15246A4E644DFA277F0006E06948DB
:1038C000FFF72EFDDCE7380002F03CFD3100280058
:1038D00009F03EFE002802D1013C002CF3D1FA2071
:1038E000800002F02FFD584C2000FFF719FD5E48C4
:1038F000FFF716FD5A49200009F02AFE002817D0CC
:103900005A48FFF70DFD5A494F4809F021FE00289B
:1039100020D0584B1B68002B12DC5748FFF700FDE6
:103920004948FFF7FDFC022004B080BCB846F0BD5A
:103930005248FFF7F5FC4448FFF7F2FC0020F3E79C
:103940004F48FFF7EDFC4F48FFF7EAFC4E48FFF702
:10395000E7FCE2E73C4C2000FFF7E2FC4B48FFF7B6
:10396000DFFC4B49200009F0F3FD01000931200084
:1039700009F0F3FE3A49200009F0EAFD041B023881
:1039800003783D2B0BD0304B00221A554148FFF7EE
:10399000C7FC002400252C4E3700B04606E02A4B19
:1039A0001B19013B00221A70F0E701343000FCF7CC
:1039B000ABFBA04206D93B5D882BF6D0424653555F
:1039C0000135F2E73448FFF7ABFC1F4B00225A5594
:1039D000284B1B68002B20D0023D30492A0001A84B
:1039E00009F09AFC01A8FFF79BFC224C21681648BD
:1039F0002A00FFF7F3FD2368022B14DC01331D4A74
:103A00001360154B00221A602548FFF7D1FEFA20FB
:103A1000800002F097FC012086E71948214A002126
:103A200009F0E6FCD8E71648FFF77AFC1548FFF7DF
:103A300077FC1548FFF774FC0023E0E7C044002042
:103A4000F80200202C440020B80E0020381B002073
:103A500014000020C8100108183D0020CC100108F7
:103A6000F8100108A810010804110108301101081C
:103A700048110108A4020020801101081811010852
:103A8000FC02002058110108681101089811010872
:103A9000B0110108B8110108C0110108CC110108CA
:103AA000D0110108B80B0000F8B506000D000F4852
:103AB000FA225200002109F09BFC02F03DFC0400B8
:103AC0000B4F02F039FC001BA84207D83100380028
:103AD00009F03EFD0028F4D00120F8BD0548FFF7AD
:103AE0001FFC0348FFF71CFC0020F6E744190020E8
:103AF000B80E0020D411010800B583B06B46D91D63
:103B00000870FA2303489B00012204F08FFD03B0E4
:103B100000BDC0467C43002010B5A024E40500226F
:103B20001021200003F0DEFA0620FFF7E5FF012256
:103B30001021200003F0D6FA10BD10B5A024E40532
:103B400000221021200003F0CDFA0420FFF7D4FF5B
:103B500001221021200003F0C5FA10BD10B50100AC
:103B6000FA23034C9B000322200004F05FFD10BDEC
:103B70007C43002000B583B002000B000448FA210A
:103B800089000091110004F02BFE03B000BDC04677
:103B90007C43002070B5A0B0A026F60500221021BD
:103BA000300003F09FFA9020FFF7A6FF1DAC002520
:103BB00025706570A570E570257165712000FFF7AF
:103BC000CDFF02212000FFF7D5FF01221021300098
:103BD00003F088FA637822782C4904A809F09CFB4A
:103BE00004A8FFF79DFB00221021300003F07AFAB1
:103BF0009F20FFF781FF25706570A570E570257126
:103C0000657103212000FFF7B5FF0122102130006C
:103C100003F068FA637822781D49A078009004A820
:103C200009F07AFB04A8FFF77BFB0022102130008B
:103C300003F058FA4B20FFF75FFF25706570A57001
:103C4000E57025716571FA2312489B00042221005A
:103C500004F0ECFC06212000FFF78CFF012210216C
:103C6000300003F03FFA637822780B4960790390C3
:103C700020790290E0780190A078009004A809F0E3
:103C80004BFB04A8FFF74CFB20B070BD601201088D
:103C9000801201087C4300209C12010870B50400CA
:103CA000FFF73AFFA025ED0500221021280003F0C0
:103CB00019FA2020FFF720FF2000FFF74FFF012215
:103CC0001021280003F00EFAFFF737FFFFF75AFB29
:103CD00070BD10B5FFF720FFA024E40500221021DD
:103CE000200003F0FFF9C720FFF706FF0122102193
:103CF000200003F0F7F9FFF720FF10BDF8B506002C
:103D00000C001500FFF708FFA027FF050022102177
:103D1000380003F0E7F90220FFF7EEFE3000FFF76E
:103D20001DFF29002000FFF725FF01221021380088
:103D300003F0D8F9FFF701FFFFF724FBF8BDF8B552
:103D400006000C001500A027FF05002210213800F6
:103D500003F0C8F90320FFF7CFFE3000FFF7FEFEA7
:103D600029002000FFF706FF01221021380003F090
:103D7000B9F9F8BD30B5104A13781B0251785B18B9
:103D80001B0291785B181818C41723041B0C1B180E
:103D90001B141370210C43181B041B0C5B1AD9173E
:103DA000FF252940CB181B125370240E0019054023
:103DB0002D1B957030BDC0461000002010B50A00C4
:103DC000FE2900D910BD054B01001800FFF796FF32
:103DD00080204000FFF7CEFFF4E7C046100000202F
:103DE000054A13781B0252789B181B02034A0020D5
:103DF00000219A424841704710000020FF00030054
:103E0000F0B5C64600B5C0B02F488024640122003A
:103E1000002109F0EDFA2D482200002109F0E8FA0E
:103E2000FFF7DEFF012818D001204042FFF7A2FF74
:103E3000274843780F271F4001370F2293434370D1
:103E4000002383703A02204C2100FFF778FF013FE6
:103E50003F023C1980256D001DE01E48FFF760FA07
:103E600000202CE000226946CA541B4B9846FF23D1
:103E700000226946CA54154E300009F0C1FA3000DC
:103E8000FCF742F930181549032209F079FC474440
:103E9000444447450FD0FF220021684609F0A8FAA4
:103EA00068460023E25C0270FF2ADBD00133013058
:103EB000AB42F7D1D9E70648FFF7F0FE012040B04A
:103EC00080BCB846F0BDC046CC1B0020CC2B0020E7
:103ED00010000020C012010800FFFFFFC8100108F9
:103EE00030B5C1B0FFF77CFF012801D041B030BD33
:103EF0000D48FFF715FA00240C4D2300220029007D
:103F0000684609F009FA6846FCF7FEF8013081B20C
:103F10006846FFF753FF0134052CEED1FFF770FF21
:103F2000FFF76EFFE2E7C046D0120108EC1201086D
:103F300010B5FFF7CEFE024802F004FA10BDC046ED
:103F400030750000F0B5DE4657464E464546E0B5B2
:103F5000604CA544824601900E0091469846CE9D45
:103F6000CF9C03AF5C4B1A883A809B78BB70802350
:103F70005B009B461A0084A93800FFF7E0FE01238E
:103F80007B705A4644A93800FFF7D9FE02237B70A4
:103F90005A4604A93800FFF7D2FE01275346013BD9
:103FA0009A465346DB5D02AA4C495218D3550198F4
:103FB000FCF7AAF8B84211D30137112FF1D100272D
:103FC00084ABFB18F25D1A7401373000FCF79CF8E3
:103FD000B84205D3642FF3D1002602E00027EFE7B3
:103FE0000026A1AF4B469B5DBB5501364846FCF70A
:103FF0008BF8B04203D33C2EF4D13B3E00E00126C7
:104000000827FF3702AB9C46674401235B424344C9
:1040100099464B469B5DBB554046FCF775F8B04250
:1040200004D30136292EF4D1002600E000264EAF3D
:10403000AB5DBB5501362800FCF766F8B04203D3F0
:10404000282EF5D1002500E0002558AF635D7B5593
:1040500001352000FCF758F8A84203D3282DF5D1EC
:10406000012400E0012402ABDD1DD09B5F1E022372
:10407000FF3398463B5D2B55D098FCF745F8A0429E
:1040800002D301344445F5D103AD00236B70280001
:10409000FFF704FE80246400220084A92800FFF7B3
:1040A0002DFE01236B70220044A92800FFF726FE95
:1040B00002236B70220004A92800FFF71FFE0120D5
:1040C000C5239B009D44F0BCBB46B246A946A04612
:1040D000F0BDC046ECFCFFFF180F0108070200000E
:1040E00010B582B00D4B1A8869468A809B788B7117
:1040F0000B4C802252000021200009F079F9102297
:10410000210001A8FFF71BFE2000FBF7FDFF01289F
:1041100002D9034802B010BD0248FBE7180F01089E
:10412000043C0020C413010810B5FFF73FF9144CFC
:1041300061682068FCF762FAA168FCF75FFA041C6A
:104140001049FCF7D7F9002816D10F49201CFCF7BD
:10415000BDF9002812D10A4C2169E068FCF74EFA3B
:104160006169FCF74BFA0749FCF7C4F9431E984113
:1041700043420320184010BD0120FCE70220FAE76B
:10418000240200200000FA440000FAC470B50E4C6E
:10419000002323606360A360E36023616361A36124
:1041A0000023E36123627826268520002B30074D0B
:1041B0000222290009F0E4FAE68520003D300222BF
:1041C000290009F0DDFA70BDA8020020D41301080F
:1041D000F0B5C64600B596B028484622002109F041
:1041E00007F9274BDB69012B42D000220421254827
:1041F00002F078FF224C3D239846A044E769224E06
:104200001E4DE068FEF754FF149015912069FEF7EB
:104210004FFF12901391A068FEF74AFF1090119182
:10422000236A0E936069FEF743FF0C900D91A0691D
:10423000FEF73EFF0A900B9123002B330893606832
:10424000FEF736FF06900791230028330493206879
:10425000FEF72EFF029003912E34009443463A005D
:104260003100280009F058F816B080BCB846F0BDFF
:1042700001220421034802F035FFBBE7084100207A
:10428000A8020020000C0050D813010870B5051CCE
:104290000C49FCF753FBFDF709F804006420604368
:1042A000FDF724F8011C281CFCF760FE0649FCF70A
:1042B00045FB051C2000FDF719F8291CFCF79EF9A9
:1042C00070BDC0460000C8420000704210B5040036
:1042D0002A2109F0A2F801301022002108F0C6F8C6
:1042E000C1B263782A2B0CD0023400225A40013428
:1042F000631E1B782A2BF9D1881A43425841C0B259
:1043000010BD0022F8E7000010B584B00F48FFF799
:1043100007F8FFF73FFC0E4B0E4C22000C32210039
:104320003431200058306834029401930093FFF731
:1043300009FE0948FEF7F4FFFFF7D2FEFEF7F0FF93
:10434000FA20C00001F0FEFF04B010BD18140108EF
:104350003C140108180F01084C14010800B593B073
:104360003422002105A809F043F81022002101A8F9
:1043700009F03EF88020800003F0B8FA022305938C
:10438000FE3308930023099340220A920C9305A858
:1043900003F0DEFA00280FD10723019300230293D4
:1043A0000393A023DB010493002101A803F0B0FDD7
:1043B000002803D113B000BD72B6FEE772B6FEE767
:1043C000F0B5DE4657464E464546E0B58DB001F0A5
:1043D00093FFFFF7C3FF1422002107A809F008F894
:1043E000F14D6B6B04273B436B636B6B3B4002935C
:1043F000029B6B6B2022924613436B636B6B1340E3
:104400000393039B6B6B012633436B636B6B3340EE
:104410000493049B6A6B02231A436A636A6B13401A
:104420000593059B6A6B08231A436A636A6B134002
:104430000693069BDD4CA023DB0599460022210054
:10444000180002F04FFEDA4B9B460022C0211800F4
:1044500002F048FE00220721D64802F043FED64B68
:10446000984600228E218900180002F03BFE079436
:104470000896002409940A9407A9484602F040FDD2
:10448000F223DB0107930894099407A9404602F040
:1044900037FD80231B0207930894099607A940461D
:1044A00002F02EFD80235B0007930894099607A96C
:1044B000484602F025FD80235B0107930894099488
:1044C00007A9484602F01CFDC023079308960994EB
:1044D0000A9407A9584602F013FD0723079308968C
:1044E00009940A9407A9B34802F00AFD8E239B00A1
:1044F0000793089609940A9407A9404602F000FD24
:10450000AB6B3343AB63AB6B1E400196019B002248
:104510000321092002F0ACFA092002F0DBFA0022A4
:1045200003210A2002F0A4FA0A2002F0D3FA0022A2
:1045300003210B2002F09CFA0B2002F0CBFA0C2294
:10454000002107A808F054FF9C489D4B036080237E
:10455000DB0543608460C46080239B030361476183
:10456000047644768476C7615346C45444628462B8
:104570000C33C4540463446384631033C454C4646C
:1045800001F0FEFE002800D00CE18E4B07930423BF
:10459000089300230993894807A902F061F80028CD
:1045A00000D047E1884B079308230893834807A965
:1045B00002F056F8002800D03EE1844B07930C230C
:1045C00008937E4807A902F04BF8002800D035E197
:1045D0007F48804B0360804B43600023836001224F
:1045E000C260036143618361C361036202F0C4FE80
:1045F000002800D024E17648002103F021F90028AA
:1046000000D01FE17248002103F046F9002800D0D5
:104610001AE17248724B036082235B0043600023FF
:104620008360E022D200C260036143618022920075
:104630008261F93AFF3AC2610362436283620721F1
:10464000C1620363426303F075FF002800D0FDE000
:104650000C22002107A808F0CBFE6248624B0360E1
:10466000624B436000238360F422FF32C2608361A7
:1046700004F064FB002800D0EAE0002307930993CC
:10468000584807A904F08AFB002800D0E2E0584807
:10469000584B036096239B01436000238360C360F3
:1046A00003610C2242618361C361036243628362DE
:1046B00005F096F9002800D0CEE04D48002105F025
:1046C0009DFA002800D0C9E04948002105F0BCFA55
:1046D000002800D0C4E0464805F070FA002800D059
:1046E000C0E04548454B036096239B01436000238F
:1046F0008360C36003610C2242618361C361036212
:104700004362836205F06CF9002800D0ACE03A48BF
:10471000002105F073FA002800D0A7E036480021F8
:1047200005F092FA002800D0A2E0334805F046FADE
:10473000002800D09EE03248324B036096239B0154
:10474000436000238360C36003610C224261836184
:10475000C36103624362836205F042F9002800D01E
:104760008AE005F0A7FA284A0221102005F038FB5C
:10477000264B1860264A2748002105F0CFFA264B21
:104780001860264A2648002105F0C8FA254B186013
:10479000254A2648002105F0C1FA254B186005F08E
:1047A0009DFAFEE772B6FEE700100240108000009E
:1047B00000080050000C005000040050544100203C
:1047C0000024014002000004000200240008002C24
:1047D0002843002000540040140E00007C430020B9
:1047E00000300140E0430020001000403F1F000067
:1047F0002C44002000380140C04400200044004008
:104800005445002000480040181F0108F0450020D2
:10481000B41E010835580008143D00206C1E010824
:10482000A1350008F4020020901E0108AB350008F5
:10483000E43B002072B6FEE772B6FEE772B6FEE712
:1048400072B6FEE772B6FEE772B6FEE772B6FEE734
:1048500072B6FEE772B6FEE772B6FEE772B6FEE724
:1048600072B6FEE772B6FEE772B6FEE772B6FEE714
:1048700072B6FEE772B6FEE772B6FEE710B5042127
:10488000094802F035FC094B1B68002B06D0084B89
:104890001B68002B01DD054A136010BDFFF744FCC7
:1048A000034B1860F3E7C046000C00505402002090
:1048B00050020020F8B5CE46474680B50500037883
:1048C0002D2B2FD0FE239B0598462E783300303BAE
:1048D000092B2BD80024454F391C201CFCF7F8F974
:1048E000041C30003038FCF701FD211CFBF786FE6C
:1048F000041C01352E783300303B092BECD9022300
:104900009E432C2E14D04146201CFCF7E1F9814631
:104910002B7820229343452B2CD04846C0BCB94667
:10492000B046F8BD0135324B9846CEE70024E6E7A5
:104930006E1C68780200303A092A19D82D4D2B4F89
:104940003038FCF7D3FC291CFCF7C2F9011C201CF1
:10495000FBF754FE041C391C281CFBF7EFFF051C59
:10496000013630780200303A092AE9D93500CAE721
:104970003500C8E76B782D2B32D06E1C1B4B984648
:1049800035782B00303B092B2ED80020174F391CCF
:10499000FCF79EF9041C28003038FCF7A7FC211C0A
:1049A000FBF72CFE013635782B00303B092BEED976
:1049B000FEF77EFB06000F004046FEF779FB320053
:1049C0003B000BF091FB06000F004846FEF770FB22
:1049D00032003B00FDF77EFCFEF7B2FB81469CE710
:1049E000AE1C044B9846CBE70020E1E700002041D5
:1049F000000080BFCDCCCC3DF8B5CE46474680B553
:104A00003E4908F03DFD051E73D000243C4B9946FD
:104A100098461F003D371E002B3620E038482E30C8
:104A20000622290008F018FD1FE04E21280008F09A
:104A3000F4FC334B42425041D861052C25D0062C62
:104A40002BD0092C2ED0072C47D0082C4BD02B492B
:104A5000002008F015FD05000134002849D0012C84
:104A6000DCD00A2CE1D0032C07D0042CE5D124485B
:104A70002830290008F071FEE3E72800FFF71AFF4D
:104A8000FFF704FC1E4B1860D9E72800FFF712FF60
:104A9000FFF7FCFB1A4B5860D5E72900300008F0FF
:104AA0005CFED2E717480A22002108F0A1FC00238F
:104AB0001449EA5C5A540133042BFAD111492E33BC
:104AC0000B71023B4B712B798B716B79CB7100238E
:104AD0000B72380008F041FEB9E72800FFF7EAFE44
:104AE00043469861B3E72800FFF7E4FE4B46586160
:104AF000ADE7C0BCB946B046F8BDC04604120108D7
:104B0000A8020020043D0020F8B50E4908F0B8FCCA
:104B1000002816D000240C4F3E000A4D09E0FFF794
:104B2000C9FE30612900002008F0AAFC01340028E9
:104B300007D00F2CF3D0102CF4D1FFF7BBFEF86098
:104B4000F0E7F8BD04120108A8020020F8B50E49EC
:104B500008F096FC002816D000240C4F3E000A4DA9
:104B600009E006F00BFD30622900002008F088FC07
:104B70000134002807D0072CF3D0092CF4D1FFF71B
:104B800099FEB860F0E7F8BD04120108A802002001
:104B900010B50400FFF79AFB002301280ED1200076
:104BA000FBF7B2FA03283AD91E49200008F0D0FCDE
:104BB000002805D02000FFF71FFF0123180010BDBB
:104BC0001949200008F0C4FC00281ED11749200014
:104BD00008F0BEFC00281DD11549200008F0B8FCE3
:104BE00004230028EAD11349200008F0B1FC052372
:104BF0000028E3D11049200008F0AAFC43425841A4
:104C00004342052293430633D8E72000FFF79EFF77
:104C10000223D3E72000FFF777FF0323CEE700232B
:104C2000CCE7C0465C140108641401086C14010848
:104C3000741401087C1401088414010810B582B0B2
:104C40000D48FBF761FA052801D802B010BD00231A
:104C500001930A49084801AA08F075FC0028F4D01D
:104C6000064CFFF795FF01AA2100002008F06BFC1D
:104C70000028F6D1E9E7C046203D0020C810010811
:104C80007047000010B51A4B984203D0194B984258
:104C90001CD010BD184B1B68002BFAD1174B1B689A
:104CA000012BF6D1164B1B78002B09D11048036855
:104CB0000C221A62D5321249920004F023FFE8E771
:104CC0000F48104A002108F093FBEFE70B4B1B68DD
:104CD000012BDED10C4900230B70064802680C330F
:104CE0001362034A12681362012204F00BFFD0E73B
:104CF000C04400202C440020183D00200400002067
:104D0000203D0020E7030000F802002010B5044B0E
:104D100002689A4200D010BD01F002FBFBE7C046DA
:104D2000002C014010B5074900230B70064B1A6890
:104D30000C231362054802681362012204F0E2FEAC
:104D400010BDC046F8020020C04400202C440020C2
:104D5000F0B5DE4657464E464546E0B583B08A4636
:104D6000019298460D9E4E486422002108F040FBB7
:104D70004C48FA229200002108F03AFB01F0DCFADC
:104D80000500494F494CA34630E04749454B9946F9
:104D9000180008F0E2FC0E99484608F0D9FB0028FC
:104DA00064D053461B78002B38D03E48514608F05B
:104DB000CFFB009043461B78002B43D03948414637
:104DC00008F0C6FB00280ED0009B019A944663446D
:104DD00099461800FBF798F900904046FBF794F9C4
:104DE000009B834233D8314B00221A6001F0A4FAB1
:104DF000401BB04217D8462001F0A4FA3B78002BA4
:104E0000C3D1236801332360092BEFDDFEF78CFC4F
:104E1000FFF788FF00235A461360E7E7204B0100A5
:104E2000180008F09AFC1E4B1B78002B2ED0642033
:104E300001F088FA1A4803B0F0BCBB46B246A94656
:104E4000A046F0BD1648009908F087FCEBE7002269
:104E50004146484608F077FB8146FBF755F957284D
:104E6000C1D80F48494608F078FCDCE710490D48E6
:104E700008F06EFB002805D10E490A4808F068FBCF
:104E80000028B0D00C48FEF74BFACCE70B48FEF7F1
:104E900047FA0448FEF744FA0C98FEF741FAC6E7D1
:104EA000E0180020F8140020B80E00205041002027
:104EB0008C140108941401089C140108A81401081A
:104EC00000B585B00848FEF773FC084B0849094A4D
:104ED0000292094A12680192084A009208220020B0
:104EE000FFF736FF05B000BDF0140108BC1401083F
:104EF000FC140108C814010818000020041501085A
:104F000070B58EB07A48FEF753FC7A497A4B02931B
:104F10007A4B1B6801937A4B00930B000022002010
:104F2000FFF716FF03780025002B29D17548FEF7FF
:104F30003FFC704C744B0293704B1B680193734B96
:104F400000932300002221000020FFF701FF70489A
:104F5000FEF72EFC684B02936E4B1B6801936E4B61
:104F600000932300002221000020FFF7F1FE6B4890
:104F7000FEF7D6F96A4B00221A6028000EB070BD09
:104F80006848FEF7CDF96848FEF712FC5949674BAF
:104F900002935A4B1B680193654B00930B00002250
:104FA0000020FFF7D5FE0378002BBFD06148FEF745
:104FB000B7F96148FEF7FCFBFA214F480901FEF7FB
:104FC00073FD002806DC5D48FEF7AAF95C48FEF791
:104FD000A7F9ABE7FA24E400200001F0B3F9584D3B
:104FE0002800FEF79DF95748FEF79AF9200001F0D6
:104FF000A9F9200001F0A6F92800FEF791F952481E
:10500000FEF7D6FB3C485149FEF74EFD002500282F
:1050100006DC4A48FEF784F94948FEF781F9D2E7F1
:105020004748FEF77DF94A48FEF77AF9FA20C000B2
:1050300001F088F94748FEF7BBFB2E49464B029327
:105040002E4B1B680193454B00930B000022002060
:10505000FFF77EFE0378002BDBD04148FEF760F9B6
:105060004048FEF7A5FB23493F4B0293234B1B68A7
:1050700001933E4B00930B0000220020FFF768FED7
:105080000378002BC5D03A48FEF74AF92C4C200093
:10509000FEF746F93748FEF743F93748FEF740F97F
:1050A0003648FEF73DF93648FEF782FBFA20C0008D
:1050B00001F048F93348FEF733F92000FEF730F9E4
:1050C00004AC314E2300320023CA23C323CA23C3B6
:1050D00012781A702000FEF7B1FB051E03D104A858
:1050E000FEF7ACFB95E70228ECD1013D91E7C04605
:1050F00024150108F0150108C81401081C0000203F
:105100003415010830170108401701084C17010831
:10511000D011010818000020701701088417010839
:10512000183D00205415010860150108701501088C
:105130007C150108A0150108B01501082817010801
:10514000E0180020C8150108D815010870170000E4
:10515000F4150108001601081416010824160108A8
:10516000481601085416010878160108841601082B
:10517000A8160108B8160108C8160108DC160108AF
:10518000E8160108FC1601080C17010800B585B0E7
:105190000848FEF70DFB0849084B0293084B1B68B3
:1051A0000193084B00930B0000220020FFF7D0FD75
:1051B00005B000BD90170108F0150108C8140108DA
:1051C000180000209C170108F0B5CE46474680B570
:1051D00085B080462E4B00221A6005272D4C2600F4
:1051E0000C362D4B9946FA20C00001F0ABF858223E
:1051F0000021300008F0FCF822004B4623CB23C2EC
:105200001A8832809B78B3704146200008F0F8F885
:105210002000FAF779FF201820490A2208F0B0FA96
:105220002000FEF7C5FA1E491E4B02931E4B1B6859
:1052300001931E4B00930B0000220020FFF788FD16
:10524000FAF762FF124B1860002807DC013F002FBD
:10525000C9D105B0C0BCB946B046F0BD1448FEF790
:10526000A7FA0F490F4B02930F4B1B680193114B89
:1052700000930B0000220020FFF76AFDFAF744FFBD
:10528000034B1860013F002FE3D00028ABDDE0E7BF
:105290001C3D002094140020BC170108CC17010805
:1052A000F0150108C814010818000020D8170108DB
:1052B000F817010808180108F0B5C64600B584B013
:1052C0006A48FEF72DF80A24694F6A4D6A4E6B480A
:1052D00001F038F8013C3800FEF76AFA0296684B94
:1052E0001B680193674B00932B00002229000020CC
:1052F000FFF72EFDFAF708FF00282FDC002CE6DC74
:105300006148FEF70DF86148FEF752FA5949604BC3
:105310000293604B1B6801935F4B00930B000022CC
:105320000F20FFF715FDFAF7EFFE00280FDC5748B6
:10533000FEF73EFA4F49564B0293564B1B680193BA
:10534000554B00930B0000220F20FFF701FD53483F
:1053500000F0F8FF04B080BCB846F0BD5048FDF73F
:10536000DFFF5048FEF724FA4249434B0293444B77
:105370001B6801934C4B00930B0000220020FFF7A9
:10538000E7FCFAF7C1FE80463C4800F0DBFF4346ED
:10539000002BB3DD4548FDF7C3FF4548FEF708FA8B
:1053A0003449354B0293364B1B680193414B0093B4
:1053B0000B0000220020FFF7CBFCFAF7A5FE002827
:1053C0009CDD3D4B1B68002B1DD0012B37D03B488B
:1053D000FDF7A6FF3A48FEF7EBF92649264B029364
:1053E000274B1B680193374B00930B0000220020D2
:1053F000FFF7AEFCFAF788FE002C00DC80E70028FF
:1054000000DD7DE763E73048FDF78AFF2F48FEF7B0
:10541000CFF91849184B0293194B1B6801932C4B79
:1054200000930B0000220020FFF792FCFAF76CFEBD
:105430000122214B1A60002800DC5FE7C7E72548FE
:10544000FDF76EFF2448FEF7B3F90A490A4B0293B1
:105450000B4B1B680193214B00930B000022002093
:10546000FFF776FCFAF750FE0022E2E72C1801085D
:1054700060180108F0150108C8140108B80B0000F5
:105480001C0000206C180108241B0108581B01088F
:10549000641B010818000020781B01087017000029
:1054A00088180108C0180108E8180108081901083F
:1054B000481901086819010808000020AC1A010801
:1054C000E01A0108081B01088C190108D01901080D
:1054D000FC1901081C1A0108601A01088C1A01083D
:1054E000F0B5C64600B584B0A94800F02BFFA94826
:1054F000FEF75EF9A849A94B0293A94B1B680193DB
:10550000A84B00930B0000220F20FFF721FCFAF7B5
:10551000FBFD00280FDC9F48FEF74AF99E499F4B90
:1055200002939F4B1B6801939E4B00930B0000223C
:105530000F20FFF70DFC9C48FEF73AF99649974B70
:105540000293974B1B680193984B00930B0000222A
:105550000F20FFF7FDFBFAF7D7FD00280FDC92487C
:10556000FEF726F98C498D4B02938D4B1B680193F6
:105570008E4B00930B0000220F20FFF7E9FBFA206F
:10558000C00000F0DFFEFFF797FE8248FEF710F93B
:105590008149824B0293824B1B680193844B009399
:1055A0000B0000220A20FFF7D3FBFAF7ADFD00281D
:1055B0000FDC7848FEF7FCF87749784B0293784B7C
:1055C0001B6801937A4B00930B0000220A20FFF71F
:1055D000BFFB7548FEF7ECF86F49704B0293704BB8
:1055E0001B680193714B00930B0000220A20FFF708
:1055F000AFFBFAF789FD00280FDC6B48FEF7D8F8FF
:105600006549664B0293664B1B680193674B009399
:105610000B0000220A20FFF79BFB0A25654B9846EA
:105620005D4E5E4F11E06448FDF77AFE6348FFF778
:10563000CBFD96E06248FDF773FE6248FFF7C4FDBC
:105640008FE0013D002D00D19DE04046FEF7B0F80F
:105650000297534B1B6801935B4B0093330000226E
:1056600031000520FFF774FBFAF74EFD0400FA2025
:10567000800000F067FE002CE3DD5448FEF798F848
:105680004549464B0293464B1B680193504B009390
:105690000B0000220020FFF75BFBFAF735FD002826
:1056A000CFDD4C48FEF784F83B493C4B02933C4B22
:1056B0001B680193484B00930B0000220020FFF76A
:1056C00047FBFAF721FD0028BBDD4448FEF770F8E0
:1056D0003149324B0293324B1B680193404B00938C
:1056E0000B0000220020FFF733FBFAF70DFD002826
:1056F000A7DD3C48FEF75CF82749284B0293284B6E
:105700001B680193384B00930B0000220020FFF729
:105710001FFBFAF7F9FC002893DD344800F012FE75
:105720003348FEF745F81C491C4B02931C4B1B6881
:105730000193304B00930B0000220020FFF708FB81
:10574000FAF7E2FC002800DC7BE7FA20800000F09A
:10575000F9FD294B1B68002B00D164E7012B00D118
:1057600068E7FA24A400200000F0ECFD2348FDF7D0
:10577000D7FD200000F0E6FDFFF708FD200000F057
:10578000E1FDFFF703FD04B080BCB846F0BDC046A4
:1057900088130000941B0108F0150108C8140108C3
:1057A000180000209C1B0108D0110108B01B010843
:1057B000C41B0108D81B0108181D0108541D01084D
:1057C000601D0108981D0108E41B01080C1C01085C
:1057D000181C0108401C01084C1C0108681C010829
:1057E000741C0108A41C0108B41C0108B80B0000BB
:1057F000E01C0108F01C010808000020A01D0108A1
:1058000010B584B0FEF794FB074B084C22000C3215
:105810002100343106482430683402940193009307
:10582000FEF790FB04B010BDDC1D0108180F010845
:10583000980F0108F0B5C64600B586B07A48FA233D
:105840009B0002930123019316246C44009475225B
:10585000D02101F0F5FE2378682B00D1ACE01725AC
:105860006D44002398462B706F4EFA27BF000297B5
:1058700001240194009523006B22D021300001F017
:10588000E1FD07232B700297019400952300192254
:10589000D021300001F0D6FD43462B7002970194D1
:1058A000009523001C22D021300001F0CBFD43469F
:1058B0002B7002970194009523001B22D021300009
:1058C00001F0C0FD5948FDF72BFD594B00221A602D
:1058D0005A609A60DA601A615A6180263602A02501
:1058E000ED0501223100280001F0FCFB514C0122A2
:1058F0004021200001F0F6FB01228021200001F070
:10590000F1FB4D494D48042201F054F801222021B9
:105910004B4801F0E7FB01223100280001F0E2FBD7
:1059200001224021200001F0DDFB01228021200026
:1059300001F0D8FB434C00232370434DFA22920020
:105940000021280007F054FD404803680C261E6221
:10595000E1229200290004F0D5F83D4803681E6258
:105960000122210004F0CEF8FEF710FCFFF748FFFB
:10597000FEF7B6FA374800F0E5FCFFF7B1FDFEF799
:10598000C3FC354D14220021280007F031FD334CB3
:1059900014220021200007F02BFDFFF791FA0100EF
:1059A000280007F0DAFEFEF79BFB0100200007F05D
:1059B000D4FEFFF7A5FAFCE717256D4400239846AF
:1059C0002B70194EFA27BF0002970124019400950D
:1059D00023006B22D021300001F034FD07232B700F
:1059E00002970194009523001922D021300001F084
:1059F00029FD43462B7002970194009523001C2239
:105A0000D021300001F01EFD43462B700297019417
:105A1000009523001B22D021300001F013FD104817
:105A2000FDF77EFC51E7C04628430020001E010818
:105A300024020020000800504002002054410020B1
:105A400000040050F8020020203D0020C044002047
:105A50002C44002010270000B01B0020CC3B00206D
:105A6000EC1D0108F0B5DE4657464E464546E0B50A
:105A700089B0434B142200210693180007F0B8FCAC
:105A8000404D1E220021280007F0B2FC80277F0134
:105A9000A0203900C00501F01FFB3B4C2060802195
:105AA0003A4E0901300001F017FB60603900300008
:105AB00001F012FBA060FDF747FD354B9A461860D8
:105AC000FDF74CFD334B99461860FDF751FD324B05
:105AD00007931870FDF75CFD304A90461060FDF7A3
