:020000040800F2
:100000000090002011760008BD740008C17400083B
:1000100000000000000000000000000000000000E0
:1000200000000000000000000000000025C40008DF
:10003000000000000000000091C40008C1AD0008ED
:100040006176000800000000617600086176000813
:100050006176000861760008617600086176000824
:1000600000000000C5740008D5740008ED74000895
:100070006176000805750008617600080000000040
:100080006176000815750008617600086176000841
:1000900061760008617600086176000861760008E4
:1000A0006176000861760008617600082575000811
:0800B0003575000845750008D4
:1000C00010B5064C2378002B07D1054B002B02D02E
:1000D000044800E000BF0123237010BDD0020020BF
:1000E0000000000068210108044B10B5002B03D06C
:1000F0000349044800E000BF10BDC04600000000F6
:10010000D4020020682101080023C25C0133002AC8
:10011000FBD1581E7047000002B4714649084900DF
:10012000095C49008E4402BC7047C04603B4714666
:10013000490840004900095E49008E4403BC7047ED
:10014000002243088B4274D303098B425FD3030A16
:100150008B4244D3030B8B4228D3030C8B420DD329
:10016000FF22090212BA030C8B4202D312120902B7
:1001700065D0030B8B4219D300E0090AC30B8B42F5
:1001800001D3CB03C01A5241830B8B4201D38B03A3
:10019000C01A5241430B8B4201D34B03C01A524148
:1001A000030B8B4201D30B03C01A5241C30A8B428B
:1001B00001D3CB02C01A5241830A8B4201D38B0276
:1001C000C01A5241430A8B4201D34B02C01A52411A
:1001D000030A8B4201D30B02C01A5241CDD2C3098C
:1001E0008B4201D3CB01C01A524183098B4201D308
:1001F0008B01C01A524143098B4201D34B01C01AF3
:10020000524103098B4201D30B01C01A5241C3086A
:100210008B4201D3CB00C01A524183088B4201D3D9
:100220008B00C01A524143088B4201D34B00C01AC5
:100230005241411A00D20146524110467047FFE731
:1002400001B5002000F0F0F802BDC0460029F7D04B
:1002500076E7704703460B437FD4002243088B4266
:1002600074D303098B425FD3030A8B4244D3030B3D
:100270008B4228D3030C8B420DD3FF22090212BA02
:10028000030C8B4202D31212090265D0030B8B427E
:1002900019D300E0090AC30B8B4201D3CB03C01A68
:1002A0005241830B8B4201D38B03C01A5241430B43
:1002B0008B4201D34B03C01A5241030B8B4201D333
:1002C0000B03C01A5241C30A8B4201D3CB02C01A9E
:1002D0005241830A8B4201D38B02C01A5241430A16
:1002E0008B4201D34B02C01A5241030A8B4201D305
:1002F0000B02C01A5241CDD2C3098B4201D3CB01AC
:10030000C01A524183098B4201D38B01C01A52415A
:1003100043098B4201D34B01C01A524103098B425E
:1003200001D30B01C01A5241C3088B4201D3CB0049
:10033000C01A524183088B4201D38B00C01A52412C
:1003400043088B4201D34B00C01A5241411A00D2DC
:1003500001465241104670475DE0CA0F00D0494245
:10036000031000D34042534000229C4603098B42B5
:100370002DD3030A8B4212D3FC22890112BA030A3D
:100380008B420CD3890192118B4208D389019211BF
:100390008B4204D389013AD0921100E08909C30944
:1003A0008B4201D3CB01C01A524183098B4201D346
:1003B0008B01C01A524143098B4201D34B01C01A31
:1003C000524103098B4201D30B01C01A5241C308A9
:1003D0008B4201D3CB00C01A524183088B4201D318
:1003E0008B00C01A5241D9D243088B4201D34B0033
:1003F000C01A5241411A00D20146634652415B1075
:10040000104601D34042002B00D549427047634655
:100410005B1000D3404201B5002000F005F802BD9A
:100420000029F8D016E770477047C0468446100090
:1004300062468C461900634600E0C0461FB501F0D5
:10044000E5FE002801D40021C8421FBD10B501F00F
:1004500035FE4042013010BD10B501F0D7FE002836
:1004600001DB002010BD012010BDC04610B501F019
:10047000CDFE002801DD002010BD012010BDC046CA
:1004800010B501F05DFE002801DC002010BD012048
:1004900010BDC04610B501F053FE002801DA00205F
:1004A00010BD012010BDC046844608006146FFE72C
:1004B0001FB500F0C9FB002801D40021C8421FBDB0
:1004C00010B500F055FB4042013010BD10B500F0F2
:1004D000BBFB002801DB002010BD012010BDC04681
:1004E00010B500F0B1FB002801DD002010BD012097
:1004F00010BDC04610B500F061FB002801DC0020F3
:1005000010BD012010BDC04610B500F057FB0028FB
:1005100001DA002010BD012010BDC04670B50022D8
:100520000C4B04000D00FFF7B5FF002804D120009C
:10053000290002F031FD70BD064B00222000290089
:1005400002F08AF902F028FD80231B069C466044D5
:10055000F1E7C0460000E04170B505000C00002244
:10056000002328002100FFF777FF002808D128008A
:10057000210000F00FF802000B001000190070BD00
:1005800080231B06E118280000F004F800234242F3
:100590008B41F2E770B500220B4B0D00040001F017
:1005A00099FEFFF7BBFF060002F05CFD0022074B3F
:1005B00001F090FE02000B002000290002F04CF92F
:1005C000FFF7ACFF310070BD0000F03D0000F041CE
:1005D00070B50600080002F015FD0022064B01F080
:1005E00079FE0D000400300002F03CFD2B002200DB
:1005F00000F016FF70BDC0460000F041F8B5474658
:10060000CE464A0243024500C40F500A80464800C5
:100610005B0A000E9209944680B51E0081460200D6
:100620002D0EDF00C90F8C4224D0281A00280EDDC1
:10063000002A3ED16246002A00D1FDE0421E012878
:1006400000D137E1FF2800D1A9E0100039E00028EF
:1006500063D04B46521B002D00D0E0E0002F00D1AC
:10066000CEE0531E012A00D155E1FF2A00D194E0CB
:100670001A00D9E02A1A002A00DC99E0002862D08A
:10068000FF2D00D18BE080236146DB0419438C46AB
:100690001B2A00DCD2E00123DB195A016AD501359F
:1006A000FF2D5BD00122A3491A405B080B40134386
:1006B0001CE0FF2D00D172E080236246DB041A4368
:1006C00094461B2800DC90E00123FB1A5A0151D507
:1006D0009B019E09300002F0B9FD330005388340CC
:1006E000854200DC75E0944A2D1A13405A0704D065
:1006F0000F221A40042A00D004335A013CD5681C4A
:10070000FE2D2BD09B015E0AC0B2C0053043E4072A
:100710002043C0BCB946B046F8BDFE206A1C10425A
:1007200072D1002D00D0AEE0002F00D1ECE0634686
:100730000020002BE9D0FB1A5A0100D4F3E06346F5
:100740000C00DB1BD2E7614600295BD0511E012A59
:1007500000D1A7E0FF2A22D00A0099E7FF20002657
:10076000D3E7FE216A1C114273D0FF2AF6D0150090
:1007700067447B085A07BBD1DB08FF2D0FD05B0213
:100780005E0AE8B2C1E76246002A08D08022D2039E
:10079000134204D04046104201D10C004346002BC6
:1007A000DCD08026F6031E437602FF20760AACE7F3
:1007B000002AD6D0421B002D5CD0FF28EED080232B
:1007C000DB041F431B2A00DC82E001234D46634407
:1007D00063E72022401B0130121A19009340C140E8
:1007E0005A1E934100250B4380E7202361461B1AC4
:1007F000994062460B00C240591E8B41134364E787
:100800000C0043461500B8E76346FE1A730145D451
:10081000002E00D05EE700240020002675E7FF2BA5
:10082000BBD08023DB041F431B2A47DD0123624624
:100830000C004D46D31A49E705009EE76146202388
:10084000D1409B1A62469A4013005A1E93410B43B3
:1008500022E7002D46D1002F62D063460020002BF6
:1008600000D152E73B0063445A0183D5324A013537
:1008700013407FE7002FC4D0531E012A12D0FF2A55
:100880008CD01A009EE7002F00D07CE76346002B37
:1008900083D180260024FF20F60336E763460C0050
:1008A000DE1B17E73B00634401255A0100D461E7D2
:1008B0000225F7E663460125FB1A07E720239B1A6A
:1008C00038009F403B00D0405A1E93410343AEE79F
:1008D00020239B1A39009F403B00D1405A1E934170
:1008E0000B4373E7002F00D158E76246002A00D17E
:1008F00055E78022D203134200D150E7414611420E
:1009000000D04CE743464AE76346002B83D00C00F7
:1009100046460020F9E663460C00DB1B0135D5E6B0
:1009200046460020F1E6002B00D023E700240026F5
:10093000EBE6C046FFFFFF7DFFFFFFFBF0B54F4634
:100940004646D6464502C0B547000C1C6D0A3F0E10
:10095000C60F002F00D16FE0FF2F00D174E00023FD
:10096000802299469A46ED00D20415437F3F6302E8
:100970005B0A984663001B0EE40F002B4DD0FF2B43
:1009800045D042468021D200C90411438846002246
:100990007F3B3100FF1A4B466140C9B20F2B00D993
:1009A000B8E070489B00C3589F4600239846260035
:1009B000454692465346022B00D18DE0032B00D1D1
:1009C000A1E0012B18D03B007F33002B6DDD6A07BF
:1009D00004D00F222A40042A00D004352A0103D56E
:1009E000614B1D403B008033FE2B00DD74E0AA010B
:1009F000520AD8B202E00E0000200022C005F6071D
:100A000010433043E0BCBA46B146A846F0BD434669
:100A1000002B3FD10222FF3F03E04346002B2DD1A4
:100A2000012231004B466140C9B213430F2B38D825
:100A30004E489B00C3589F46002D13D1042399466E
:100A4000033B00279A4692E7002D05D108239946DB
:100A5000063BFF279A468AE70C239946093BFF2766
:100A60009A4684E7280002F0F1FB7627431F9D4059
:100A700000237F4299469A463F1A78E7404602F0A3
:100A8000E5FB4246431F9A4076235B4290461B1A81
:100A900000227EE703234A461A439146FC33032291
:100AA00077E70E00FF200022A8E70122D31A1B2BB4
:100AB000A2DC9E372A00BD40DA406B1E9D411543E3
:100AC0006A0704D00F222A40042A00D004356A01A4
:100AD00044D50120002291E7FF2000228EE78022EA
:100AE0000026FF20D20389E7002398468022D20304
:100AF000154208D04346134205D11A43520226003C
:100B0000FF20520A7AE78022D2032A435202FF20B2
:100B1000520A73E742466B015501AB421AD21B20C1
:100B20000022013F01261C0052005B00002C01DB6B
:100B30009D4201D85B1B324301380028F3D1581E77
:100B4000834113431D003B007F330E00002B00DD6B
:100B50003DE7AAE71A2001225B1BE3E7AA01002078
:100B6000520A4BE73C220108FFFFFFF77C220108F5
:100B700070B5420045024E024C00C30F6D0A0120C1
:100B8000120E760A240EC90FFF2A06D0FF2C03D0BE
:100B9000A24201D1B54206D070BD002DFCD1FF2C80
:100BA000FAD1002EF8D18B4206D00120002AF3D1D1
:100BB0002800431E9841EFE70020EDE770B54200A2
:100BC00045024E024C00C30F6D0A120E760A240E27
:100BD000C80FFF2A1BD0FF2C0ED0002A1BD1002CDF
:100BE00001D1002E1CD0002D0CD083421CD002213C
:100BF000581E0840013870BD002E22D1002AF4D1C1
:100C0000002DF2D10028F6D101204042F3E7002D5B
:100C100017D1FF2CF0D0002CE7D1002EE5D1E6E76C
:100C20000020002DE7D0E2E7A24205DCEADBB54276
:100C300002D8E7D30020DEE74342584140000138A4
:100C4000D9E702204042D6E770B5420045024E0285
:100C50004C00C30F6D0A120E760A240EC80FFF2A2D
:100C60000BD0FF2C0DD0002A1FD1002C16D1002E46
:100C700014D10020002D10D009E0002D0CD1FF2C44
:100C800013D1002E08D1002A08D0834212D00221AD
:100C9000581E0840013800E0022070BD002DF4D13C
:100CA0000028FAD101204042F7E7002CEDD1002EB8
:100CB000EBD1ECE7A24205DCF2DBB54202D8EFD380
:100CC0000020EAE74342584140000138E5E7C046CA
:100CD00043025B0AF0B54F4646469946D646C30FD7
:100CE00045009846C0B54B460F1C2D0E00D1CBE0F9
:100CF000FF2D00D1CFE08022DB00D2041A43002375
:100D0000914600269A467F3D7C027B00640A1B0EBA
:100D1000FF0F002B00D1A9E0FF2B11D08022E400AF
:100D2000D204144342467F3B5B197A400020D2B282
:100D30005D1C0A2E13DD3A000B2E47D047463FE0DC
:100D40002B00FF33002C1ED10222164342460135F0
:100D50007A40D2B2FF350A2E00DDE4E00220022EF6
:100D60001CDC013E012E42D802283DD0012866D16C
:100D700000200021C0050843D2071043E0BCBA465A
:100D8000B146A846F0BD03221643424601357A40DB
:100D9000D2B2FF350A2E00DDE4E003200121B1408C
:100DA000A626F60031420AD19026B600314216D16D
:100DB000B93EFF3E0E421AD0A146824600E017001F
:100DC00053463A00022B0FD04C4650460328CDD153
:100DD0008021C90321434902FF20490ACAE7802133
:100DE0000022FF20C903C5E7FF200021C2E7200C35
:100DF00049462404240C27000E0C0904090C7443F2
:100E00004F4346434843390C001909188C4203D913
:100E100080204002844666443F0408043F0CC01909
:100E20008401671EBC41090C800E891904438901A5
:100E30000C43090171D5012361081C400C432B00B0
:100E40007F33002B51DD610704D00F21214004299D
:100E500000D00434210103D5434B1C402B008033C8
:100E6000FE2BC1DCA101490AD8B283E7002C2CD1AA
:100E7000012342461E432B007A400120D2B25D1C62
:100E80000A2E00DD57E76AE7002B10D10123042664
:100E900000259A4638E7002B04D102230826FF25B7
:100EA0009A4631E703230C26FF259A462CE748464D
:100EB00002F0CCF94A46431F76259A4000236D4242
:100EC000914600269A462D1A1EE7200002F0BEF930
:100ED0004246431F9C402B1A763B7A400020D2B2F8
:100EE0005D1C0A2E00DD26E739E70121CB1A1B2BFA
:100EF00000DD3DE79E352100AC40D940631E9C419A
:100F000021434B0704D00F230B40042B00D00431A6
:100F10004B0104D5012000212CE71D008FE789013A
:100F20000020490A26E702230F2E0CD180214B46D0
:100F3000C9030B420DD00C420BD1214349023A00A8
:100F4000FF20490A16E70B2E00D0F7E6A1469A4685
:100F500036E780214B46C903194349024246FF2028
:100F6000490A07E70323DFE7FFFFFFF7F0B5C646AF
:100F700043025B0A4500DA00C40F48024F00944662
:100F8000420A1E00904600B52D0E3F0EC90F800983
:100F9000FF2F59D0012251408C4239D0EA1B002A40
:100FA00058DD002F68D0FF2D00D1D1E08023DB0475
:100FB00018431B2A00DCE3E001236246D31A5A01DE
:100FC00000D4ACE09B019E09300002F03FF93300F1
:100FD00005388340854200DCC6E0B24A2D1A134032
:100FE0005A0704D00F221A40042A00D004335A01B1
:100FF00000D497E06A1CFE2D00D184E09B015E0ABC
:10100000D2B2D0053043E407204380BCB846F0BDDF
:10101000EA1B002A41DD002F6BD0FF2D00D197E0A5
:101020008023DB0418431B2A00DCCCE0012363444B
:101030005A0174D50135FF2D65D001229A491A4015
:101040005B080B401343CBE700281FD08C4222D013
:101050002A00FF3A002A35D07A1B002D00D099E0F3
:101060006346002B00D1DDE0531E012A00D105E1CB
:10107000FF2A6BD01A0094E0002873D0511E012A79
:1010800000D1DFE0FF2A63D00A0092E7012251403D
:10109000A14200D082E72A00FF3A002A36D07A1B0C
:1010A000002D00D1AAE0FF2F00D1DAE080236146B5
:1010B000DB0419438C461B2A00DCD4E001233D00ED
:1010C0001B18B5E7FE276A1C174271D1002D00D00E
:1010D0009EE06346002B00D1D5E00022002800D11D
:1010E0008FE71B1A5E0100D4D6E063460C00C31ADA
:1010F00076E7002836D0511E012A00D19AE0FF2A57
:1011000026D00A008FE7FF2200267AE7FE276A1C16
:10111000174262D0FF2AF6D01500604443085A07F0
:1011200000D05FE7DB08FF2D12D05B025E0AEAB257
:1011300067E76246002A00D193E0002808D08022A9
:10114000D203134204D04046104201D10C00434662
:10115000002BD8D08026F6031E437602FF22760AA3
:101160004FE743461500DEE72022401B0130121AEC
:1011700019009340C1405A1E934100250B432FE7AD
:1011800020239B1A010098400300D1405A1E93412E
:101190000B4312E7FF2FD9D080236446DB041C43A6
:1011A000A4461B2A52DD01230C003D00C31A06E7AA
:1011B00063461E1A730139D4002E00D004E70024C0
:1011C000002200261DE720239B1A010098400300FF
:1011D000D1405A1E93410B4329E7002DA9D1634604
:1011E000002B56D00022002800D10AE703006344F8
:1011F0005A0194D52B4A0135134090E76346002BE2
:10120000AFD0531E012A15D0FF2A2AD01A0052E768
:101210006246002A91D1002898D180260024FF221E
:10122000F603EEE60C00434615007CE763460C002F
:10123000C61AC9E60300634401255A0100D46EE7CB
:101240000225FAE6634601251B1AB8E66446202308
:10125000D4409B1A62469A4013005A1E934123437E
:10126000A2E7434674E761462023D1409B1A6246B9
:101270009A4013005A1E93410B4320E763460C002B
:101280000125C31A9BE6002899D00C00464600228F
:10129000B7E646460022B4E6002B00D03FE7002424
:1012A0000026AEE6FFFFFFFBFFFFFF7D410242008D
:1012B000C30F490A0020120E7E2A03DD9D2A02DD9B
:1012C000094A98187047802000040143952A07DCDA
:1012D0009620821AD1404842002BF3D10800F1E752
:1012E000963A9140F7E7C046FFFFFF7F70B50028B0
:1012F00013D0C317C5185D40C40F280001F0A6FF26
:101300009E2301001B1A962B0FDC082831D00839C8
:101310008D406D026D0AD8B202E000240020002545
:10132000C0052843E407204370BD992B0CDD05223E
:10133000121A2800D040020008001B308540280007
:10134000451EA84102431500052916DC2A000F4856
:1013500002406E0709D00F263540042D05D0043217
:10136000550102D59F2302405B1A9201550AD8B25B
:10137000D6E76D0296206D0AD2E74A1F95402A00F3
:10138000024802406E07F0D0E5E7C046FFFFFFFBD2
:1013900070B5041E0ED001F059FF9E2301001B1AE8
:1013A000962B0CDC08282CD008398C406402640A87
:1013B000D8B201E000200024C005204370BD992B65
:1013C0000ADD020020001B3290400200501E8241C4
:1013D0000520401AC4401443052916DC22000F489A
:1013E0000240650709D00F252C40042C05D004329B
:1013F000540102D59F2302405B1A9201540AD8B2CD
:10140000DAE764029620640AD6E74A1F9440220075
:10141000024802406507F0D0E5E7C046FFFFFFFB4A
:10142000F0B54F464646D6460400C0B51F000B0334
:1014300010004E005B0ACD0F610F7A001943E300E4
:101440003C03FF0FBC46640A470F2743760D520D3D
:10145000C000B9468046B71A654500D19BE0002F11
:1014600000DC84E0002A00D1BEE0C84A964200D1E8
:1014700024E180224C4612041443A146382F00DD9B
:1014800067E11F2F00DDD6E120224C46D21B94409D
:10149000A2464446FC402000544604434046904047
:1014A000421E90414A46FA400443891A1C1BA3423B
:1014B000924152428B1A9A4653461B0200D4D4E002
:1014C00053465A02530A9A465346002B00D104E170
:1014D000504601F0BBFE0300083B20222000D21A38
:1014E0005146D040994002009C400A43B34200DA82
:1014F00002E19B1B591C1F2900DDA7E020231000DF
:1015000026005B1A9C409840CE40CA40631E9C4116
:101510003043924600260443630709D00F2323403B
:10152000042B05D0231DA342A4416442A2441C0005
:1015300053461B0200D49BE0944B01369E4200D1DF
:10154000B8E053469249E4080B4019005B07234377
:1015500072054C02240B520D1205ED0722432A435B
:1015600018001100E0BCBA46B146A846F0BD002FF5
:1015700048D0971B002E00D00EE10C001C4300D178
:10158000B7E17C1E012F00D126E2804DAF4200D191
:10159000D5E1270007E1002F00DCB2E0002A47D0A8
:1015A0007A4A964200D189E080224C4612041443C4
:1015B000A146382F6BDC1F2F00DC6EE13A00484655
:1015C000203AD0408446202F07D040224846D21BE4
:1015D000904002004046104380464046421E9041E3
:1015E00062460400144357E04A46024300D103E137
:1015F0007A1E012F00D193E1644CA74200D18AE109
:1016000017003BE7634C721C224200D0E0E00A0066
:101610001A43002E00D074E1002A00D1D0E14A46DE
:10162000024300D0E3E14A07DB081343C90829E07D
:101630004A46024300D17DE17A1E012F00D1E0E04D
:10164000524CA74200D166E11700B2E710001F3BE1
:10165000D840202903D040235B1A9A401443631ECC
:101660009C41002300269A460443630700D055E7B7
:101670005246E3085207134352463700D108434A03
:1016800097421FD009037A050C0B520D64E74246BE
:101690004C461443621E9441E4189C4292415242CB
:1016A00092468A4453461B02DFD5384B01369E4290
:1016B00000D0B3E03200002400234DE74A07DB08E6
:1016C0001343C9081A000A4300D100E2802424030E
:1016D0000C4324032D4A240B3EE7200001F0B6FD05
:1016E000030018331F2B00DCF7E622000838824085
:1016F0000024B34200DBFCE6F61A254B1A40924662
:101700000AE7002F2BD0971B002E00D1B8E01F4C0A
:10171000A24200D11CE1802424042143382F00DDA3
:101720001EE11F2F00DD9EE120260C00F61B180095
:10173000B340B440F8405E1EB341F94004431C433B
:101740008944444444459B415B424B449A461600BD
:10175000A8E742464C461443621E9441A6E60D4C4F
:10176000721C224200D0A8E00A001A43002E00D0CA
:101770000AE1002A00D15EE14A46024300D061E15D
:101780004A07DB081343C9087CE7C046FF0700008F
:10179000FFFF7FFFFE070000CF4CA24200D1CEE04A
:1017A000802424042143382F5BDC1F2F00DDDCE084
:1017B00020250C00ED1B1E00AB40AC40FE405D1E22
:1017C000AB413443F9401C434B465B1A99464CE00D
:1017D0004A461C1A881AA34292415242924602007B
:1017E0005046121A9246120278D45346234300D030
:1017F0006AE60021002545E74A07DB081343C908CC
:101800003DE71C189C429B4149448A465B429A44EE
:10181000534601261B0200D427E702265246AF4B4F
:1018200001211A401300214062080A43DC075B08CB
:101830009A46144370E63A004C46203AD440A446F7
:10184000202F07D040224846D21B9040020040463D
:10185000104380464046421E9041624604001443B5
:1018600024E619430C00631E9C4143461C1BA04503
:101870009B4149465B42CB1A9A46654616001BE6D9
:101880000C001C4300D1C7E07C1E012F00D1F9E001
:10189000914EB7425CD0270040E720224C4640469C
:1018A000D21B9440F840044340469040421E904171
:1018B0004A46FA4004438918EEE6874CA24200D11A
:1018C000F9E6181898429B4149445B42CB18DC0763
:1018D00040085B089A4616000443C6E64246D41AFE
:1018E000A04580414B464042591A0B1A9A4665461C
:1018F000EAE54B464A46C0085B0765460343D10804
:10190000BDE6002A00D08EE04B46034317D180216C
:1019100000250903DAE64A07DB081343C908D1E6C4
:101920001C1A4A46A3429B41891A5B42CB1A9A462B
:101930000126C1E54A07DB081343C9089FE6434671
:10194000D8084B464A465B0765460343D108B9E6CB
:101950004346D8084B464A465B070343D108B1E6E5
:1019600019430C00631E9C41EBE63C000D00203C3B
:10197000E540202F03D04024E41BA1400B431C0072
:10198000631E9C412C4370E7002AE1D04A46024383
:10199000C1D04A07DB0813438022C9081203114251
:1019A00008D04846C408144204D143462100DB084D
:1019B000420713435A0FDB005207DB08134381E64B
:1019C0004B46034300D114E74B464A46C0085B0729
:1019D00065460343D10855E6C41AA04580414B46ED
:1019E0004042591A0B1A9A466546012664E51C1AAC
:1019F0004A46A34280418A1A4042121A9246120273
:101A000049D54246D41AA04580414B464042591A16
:101A10000B1A9A4665467FE54B464A46C0085B0767
:101A20000343D1082BE64A46DB08024338D14A0774
:101A30001343C90846E64B464A46C0085B070343C2
:101A4000D1081FE61C189C429B4149448A465B42D0
:101A50009A4453461B0200D407E652461F4B012608
:101A60001A40924601E63C000E00203CE640202F42
:101A700003D04024E41BA1400B431C00631E9C4187
:101A800034435EE643448342804149448A464042AF
:101A90001C008244BCE65346234300D1A9E6E4E59A
:101AA0004A0713438022C9081203114209D048464D
:101AB000C408144205D1434665462100DB084207AD
:101AC00013435A0FDB00DB0852071343FAE50023E8
:101AD000014A1C0040E5C046FF070000FFFF7FFFF2
:101AE000F0B557464E464546DE46E0B50C031F00AE
:101AF0004B0081469246050085B0240B5B0DCE0F4E
:101B0000002B00D152E1D24A934200D16EE1420F44
:101B1000E40014438022120422439046CD4AC500BB
:101B200093469B440023994600933C037B00504618
:101B3000240B5B0DFF0F002B00D11AE1C44A934226
:101B400000D15EE1420FE4002243802424041443C8
:101B5000C04AC10094465A466344D31A9B460020AB
:101B600033007B409A464B460F2B27D8BA4A9B003E
:101B7000D3589F46B246009B022B16D0032B00D1B0
:101B800087E2012B00D0D5E00023002200251B05B1
:101B900013435246D20713432800190005B0F0BC86
:101BA000BB46B246A946A046F0BD00220025A84B80
:101BB000EDE7BA46A0460D000090DCE7444500D2B0
:101BC000C4E100D1BFE101235B429C462E004046A8
:101BD0000025E34423020C0E1C431B0C99462304EE
:101BE0000A021F0C494600920197FEF72FFB0200E4
:101BF0007A430B04310C804619438A4207D90123EA
:101C00005B429C460919E0448C4200D801E2881AE4
:101C10004946FEF71BFB019A360442430904360C81
:101C200003000E43B24204D93619013BB44200D836
:101C3000E9E1B01A4246009E12041A43330C1F0019
:101C4000110C9046029313043204160C32001B0C44
:101C50005A4303967B434E437943170CBC469B196A
:101C600063449E4203D980267602B44661441E0C2A
:101C7000711816041B04360C9E19884202D312D127
:101C8000B54210D243465A1E009B9C4665441F0035
:101C90009D429B415B421B19C018844200D29EE1C9
:101CA00000D199E19046AE1BB542AD41401A6D425C
:101CB000401B844200D1D2E14946FEF7C7FA019A9F
:101CC0000B044243310C050019438A4200D96CE1F0
:101CD000881A4946FEF7BAFA019A360442430904C3
:101CE000360C03000E43B24200D953E10398B61AF2
:101CF00002002D041D43029F2B041B0C5A437B43FF
:101D00009C46290C4843130C84446344794398420D
:101D100003D98020400284466144180C12041B043D
:101D2000120C40189B18864200D200E100D1FBE063
:101D300001231D43494B5B44002B00DCAAE06A07EA
:101D400000D03DE1E9084246D20106D54246444B67
:101D50001A4080239046DB005B44424A934200DDF8
:101D600023E742465B05550752020D43120B5B0DFC
:101D70000DE75146214300D17CE0002C00D1FBE06F
:101D8000200001F063FA02000B3A1D239B1A524611
:101D90000100DA40534608398B408C401900144347
:101DA000314B58449B4683440020D9E6030023432B
:101DB000984644D0002C00D1CFE0200001F046FA34
:101DC000010002000B391D235B1A49461000D9405F
:101DD000083884400B004D46234398468540234BEA
:101DE0009B1A9B460023994600939EE602002243DD
:101DF00090461DD108229B46022300259146009360
:101E000093E65146214309D102234A461A43184B0F
:101E100091469C4600240220E344A1E603234A465F
:101E20001A43134B91469C4651460320E34497E6E0
:101E30000C229B460323A0469146009375E604239B
:101E4000994600239B460133002500936DE6C0466A
:101E5000FF07000001FCFFFFBC220108FF03000098
:101E6000FFFFFFFEFE070000F30300000DFCFFFF75
:101E700001F8FFFF4A4601231A439146002401203E
:101E80006EE6002380229A460025884B12037EE6E8
:101E900001256D420122D21A382A00DD74E61F2A7C
:101EA00000DCBDE01F214942CB1A4146D9400B005E
:101EB000202A04D041467E4A5A4491400D432900CD
:101EC0004A1E9141194307231D0000220D400B4279
:101ED00000D1D0E00F2200230A40042A00D1C7E03D
:101EE0000A1D8A42894149425B1811001A0200D436
:101EF000BEE001230022002549E68022434612036A
:101F0000134208D0144206D122431203BA460D00F0
:101F1000664B120B3BE68022434612031A43120320
:101F2000B246624B120B32E6002B00D102E7A61933
:101F30006A1EA64200D289E0864200D29FE000D10C
:101F4000AFE01500F4E6A94200D93CE64346DE07BF
:101F500058086B081E43ED073CE601F077F90100D5
:101F60000200153120321C2900DC2CE74B460838D2
:101F700083400025984632E701F068F903001A0013
:101F8000153220301C2A00DCFFE65446083B0021B5
:101F90009C4005E73619013BB44200D9A6E6B2429F
:101FA00000D8A3E6831E3619A0E60919013D8C422C
:101FB00000D98DE68A4200D88AE6851E091987E68F
:101FC0000F222A40042A00D1BCE6291DA942AD41B6
:101FD0006D42C908A844B6E6AF4200D962E6814224
:101FE00004D800D05EE6AE4200D85BE602235B4236
:101FF0009C46009BE0449C4665449D429B415B425D
:102000001B19C0184FE6B24200D812E6831E3619DB
:102010000FE68A4200D8FAE5831E98460919F6E5CC
:10202000244B28005B4441469D409940D0406B1EA4
:102030009D41434601432943D3404A0700D155E718
:102040000F220A40042A00D04AE74FE715008642D3
:1020500000D06DE6009A9A4200D069E66AE6164B17
:102060005B44002B00DC13E701250021A8446AE64D
:102070005D075B021A0BC90800230D4387E5009931
:10208000023D4A008A42BF417F423F19F619009241
:10209000DDE78022434612031A431203034B120B5F
:1020A00075E500999942EAD31500D3E7FF070000D0
:1020B0003E0400001E040000FF030000F0B54E4681
:1020C0004546DE4657469046E0B517001A03120B08
:1020D0000500844619480E034C0091465A00DB0F58
:1020E0009B46360B640DC90F520D844219D08242B3
:1020F00010D0012094420ED14E450CD10120C44590
:1021000009D1594517D0002C05D130002843431E72
:10211000984100E00120F0BCBB46B246A946A0466B
:10212000F0BD330001202B43F5D1A242F3D14B4641
:102130003B43F0D1E2E70020EDE7C046FF07000097
:10214000F0B54746CE460400180016001B031B0BD3
:102150002D4D4A00994680B543000F03A446B04672
:102160003F0B520DC90F5B0DC00FAA4221D0AB42ED
:1021700013D0002A22D13C43002B02D14D462E43DE
:1021800022D0002C10D0814222D0022001390840F8
:102190000138C0BCB946B046F0BD4D462E4329D1EA
:1021A000002AF0D13C43EED10028F2D10120404278
:1021B000EFE73D0025431DD19342EED0002BE2D145
:1021C0004C462643DFD1E0E70020002CE1D0DCE7DD
:1021D0009A420ADCE8DB4F45D7D80ED000204F45A5
:1021E000D7D20029E2D00800D3E74342584140004B
:1021F0000138CEE702204042CBE7C445C5D80020D5
:10220000C445C6D2EDE7C046FF070000F0B547461B
:10221000CE460400180016001B031B0B2C4D4A0071
:10222000994680B543000F03A446B0463F0B520DBC
:10223000C90F5B0DC00FAA420DD0AB4210D0002ACF
:1022400027D13C43002B11D14D462E430ED1002007
:10225000002C15D00EE03D00254310D1934218D13B
:102260004D462E430BD1002A02D13C43002C0BD00B
:10227000814214D0022001390840013800E00220D8
:10228000C0BCB946B046F0BD0028F9D1012040429B
:10229000F6E7002BECD14C462643E9D1EAE79A4217
:1022A00004DD4342584140000138E9E79A42EBDB44
:1022B0004F45DFD806D000204F45E1D20029E5D0B8
:1022C0000800DDE7C445D5D80020C445D8D2F5E7DD
:1022D000FF070000F0B54546DE4657464E46E0B5DE
:1022E0001F000B031B0B9B464D00CB0F04009146B8
:1022F000984687B06D0D00D1CDE1CE4B9D4200D107
:10230000E9E15A46430FD2001343802212041A43D4
:10231000C3009A46C84B93469C460023002665445A
:1023200000933C037B004846240B5B0DFF0F002B02
:1023300000D189E1BF4A934219D0420FE400224301
:10234000802424041443BC4A00219446424663443A
:102350005B190193019B7A400133C000D2B2029312
:102360000A2E1CDD3A000B2E5ED0474656E0494649
:10237000B04B2143EB18019300292AD1802002227F
:1023800000012B0084461643424663447A40D2B291
:1023900002930A2E00DD31E2002000240221022EE9
:1023A00026DC013E012E52D802294CD0012900D052
:1023B00018E10023002400251B052343D207134303
:1023C0002800190007B0F0BCBB46B246A946A0469B
:1023D000F0BD8021032209012B008C4616434246A2
:1023E00063447A40D2B202930A2E00DD28E2032130
:1023F0000125B540AC46A6266346F600354033427B
:102400000BD19026B600334218D1B93EFF3E1E4292
:102410001DD0A3468246009100E0170000993A00C3
:10242000022910D05C4650460329BFD180231B03EC
:102430001C43240305007F4B240BBDE780240022AE
:102440007C4B2403B8E7002400257A4BB4E75346BD
:102450001E04360C1F0C3300010C0004000C434317
:10246000984603007B43994633004B439C464346C2
:102470000D001B0C9A467D43CC44D4440095E145A5
:1024800004D980235B0299464D44009563461B0C9A
:102490001D0063461B049C4643461B041B0C9846C8
:1024A000634643440393230C984633002404240CCE
:1024B00063439C4623007B43994643465E435F4308
:1024C0004E446346B2461E0C5644B14503D98023A0
:1024D0005B0299464F44330C99463B004B440593AD
:1024E0006346AC461F043F0C3604F619B4446346F9
:1024F00004935B461B0C9C465B461F043F0C3B0051
:1025000043439946634643439A464B4660461B0CF9
:102510009B4648437943514459448A4503D9802313
:102520005B029A4650440B0C9A464B461B041B0C0C
:1025300099463B006343090445464944994663462E
:102540005C436B439C464B461B0C98466F433F19BC
:1025500047445044BC4203D980235B029846C4449C
:10256000049B009D98464544B542B6417342984647
:102570004B461E04059B3C049946360CA4194C445A
:10258000A14683466E18C1448E428941CB445D46C4
:1025900049426D189C42A441C1459B4183458041FD
:1025A0008D4289415B4264421C434042039B494245
:1025B000014370023F0C1843E419471EB8416418E8
:1025C0006444F60D61023043EC0D6E020C4330435F
:1025D000C90100D4F1E00121430801400B43E007A9
:1025E000184364081549029B8C466344002B00DCA9
:1025F00097E0410709D00F210140042905D0011DB2
:1026000081428041404224180800E10106D5802122
:10261000C9008C460A4B1C40029B634409498B420B
:1026200000DD10E76107C50864025B050D43240B5C
:102630005B0DC1E6FF07000001FCFFFFFF03000088
:10264000FFFFFFFEFE0700004B46234359D0002C3E
:1026500000D1A3E0200000F0F9FD010003000B39D8
:102660001D22521A49461800D1404A460838824075
:10267000844010000C43744AEB1A9446424663446B
:102680000193019B7A4001330021D2B202930A2EBA
:1026900000DD67E683E65B4603439A462AD05B4645
:1026A000002B6DD0584600F0D1FD010003000B391E
:1026B0001D22521A210018005D46D140083885407D
:1026C0000A0084402A439346A2465F4D0026ED1A35
:1026D0000023009325E65B4603439A4605D1002379
:1026E0009B460233082600931BE6032382460C26F2
:1026F000009316E600239B46013304260025009331
:102700000FE64246013301951E43019B7A40013397
:10271000002400200121D2B202930A2E00DD21E61E
:102720003DE60121C91A382900DD42E61F2947DDAF
:102730001F2625007642F31ADD402B00202905D004
:102740004249029D8C466544AC402043411E88416D
:10275000184307231D000024054003424AD00F23DD
:1027600000240340042B42D0031D83428041404299
:102770002418180023023AD50123002400251BE663
:1027800000F064FD01000300153120331C298FDDAA
:102790000838002284409246A34696E700F056FD92
:1027A00001000300153120331C2900DC58E702002A
:1027B0004C46083A002094405DE7019B029311E7E4
:1027C000234B26009C460300029DCB406544AE404F
:1027D0001E430300AB40581E834130001843CC40D9
:1027E0004307C7D00F230340042BBDD1C2E76507C1
:1027F0006402240BC00800230543DDE50025022305
:102800000F2E0CD180245B46240323420ED021429C
:102810000CD10C4324033A000E4B240BCCE50B2EB9
:1028200000D0A2E58B46AA460093F7E580245B46DC
:1028300024031C43240342465546064B240BBBE5A8
:102840004D4621000323DBE70DFCFFFF3E040000A3
:102850001E040000FF070000F0B557464E464546EF
:10286000DE46E0B50D000400190010002B035B0AE2
:10287000620F1A43E3000C03640A470F2743D04C4E
:102880006E00914683B04A00C0009846A246760D7D
:10289000ED0F520DC90F0190A24200D1B9E0012401
:1028A00061408B468D4200D18DE0B41AA446002CC5
:1028B00000DCB7E0002A00D1CBE0C14A964200D14B
:1028C00086E18022120417436246382A00DDA4E123
:1028D0001F2A00DD1DE2614620223C00521A010041
:1028E00090409440421E90416246A0466446D740C4
:1028F0004A46E1404446D21B91460C4304431C1B0C
:10290000A34292414B4652429B1A9A4653461B029F
:1029100000D42BE153465A02530A9A465346002BE1
:1029200000D166E1504600F091FC0300083B2022F4
:102930002000D21A5146D040994002009C400A43E0
:102940009E4200DD64E19B1B591C1F2900DDFEE057
:102950002023100026005B1A9C409840CE40CA40BD
:10296000631E9C413043924600260443630709D00E
:102970000F232340042B05D0231DA342A44164420E
:10298000A2441C0053461B0200D4F2E08C4B0136DB
:102990009E4200D10FE153468A49E4080B401900DA
:1029A0005B07234372054C02240B520D1205224390
:1029B000ED072A431800110003B0F0BCBB46B24635
:1029C000A946A046F0BDB41AA446002C59DD002A41
:1029D00000D1B0E0564500D1FAE08022120417433E
:1029E0006246382A00DDD4E01F2A00DCC0E139004D
:1029F000203AD1406246202A06D064464022121B6B
:102A00003C00944004430194019C621E94410C4399
:102A1000C3E03C0004432BD08B468D422ED06A4C41
:102A2000A446B4446446002C5FD0941BA446002EF8
:102A300000D020E14C461C4300D1C7E161464C1E4A
:102A4000012900D123E25E4DAC4500D1D8E1A44676
:102A50001AE13A00024300D1E4E02200013A012CDD
:102A600000D1C3E156498C4200D1B1E094462BE736
:102A7000012461408B468D4200D016E752498C46B6
:102A8000B4446446002C00D1D3E0911B8C46002E48
:102A900000D15EE14A498A4200D1BEE180214C4624
:102AA00009040C43A1466146382900DDBAE11F291B
:102AB00000DD27E22024641A4946A1401E00884612
:102AC0006146A340CE4041465C1EA34131431943B9
:102AD0000C0063464946D9407F18241884429B4124
:102AE0005B429A461600BA445DE0384C721C2242A2
:102AF00000D0DFE04A461A43002E00D05CE1002AF5
:102B000000D1CFE13A00024300D17FE11C1A4A46CE
:102B1000A3428941D21B4942521A9246120200D462
:102B20000AE2C41AA04280414B464042FF1A3B1AB7
:102B30009A465D461AE73A00024373D02200013AF2
:102B4000012C00D1CBE0544542D0944648E7100018
:102B50001F3BD840202903D040235B1A9A401443DE
:102B6000631E9C41002300269A460443630700D05D
:102B7000FEE65246E308520713435246B446D208D3
:102B80000F498C452AD01203140B62465205520D90
:102B90000CE73C000443621E9441E4189C429241BD
:102BA00052424A44924653461B02DFD5044B01363B
:102BB0009E4200D0A0E0320000240023F6E6C0468A
:102BC000FF070000FFFF7FFF01F8FFFFFE07000087
:102BD000DB084A46520713434A46D20819001143FC
:102BE00000D1B5E18024240314432403D54A240BE7
:102BF000DCE6200000F02AFB030018331F2B00DC6A
:102C000095E622000838824000249E4200DC9AE6C5
:102C1000F61ACD4B1A409246A8E63C000443621EC9
:102C200094416CE64A46DB08520713434A46D208F1
:102C3000A6E7C64C721C224200D0ACE04A461A43BA
:102C4000002E00D005E1002A00D156E13A000243EF
:102C500000D1DBE01C189C429B414F44BA465B42CA
:102C60009A4453461B0200D480E75246B64B0126D5
:102C70001A4092467AE7B34CA24200D1C0E08024C9
:102C80004D4624042543A9466446382C53DC61464E
:102C90001F2C00DDCDE020251E002D1B4C46AB4037
:102CA000AC40CE405D1EAB41344323434C46CC4048
:102CB0003F1B45E04A461C1AD11BA3429241524297
:102CC00092460A005146521A9246120200D583E0FB
:102CD0005346234300D021E60022002553E71C1869
:102CE0009C429B414F44BA465B429A44534601265C
:102CF0001B0200D43AE702265246934B01211A40A8
:102D00001300214062080A43DC075B089A4614431B
:102D10002CE63900203AD1406246202A06D064468B
:102D20004022121B3C00944004430194019C621E0B
:102D300094410C43E3E5494619430B005C1EA34153
:102D4000C41AA0429B415B42FB1A9A465D4616009C
:102D5000DCE54946194300D1AEE0614664460139DD
:102D6000012C00D1E0E0774CA44556D08C469AE681
:102D7000614620223C00521A944001009040A04637
:102D80006446421E90416246E1404446D7400C43AF
:102D90000443B94401E76B498A4200D10CE7181893
:102DA00098429B414F445B42FB18DC0740085B089C
:102DB0009A4616000443D9E6002A00D081E03B0081
:102DC00003431DD18022002512030BE7C0087B07B7
:102DD0005D460343FA08D3E6C41AA04280414B463D
:102DE0004042FF1A3B1A9A465D4697E51C1A4A462E
:102DF000A3429B41D71B5B42FB1A9A46012685E5FD
:102E0000C0087B075D460343FA08E7E64A46DB084D
:102E1000520713434A46D208B5E6C0087B0703436E
:102E2000FA08DBE6494619430B00591E8B411C008A
:102E300053E64D46203CE540202905D04024641A45
:102E40004946A1400B43984643465C1EA3412B4391
:102E500076E7002AE1D03A00DB08024300D1B8E669
:102E60004A465207802413434A462403D20822428A
:102E700007D0FE08264204D15D463200C3087F0712
:102E80003B43590FDB004907DB080B43A6E6C41A96
:102E9000A04280414B464042FF1A3B1A9A465D468B
:102EA000012633E53B00034300D115E7C0087B074B
:102EB0005D460343FA0866E6C0087B070343FA0849
:102EC0005EE63A00DB08024300D182E64A4652073A
:102ED000802413434A462403D208224207D0FE0826
:102EE000264204D15D463200C3087F073B43590F99
:102EF000DB00DB0849070B4370E6C0087B07034390
:102F0000FA0840E64C462039CC406146202906D0DC
:102F100066464021891B4E468E40334398464346C1
:102F2000591E8B411C43D8E51C18844280414F44F4
:102F3000BA4640428244D9E65346234300D1CBE609
:102F400014E6C046FF070000FFFF7FFFFE070000FA
:102F50000023014A1C0029E5FF07000070B50500A9
:102F60000C481C0316005B000A034900120B490DB4
:102F7000240B5B0D814208D0064A0020934203D106
:102F800020003043431E984170BD01202A43FBD1ED
:102F9000F2E7C046FF0700000A0030B5134C5300AB
:102FA00009030500090B00205B0DD20FA34204DDCD
:102FB0000F48834202DD0F4BD01830BD8020400304
:102FC00001430D48C01A1F2808DD0C48C31AD94018
:102FD0000B005842002AF0D11800EEE7084CC5401B
:102FE000A446634499400B002B43F2E7FE03000024
:102FF0001D040000FFFFFF7F3304000013040000E6
:10300000EDFBFFFF70B5002816D0C317C5185D4053
:10301000C40F280000F01AF9114B1B1A0A2816DCFD
:1030200002002E00153296400B22121AD5405B0585
:103030002D032D0B5B0D03E000240023002500264B
:103040001B052B43E40723433000190070BD0B38E8
:1030500085405B052D0300262D0B5B0DF0E7C04678
:103060001E04000010B5041E10D000F0EFF80F4B46
:103070001B1A0A2811DC0B222100121AD14015302C
:103080000A035B058440120B5B0D01E00023002264
:103090001B0513432000190010BD22000B3882408D
:1030A0005B0512030024120B5B0DF1E71E04000008
:1030B00070B542024300C40FFE201B0E591C550A76
:1030C00008420CD0E02189008C466D07120B634446
:1030D0001B051343E40723432800190070BD002B90
:1030E00014D1002D1BD0280000F0B0F80A281CDCF9
:1030F0000B232A001B1ADA40030015339D400E4BA8
:1031000012031B1A5B05120B5B0DE1E7002D09D0C2
:10311000130B802212031A436D07084BD8E70023D4
:103120000022D5E70022054BD2E703002A000B3B23
:103130009A400025E3E7C04689030000FF0700002E
:103140000200F0B54B000D03400F5B0DCC0F6D0A74
:103150003A490543581CD70008420AD03849591843
:10316000FE2916DDFF200022C0051043E40720439E
:10317000F0BD002B06D13D4326D005229201520A14
:10318000D8B2F1E72F43EDD08022D203FF202A43AB
:10319000EAE700291BDD9201501E8241ED007F0FFE
:1031A0002A433A43530747D00F231340042B00D040
:1031B00004328023DB0413403ED0481CFE29D1D0CA
:1031C0009201520AC0B2CFE700200022CCE70A00E9
:1031D00017322FDB802636042E431E256D1A1F2D35
:1031E00011DD02225242521A3100D140202D04D06A
:1031F000144A944663449E4037433A00531E9A4112
:103200000A430021CEE7104A3800944663449840B0
:103210003A00411E88419E40EA403043024300216B
:103220005307C1D180211300C90401200B400A4279
:10323000C6D1A3E70023A0E70B009FE7FE0700002D
:1032400080FCFFFFA2FCFFFF82FCFFFF1C2101238B
:103250001B04984201D3000C10391B0A984201D379
:10326000000A08391B09984201D30009043902A257
:10327000105C40187047C0460403020201010101BE
:1032800000000000000000000C2230B50B4D83B0A0
:103290002B6804001A62FCF737FF210082B2084B4A
:1032A000280007F0F9FA074B01A90B8002220A2334
:1032B000280007F0F1FA03B030BDC046E84900200D
:1032C000881300000D0A000010B5012007F008FE69
:1032D000FBE7C046F0B50023DE4657464E4645465E
:1032E0004D4CE0B523606360A360E36023616361DC
:1032F000FA2387B09B009B4602930623474E04ADFA
:10330000019300953B22D0213000053B05F018FBCE
:103310002888434B42BA1A806B88C0BA5ABAD9BAC5
:10332000404B89461A80AB885ABAD9BA3E4B8A4676
:103330001A803E4A9046FFF765FE3D4B0022FEF79D
:10334000C9FFFFF7FDFE424610604846FFF75AFEF0
:10335000374B0022FEF7BEFFFFF7F2FE354A364F2D
:10336000914638605046FFF74DFE0022304BFEF785
:10337000B1FFFFF7E5FE4A46062310605A46019367
:10338000029200954322D0213000053B05F0D8FA87
:1033900028882A4B6E8842BA1A80294BAD8872BAA7
:1033A0001A80284B6ABA1A80C0BAFFF72BFE002297
:1033B000254BFEF795FBFFF7C3FE244BF6BA82467A
:1033C00018603000FFF71EFE00221F4BFEF788FB3F
:1033D000FFF7B6FE1E4BEDBA061C18602800FFF77B
:1033E00011FE0022184BFEF77BFBFFF7A9FE194BDD
:1033F0002661186043461B68606123603B68636018
:103400004B461B68A3605346E36007B0F0BCBB4665
:10341000B246A946A046F0BDEC020020BC47002001
:103420002003002022030020240300202803002082
:103430000000103F300300202C030020F81D002066
:10344000FA1D0020FC1D002000606040F01D0020DF
:10345000F41D0020001E002010B5012007F040FDE3
:10346000FBE7C04670B5AF25FA261F4C01222000AD
:10347000402104F0E5FFAD0000228021200004F08F
:10348000DFFF280004F014F97600012280212000DB
:1034900004F0D6FF300004F00BF900228021200058
:1034A00004F0CEFF280004F003F9002240212000A0
:1034B00004F0C6FF280004F0FBF801228021200060
:1034C00004F0BEFF300004F0F3F801224021200098
:1034D00004F0B6FFC82004F0EBF8002280212000A1
:1034E00004F0AEFF70BDC04600080050F0B5C646FF
:1034F0000C27050000B5002182B0244A24480BF0B7
:10350000A1F8244B244E1B6801221F62234930007E
:1035100007F090FB224C6422002120000BF092F86F
:103520002800FCF7F1FD1F4B1B68012B01D15A2825
:1035300018D8290020000BF04BF91B4903220BF08F
:1035400053FA0C22336820001A62FCF7DDFD962343
:1035500082B2210030005B0007F09EF902B080BC0F
:10356000B846F0BD114B1C2298461B6840461F62AE
:103570000F49104B07F090F90F4B01A90B80022265
:103580000A23404607F088F9D3E7C046DE0300006F
:103590005005002054490020C04800204C05002060
:1035A0008C1D0020C40000201C230108E8490020D5
:1035B000FC220108881300000D0A0000F0B5C64681
:1035C0000C27050000B5254B254E1B6882B01F62F5
:1035D00001222449300007F02DFB0021224A234814
:1035E0000BF030F8224C6422002120000BF02AF866
:1035F0002800FCF789FD1F4B1B68012B01D15A28BD
:1036000018D8290020000BF0E3F81B4903220BF027
:10361000EBF90C22336820001A62FCF775FD962343
:1036200082B2210030005B0007F036F902B080BCA6
:10363000B846F0BD114B1C2298461B6840461F62DD
:103640000F49104B07F028F90F4B01A90B800222FC
:103650000A23404607F020F9D3E7C046544900202A
:10366000C04800204C050020DE030000500500206B
:103670008C1D0020C40000201C230108E849002004
:10368000FC220108881300000D0A0000F0B50C2789
:10369000184B194C1B6883B005001F6201222000E3
:1036A000164907F0C7FA0021154A16480AF0CAFF62
:1036B0006B4602220021581D0AF0C4FF1A2301AEF6
:1036C0003370236828001F62FCF71EFD290082B2B8
:1036D0000D4B200007F0E0F8236830001F62FCF774
:1036E00013FD962382B2310020005B0007F0D4F86E
:1036F00003B0F0BD54490020C04800204C05002014
:10370000DE030000500500208813000070B50C2671
:10371000124B134C1B6882B01E620122200011491B
:1037200007F088FA0021104A10480AF08BFF6B4618
:1037300002220021581D0AF085FF1A2301AD2B70CB
:10374000236828001E62FCF7DFFC962382B2290062
:1037500020005B0007F0A0F802B070BD54490020C3
:10376000C04800204C050020DE030000500500206A
:10377000FA22F0B5520083B006000D001F48002168
:103780000AF060FF03F08EFF1D4F040005E03100DA
:1037900038000BF007F800282DD103F083FF001B41
:1037A000A842F4D90C26174C1622236816491E622B
:1037B0002000164B07F070F86B46154D022201A948
:1037C0009D8020000A2307F067F8236838001E62F6
:1037D000FCF79AFC390082B20C4B200007F05CF831
:1037E0006B4602229D8020000A2301A907F054F8AD
:1037F000002003B0F0BD0120FBE7C046941B002071
:1038000050050020E8490020282401088813000002
:103810000D0A0000F0B5DE464E4645465746E0B577
:1038200087B09A46119B02929946784B6422180001
:103830008B46002103930AF005FFFA22744D002104
:10384000920028000AF0FEFE03F02CFF8046714B28
:10385000714E724C019303F025FF4346C01A814517
:103860001FD3462003F024FF3778002F28D1236888
:1038700001332360092BEEDDFFF7F4FD684B694847
:103880001A680C230199136202680F7013620122F7
:1038900007F0D0F9276003F005FF4346C01A8145C1
:1038A000DFD2039B1B78002B5CD0642003F000FF69
:1038B000039807B0F0BCBB46B246A946A046F0BD8F
:1038C000310028000BF07DF8280012990AF06AFFF9
:1038D000002825D05B461B78002B00D18CE0594690
:1038E00028000AF05FFF53461B780700002B00D129
:1038F00087E0514628000AF055FF00280CD0029BB3
:103900009C4667443800FCF7FFFB00905046FCF7EC
:10391000FBFB009B83425FD80022404B1A609AE772
:10392000280041490AF03EFF002805D128003F4900
:103930000AF038FF0028EFD00C223D4C3D492368A7
:1039400020001A623C4B033A06F0A6FF3B4B05A948
:103950000B8002220A23200006F09EFF039B1B78A7
:10396000002BA2D10C27324C344E236804221F6254
:1039700020003349304B06F08FFF04AB05A902222B
:103980009E8020000A2306F087FF236828001F621C
:10399000FCF7BAFB290082B2274B200006F07CFF1F
:1039A00004AB05A902229E8020000A2306F074FFC2
:1039B000236810981F62FCF7A7FB109982B21E4B78
:1039C000200006F069FF04AB9E8002220A2320003B
:1039D00005A906F061FF68E73800002251460AF0A9
:1039E000DCFE0700FCF790FB572895D8421C3900F5
:1039F00003980AF0F9FF54E7010003980AF0E1FF89
:103A00004FE7010003980AF0DCFF4AE7301B002073
:103A1000481700204C050020500500209445002048
:103A200054490020C04800204024010848240108CF
:103A3000E849002050240108881300000D0A000006
:103A40005C240108F0B5C646002300B5464E86B09A
:103A500046483360FFF74AFD642003F029FE444ADC
:103A6000444B0292444A4549126800200192444A5C
:103A700000920522FFF7CEFE002109F055FDFFF769
:103A80005FFB40493060FCF735FD041E20D0012269
:103A900002213D4804F0D4FC01223C4C3C4B3D4902
:103AA0001A6023680B321A6220003B4B043A06F07E
:103AB000F3FE3A4B05A90B8002220A23200006F0F0
:103AC000EBFE3068FDF7F2FB06B080BCB846F0BDF7
:103AD0000C272E4D07222B6828001F6230492E4BE1
:103AE00006F0DAFE2D4B05A998466B4642462800A3
:103AF0009A820A23022206F0CFFE2B680D221F6253
:103B000028002849244B06F0C7FE6B46424605A90B
:103B10009A8228000A23022206F0BEFE224B234886
:103B20001C601B4B22491C60224B0C701B6801223D
:103B30001F6203681F6207F07DF82B680C221F626A
:103B400028001D49144B06F0A7FE6B46424605A906
:103B50009A8228000A23022206F09EFE00220221F9
:103B6000094804F06DFCACE7881D002064240108BE
:103B7000782401086C240108C80000207024010882
:103B80007C2401080000A040000C0050E8490020FF
:103B9000843F00209C240108881300000D0A0000C7
:103BA000A8240108B024010860410020C04800207A
:103BB0004C05002054490020C024010800B50948E4
:103BC00085B0FFF793FC084A084B0292084A09495E
:103BD000126800200192084A00920822FFF71AFE9C
:103BE00005B000BD0C250108AC280108DC24010843
:103BF000C80000201825010820250108002310B561
:103C00000F4C84B00F482360FCF77EFA042812D9C9
:103C10000D48FFF76BFC0D4B0D4902930D4B002235
:103C20001B68052001930C4B00930B00FFF7F2FD7E
:103C3000FCF76AFA20600022084B1A6004B010BD3D
:103C400060410020D00000209C270108AC2701081B
:103C500030270108C8000020B8270108843F002051
:103C6000F0B5514D04002B6883B0002B44DD4F4864
:103C7000FCF74AFA042801D803B0F0BD00264C48EE
:103C80002E60FFF733FC4B484B49FFF771FD28606E
:103C9000002848DD20002E60FFF7F8FC4748464921
:103CA000FFF766FD2860002869DD0C27444D0822D7
:103CB0002B6828001F624349434B06F0EDFD6B461D
:103CC000424E01A902229E8028000A2306F0E4FD4C
:103CD0002B6820001F62FCF717FA210082B23A4BD2
:103CE000280006F0D9FD6B4602229E8028000A2398
:103CF00001A906F0D1FDBFE70C22314C34492368FD
:103D000020001A62304B233206F0C6FD2F4B01A96A
:103D10000B8002220A23200006F0BEFDFFF76EFF93
:103D200000F05EF8A8E70C272A48FFF7AFFC244D07
:103D300027222B6828001F622749234B06F0ACFD81
:103D40006B46224E01A902229E8028000A2306F01B
:103D5000A3FD2B6820001F62FCF7D6F9210082B278
:103D6000194B280006F098FD6B4602229E8001A99F
:103D70000A23280006F090FDFFF7C8FC7CE70C2220
:103D80000F4C1649236820001A620F4B1B3206F0B5
:103D900083FD0E4B01A90B8002220A23200006F0AE
:103DA0007BFDFFF7B3FC67E760410020D0000020F7
:103DB000DC270108EC270108B80B0000F0270108F8
:103DC000E849002020280108881300000D0A00009F
:103DD0005C2801082C28010834280108F82701086C
:103DE000F0B5C64600B52F4886B003F061FC2E4DF5
:103DF0002800FCF789F90400042813D82B4B186815
:103E000000283BD12A4B1860264803F051FC294872
:103E1000FFF726FFFA20400003F04AFC06B080BC02
:103E2000B846F0BD244E0021370014375022380028
:103E30000AF008FC3200B846204B83CB83C203CB88
:103E400003C2621C290040460AF0CEFD0023174C35
:103E500030002360FFF74AFB194B1A4902931A4BB3
:103E600000221B6800200193184B00930B00FFF702
:103E7000D1FCFCF749F920600028C3D00C22144C77
:103E80001449236820001A62134B023206F004FD25
:103E9000124B05A90B8002220A23200006F0FCFC2D
:103EA0000120AFE7DC050000D000002060410020C9
:103EB000843F0020E4400020E41600208C28010804
:103EC000A428010830270108CC000020B0280108F0
:103ED000E8490020D8280108881300000D0A0000D6
:103EE000F0B5DE4657464E4645460023E0B5C24C87
:103EF000C24DC34EC34FC44A63806B8053807380EE
:103F00007B80C24BA1B000211692981C03229946D7
:103F10001D941A951B961C970AF094FBBC4B032228
:103F20000021981C9B460AF08DFBBA4B0422981C7A
:103F3000002110930AF086FBB74804220021179055
:103F400002300AF07FFBB54904221891881C002139
:103F50000AF078FBB24B0422981C002119930AF056
:103F600071FBB04A00211192901C04220AF06AFBF6
:103F7000AD4804220021129002300AF063FBAB4BE3
:103F80000422981C002113930AF05CFBA849042228
:103F90001491881C00210AF055FBA64A00211592B5
:103FA000901C04220AF04EFBA34804228046002104
:103FB00002300AF047FB78234846109903800B80B3
:103FC00058464146169A03801380119A0B8013803D
:103FD000C82223801798159C18992B802380038072
:103FE0000B80149D19991298139C2B800B800380D1
:103FF00033803B802380914B0021180092009A4629
:104000000AF020FB8E48FFF7D9FAFA20400003F0AF
:104010004FFB50468B490AF0C5FB05001E90FCF78C
:1040200073F8002D00D1D2E0012800D8CFE0864EF1
:10403000280031001EAA854F0AF0AFFB0024454638
:10404000011E0FD0072C05D8A300FB589F464846F9
:104050000AF0B7FC1E98013431001EAA0AF09DFB3D
:10406000011EEFD1A846504679490AF09BFB040097
:104070001F90FCF749F8002C2BD0012829D9754B4B
:10408000200000251C00704E1FAF31003A000AF0DE
:1040900084FB011E1DD0EB1E252B53D89B00E3583B
:1040A0009F461D980AF08DFC01341E98D4E7280025
:1040B0000AF087FC01341E98CEE710980AF081FCC4
:1040C00001341E98C8E758460AF07BFC01341E985C
:1040D000C2E7614C5022002120000AF0B3FA5F4B86
:1040E0001868FDF7E3F8169B02000E93119B200061
:1040F0000D93129B5A490C931C9B0B93199B0A938B
:10410000139B09931B9B0893189B0793149B06937F
:104110001A9B0593179B0493159B039343460293A5
:10412000109B01935B4600934B460AF01FFA200058
:1041300021B0F0BCBB46B246A946A046F0BD1A98D5
:104140000AF03FFC1F9801359FE712980AF039FCEE
:1041500001351F9899E711980AF033FC01351F9833
:1041600093E716980AF02DFC01351F988DE71398F8
:104170000AF027FC01351F9887E719980AF021FCFF
:1041800001351F9881E71C980AF01BFC01351F9828
:104190007BE714980AF015FC01351F9875E718980D
:1041A0000AF00FFC01351F986FE71B980AF009FC15
:1041B00001351F9869E715980AF003FC01351F982F
:1041C00063E717980AF0FDFB01351F985DE70C22A5
:1041D000244C2549236820001A62244B0A3206F039
:1041E0005BFB234B1FAF3B8002220A2339002000D8
:1041F00006F052FB37E7C046703F0020743F0020B6
:10420000783F00207C3F0020803F0020E41E0020FB
:10421000EC1E0020B81E0020C01E0020C81E00207A
:10422000D01E0020D81E0020540300204C03002084
:10423000440300203C0300203403002050050020EC
:10424000E8280108F42801086C240108582901080D
:10425000182901087829010898450020881D0020A8
:1042600024290108E84900200029010888130000DA
:104270000D0A0000F0B5C64600B582B0050003F097
:1042800011FA404B1B68002B2DDC3F4B3F4C1B6849
:10429000012B64D001AD0C2723683D4E1F621B2209
:1042A0003C493D4B200006F0F7FA022229000A2380
:1042B00020002E8006F0F0FA23681F62374F380086
:1042C000FBF722FF390082B2334B200006F0E4FAFC
:1042D0000A230222290020002E8006F0DDFA02B017
:1042E00080BCB846F0BD0C27284C13222368200060
:1042F0001F622B49284B06F0CFFA6B46244E01A9CA
:1043000002229E8020000A2306F0C6FA23681F625C
:10431000224B18009846FBF7F7FE414682B21E4B2F
:10432000200006F0B9FA6B4601A902229E80200007
:104330000A2306F0B1FA2800FFF792FC23680F2247
:104340001F6220001749144B06F0A6FA6B460222A2
:104350009E8020000A2301A906F09EFABFE70C22E6
:10436000236820001A6210490B4B163206F094FAAB
:10437000074B01AD2B8002220A232900200006F002
:104380008BFA88E7843F0020C4000020E849002021
:104390000D0A0000702A010888130000D0000020D8
:1043A000782A01083C2A01084C2A0108F0B5574632
:1043B0004E464546DE460023E0B580460525334F90
:1043C0008BB03B60324B334C0693334B334E9B46A2
:1043D000334B05979A46334B9946334B0793334BF0
:1043E0000893334B0993FA20C00003F061F92000D1
:1043F000002158220C300AF025F92200069B83CBBD
:1044000083C220001B884146A3810E300AF0E0F9E8
:104410000A2259460AF0E8FA2000FFF767F85346E7
:1044200002934B461B6800220193079B31000093C7
:1044300000203300FFF7EEF9FBF766FE059B1860DE
:10444000002809D1013D002DCDD10BB0F0BCBB46F9
:10445000B246A946A046F0BD0898FFF747F8534674
:1044600002934B461B6800220193099B3100009385
:1044700000203300FFF7CEF9FBF746FE059B013D18
:104480001860002DE1D00028ADDDDEE7604100209E
:104490008C2A0108E41600209C2A01083027010814
:1044A000AC280108C8000020A82A0108C82A010871
:1044B000D82A0108F0B5DE4657464E4645460C223E
:1044C000E0B5A34E89B03368A2491A623000A24B0E
:1044D000243206F0E1F9A14B07AF3B8002220A2308
:1044E0003900300006F0D8F99D4B0A2599469D4BBE
:1044F0009D4C9A469D4B98469D4B9B469D4B0593E4
:1045000002E0002D00D193E09B4803F0D1F848462B
:10451000FEF7ECFF5346029343461B6800220193CB
:104520005B462100009300202300013DFFF772F954
:10453000FBF7EAFD0028E4D00C22336805991A62E3
:104540003000854B293206F0A7F9844B022239004E
:104550003B8030000A2306F09FF98848FEF7C6FF2B
:104560005346029343461B6800220193844B21006B
:10457000009300202300FFF74DF9FBF7C5FD0490E1
:104580007D4803F095F8049B002BBAD00C223368C9
:104590007C491A623000704B313206F07DF96F4B66
:1045A000022239003B8030000A2306F075F9764874
:1045B000FEF79CFF5346029343461B68002201937B
:1045C000724B2100009300202300FFF723F9FBF733
:1045D0009BFD002895D06E4B04931B68002B68D080
:1045E000012B00D18FE00C2233686A491A62300037
:1045F000594B253206F050F9584B022239003B80C6
:1046000030000A2306F048F96348FEF76FFF53466F
:10461000029343461B6800220193604B21000093E4
:1046200000202300FFF7F6F8FBF76EFD002D3DD1CB
:104630000C22336830001A625949474B253206F084
:104640002BF9464B390002223B8030000A2306F04A
:1046500023F9544B18009846FEF748FF524F534E2B
:1046600002973368524D0022210001930F2023004E
:104670000095FFF7CFF8FBF747FD00280CD1404627
:10468000FEF734FF029733680022019321002300D4
:104690000F200095FFF7BEF8464803F009F809B06F
:1046A000F0BCBB46B246A946A046F0BD0028BFD12B
:1046B0002AE70C22336840491A623000264B343214
:1046C00006F0EAF8254B022239003B8030000A232D
:1046D00006F0E2F83948FEF709FF534602934346D5
:1046E0001B6800220193364B210000930020230019
:1046F000FFF790F8FBF708FD0123049A13600028E8
:1047000000D1FEE66FE70C2233682E491A623000B2
:10471000114B363206F0C0F8104B022239003B80B4
:1047200030000A2306F0B8F82748FEF7DFFE5346AC
:10473000029343461B6800220193244B21000093FF
:1047400000202300FFF766F8FBF7DEFC0023D4E728
:10475000E8490020FC2A0108881300000D0A000027
:10476000302B0108AC28010830270108CC000020BC
:104770003C2B0108C82B0108B80B0000002C0108D5
:10478000282C0108482C0108882C0108A82C0108B5
:104790009C000020EC2D0108202E0108482E010865
:1047A000582B01088C2B0108982B0108C800002009
:1047B000AC2B010870170000CC2C0108102D01084B
:1047C0003C2D01085C2D0108A02D0108CC2D01080D
:1047D000F0B5DE46454657464E46E0B5C64887B07A
:1047E00002F066FFC54B18009946FEF77FFEC44BEA
:1047F000C44F0293C44C9846C44D3B68002221002C
:1048000001930F2023000095FFF704F8FBF77CFCD1
:1048100000280DD14846FEF769FE434602933B68E7
:1048200000220193210023000F200095FEF7F2FFE4
:1048300002239A46B64EB74D3000FEF757FE434668
:1048400002933B6800220193210023000F20009572
:10485000FEF7E0FF5346012B00D018E1FA20C0001C
:1048600002F026FFFFF726FE4846FEF73FFE4346CE
:1048700002933B6800220193A74B21009A460093C4
:104880000A202300FEF7C6FFFBF73EFC00280ED1EE
:104890004846FEF72BFE434602933B6800220193F5
:1048A0005346210000930A202300FEF7B3FF0223A2
:1048B00099463000FEF71AFE434602933B680022F9
:1048C0000193210023000A200095FEF7A3FF4B4629
:1048D000012B00D0D3E0914B0A269A46904B994683
:1048E000904B9B4602E0002E00D1C1E05046FEF7FF
:1048F000FDFD434602933B68002201934B46210095
:10490000009305202300FEF785FFFBF7FDFB050064
:10491000FA208000013E02F0CBFE002DE3D0584685
:10492000FEF7E4FD434602933B68002201937E4B71
:104930002100009300202300FEF76CFFFBF7E4FB4F
:104940000028D0D07948FEF7D1FD434602933B685A
:1049500000220193764B2100009300202300FEF7F4
:1049600059FFFBF7D1FB0028BDD07248FEF7BEFD12
:10497000434602933B68002201936F4B2100009352
:1049800000202300FEF746FFFBF7BEFB0028AAD05D
:104990006A48FEF7ABFD434602933B680022019351
:1049A000674B2100009300202300FEF733FFFBF745
:1049B000ABFB002897D0634802F07AFE6248FEF70E
:1049C00095FD434602933B68002201935F4B210013
:1049D000009300202300FEF71DFFFBF795FB002846
:1049E00081D0FA20800002F063FE594B594D1B68BC
:1049F000002B54D0012B68D005AEFA20800002F0C5
:104A000057FE0C222B6828001A6253493A4B2C326D
:104A100005F042FF514B31000222338028000A2367
:104A200005F03AFFFA20800002F042FE4C4E3000C2
:104A3000FEF75CFD434602933B684A4D002221008D
:104A40000193002023000095FEF7E4FEFA20800089
:104A500002F02EFE3000FEF749FD434602933B680C
:104A6000002201932100230000200095FEF7D2FED2
:104A700007B0F0BCBB46B246A946A046F0BDFBF766
:104A800043FB01239946002800D112E723E7FBF7F7
:104A90003BFB01239A46002800D1CDE6DEE60C223E
:104AA0002B6828001A623049134B2C3205F0F4FEB3
:104AB0002A4B05AE338002220A233100280005F07C
:104AC000EBFE2A48FFF772FC97E70C222B682800C0
:104AD0001A622749084B2A3205F0DEFE1F4B05AE4D
:104AE000338002220A233100280005F0D5FE214838
:104AF000FFF75CFC81E7C04688130000642E0108C4
:104B0000AC280108C8000020302701086C2E0108DD
:104B100024240108802E0108942E0108A82E0108E3
:104B2000B42E0108DC2E0108E82E0108102F010820
:104B30001C2F0108382F0108442F0108742F010889
:104B4000842F0108B80B0000B02F0108C02F010806
:104B50009C000020E8490020703001080D0A000088
:104B6000102A01081C2A0108E82F01082430010836
:104B70003030010868300108F0B5DE4657464E4631
:104B80004546A023E0B5DB05A3B0180000221021A4
:104B90009A4603F055FC902309AD2B70FA23624F1F
:104BA00029009B0001223800994604F0ADFE002345
:104BB00006AC21000693A38003224B46380004F084
:104BC000A3FE4A460223210000923800220004F08E
:104BD00067FF50460122102103F032FC63782278EF
:104BE0005249280009F0C2FC514A28009046136837
:104BF0000C221A62FBF788FA4E4982B28B460B00F0
:104C00004046290005F048FE4B4905AE0A23318095
:104C100002223100404605F03FFE5046002210219E
:104C200003F00EFC9F233100337001224B46380005
:104C300004F06AFE00234846A38022002100069368
:104C400000900333380004F02BFF5046012210215E
:104C500003F0F6FBA07863782278384900902800AA
:104C600009F084FC40460C22036828001A62FBF716
:104C70004BFA5B46290082B2404605F00DFE2E49F4
:104C80000A23318002223100404605F005FE5046DD
:104C90000022102103F0D4FB4B233100337001229A
:104CA0004B46380004F030FE002321000693A38019
:104CB00004224B46380004F027FE4B462200210018
:104CC00000933800062304F0EBFE50460122102129
:104CD00003F0B6FB60796378227803902079184955
:104CE0000290E0780190A0780090280009F03EFC46
:104CF00043460C221B6828001A62FBF705FA5B4644
:104D0000290082B2404605F0C7FD0B490A233180D5
:104D100002223100404605F0BFFD23B0F0BCBB4687
:104D2000B246A946A046F0BD10480020AC300108AC
:104D3000E8490020881300000D0A0000CC3001086B
:104D4000E8300108F0B5A024E40583B00700002294
:104D500020001021FA2603F073FB6A4606236946F9
:104D6000234DB600D371280033000122073104F02F
:104D7000CBFD20000122102103F062FB2000002265
:104D8000102103F05DFB6A4620236946D371280099
:104D900033000122073104F0B7FD3300390003224C
:104DA000280004F0B1FD20000122102103F048FB8F
:104DB00020000022102103F043FB6A4604236946C9
:104DC000D371280033000122073104F09DFD20003B
:104DD0000122102103F034FB0C2206480649036827
:104DE0001A62962332005B0005F0C8FD03B0F0BDE7
:104DF00010480020E84900207C4A002070B5A0241B
:104E0000E40582B0200000221021FA2603F018FBEE
:104E10006A46062369461C4DB600D371280033004C
:104E20000122073104F070FD20000122102103F05F
:104E300007FB20000022102103F002FB6A46C72373
:104E40006946D371280033000122073104F05CFD6C
:104E500020000122102103F0F3FA2000002210218B
:104E600003F0EEFA6A4604236946D3712800330042
:104E70000122073104F048FD01221021200003F037
:104E8000DFFA02B070BDC04610480020F0B5CE4633
:104E90004746A02680B5F60585B00F0081469046AE
:104EA000300000221021FA2503F0CAFA6A460623D0
:104EB0000F21294CAD00D37369442B00012220003F
:104EC00004F022FD30000122102103F0B9FA300075
:104ED0000022102103F0B4FA6A4602230F21D37393
:104EE00069442B000122200004F00EFD2B004946EE
:104EF0000322200004F008FD43463A003900200058
:104F0000009504F0CDFD30000122102103F098FA45
:104F100030000022102103F093FA6A4604230F2187
:104F2000D37369442B000122200004F0EDFC300013
:104F30000122102103F084FA0C2208480849036872
:104F40001A6296232A005B0005F018FD05B0C0BC6C
:104F5000B946B046F0BDC04610480020E8490020E0
:104F60007C4A0020F0B5CE464746A02380B5DB053D
:104F700085B00D00804616001800002210219946C9
:104F8000FA2703F05DFA0F210323104C6944BF0098
:104F90000B7001223B00200004F0B6FC3B004146B0
:104FA0000322200004F0B0FC33002A002900200076
:104FB000009704F075FD01221021484603F040FAE5
:104FC00005B0C0BCB946B046F0BDC0461048002090
:104FD000F0B5D6464F4646468022C0B53E4C00212D
:104FE000C0B05201200009F02DFB80223B4F52013E
:104FF0000021380009F026FB394B984642461B78C1
:1050000052781B029B18374A1B02934250DD4246DE
:10501000414692780F26D318013B1A140A70F022E9
:105020001B121E4013404B700023013632028B705E
:105030004046210092B2FFF795FF2B4B80259A4600
:105040002A4B013E9946360234196D000021FF2299
:10505000684609F0F7FA6946002303E0013301319D
:10506000AB4206D0E25C0A70FF2AF7D10022694603
:10507000CA54FF23002269463800CA54FBF744F89B
:10508000013E6946381809F0A3FB013C0322514652
:10509000FF3E09F0A9FCFF3C4E45D7D14046FFF743
:1050A00051FE012040B0E0BCBA46B146A846F0BD72
:1050B0000C220F4C0F49236820001A620E4B05F09A
:1050C000EBFB6A460D4B6946138020000A2302223F
:1050D00005F0E2FB0020E5E7201F0020202F002044
:1050E000C0000020FF0003001C23010800FFFFFF99
:1050F000E84900200C310108881300000D0A000067
:1051000070B5244DC0B02B786A781B029B18224AD8
:105110001B02934201DD40B070BD0C221F4C2049A0
:10512000236820001A621F4B0F3205F0B5FB6A4658
:10513000200000241C4B694613800A23022205F03C
:10514000ABFB1A4E220023003100684609F00EFA2C
:105150006846FAF7D9FF013082B2FE2A07D9013436
:10516000052CEFD1FFF734FFFFF732FFD3E7694695
:105170002800FFF78BFE2B786A781B029B18AA7811
:105180001B029B180133FF331A142A701A126A701B
:10519000AB70E4E7C0000020FF000300E8490020F6
:1051A0001C310108881300000D0A00003831010885
:1051B000F0B5DE4657464E464546E0B5604C99464A
:1051C000A544D09B924698465E4B0F001A8802A9D0
:1051D000CE9ECF9D8A8080229B7883468B71520021
:1051E00004A903A8FFF7BEFE012302AA537180227F
:1051F00044A9520003A8FFF7B5FE022302AA537187
:10520000802284A9520003A8FFF7ACFE5B4601246C
:10521000013B0193019B02AA1B5D073258461355BF
:10522000FAF772FFA04202D30134112CF2D100240C
:1052300001E0642C09D03A5D04AB1B1938001A74E4
:105240000134FAF761FFA042F3D2002721AC01E05C
:105250003C2F08D05346DB5D5046E3550137FAF743
:1052600053FFB842F4D202AB9C46012308245B42B0
:10527000FF344B4401279A46644402E00137292F4A
:1052800007D05346DB5D4846E355FAF73DFFB84289
:10529000F4D200274EAC01E0282F07D0F35D300098
:1052A000E3550137FAF730FF8742F5D9002658ACAD
:1052B00001E0282E07D0AB5D2800A3550136FAF790
:1052C00023FFB042F5D202AB9C46022743461E4D57
:1052D000012465445E1EFF3702E00134BC4206D063
:1052E000335D40462B55FAF70FFFA042F5D200235D
:1052F00002AA537103A8FFF725FD802204A903A881
:105300005200FFF7C3FD012302AA5371802244A972
:1053100003A85200FFF7BAFD022302AA53718022AC
:1053200003A8520084A9FFF7B1FD0120C5239B000B
:105330009D44F0BCBB46B246A946A046F0BDC0465F
:10534000ECFCFFFF802101080702000010B582B0CD
:1053500069460D4B0D4C1A8820008A8080229B786C
:1053600052008B71002109F06DF901A81022210073
:10537000FFF7F8FD2000FAF7C7FE012800D8044C1B
:10538000200002B010BDC04680210108E43F00208B
:105390001032010870B5FDF79DFF144C616820685C
:1053A000FBF72CF9A168FBF729F91149051CFBF75C
:1053B000A1F8002815D10F49281CFBF787F8002811
:1053C00011D12169E068FBF719F96169FBF716F95A
:1053D0000749FBF78FF8431E9841434203201840CA
:1053E00070BD0120FCE70220FAE7C046EC02002075
:1053F0000000FA440000FAC4002370B50D4C782672
:10540000200023606360A360E36023616361A361A4
:105410000023094D2685290002222B30E3612362F7
:1054200009F0E2FA20002900E68502223D3009F069
:10543000DBFA70BDFC04002020320108F0B5C6463E
:1054400000B5294E46220021300096B009F0FAF846
:10545000264CE369012B40D000220421244802F0AD
:10546000EFFF3D23E0689846FDF722FEE7691490C0
:1054700015912069FDF71CFE12901391A068FDF7AD
:1054800017FE10901191236A1A4D0E936069FDF773
:105490000FFE0C900D91A069FDF70AFE23000A9003
:1054A0000B912B3308936068FDF702FE23000690F2
:1054B0000791283304932068FDF7FAFDA0442E34A9
:1054C0000290039143463A0029003000009409F00D
:1054D0004DF816B080BCB846F0BD01220421044846
:1054E00002F0AEFFBDE7C0464C450020FC040020A2
:1054F000000C00502432010810B52A21040009F0E4
:10550000B6F800211022013008F0A6F86378C1B285
:105510002A2B0CD00022023401345A40631E1B781F
:105520002A2BF9D1881A43425841C0B210BD00223B
:10553000F8E7C046F0B5CE4647460C2280B5364E59
:1055400087B0336805AD1A6290463449344B354F05
:105550001532300005F0A0F90A230222290030009C
:105560002F8005F099F9FFF707FB2F4C2F4B2200F6
:105570000C32914668229446A444624621002000E1
:105580003431029201934A4600935830FFF710FEDF
:105590004246336826491A623000214B033205F037
:1055A0007BF90A230222290030002F8005F074F9CC
:1055B0008022238800212B80A3781E4C52002000DB
:1055C000AB7009F03FF8280010222100FFF7CAFC59
:1055D0002000FAF799FD012800D8174C0C223368F7
:1055E00020001A62FAF790FD210082B20C4B3000C5
:1055F00005F052F90B4B022229002B8030000A23C0
:1056000005F04AF9FA20C00002F052F807B0C0BC19
:10561000B946B046F0BDC046E849002064320108F2
:10562000881300000D0A000080210108883201085B
:1056300098320108E43F00201032010800B593B011
:105640003422002105A808F0FDFF1022002101A846
:1056500008F0F8FF8020800003F008FB0223059388
:10566000FE3340220893002305A809930A920C9365
:1056700003F02CFB002801D072B6FEE7072301934C
:10568000A02302900390DB01002101A8049303F002
:10569000CDFD002801D072B6FEE713B000BDC046B4
:1056A000F0B5DE4657464E464546E0B504278DB078
:1056B00001F0D8FFFFF7C2FF1422002107A808F06D
:1056C000C1FF20220126D44D90466B6BA0203B43A6
:1056D0006B636B6BD14C3B400293029B6B6B210065
:1056E00013436B636B6BC00513400393039B6B6B9E
:1056F00033436B636B6B33400493049B02236A6BED
:105700001A436A636A6B134008220593059B6B6B0F
:10571000914613436B636B6B134006930022069B09
:1057200002F08EFE0022C021BD4802F089FE002258
:105730000721BC4802F084FE8E239B000022190042
:10574000B9489B4602F07CFEA0200794002407A9DC
:10575000C005089609940A9402F066FDF223B24847
:10576000DB0107A907930894099402F05DFD8023EB
:10577000AD481B0207A907930894099602F054FD4F
:105780008023A0205B0007A9C00507930894099611
:1057900002F04AFD8023A0205B0107A9C005079302
:1057A0000894099402F040FDC0239D4807A907937F
:1057B000089609940A9402F037FD0723994807A92F
:1057C0009A460793089609940A9402F02DFD5B46C9
:1057D000954807A90793089609940A9402F024FDB6
:1057E000AB6B00223343AB63AB6B03213340092027
:1057F0000193019B02F0F0FA092002F01FFB002246
:1058000003210A2002F0E8FA0A2002F017FB002226
:1058100003210B2002F0E0FA0B2002F00FFB0C2218
:10582000002107A808F00EFF804D814B42462B60F7
:105830008023DB056B6080239B032B610023AB542B
:105840000C32AB54280010322C83AC60EC606F61DA
:10585000AB76EF616C62AC622C636C63AC63AB548F
:10586000EC6401F043FF002801D072B6FEE7714BF3
:10587000099007A928000793089702F0B3F80028B9
:1058800001D072B6FEE76C4B280007934B4607A980
:10589000089302F0A7F8002801D072B6FEE7674B24
:1058A000280007930C2307A9089302F09BF800280F
:1058B00001D072B6FEE7624C624BA0602360624B7F
:1058C00020616061A061E061206220006360E660A9
:1058D00002F0A2FE011E01D072B6FEE7200003F026
:1058E00071F9011E01D072B6FEE7200003F090F9B5
:1058F000021E01D072B6FEE7544B554918001960DC
:1059000082235B004360E023DB00C36080239B00B5
:1059100083614B46C3615346C3624B46826002615A
:1059200042610262426282620263436303F046FFA5
:10593000051E01D072B6FEE701000C2207A808F090
:1059400081FE444C444B20002360444BA5606360BF
:10595000F423FF33E360A56104F0F8FA002801D0D6
:1059600072B6FEE70790099007A9200004F01EFB1D
:10597000002801D072B6FEE7394C3A4B96262360D8
:105980000C2500232000B6016660A360E36023615C
:105990006561A361E36123626362A36205F0C0F8FD
:1059A000011E01D072B6FEE7200005F0B3F9011E1A
:1059B00001D072B6FEE7200005F0D6F9002801D02C
:1059C00072B6FEE7200005F089F9002801D072B612
:1059D000FEE7254C254BA060E0602061A061E061FE
:1059E00020626062A062200023606660656105F04D
:1059F00097F8011E01D072B6FEE7200005F08AF983
:105A0000011E01D072B6FEE7200005F0ADF90028B6
:105A10002ED072B6FEE7C046001002401080000093
:105A200000080050000C005000040050E845002021
:105A30000024014002000004000200240008002CA1
:105A4000BC47002000540040140E00001048002005
:105A50000030014074480020001000403F1F00004B
:105A6000C048002000380140544900200044004054
:105A7000200005F033F9021E01D072B6FEE71A4B82
:105A80001A49180019605E609A60DA601A615D61F7
:105A90009A61DA611A625A629A6205F041F8041E4C
:105AA00001D072B6FEE705F097F90221104A1020E6
:105AB00005F026FA0F4B210018600F4A0F4805F039
:105AC000BDF90F4B210018600E4A0F4805F0B6F9DA
:105AD0000E4B210018600E4A0E4805F0AFF90E4B30
