:020000040800F2
:10000000009000206D7D0008197C00081D7C000810
:1000100000000000000000000000000000000000E0
:1000200000000000000000000000000085CB000878
:100030000000000000000000F1CB00081DB5000822
:10004000BD7D000800000000BD7D0008BD7D0008EA
:10005000BD7D0008BD7D0008BD7D0008BD7D000898
:1000600000000000217C0008317C0008497C000869
:10007000BD7D0008617C0008BD7D00080000000017
:10008000BD7D0008717C0008BD7D0008BD7D0008B5
:10009000BD7D0008BD7D0008BD7D0008BD7D000858
:1000A000BD7D0008BD7D0008BD7D0008817C000885
:0800B000917C0008A17C00080E
:1000C00010B5064C2378002B07D1054B002B02D02E
:1000D000044800E000BF0123237010BD0803002086
:1000E00000000000C8280108044B10B5002B03D005
:1000F0000349044800E000BF10BDC04600000000F6
:100100000C030020C82801080023C25C0133002A28
:10011000FBD1581E7047000002B4714649084900DF
:10012000095C49008E4402BC7047C04603B4714666
:10013000490840004900095E49008E4403BC7047ED
:10014000002243088B4274D303098B425FD3030A16
:100150008B4244D3030B8B4228D3030C8B420DD329
:10016000FF22090212BA030C8B4202D312120902B7
:1001700065D0030B8B4219D300E0090AC30B8B42F5
:1001800001D3CB03C01A5241830B8B4201D38B03A3
:10019000C01A5241430B8B4201D34B03C01A524148
:1001A000030B8B4201D30B03C01A5241C30A8B428B
:1001B00001D3CB02C01A5241830A8B4201D38B0276
:1001C000C01A5241430A8B4201D34B02C01A52411A
:1001D000030A8B4201D30B02C01A5241CDD2C3098C
:1001E0008B4201D3CB01C01A524183098B4201D308
:1001F0008B01C01A524143098B4201D34B01C01AF3
:10020000524103098B4201D30B01C01A5241C3086A
:100210008B4201D3CB00C01A524183088B4201D3D9
:100220008B00C01A524143088B4201D34B00C01AC5
:100230005241411A00D20146524110467047FFE731
:1002400001B5002000F0F0F802BDC0460029F7D04B
:1002500076E7704703460B437FD4002243088B4266
:1002600074D303098B425FD3030A8B4244D3030B3D
:100270008B4228D3030C8B420DD3FF22090212BA02
:10028000030C8B4202D31212090265D0030B8B427E
:1002900019D300E0090AC30B8B4201D3CB03C01A68
:1002A0005241830B8B4201D38B03C01A5241430B43
:1002B0008B4201D34B03C01A5241030B8B4201D333
:1002C0000B03C01A5241C30A8B4201D3CB02C01A9E
:1002D0005241830A8B4201D38B02C01A5241430A16
:1002E0008B4201D34B02C01A5241030A8B4201D305
:1002F0000B02C01A5241CDD2C3098B4201D3CB01AC
:10030000C01A524183098B4201D38B01C01A52415A
:1003100043098B4201D34B01C01A524103098B425E
:1003200001D30B01C01A5241C3088B4201D3CB0049
:10033000C01A524183088B4201D38B00C01A52412C
:1003400043088B4201D34B00C01A5241411A00D2DC
:1003500001465241104670475DE0CA0F00D0494245
:10036000031000D34042534000229C4603098B42B5
:100370002DD3030A8B4212D3FC22890112BA030A3D
:100380008B420CD3890192118B4208D389019211BF
:100390008B4204D389013AD0921100E08909C30944
:1003A0008B4201D3CB01C01A524183098B4201D346
:1003B0008B01C01A524143098B4201D34B01C01A31
:1003C000524103098B4201D30B01C01A5241C308A9
:1003D0008B4201D3CB00C01A524183088B4201D318
:1003E0008B00C01A5241D9D243088B4201D34B0033
:1003F000C01A5241411A00D20146634652415B1075
:10040000104601D34042002B00D549427047634655
:100410005B1000D3404201B5002000F005F802BD9A
:100420000029F8D016E770477047C0468446100090
:1004300062468C461900634600E0C0461FB501F0D5
:10044000E5FE002801D40021C8421FBD10B501F00F
:1004500035FE4042013010BD10B501F0D7FE002836
:1004600001DB002010BD012010BDC04610B501F019
:10047000CDFE002801DD002010BD012010BDC046CA
:1004800010B501F05DFE002801DC002010BD012048
:1004900010BDC04610B501F053FE002801DA00205F
:1004A00010BD012010BDC046844608006146FFE72C
:1004B0001FB500F0C9FB002801D40021C8421FBDB0
:1004C00010B500F055FB4042013010BD10B500F0F2
:1004D000BBFB002801DB002010BD012010BDC04681
:1004E00010B500F0B1FB002801DD002010BD012097
:1004F00010BDC04610B500F061FB002801DC0020F3
:1005000010BD012010BDC04610B500F057FB0028FB
:1005100001DA002010BD012010BDC04670B50022D8
:100520000C4B04000D00FFF7B5FF002804D120009C
:10053000290002F031FD70BD064B00222000290089
:1005400002F08AF902F028FD80231B069C466044D5
:10055000F1E7C0460000E04170B505000C00002244
:10056000002328002100FFF777FF002808D128008A
:10057000210000F00FF802000B001000190070BD00
:1005800080231B06E118280000F004F800234242F3
:100590008B41F2E770B500220B4B0D00040001F017
:1005A00099FEFFF7BBFF060002F05CFD0022074B3F
:1005B00001F090FE02000B002000290002F04CF92F
:1005C000FFF7ACFF310070BD0000F03D0000F041CE
:1005D00070B50600080002F015FD0022064B01F080
:1005E00079FE0D000400300002F03CFD2B002200DB
:1005F00000F016FF70BDC0460000F041F8B5474658
:10060000CE464A0243024500C40F500A80464800C5
:100610005B0A000E9209944680B51E0081460200D6
:100620002D0EDF00C90F8C4224D0281A00280EDDC1
:10063000002A3ED16246002A00D1FDE0421E012878
:1006400000D137E1FF2800D1A9E0100039E00028EF
:1006500063D04B46521B002D00D0E0E0002F00D1AC
:10066000CEE0531E012A00D155E1FF2A00D194E0CB
:100670001A00D9E02A1A002A00DC99E0002862D08A
:10068000FF2D00D18BE080236146DB0419438C46AB
:100690001B2A00DCD2E00123DB195A016AD501359F
:1006A000FF2D5BD00122A3491A405B080B40134386
:1006B0001CE0FF2D00D172E080236246DB041A4368
:1006C00094461B2800DC90E00123FB1A5A0151D507
:1006D0009B019E09300002F0B9FD330005388340CC
:1006E000854200DC75E0944A2D1A13405A0704D065
:1006F0000F221A40042A00D004335A013CD5681C4A
:10070000FE2D2BD09B015E0AC0B2C0053043E4072A
:100710002043C0BCB946B046F8BDFE206A1C10425A
:1007200072D1002D00D0AEE0002F00D1ECE0634686
:100730000020002BE9D0FB1A5A0100D4F3E06346F5
:100740000C00DB1BD2E7614600295BD0511E012A59
:1007500000D1A7E0FF2A22D00A0099E7FF20002657
:10076000D3E7FE216A1C114273D0FF2AF6D0150090
:1007700067447B085A07BBD1DB08FF2D0FD05B0213
:100780005E0AE8B2C1E76246002A08D08022D2039E
:10079000134204D04046104201D10C004346002BC6
:1007A000DCD08026F6031E437602FF20760AACE7F3
:1007B000002AD6D0421B002D5CD0FF28EED080232B
:1007C000DB041F431B2A00DC82E001234D46634407
:1007D00063E72022401B0130121A19009340C140E8
:1007E0005A1E934100250B4380E7202361461B1AC4
:1007F000994062460B00C240591E8B41134364E787
:100800000C0043461500B8E76346FE1A730145D451
:10081000002E00D05EE700240020002675E7FF2BA5
:10082000BBD08023DB041F431B2A47DD0123624624
:100830000C004D46D31A49E705009EE76146202388
:10084000D1409B1A62469A4013005A1E93410B43B3
:1008500022E7002D46D1002F62D063460020002BF6
:1008600000D152E73B0063445A0183D5324A013537
:1008700013407FE7002FC4D0531E012A12D0FF2A55
:100880008CD01A009EE7002F00D07CE76346002B37
:1008900083D180260024FF20F60336E763460C0050
:1008A000DE1B17E73B00634401255A0100D461E7D2
:1008B0000225F7E663460125FB1A07E720239B1A6A
:1008C00038009F403B00D0405A1E93410343AEE79F
:1008D00020239B1A39009F403B00D1405A1E934170
:1008E0000B4373E7002F00D158E76246002A00D17E
:1008F00055E78022D203134200D150E7414611420E
:1009000000D04CE743464AE76346002B83D00C00F7
:1009100046460020F9E663460C00DB1B0135D5E6B0
:1009200046460020F1E6002B00D023E700240026F5
:10093000EBE6C046FFFFFF7DFFFFFFFBF0B54F4634
:100940004646D6464502C0B547000C1C6D0A3F0E10
:10095000C60F002F00D16FE0FF2F00D174E00023FD
:10096000802299469A46ED00D20415437F3F6302E8
:100970005B0A984663001B0EE40F002B4DD0FF2B43
:1009800045D042468021D200C90411438846002246
:100990007F3B3100FF1A4B466140C9B20F2B00D993
:1009A000B8E070489B00C3589F4600239846260035
:1009B000454692465346022B00D18DE0032B00D1D1
:1009C000A1E0012B18D03B007F33002B6DDD6A07BF
:1009D00004D00F222A40042A00D004352A0103D56E
:1009E000614B1D403B008033FE2B00DD74E0AA010B
:1009F000520AD8B202E00E0000200022C005F6071D
:100A000010433043E0BCBA46B146A846F0BD434669
:100A1000002B3FD10222FF3F03E04346002B2DD1A4
:100A2000012231004B466140C9B213430F2B38D825
:100A30004E489B00C3589F46002D13D1042399466E
:100A4000033B00279A4692E7002D05D108239946DB
:100A5000063BFF279A468AE70C239946093BFF2766
:100A60009A4684E7280002F0F1FB7627431F9D4059
:100A700000237F4299469A463F1A78E7404602F0A3
:100A8000E5FB4246431F9A4076235B4290461B1A81
:100A900000227EE703234A461A439146FC33032291
:100AA00077E70E00FF200022A8E70122D31A1B2BB4
:100AB000A2DC9E372A00BD40DA406B1E9D411543E3
:100AC0006A0704D00F222A40042A00D004356A01A4
:100AD00044D50120002291E7FF2000228EE78022EA
:100AE0000026FF20D20389E7002398468022D20304
:100AF000154208D04346134205D11A43520226003C
:100B0000FF20520A7AE78022D2032A435202FF20B2
:100B1000520A73E742466B015501AB421AD21B20C1
:100B20000022013F01261C0052005B00002C01DB6B
:100B30009D4201D85B1B324301380028F3D1581E77
:100B4000834113431D003B007F330E00002B00DD6B
:100B50003DE7AAE71A2001225B1BE3E7AA01002078
:100B6000520A4BE798290108FFFFFFF7D82901082F
:100B700070B5420045024E024C00C30F6D0A0120C1
:100B8000120E760A240EC90FFF2A06D0FF2C03D0BE
:100B9000A24201D1B54206D070BD002DFCD1FF2C80
:100BA000FAD1002EF8D18B4206D00120002AF3D1D1
:100BB0002800431E9841EFE70020EDE770B54200A2
:100BC00045024E024C00C30F6D0A120E760A240E27
:100BD000C80FFF2A1BD0FF2C0ED0002A1BD1002CDF
:100BE00001D1002E1CD0002D0CD083421CD002213C
:100BF000581E0840013870BD002E22D1002AF4D1C1
:100C0000002DF2D10028F6D101204042F3E7002D5B
:100C100017D1FF2CF0D0002CE7D1002EE5D1E6E76C
:100C20000020002DE7D0E2E7A24205DCEADBB54276
:100C300002D8E7D30020DEE74342584140000138A4
:100C4000D9E702204042D6E770B5420045024E0285
:100C50004C00C30F6D0A120E760A240EC80FFF2A2D
:100C60000BD0FF2C0DD0002A1FD1002C16D1002E46
:100C700014D10020002D10D009E0002D0CD1FF2C44
:100C800013D1002E08D1002A08D0834212D00221AD
:100C9000581E0840013800E0022070BD002DF4D13C
:100CA0000028FAD101204042F7E7002CEDD1002EB8
:100CB000EBD1ECE7A24205DCF2DBB54202D8EFD380
:100CC0000020EAE74342584140000138E5E7C046CA
:100CD00043025B0AF0B54F4646469946D646C30FD7
:100CE00045009846C0B54B460F1C2D0E00D1CBE0F9
:100CF000FF2D00D1CFE08022DB00D2041A43002375
:100D0000914600269A467F3D7C027B00640A1B0EBA
:100D1000FF0F002B00D1A9E0FF2B11D08022E400AF
:100D2000D204144342467F3B5B197A400020D2B282
:100D30005D1C0A2E13DD3A000B2E47D047463FE0DC
:100D40002B00FF33002C1ED10222164342460135F0
:100D50007A40D2B2FF350A2E00DDE4E00220022EF6
:100D60001CDC013E012E42D802283DD0012866D16C
:100D700000200021C0050843D2071043E0BCBA465A
:100D8000B146A846F0BD03221643424601357A40DB
:100D9000D2B2FF350A2E00DDE4E003200121B1408C
:100DA000A626F60031420AD19026B600314216D16D
:100DB000B93EFF3E0E421AD0A146824600E017001F
:100DC00053463A00022B0FD04C4650460328CDD153
:100DD0008021C90321434902FF20490ACAE7802133
:100DE0000022FF20C903C5E7FF200021C2E7200C35
:100DF00049462404240C27000E0C0904090C7443F2
:100E00004F4346434843390C001909188C4203D913
:100E100080204002844666443F0408043F0CC01909
:100E20008401671EBC41090C800E891904438901A5
:100E30000C43090171D5012361081C400C432B00B0
:100E40007F33002B51DD610704D00F21214004299D
:100E500000D00434210103D5434B1C402B008033C8
:100E6000FE2BC1DCA101490AD8B283E7002C2CD1AA
:100E7000012342461E432B007A400120D2B25D1C62
:100E80000A2E00DD57E76AE7002B10D10123042664
:100E900000259A4638E7002B04D102230826FF25B7
:100EA0009A4631E703230C26FF259A462CE748464D
:100EB00002F0CCF94A46431F76259A4000236D4242
:100EC000914600269A462D1A1EE7200002F0BEF930
:100ED0004246431F9C402B1A763B7A400020D2B2F8
:100EE0005D1C0A2E00DD26E739E70121CB1A1B2BFA
:100EF00000DD3DE79E352100AC40D940631E9C419A
:100F000021434B0704D00F230B40042B00D00431A6
:100F10004B0104D5012000212CE71D008FE789013A
:100F20000020490A26E702230F2E0CD180214B46D0
:100F3000C9030B420DD00C420BD1214349023A00A8
:100F4000FF20490A16E70B2E00D0F7E6A1469A4685
:100F500036E780214B46C903194349024246FF2028
:100F6000490A07E70323DFE7FFFFFFF7F0B5C646AF
:100F700043025B0A4500DA00C40F48024F00944662
:100F8000420A1E00904600B52D0E3F0EC90F800983
:100F9000FF2F59D0012251408C4239D0EA1B002A40
:100FA00058DD002F68D0FF2D00D1D1E08023DB0475
:100FB00018431B2A00DCE3E001236246D31A5A01DE
:100FC00000D4ACE09B019E09300002F03FF93300F1
:100FD00005388340854200DCC6E0B24A2D1A134032
:100FE0005A0704D00F221A40042A00D004335A01B1
:100FF00000D497E06A1CFE2D00D184E09B015E0ABC
:10100000D2B2D0053043E407204380BCB846F0BDDF
:10101000EA1B002A41DD002F6BD0FF2D00D197E0A5
:101020008023DB0418431B2A00DCCCE0012363444B
:101030005A0174D50135FF2D65D001229A491A4015
:101040005B080B401343CBE700281FD08C4222D013
:101050002A00FF3A002A35D07A1B002D00D099E0F3
:101060006346002B00D1DDE0531E012A00D105E1CB
:10107000FF2A6BD01A0094E0002873D0511E012A79
:1010800000D1DFE0FF2A63D00A0092E7012251403D
:10109000A14200D082E72A00FF3A002A36D07A1B0C
:1010A000002D00D1AAE0FF2F00D1DAE080236146B5
:1010B000DB0419438C461B2A00DCD4E001233D00ED
:1010C0001B18B5E7FE276A1C174271D1002D00D00E
:1010D0009EE06346002B00D1D5E00022002800D11D
:1010E0008FE71B1A5E0100D4D6E063460C00C31ADA
:1010F00076E7002836D0511E012A00D19AE0FF2A57
:1011000026D00A008FE7FF2200267AE7FE276A1C16
:10111000174262D0FF2AF6D01500604443085A07F0
:1011200000D05FE7DB08FF2D12D05B025E0AEAB257
:1011300067E76246002A00D193E0002808D08022A9
:10114000D203134204D04046104201D10C00434662
:10115000002BD8D08026F6031E437602FF22760AA3
:101160004FE743461500DEE72022401B0130121AEC
:1011700019009340C1405A1E934100250B432FE7AD
:1011800020239B1A010098400300D1405A1E93412E
:101190000B4312E7FF2FD9D080236446DB041C43A6
:1011A000A4461B2A52DD01230C003D00C31A06E7AA
:1011B00063461E1A730139D4002E00D004E70024C0
:1011C000002200261DE720239B1A010098400300FF
:1011D000D1405A1E93410B4329E7002DA9D1634604
:1011E000002B56D00022002800D10AE703006344F8
:1011F0005A0194D52B4A0135134090E76346002BE2
:10120000AFD0531E012A15D0FF2A2AD01A0052E768
:101210006246002A91D1002898D180260024FF221E
:10122000F603EEE60C00434615007CE763460C002F
:10123000C61AC9E60300634401255A0100D46EE7CB
:101240000225FAE6634601251B1AB8E66446202308
:10125000D4409B1A62469A4013005A1E934123437E
:10126000A2E7434674E761462023D1409B1A6246B9
:101270009A4013005A1E93410B4320E763460C002B
:101280000125C31A9BE6002899D00C00464600228F
:10129000B7E646460022B4E6002B00D03FE7002424
:1012A0000026AEE6FFFFFFFBFFFFFF7D410242008D
:1012B000C30F490A0020120E7E2A03DD9D2A02DD9B
:1012C000094A98187047802000040143952A07DCDA
:1012D0009620821AD1404842002BF3D10800F1E752
:1012E000963A9140F7E7C046FFFFFF7F70B50028B0
:1012F00013D0C317C5185D40C40F280001F0A6FF26
:101300009E2301001B1A962B0FDC082831D00839C8
:101310008D406D026D0AD8B202E000240020002545
:10132000C0052843E407204370BD992B0CDD05223E
:10133000121A2800D040020008001B308540280007
:10134000451EA84102431500052916DC2A000F4856
:1013500002406E0709D00F263540042D05D0043217
:10136000550102D59F2302405B1A9201550AD8B25B
:10137000D6E76D0296206D0AD2E74A1F95402A00F3
:10138000024802406E07F0D0E5E7C046FFFFFFFBD2
:1013900070B5041E0ED001F059FF9E2301001B1AE8
:1013A000962B0CDC08282CD008398C406402640A87
:1013B000D8B201E000200024C005204370BD992B65
:1013C0000ADD020020001B3290400200501E8241C4
:1013D0000520401AC4401443052916DC22000F489A
:1013E0000240650709D00F252C40042C05D004329B
:1013F000540102D59F2302405B1A9201540AD8B2CD
:10140000DAE764029620640AD6E74A1F9440220075
:10141000024802406507F0D0E5E7C046FFFFFFFB4A
:10142000F0B54F464646D6460400C0B51F000B0334
:1014300010004E005B0ACD0F610F7A001943E300E4
:101440003C03FF0FBC46640A470F2743760D520D3D
:10145000C000B9468046B71A654500D19BE0002F11
:1014600000DC84E0002A00D1BEE0C84A964200D1E8
:1014700024E180224C4612041443A146382F00DD9B
:1014800067E11F2F00DDD6E120224C46D21B94409D
:10149000A2464446FC402000544604434046904047
:1014A000421E90414A46FA400443891A1C1BA3423B
:1014B000924152428B1A9A4653461B0200D4D4E002
:1014C00053465A02530A9A465346002B00D104E170
:1014D000504601F0BBFE0300083B20222000D21A38
:1014E0005146D040994002009C400A43B34200DA82
:1014F00002E19B1B591C1F2900DDA7E020231000DF
:1015000026005B1A9C409840CE40CA40631E9C4116
:101510003043924600260443630709D00F2323403B
:10152000042B05D0231DA342A4416442A2441C0005
:1015300053461B0200D49BE0944B01369E4200D1DF
:10154000B8E053469249E4080B4019005B07234377
:1015500072054C02240B520D1205ED0722432A435B
:1015600018001100E0BCBA46B146A846F0BD002FF5
:1015700048D0971B002E00D00EE10C001C4300D178
:10158000B7E17C1E012F00D126E2804DAF4200D191
:10159000D5E1270007E1002F00DCB2E0002A47D0A8
:1015A0007A4A964200D189E080224C4612041443C4
:1015B000A146382F6BDC1F2F00DC6EE13A00484655
:1015C000203AD0408446202F07D040224846D21BE4
:1015D000904002004046104380464046421E9041E3
:1015E00062460400144357E04A46024300D103E137
:1015F0007A1E012F00D193E1644CA74200D18AE109
:1016000017003BE7634C721C224200D0E0E00A0066
:101610001A43002E00D074E1002A00D1D0E14A46DE
:10162000024300D0E3E14A07DB081343C90829E07D
:101630004A46024300D17DE17A1E012F00D1E0E04D
:10164000524CA74200D166E11700B2E710001F3BE1
:10165000D840202903D040235B1A9A401443631ECC
:101660009C41002300269A460443630700D055E7B7
:101670005246E3085207134352463700D108434A03
:1016800097421FD009037A050C0B520D64E74246BE
:101690004C461443621E9441E4189C4292415242CB
:1016A00092468A4453461B02DFD5384B01369E4290
:1016B00000D0B3E03200002400234DE74A07DB08E6
:1016C0001343C9081A000A4300D100E2802424030E
:1016D0000C4324032D4A240B3EE7200001F0B6FD05
:1016E000030018331F2B00DCF7E622000838824085
:1016F0000024B34200DBFCE6F61A254B1A40924662
:101700000AE7002F2BD0971B002E00D1B8E01F4C0A
:10171000A24200D11CE1802424042143382F00DDA3
:101720001EE11F2F00DD9EE120260C00F61B180095
:10173000B340B440F8405E1EB341F94004431C433B
:101740008944444444459B415B424B449A461600BD
:10175000A8E742464C461443621E9441A6E60D4C4F
:10176000721C224200D0A8E00A001A43002E00D0CA
:101770000AE1002A00D15EE14A46024300D061E15D
:101780004A07DB081343C9087CE7C046FF0700008F
:10179000FFFF7FFFFE070000CF4CA24200D1CEE04A
:1017A000802424042143382F5BDC1F2F00DDDCE084
:1017B00020250C00ED1B1E00AB40AC40FE405D1E22
:1017C000AB413443F9401C434B465B1A99464CE00D
:1017D0004A461C1A881AA34292415242924602007B
:1017E0005046121A9246120278D45346234300D030
:1017F0006AE60021002545E74A07DB081343C908CC
:101800003DE71C189C429B4149448A465B429A44EE
:10181000534601261B0200D427E702265246AF4B4F
:1018200001211A401300214062080A43DC075B08CB
:101830009A46144370E63A004C46203AD440A446F7
:10184000202F07D040224846D21B9040020040463D
:10185000104380464046421E9041624604001443B5
:1018600024E619430C00631E9C4143461C1BA04503
:101870009B4149465B42CB1A9A46654616001BE6D9
:101880000C001C4300D1C7E07C1E012F00D1F9E001
:10189000914EB7425CD0270040E720224C4640469C
:1018A000D21B9440F840044340469040421E904171
:1018B0004A46FA4004438918EEE6874CA24200D11A
:1018C000F9E6181898429B4149445B42CB18DC0763
:1018D00040085B089A4616000443C6E64246D41AFE
:1018E000A04580414B464042591A0B1A9A4665461C
:1018F000EAE54B464A46C0085B0765460343D10804
:10190000BDE6002A00D08EE04B46034317D180216C
:1019100000250903DAE64A07DB081343C908D1E6C4
:101920001C1A4A46A3429B41891A5B42CB1A9A462B
:101930000126C1E54A07DB081343C9089FE6434671
:10194000D8084B464A465B0765460343D108B9E6CB
:101950004346D8084B464A465B070343D108B1E6E5
:1019600019430C00631E9C41EBE63C000D00203C3B
:10197000E540202F03D04024E41BA1400B431C0072
:10198000631E9C412C4370E7002AE1D04A46024383
:10199000C1D04A07DB0813438022C9081203114251
:1019A00008D04846C408144204D143462100DB084D
:1019B000420713435A0FDB005207DB08134381E64B
:1019C0004B46034300D114E74B464A46C0085B0729
:1019D00065460343D10855E6C41AA04580414B46ED
:1019E0004042591A0B1A9A466546012664E51C1AAC
:1019F0004A46A34280418A1A4042121A9246120273
:101A000049D54246D41AA04580414B464042591A16
:101A10000B1A9A4665467FE54B464A46C0085B0767
:101A20000343D1082BE64A46DB08024338D14A0774
:101A30001343C90846E64B464A46C0085B070343C2
:101A4000D1081FE61C189C429B4149448A465B42D0
:101A50009A4453461B0200D407E652461F4B012608
:101A60001A40924601E63C000E00203CE640202F42
:101A700003D04024E41BA1400B431C00631E9C4187
:101A800034435EE643448342804149448A464042AF
:101A90001C008244BCE65346234300D1A9E6E4E59A
:101AA0004A0713438022C9081203114209D048464D
:101AB000C408144205D1434665462100DB084207AD
:101AC00013435A0FDB00DB0852071343FAE50023E8
:101AD000014A1C0040E5C046FF070000FFFF7FFFF2
:101AE000F0B557464E464546DE46E0B50C031F00AE
:101AF0004B0081469246050085B0240B5B0DCE0F4E
:101B0000002B00D152E1D24A934200D16EE1420F44
:101B1000E40014438022120422439046CD4AC500BB
:101B200093469B440023994600933C037B00504618
:101B3000240B5B0DFF0F002B00D11AE1C44A934226
:101B400000D15EE1420FE4002243802424041443C8
:101B5000C04AC10094465A466344D31A9B460020AB
:101B600033007B409A464B460F2B27D8BA4A9B003E
:101B7000D3589F46B246009B022B16D0032B00D1B0
:101B800087E2012B00D0D5E00023002200251B05B1
:101B900013435246D20713432800190005B0F0BC86
:101BA000BB46B246A946A046F0BD00220025A84B80
:101BB000EDE7BA46A0460D000090DCE7444500D2B0
:101BC000C4E100D1BFE101235B429C462E004046A8
:101BD0000025E34423020C0E1C431B0C99462304EE
:101BE0000A021F0C494600920197FEF72FFB0200E4
:101BF0007A430B04310C804619438A4207D90123EA
:101C00005B429C460919E0448C4200D801E2881AE4
:101C10004946FEF71BFB019A360442430904360C81
:101C200003000E43B24204D93619013BB44200D836
:101C3000E9E1B01A4246009E12041A43330C1F0019
:101C4000110C9046029313043204160C32001B0C44
:101C50005A4303967B434E437943170CBC469B196A
:101C600063449E4203D980267602B44661441E0C2A
:101C7000711816041B04360C9E19884202D312D127
:101C8000B54210D243465A1E009B9C4665441F0035
:101C90009D429B415B421B19C018844200D29EE1C9
:101CA00000D199E19046AE1BB542AD41401A6D425C
:101CB000401B844200D1D2E14946FEF7C7FA019A9F
:101CC0000B044243310C050019438A4200D96CE1F0
:101CD000881A4946FEF7BAFA019A360442430904C3
:101CE000360C03000E43B24200D953E10398B61AF2
:101CF00002002D041D43029F2B041B0C5A437B43FF
:101D00009C46290C4843130C84446344794398420D
:101D100003D98020400284466144180C12041B043D
:101D2000120C40189B18864200D200E100D1FBE063
:101D300001231D43494B5B44002B00DCAAE06A07EA
:101D400000D03DE1E9084246D20106D54246444B67
:101D50001A4080239046DB005B44424A934200DDF8
:101D600023E742465B05550752020D43120B5B0DFC
:101D70000DE75146214300D17CE0002C00D1FBE06F
:101D8000200001F063FA02000B3A1D239B1A524611
:101D90000100DA40534608398B408C401900144347
:101DA000314B58449B4683440020D9E6030023432B
:101DB000984644D0002C00D1CFE0200001F046FA34
:101DC000010002000B391D235B1A49461000D9405F
:101DD000083884400B004D46234398468540234BEA
:101DE0009B1A9B460023994600939EE602002243DD
:101DF00090461DD108229B46022300259146009360
:101E000093E65146214309D102234A461A43184B0F
:101E100091469C4600240220E344A1E603234A465F
:101E20001A43134B91469C4651460320E34497E6E0
:101E30000C229B460323A0469146009375E604239B
:101E4000994600239B460133002500936DE6C0466A
:101E5000FF07000001FCFFFF182A0108FF03000034
:101E6000FFFFFFFEFE070000F30300000DFCFFFF75
:101E700001F8FFFF4A4601231A439146002401203E
:101E80006EE6002380229A460025884B12037EE6E8
:101E900001256D420122D21A382A00DD74E61F2A7C
:101EA00000DCBDE01F214942CB1A4146D9400B005E
:101EB000202A04D041467E4A5A4491400D432900CD
:101EC0004A1E9141194307231D0000220D400B4279
:101ED00000D1D0E00F2200230A40042A00D1C7E03D
:101EE0000A1D8A42894149425B1811001A0200D436
:101EF000BEE001230022002549E68022434612036A
:101F0000134208D0144206D122431203BA460D00F0
:101F1000664B120B3BE68022434612031A43120320
:101F2000B246624B120B32E6002B00D102E7A61933
:101F30006A1EA64200D289E0864200D29FE000D10C
:101F4000AFE01500F4E6A94200D93CE64346DE07BF
:101F500058086B081E43ED073CE601F077F90100D5
:101F60000200153120321C2900DC2CE74B460838D2
:101F700083400025984632E701F068F903001A0013
:101F8000153220301C2A00DCFFE65446083B0021B5
:101F90009C4005E73619013BB44200D9A6E6B2429F
:101FA00000D8A3E6831E3619A0E60919013D8C422C
:101FB00000D98DE68A4200D88AE6851E091987E68F
:101FC0000F222A40042A00D1BCE6291DA942AD41B6
:101FD0006D42C908A844B6E6AF4200D962E6814224
:101FE00004D800D05EE6AE4200D85BE602235B4236
:101FF0009C46009BE0449C4665449D429B415B425D
:102000001B19C0184FE6B24200D812E6831E3619DB
:102010000FE68A4200D8FAE5831E98460919F6E5CC
:10202000244B28005B4441469D409940D0406B1EA4
:102030009D41434601432943D3404A0700D155E718
:102040000F220A40042A00D04AE74FE715008642D3
:1020500000D06DE6009A9A4200D069E66AE6164B17
:102060005B44002B00DC13E701250021A8446AE64D
:102070005D075B021A0BC90800230D4387E5009931
:10208000023D4A008A42BF417F423F19F619009241
:10209000DDE78022434612031A431203034B120B5F
:1020A00075E500999942EAD31500D3E7FF070000D0
:1020B0003E0400001E040000FF030000F0B54E4681
:1020C0004546DE4657469046E0B517001A03120B08
:1020D0000500844619480E034C0091465A00DB0F58
:1020E0009B46360B640DC90F520D844219D08242B3
:1020F00010D0012094420ED14E450CD10120C44590
:1021000009D1594517D0002C05D130002843431E72
:10211000984100E00120F0BCBB46B246A946A0466B
:10212000F0BD330001202B43F5D1A242F3D14B4641
:102130003B43F0D1E2E70020EDE7C046FF07000097
:10214000F0B54746CE460400180016001B031B0BD3
:102150002D4D4A00994680B543000F03A446B04672
:102160003F0B520DC90F5B0DC00FAA4221D0AB42ED
:1021700013D0002A22D13C43002B02D14D462E43DE
:1021800022D0002C10D0814222D0022001390840F8
:102190000138C0BCB946B046F0BD4D462E4329D1EA
:1021A000002AF0D13C43EED10028F2D10120404278
:1021B000EFE73D0025431DD19342EED0002BE2D145
:1021C0004C462643DFD1E0E70020002CE1D0DCE7DD
:1021D0009A420ADCE8DB4F45D7D80ED000204F45A5
:1021E000D7D20029E2D00800D3E74342584140004B
:1021F0000138CEE702204042CBE7C445C5D80020D5
:10220000C445C6D2EDE7C046FF070000F0B547461B
:10221000CE460400180016001B031B0B2C4D4A0071
:10222000994680B543000F03A446B0463F0B520DBC
:10223000C90F5B0DC00FAA420DD0AB4210D0002ACF
:1022400027D13C43002B11D14D462E430ED1002007
:10225000002C15D00EE03D00254310D1934218D13B
:102260004D462E430BD1002A02D13C43002C0BD00B
:10227000814214D0022001390840013800E00220D8
:10228000C0BCB946B046F0BD0028F9D1012040429B
:10229000F6E7002BECD14C462643E9D1EAE79A4217
:1022A00004DD4342584140000138E9E79A42EBDB44
:1022B0004F45DFD806D000204F45E1D20029E5D0B8
:1022C0000800DDE7C445D5D80020C445D8D2F5E7DD
:1022D000FF070000F0B54546DE4657464E46E0B5DE
:1022E0001F000B031B0B9B464D00CB0F04009146B8
:1022F000984687B06D0D00D1CDE1CE4B9D4200D107
:10230000E9E15A46430FD2001343802212041A43D4
:10231000C3009A46C84B93469C460023002665445A
:1023200000933C037B004846240B5B0DFF0F002B02
:1023300000D189E1BF4A934219D0420FE400224301
:10234000802424041443BC4A00219446424663443A
:102350005B190193019B7A400133C000D2B2029312
:102360000A2E1CDD3A000B2E5ED0474656E0494649
:10237000B04B2143EB18019300292AD1802002227F
:1023800000012B0084461643424663447A40D2B291
:1023900002930A2E00DD31E2002000240221022EE9
:1023A00026DC013E012E52D802294CD0012900D052
:1023B00018E10023002400251B052343D207134303
:1023C0002800190007B0F0BCBB46B246A946A0469B
:1023D000F0BD8021032209012B008C4616434246A2
:1023E00063447A40D2B202930A2E00DD28E2032130
:1023F0000125B540AC46A6266346F600354033427B
:102400000BD19026B600334218D1B93EFF3E1E4292
:102410001DD0A3468246009100E0170000993A00C3
:10242000022910D05C4650460329BFD180231B03EC
:102430001C43240305007F4B240BBDE780240022AE
:102440007C4B2403B8E7002400257A4BB4E75346BD
:102450001E04360C1F0C3300010C0004000C434317
:10246000984603007B43994633004B439C464346C2
:102470000D001B0C9A467D43CC44D4440095E145A5
:1024800004D980235B0299464D44009563461B0C9A
:102490001D0063461B049C4643461B041B0C9846C8
:1024A000634643440393230C984633002404240CCE
:1024B00063439C4623007B43994643465E435F4308
:1024C0004E446346B2461E0C5644B14503D98023A0
:1024D0005B0299464F44330C99463B004B440593AD
:1024E0006346AC461F043F0C3604F619B4446346F9
:1024F00004935B461B0C9C465B461F043F0C3B0051
:1025000043439946634643439A464B4660461B0CF9
:102510009B4648437943514459448A4503D9802313
:102520005B029A4650440B0C9A464B461B041B0C0C
:1025300099463B006343090445464944994663462E
:102540005C436B439C464B461B0C98466F433F19BC
:1025500047445044BC4203D980235B029846C4449C
:10256000049B009D98464544B542B6417342984647
:102570004B461E04059B3C049946360CA4194C445A
:10258000A14683466E18C1448E428941CB445D46C4
:1025900049426D189C42A441C1459B4183458041FD
:1025A0008D4289415B4264421C434042039B494245
:1025B000014370023F0C1843E419471EB8416418E8
:1025C0006444F60D61023043EC0D6E020C4330435F
:1025D000C90100D4F1E00121430801400B43E007A9
:1025E000184364081549029B8C466344002B00DCA9
:1025F00097E0410709D00F210140042905D0011DB2
:1026000081428041404224180800E10106D5802122
:10261000C9008C460A4B1C40029B634409498B420B
:1026200000DD10E76107C50864025B050D43240B5C
:102630005B0DC1E6FF07000001FCFFFFFF03000088
:10264000FFFFFFFEFE0700004B46234359D0002C3E
:1026500000D1A3E0200000F0F9FD010003000B39D8
:102660001D22521A49461800D1404A460838824075
:10267000844010000C43744AEB1A9446424663446B
:102680000193019B7A4001330021D2B202930A2EBA
:1026900000DD67E683E65B4603439A462AD05B4645
:1026A000002B6DD0584600F0D1FD010003000B391E
:1026B0001D22521A210018005D46D140083885407D
:1026C0000A0084402A439346A2465F4D0026ED1A35
:1026D0000023009325E65B4603439A4605D1002379
:1026E0009B460233082600931BE6032382460C26F2
:1026F000009316E600239B46013304260025009331
:102700000FE64246013301951E43019B7A40013397
:10271000002400200121D2B202930A2E00DD21E61E
:102720003DE60121C91A382900DD42E61F2947DDAF
:102730001F2625007642F31ADD402B00202905D004
:102740004249029D8C466544AC402043411E88416D
:10275000184307231D000024054003424AD00F23DD
:1027600000240340042B42D0031D83428041404299
:102770002418180023023AD50123002400251BE663
:1027800000F064FD01000300153120331C298FDDAA
:102790000838002284409246A34696E700F056FD92
:1027A00001000300153120331C2900DC58E702002A
:1027B0004C46083A002094405DE7019B029311E7E4
:1027C000234B26009C460300029DCB406544AE404F
:1027D0001E430300AB40581E834130001843CC40D9
:1027E0004307C7D00F230340042BBDD1C2E76507C1
:1027F0006402240BC00800230543DDE50025022305
:102800000F2E0CD180245B46240323420ED021429C
:102810000CD10C4324033A000E4B240BCCE50B2EB9
:1028200000D0A2E58B46AA460093F7E580245B46DC
:1028300024031C43240342465546064B240BBBE5A8
:102840004D4621000323DBE70DFCFFFF3E040000A3
:102850001E040000FF070000F0B557464E464546EF
:10286000DE46E0B50D000400190010002B035B0AE2
:10287000620F1A43E3000C03640A470F2743D04C4E
:102880006E00914683B04A00C0009846A246760D7D
:10289000ED0F520DC90F0190A24200D1B9E0012401
:1028A00061408B468D4200D18DE0B41AA446002CC5
:1028B00000DCB7E0002A00D1CBE0C14A964200D14B
:1028C00086E18022120417436246382A00DDA4E123
:1028D0001F2A00DD1DE2614620223C00521A010041
:1028E00090409440421E90416246A0466446D740C4
:1028F0004A46E1404446D21B91460C4304431C1B0C
:10290000A34292414B4652429B1A9A4653461B029F
:1029100000D42BE153465A02530A9A465346002BE1
:1029200000D166E1504600F091FC0300083B2022F4
:102930002000D21A5146D040994002009C400A43E0
:102940009E4200DD64E19B1B591C1F2900DDFEE057
:102950002023100026005B1A9C409840CE40CA40BD
:10296000631E9C413043924600260443630709D00E
:102970000F232340042B05D0231DA342A44164420E
:10298000A2441C0053461B0200D4F2E08C4B0136DB
:102990009E4200D10FE153468A49E4080B401900DA
:1029A0005B07234372054C02240B520D1205224390
:1029B000ED072A431800110003B0F0BCBB46B24635
:1029C000A946A046F0BDB41AA446002C59DD002A41
:1029D00000D1B0E0564500D1FAE08022120417433E
:1029E0006246382A00DDD4E01F2A00DCC0E139004D
:1029F000203AD1406246202A06D064464022121B6B
:102A00003C00944004430194019C621E94410C4399
:102A1000C3E03C0004432BD08B468D422ED06A4C41
:102A2000A446B4446446002C5FD0941BA446002EF8
:102A300000D020E14C461C4300D1C7E161464C1E4A
:102A4000012900D123E25E4DAC4500D1D8E1A44676
:102A50001AE13A00024300D1E4E02200013A012CDD
:102A600000D1C3E156498C4200D1B1E094462BE736
:102A7000012461408B468D4200D016E752498C46B6
:102A8000B4446446002C00D1D3E0911B8C46002E48
:102A900000D15EE14A498A4200D1BEE180214C4624
:102AA00009040C43A1466146382900DDBAE11F291B
:102AB00000DD27E22024641A4946A1401E00884612
:102AC0006146A340CE4041465C1EA34131431943B9
:102AD0000C0063464946D9407F18241884429B4124
:102AE0005B429A461600BA445DE0384C721C2242A2
:102AF00000D0DFE04A461A43002E00D05CE1002AF5
:102B000000D1CFE13A00024300D17FE11C1A4A46CE
:102B1000A3428941D21B4942521A9246120200D462
:102B20000AE2C41AA04280414B464042FF1A3B1AB7
:102B30009A465D461AE73A00024373D02200013AF2
:102B4000012C00D1CBE0544542D0944648E7100018
:102B50001F3BD840202903D040235B1A9A401443DE
:102B6000631E9C41002300269A460443630700D05D
:102B7000FEE65246E308520713435246B446D208D3
:102B80000F498C452AD01203140B62465205520D90
:102B90000CE73C000443621E9441E4189C429241BD
:102BA00052424A44924653461B02DFD5044B01363B
:102BB0009E4200D0A0E0320000240023F6E6C0468A
:102BC000FF070000FFFF7FFF01F8FFFFFE07000087
:102BD000DB084A46520713434A46D20819001143FC
:102BE00000D1B5E18024240314432403D54A240BE7
:102BF000DCE6200000F02AFB030018331F2B00DC6A
:102C000095E622000838824000249E4200DC9AE6C5
:102C1000F61ACD4B1A409246A8E63C000443621EC9
:102C200094416CE64A46DB08520713434A46D208F1
:102C3000A6E7C64C721C224200D0ACE04A461A43BA
:102C4000002E00D005E1002A00D156E13A000243EF
:102C500000D1DBE01C189C429B414F44BA465B42CA
:102C60009A4453461B0200D480E75246B64B0126D5
:102C70001A4092467AE7B34CA24200D1C0E08024C9
:102C80004D4624042543A9466446382C53DC61464E
:102C90001F2C00DDCDE020251E002D1B4C46AB4037
:102CA000AC40CE405D1EAB41344323434C46CC4048
:102CB0003F1B45E04A461C1AD11BA3429241524297
:102CC00092460A005146521A9246120200D583E0FB
:102CD0005346234300D021E60022002553E71C1869
:102CE0009C429B414F44BA465B429A44534601265C
:102CF0001B0200D43AE702265246934B01211A40A8
:102D00001300214062080A43DC075B089A4614431B
:102D10002CE63900203AD1406246202A06D064468B
:102D20004022121B3C00944004430194019C621E0B
:102D300094410C43E3E5494619430B005C1EA34153
:102D4000C41AA0429B415B42FB1A9A465D4616009C
:102D5000DCE54946194300D1AEE0614664460139DD
:102D6000012C00D1E0E0774CA44556D08C469AE681
:102D7000614620223C00521A944001009040A04637
:102D80006446421E90416246E1404446D7400C43AF
:102D90000443B94401E76B498A4200D10CE7181893
:102DA00098429B414F445B42FB18DC0740085B089C
:102DB0009A4616000443D9E6002A00D081E03B0081
:102DC00003431DD18022002512030BE7C0087B07B7
:102DD0005D460343FA08D3E6C41AA04280414B463D
:102DE0004042FF1A3B1A9A465D4697E51C1A4A462E
:102DF000A3429B41D71B5B42FB1A9A46012685E5FD
:102E0000C0087B075D460343FA08E7E64A46DB084D
:102E1000520713434A46D208B5E6C0087B0703436E
:102E2000FA08DBE6494619430B00591E8B411C008A
:102E300053E64D46203CE540202905D04024641A45
:102E40004946A1400B43984643465C1EA3412B4391
:102E500076E7002AE1D03A00DB08024300D1B8E669
:102E60004A465207802413434A462403D20822428A
:102E700007D0FE08264204D15D463200C3087F0712
:102E80003B43590FDB004907DB080B43A6E6C41A96
:102E9000A04280414B464042FF1A3B1A9A465D468B
:102EA000012633E53B00034300D115E7C0087B074B
:102EB0005D460343FA0866E6C0087B070343FA0849
:102EC0005EE63A00DB08024300D182E64A4652073A
:102ED000802413434A462403D208224207D0FE0826
:102EE000264204D15D463200C3087F073B43590F99
:102EF000DB00DB0849070B4370E6C0087B07034390
:102F0000FA0840E64C462039CC406146202906D0DC
:102F100066464021891B4E468E40334398464346C1
:102F2000591E8B411C43D8E51C18844280414F44F4
:102F3000BA4640428244D9E65346234300D1CBE609
:102F400014E6C046FF070000FFFF7FFFFE070000FA
:102F50000023014A1C0029E5FF07000070B50500A9
:102F60000C481C0316005B000A034900120B490DB4
:102F7000240B5B0D814208D0064A0020934203D106
:102F800020003043431E984170BD01202A43FBD1ED
:102F9000F2E7C046FF0700000A0030B5134C5300AB
:102FA00009030500090B00205B0DD20FA34204DDCD
:102FB0000F48834202DD0F4BD01830BD8020400304
:102FC00001430D48C01A1F2808DD0C48C31AD94018
:102FD0000B005842002AF0D11800EEE7084CC5401B
:102FE000A446634499400B002B43F2E7FE03000024
:102FF0001D040000FFFFFF7F3304000013040000E6
:10300000EDFBFFFF70B5002816D0C317C5185D4053
:10301000C40F280000F01AF9114B1B1A0A2816DCFD
:1030200002002E00153296400B22121AD5405B0585
:103030002D032D0B5B0D03E000240023002500264B
:103040001B052B43E40723433000190070BD0B38E8
:1030500085405B052D0300262D0B5B0DF0E7C04678
:103060001E04000010B5041E10D000F0EFF80F4B46
:103070001B1A0A2811DC0B222100121AD14015302C
:103080000A035B058440120B5B0D01E00023002264
:103090001B0513432000190010BD22000B3882408D
:1030A0005B0512030024120B5B0DF1E71E04000008
:1030B00070B542024300C40FFE201B0E591C550A76
:1030C00008420CD0E02189008C466D07120B634446
:1030D0001B051343E40723432800190070BD002B90
:1030E00014D1002D1BD0280000F0B0F80A281CDCF9
:1030F0000B232A001B1ADA40030015339D400E4BA8
:1031000012031B1A5B05120B5B0DE1E7002D09D0C2
:10311000130B802212031A436D07084BD8E70023D4
:103120000022D5E70022054BD2E703002A000B3B23
:103130009A400025E3E7C04689030000FF0700002E
:103140000200F0B54B000D03400F5B0DCC0F6D0A74
:103150003A490543581CD70008420AD03849591843
:10316000FE2916DDFF200022C0051043E40720439E
:10317000F0BD002B06D13D4326D005229201520A14
:10318000D8B2F1E72F43EDD08022D203FF202A43AB
:10319000EAE700291BDD9201501E8241ED007F0FFE
:1031A0002A433A43530747D00F231340042B00D040
:1031B00004328023DB0413403ED0481CFE29D1D0CA
:1031C0009201520AC0B2CFE700200022CCE70A00E9
:1031D00017322FDB802636042E431E256D1A1F2D35
:1031E00011DD02225242521A3100D140202D04D06A
:1031F000144A944663449E4037433A00531E9A4112
:103200000A430021CEE7104A3800944663449840B0
:103210003A00411E88419E40EA403043024300216B
:103220005307C1D180211300C90401200B400A4279
:10323000C6D1A3E70023A0E70B009FE7FE0700002D
:1032400080FCFFFFA2FCFFFF82FCFFFF1C2101238B
:103250001B04984201D3000C10391B0A984201D379
:10326000000A08391B09984201D30009043902A257
:10327000105C40187047C0460403020201010101BE
:1032800000000000000000000C2230B50B4D83B0A0
:103290002B6804001A62FCF737FF210082B2084B4A
:1032A000280007F0A7FE074B01A90B8002220A2382
:1032B000280007F09FFE03B030BDC046C84B002079
:1032C000881300000D0A000010B5012008F0B6F9BF
:1032D000FBE7C046F0B50023DE4657464E4645465E
:1032E0004D4CE0B523606360A360E36023616361DC
:1032F000FA2387B09B009B4602930623474E04ADFA
:10330000019300953B22D0213000053B05F0C6FE1D
:103310002888434B42BA1A806B88C0BA5ABAD9BAC5
:10332000404B89461A80AB885ABAD9BA3E4B8A4676
:103330001A803E4A9046FFF765FE3D4B0022FEF79D
:10334000C9FFFFF7FDFE424610604846FFF75AFEF0
:10335000374B0022FEF7BEFFFFF7F2FE354A364F2D
:10336000914638605046FFF74DFE0022304BFEF785
:10337000B1FFFFF7E5FE4A46062310605A46019367
:10338000029200954322D0213000053B05F086FED5
:1033900028882A4B6E8842BA1A80294BAD8872BAA7
:1033A0001A80284B6ABA1A80C0BAFFF72BFE002297
:1033B000254BFEF795FBFFF7C3FE244BF6BA82467A
:1033C00018603000FFF71EFE00221F4BFEF788FB3F
:1033D000FFF7B6FE1E4BEDBA061C18602800FFF77B
:1033E00011FE0022184BFEF77BFBFFF7A9FE194BDD
:1033F0002661186043461B68606123603B68636018
:103400004B461B68A3605346E36007B0F0BCBB4665
:10341000B246A946A046F0BD240300209C490020E6
:10342000580300205A0300205C03002060030020A2
:103430000000103F6803002064030020981F002054
:103440009A1F00209C1F002000606040901F0020F9
:10345000941F0020A01F002010B5012008F0EEF8F6
:10346000FBE7C046F0B5C6460C2700B5050082B0A4
:103470000021244A24480BF095FC244B244E1B6861
:1034800001221F622349300007F082FFFA22224CFA
:103490000021520020000BF085FC2800FCF734FED0
:1034A0001E4B1B68012B01D15A2818D82900200077
:1034B0000BF03EFD1A4903220BF046FE0C22336846
:1034C00020001A62FCF720FE962382B22100300011
:1034D0005B0007F08FFD02B080BCB846F0BD114B19
:1034E0001C2298461B6840461F620F490F4B07F08D
:1034F00081FD0F4B01A90B8002220A23404607F0F1
:1035000079FDD3E79411000054070020344B0020CC
:10351000A04A0020500700209C1D0020C40000206D
:10352000782A0108C84B0020582A01088813000097
:103530000D0A0000F0B5C6460C2700B5254B264EF7
:103540001B6882B01F62050001222449300007F089
:103550001FFF0021224A23480BF024FCFA22224CB0
:103560000021200052000BF01DFC2800FCF7CCFDD0
:103570005A2803D91D4B1B68012B18D029002000A5
:103580000BF0D6FC1A4903220BF0DEFD0C22336847
:1035900020001A62FCF7B8FD962382B221003000A9
:1035A0005B0007F027FD02B080BCB846F0BD114BB0
:1035B0001C2298461B6840461F620F490F4B07F0BC
:1035C00019FD0F4B01A90B8002220A23404607F088
:1035D00011FDD3E7344B0020A04A00205007002003
:1035E00094110000540700209C1D0020C4000020FE
:1035F000782A0108C84B0020582A010888130000C7
:103600000D0A0000F0B50C27184B194C1B6883B04D
:1036100005001F6201222000164907F0B9FE0021B3
:10362000154A16480BF0BEFB6B4602220021581DBE
:103630000BF0B8FB1A2301AE3370236828001F6219
:10364000FCF762FD290082B20D4B200007F0D2FC8E
:10365000236830001F62FCF757FD962382B23100C9
:1036600020005B0007F0C6FC03B0F0BD344B002027
:10367000A04A0020500700209411000054070020A9
:1036800088130000F0B50C271F4B204C1B6883B03B
:103690001F6201221E49200007F07AFE1D4D002105
:1036A0001D4A28000BF07EFB6B4602220021581DAC
:1036B0000BF078FB1A2301AE3370236830001F62D1
:1036C000FCF722FD962382B25B003100200007F058
:1036D00091FCFA20800004F099FB2B78002B10D08D
:1036E0000A2402E0013C002C0BD000210B4A2800E8
:1036F0000BF058FB9620400004F088FB2B78002B41
:10370000F0D103B0F0BDC046344B0020A04A0020E9
:103710005007002054070020DE0300009411000031
:10372000F0B583B006000D0004F06AFB1C4F0400E6
:1037300005E0310038000BF0E5FB00282DD104F046
:103740005FFB001BA842F4D90C26164C16222368F6
:1037500015491E622000154B07F04CFC6B46144DBA
:10376000022201A99D8020000A2307F043FC236860
:1037700038001E62FCF7C8FC390082B20B4B2000F7
:1037800007F038FC6B4602229D8020000A2301A925
:1037900007F030FC002003B0F0BD0120FBE7C0467D
:1037A00054070020C84B0020802B0108881300001C
:1037B0000D0A0000F0B5DE46574645464E46E0B5D8
:1037C0009B46894B87B0180000910192002164222A
:1037D0009846119E0BF0E6FAFA22844F00219200DF
:1037E00038000BF0DFFA824B9A46002352461360F2
:1037F00004F006FB7F4B04007F4D029305E046205A
:1038000004F004FB2B78002B13D104F0F9FA001B11
:103810008642F4D243461B78002B43D0642004F048
:10382000F5FA404607B0F0BCBB46B246A946A046F2
:10383000F0BD2800FCF768FCE1239B00984200D90A
:103840008AE02900421C38000BF07EFC38001299F7
:103850000BF058FB002850D0009B1B78002B00D1A8
:1038600095E0380000990BF04DFB5B461B788146D4
:10387000002B00D1A6E0594638000BF043FB00288E
:103880000CD0019B9C46E1444846FCF73DFC03906C
:103890005846FCF739FC039B83424DD8002352461F
:1038A0001360B2E70C26554C10982368544D1E62E5
:1038B000FCF72AFC534B82B21099200007F09AFBC8
:1038C00004AB022205A99D8020000A2307F092FB89
:1038D000236838001E62FCF717FC390082B2494B9E
:1038E000200007F087FB04AB9D8002220A23200002
:1038F00005A907F07FFB444894E7380002990BF0D4
:1039000001FB002805D1380040490BF0FBFA0028E4
:10391000C4D00C22394C3E49236820001A62394B2E
:10392000033A07F067FB364B05A90B8002220A23F6
:10393000200007F05FFB6DE74846002259460BF078
:10394000DCFA8146FCF7E0FB5728A7D8421C494621
:1039500040460BF0F9FB5DE70C22284C2D4923680B
:1039600020001A62274B043207F044FB244B05A9C0
:103970000B8002220A23200007F03CFB214804F0C0
:1039800045FA00212800244A0BF00CFA42E7814650
:10399000FCF7BAFB02005F281FD90C22174C1F4905
:1039A00023681A62174B0532200007F023FB144BE3
:1039B00005A90B8002220A23200007F01BFB96209A
:1039C0004000DCE7FCF7A0FB02005F2805D90C22D1
:1039D0000A4C134923681A62E4E74946404601321B
:1039E0000BF0B2FB16E7C046341D00204C19002036
:1039F00070470020D42B010854070020C84B00203A
:103A00000D0A00008813000044390108DC2B01086E
:103A1000E42B0108982B010894110000AC2B01083D
:103A2000C02B010800B5094885B0FFF71BFD084A07
:103A3000084B0292084A09490192094A0020009263
:103A40000C22FFF7B7FE05B000BDC046F02B010801
:103A5000982C01088C2C010888130000FC2B01080D
:103A6000042C010800B5094885B0FFF7FBFC084AA3
:103A7000084B0292084A0949126800200192084A3C
:103A800000920822FFF796FE05B000BD282C010821
:103A9000982C01088C2C0108C8000020342C010847
:103AA0003C2C0108F0B5DE464E46454657460C22F2
:103AB000E0B5494E89B0336807001A62914647491C
:103AC000474B0E32300007F095FA464B07A998464F
:103AD000424602AB9A8230000A230222BD0007F060
:103AE00089FAEB199A009B184A463F4CE418336850
:103AF00020001A62FCF708FB210082B2384B30002C
:103B000007F078FA424602AB9A8230000A2302227A
:103B100007A907F06FFA2000FCF7F6FA042815D879
:103B2000324C2000FFF79EFCAF20400004F06EF9FD
:103B30002000FFF797FCAF20400004F067F909B0C0
:103B4000F0BCBB46B246A946A046F0BD284E642252
:103B5000002130000BF026F93A00300025490BF027
:103B6000B5F8210030000BF025F9234B03241A008F
:103B7000059300235351214A214F1360214B904656
:103B80009B46214B9A46164B99462B0035005646CC
:103B90009A462800FFF766FC5B4602934B460022DC
:103BA0003900019300203B000096FFF703FEFCF76D
:103BB000ABFA4346013C1860002C06D00028E8D040
:103BC00055460123059A5351AAE755460028F8D1D6
:103BD000059B5C51A4E7C046C84B00205C2C010843
:103BE000881300000D0A0000D0000020C42C01083A
:103BF000E8180020782C0108B44C0020F442002082
:103C000044390108902C01089C2C0108002370B550
:103C10008500164E2A1833609100154B5218040087
:103C200084B09818FCF770FA042804D80022114BCD
:103C30005A5104B070BD104B22001C0018000F49EF
:103C40000BF044F82000FFF70DFC0D4B0D490293DB
:103C5000FA239B0001930C4B0022009305200B00DC
:103C6000FFF7A8FDFCF750FA3060DFE7F4420020D0
:103C7000D0000020B44C0020E8180020D02C01080F
:103C8000E02C010844390108EC2C0108F0B5DE46AF
:103C9000454657464E46E0B50C26AE4D83B02B68E0
:103CA00080460B221E620F00AB4BAC49280007F088
:103CB000A1F96B46AA4C02229C8001A90A23280084
:103CC00007F098F92B6840461E62FCF71DFA414642
:103CD00082B2A14B280007F08DF96B4602229C802E
:103CE00028000A2301A907F085F99E4C2378002BB0
:103CF00014D000219C4A20000BF054F8962040007C
:103D000004F084F82378002B08D000212000964A84
:103D10000BF048F89620400004F078F8BB00994674
:103D2000DB19924E9A009B18F6183000FCF7ECF95C
:103D300004285DD94A468E4B9A46D358002B5EDD47
:103D40008C4B40469A4600239B4653465A461A607F
:103D5000FCF7DAF9030088483A00814687490AF0FF
:103D6000B5FF4846FFF77EFB85498648FFF7D8FC3C
:103D7000534618609620400004F048F853461B68EC
:103D8000002B00DC0CE153465A4640461A60FFF710
:103D900039FC7D487D49FFF7C3FC53461860002875
:103DA00000DC79E00C222B6828001A6278496A4B03
:103DB000043A07F01FF96A46694B93800A230222EE
:103DC000280001A907F016F92378002B10D00A2546
:103DD00002E0013D002D0BD00021634A20000AF0D3
:103DE000E1FF9620400004F011F82378002BF0D179
:103DF00003B0F0BCBB46B246A946A046F0BD3800B1
:103E0000FFF750FE53464A46D358002B98DC0C224D
:103E10002B6891461A625F494F4B2432280007F005
:103E2000E9F84F4B01A998466B46424628009A8014
:103E30000A23022207F0DEF84A462B6830001A6295
:103E4000FCF762F9310082B2434B280007F0D2F848
:103E50006B46424628009A8001A90A23022207F0F5
:103E6000C9F82378002B10D00A2502E0013D002D6F
:103E70000BD000213C4A20000AF094FF962040001D
:103E800003F0C4FF2378002BF0D13800FFF7BEFE0B
:103E90003800FFF707FEABE7FFF7F4FBFFF7F2FB95
:103EA0000C222B6890461A623B492B4B2732280084
:103EB00007F0A0F86B462A4F02229F8001A90A232F
:103EC000280007F097F842462B6834491A62280008
:103ED000214B2832894607F08DF86B4601A9022252
:103EE0009F8028000A2307F085F842462B6830009F
:103EF0001A62FCF709F9310082B2174B280007F06B
:103F000079F86B4601A902229F8028000A2307F056
:103F100071F842462B6820001A62FCF7F5F8210080
:103F200082B20D4B280007F065F86B4602229F8095
:103F300001A90A23280007F05DF842462B6849468C
:103F40001A622800044B283207F054F86B469F8011
:103F500034E7C046C84B002088130000102D01082C
:103F60000D0A00005407002094110000D00000202A
:103F7000B44C0020F4420020E81800201C2D010859
:103F800010270000302D0108342D01083075000085
:103F9000A82D0108F82D01083C2D0108702D0108FD
:103FA000FFF770FB0C222B6891461A625249534B63
:103FB0001832280007F01EF8514B01A998466B46AD
:103FC000424628009A800A23022207F013F84A4644
:103FD0002B684C491A622800484B28328A4607F061
:103FE00009F86B46424601A99A8028000A2302225A
:103FF00007F000F84A462B6830001A62FCF784F894
:10400000310082B23D4B280006F0F4FF6B46424679
:1040100001A99A8028000A23022206F0EBFF4A46F3
:104020002B6820001A62FCF76FF8210082B2334B34
:10403000280006F0DFFF6B46424601A99A8028005F
:104040000A23022206F0D6FF4A462B6851461A621E
:1040500028002A4B283206F0CDFF6B46424601A9C4
:104060009A8028000A23022206F0C4FF4A462B68E1
:1040700025491A622800214B0C3206F0BBFF6B4623
:10408000424601A99A8028000A23022206F0B2FFC4
:104090004A462B6830001A62FCF736F8310082B2CB
:1040A000164B280006F0A6FF6B46424628009A8071
:1040B00001A90A23022206F09DFF2378002B10D0CD
:1040C0000A2502E0013D002D0BD000210F4A2000FF
:1040D0000AF068FE9620400003F098FE2378002B3B
:1040E000F0D13800FFF792FD3800FFF7DBFC2378B2
:1040F000002B00D06BE67BE6B42D0108881300008E
:104100000D0A0000702D0108DC2D0108941100003B
:10411000C24BF0B557469A46DE464E46454600230A
:104120005246E0B5BE4CBF4DBF4E5380BF4A638080
:104130006B8053807380BE4BA1B000211992981CF4
:10414000032298461B941C951D960AF02BFEB94B32
:1041500003220021981C9B460AF024FEB64B042241
:10416000981C002111930AF01DFEB448042200217E
:104170001A9002300AF016FEB14F04220021B81C3A
:1041800012970AF00FFEAF4904221391881C0021F8
:104190000AF008FEAC4B0422981C002114930AF08C
:1041A00001FEAA4F04220021B81C15970AF0FAFD5F
:1041B000A74804220021169002300AF0F3FDA54A18
:1041C00000211792901C04220AF0ECFDA24B04225D
:1041D000981C002118930AF0E5FDA04F042200214D
:1041E000B81C0AF0DFFD782341460B8059460B804E
:1041F000119923800B8051460B801299189C0B80DB
:104200001A981399199A238003800B8013801698AB
:104210001599149A179C2B8003800B8013803B8088
:10422000238033808E4B002118008E4A99460AF075
:10423000B9FD8D48FFF77EF9FA20400003F0E6FD56
:1042400048468A490AF05EFE051E1E9014D0FBF710
:104250005BFF012810D9864B280000241D00854EE5
:1042600031001EAA0AF049FE011E1AD0072C00D9FF
:1042700070E0A300EB589F460C227F4C7F492368D7
:1042800020001A627E4B193206F0B4FE1FAB9A462C
:1042900052467C4B5146138020000A23022206F02E
:1042A000A9FE484678490AF02DFE041E1F9019D039
:1042B000FBF72AFF012815D91FAB9A46734B200044
:1042C000B946002554461F006A4E310022000AF00C
:1042D00014FE011E05D0EB1E252B59D89B00FB5860
:1042E0009F464F466A4C5022002120000AF05AFD9A
:1042F000684B1868FCF7DAFF199B02000E93149BB9
:1043000020000D93159B64490C931D9B02970B9302
:10431000139B0A93169B09931C9B0893129B07936C
:10432000179B06931B9B05931A9B0493189B03935F
:10433000119B01935B46009343460AF0C7FC2000A3
:1043400021B0F0BCBB46B246A946A046F0BD4046EF
:104350000AF0E7FE1E98013482E750460AF0E1FEBB
:1043600001341E987CE738000AF0DBFE01341E9809
:1043700076E711980AF0D5FE01341E9870E758468A
:104380000AF0CFFE01341E986AE71B980AF0C9FEB6
:104390001F98013599E715980AF0C3FE01351F985B
:1043A00093E714980AF0BDFE01351F988DE7199820
:1043B0000AF0B7FE01351F9887E716980AF0B1FE9C
:1043C00001351F9881E713980AF0ABFE01351F985D
:1043D0007BE71D980AF0A5FE01351F9875E7179831
:1043E0000AF09FFE01351F986FE712980AF099FEB8
:1043F00001351F9869E71C980AF093FE01351F9854
:1044000063E718980AF08DFE01351F985DE71A984A
:104410000AF087FE01351F9857E7C046104100207B
:1044200014410020184100201C41002020410020A0
:10443000842000208C2000205820002060200020B4
:104440006820002070200020782000208C030020AD
:10445000840300207C030020740300206C030020F0
:1044600054070020941100002C2E0108382E01085A
:10447000B02E0108442E0108C84B0020482E010828
:10448000881300000D0A0000702E0108D02E0108CC
:1044900078470020981D00207C2E0108F0B5D646F4
:1044A00046464F46C0B52F4B8C001B5982460E0026
:1044B00082B0002B39DD0C222B4D91462B68280051
:1044C0001A622A492A4B073206F094FD294B01A9AA
:1044D00098466B464246A4199A8028000A23022275
:1044E00006F088FDA200A4184A46234B1C192B682D
:1044F00020001A62FBF708FE210082B21C4B280044
:1045000006F078FD6B46424601A99A8028000A23EE
:10451000022206F06FFD31005046FFF7B7FB02B0F4
:10452000E0BCBA46B146A846F0BD144F3B78002B1C
:1045300010D00A2502E0013D002D0BD00021104AC9
:1045400038000AF02FFC9620400003F05FFC3B7817
:10455000002BF0D13000FFF759FB3000FFF7A2FA33
:10456000A9E7C046B44C0020C84B0020942F010896
:10457000881300000D0A0000D0000020540700201E
:1045800094110000F0B557464E464546DE460023DE
:10459000E0B580460525334F8BB03B60324B334C42
:1045A0000793334B334E9B46334B05979A46334B19
:1045B0009946334B0693334B0893334B0993FA20B8
:1045C000800003F023FC2000002158220C300AF068
:1045D000E9FB2200079B83CB83C220001B88414656
:1045E000A3810E300AF0A4FC0A2259460AF0ACFD61
:1045F0002000FEF737FF534602934B461B6800220C
:104600000193069B3100009300203300FFF7D2F89E
:10461000FBF77AFD059B1860002809D1013D002DAC
:10462000CDD10BB0F0BCBB46B246A946A046F0BD0A
:104630000898FEF717FF534602934B461B6800226B
:104640000193099B3100009300203300FFF7B2F87B
:10465000FBF75AFD059B013D1860002DE1D00028B5
:10466000ADDDDEE7F4420020A82F0108E8180020A5
:10467000B82F010844390108982C0108C80000200F
:10468000C42F0108E42F0108F42F0108F0B5DE461D
:1046900057464E4645460C22E0B5A24D89B02B68E0
:1046A000A1491A622800A14B243206F0A3FCA04BBA
:1046B00002AA938228000A23022207A906F09AFC84
:1046C0009C4B022698469C4B9C4C9A4657469C4BCA
:1046D00099469C4B9B469C4B04939C4803F096FB4D
:1046E000731E40469A46FEF7BDFE4B468F4E002293
:1046F000210000930020230002970196FFF75AF84B
:10470000FBF702FD002804D15346002B79D0012687
:10471000E3E70C222B6859461A622800330029323D
:1047200006F068FC824A02AB9A8207A90A23022299
:10473000280006F05FFC0498FEF794FE844B0022EC
:10474000210000930020230002970196FFF732F822
:10475000FBF7DAFC05907D4803F058FB059B002B26
:10476000D2D00C222B687B491A62280033003132E8
:1047700006F040FC6E4A02AB9A8207A90A23022285
:10478000280006F037FC7448FEF76CFE734B029766
:104790001B6800220193724B21000093002023002C
:1047A000FFF708F8FBF7B0FC0028ADD06D4B059380
:1047B0001B68002B00D191E0012B67D00C222B68E5
:1047C0005A4E1A62684933002532280006F012FC5E
:1047D000574B02AA938207A90A230222280006F057
:1047E00009FC6248FEF73EFE614B00220093210067
:1047F0002300002002970196FEF7DCFF5346002BB2
:104800003ED10C222B6828001A625A49474B2532A8
:1048100006F0F0FB464B02AA938207A902220A2364
:10482000280006F0E7FB544B18009846FEF71AFEE6
:10483000524F534E02973368524D0022210001938C
:104840000F2023000095FEF7B5FFFBF75DFC002865
:104850000CD14046FEF706FE029733680022019312
:10486000210023000F200095FEF7A4FF374803F036
:10487000CDFA09B0F0BCBB46B246A946A046F0BD91
:10488000FBF742FC0028BCD1012626E70C222B684E
:104890003D491A6228003300363206F0ABFB244A49
:1048A00002AB9A8207A90A230222280006F0A2FB83
:1048B0003648FEF7D7FD364B00222100009300203A
:1048C000230002970196FEF775FFFBF71DFC0023FE
:1048D000059A1360002800D116E76FE70C222B68B9
:1048E0002C491A6228003300343206F083FB104A48
:1048F00002AB9A8207A90A230222280006F07AFB5B
:104900002548FEF7AFFD254B002221000093002033
:10491000230002970196FEF74DFFFBF7F5FB0123FD
:10492000D6E7C046C84B00201830010888130000A5
:104930000D0A00004C300108982C01084439010888
:1049400058300108E43001081C310108B80B0000A0
:104950004431010864310108A4310108CC00002071
:10496000C43101089C000020083301083C330108D1
:104970006433010874300108A8300108B43001081C
:10498000C8000020C830010878320108BC32010894
:10499000E8320108E83101082C32010858320108D8
:1049A000F0B5DE46454657464E46FA20E0B5C00013
:1049B00087B003F02BFAFFF769FEC44B1800994645
:1049C000FEF750FDC24BC34F0293C34C9846C34DF4
:1049D0003B680022210001930F2023000095FEF781
:1049E000E9FEFBF791FB00280DD14846FEF73AFDA2
:1049F000434602933B6800220193210023000F20CD
:104A00000095FEF7D7FE02239A46B54DB54E280015
:104A1000FEF728FD434602933B68002201932100E4
:104A200023000F200096FEF7C5FE5346012B00D051
:104A300018E1FA20C00003F0E9F9FFF727FE484625
:104A4000FEF710FD434602933B6800220193A64BFC
:104A500021009A4600930A202300FEF7ABFEFBF7E5
:104A600053FB00280ED14846FEF7FCFC4346029358
:104A70003B68002201935346210000930A20230043
:104A8000FEF798FE022399462800FEF7EBFC43460A
:104A900002933B6800220193210023000A20009624
:104AA000FEF788FE4B46012B00D0D3E08F4B0A2641
:104AB0009A468F4B99468F4B9B4602E0002E00D1C1
:104AC000C1E05046FEF7CEFC434602933B6800220D
:104AD00001934B462100009305202300FEF76AFE58
:104AE000FBF712FB0500FA208000013E03F08EF96F
:104AF000002DE3D05846FEF7B5FC434602933B68D1
:104B0000002201937C4B2100009300202300FEF73C
:104B100051FEFBF7F9FA0028D0D07848FEF7A2FC46
:104B2000434602933B6800220193754B210000939A
:104B300000202300FEF73EFEFBF7E6FA0028BDD07A
:104B40007048FEF78FFC434602933B6800220193B6
:104B50006D4B2100009300202300FEF72BFEFBF796
:104B6000D3FA0028AAD06948FEF77CFC434602939A
:104B70003B6800220193664B210000930020230034
:104B8000FEF718FEFBF7C0FA002897D0614803F043
:104B90003DF96148FEF766FC434602933B680022FC
:104BA00001935E4B2100009300202300FEF702FEDC
:104BB000FBF7AAFA002881D0FA20800003F026F93A
:104BC000574B584D1B68002B54D0012B68D005AEB5
:104BD000FA20800003F01AF90C222B6828001A62D0
:104BE0005149524B2C3206F005FA514B310002224A
:104BF000338028000A2306F0FDF9FA20800003F034
:104C000005F94C4E3000FEF72DFC434602933B68FD
:104C1000494D002221000193002023000095FEF75A
:104C2000C9FDFA20800003F0F1F83000FEF71AFC0D
:104C3000434602933B680022019321002300002099
:104C40000095FEF7B7FD07B0F0BCBB46B246A946DB
:104C5000A046F0BDFBF758FA01239946002800D181
:104C600012E723E7FBF750FA01239A46002800D108
:104C7000CDE6DEE60C222B6828001A622F492B4B6A
:104C80002C3206F0B7F92A4B05AE338002220A23F4
:104C90003100280006F0AEF92948FFF773FC97E7CA
:104CA0000C222B6828001A622649204B2A3206F073
:104CB000A1F91F4B05AE338002220A2331002800E0
:104CC00006F098F92048FFF75DFC81E78033010882
:104CD000982C0108C80000204439010888330108D5
:104CE0007C2B01089C330108B0330108C433010850
:104CF000D0330108F8330108043401082C340108CA
:104D00003834010854340108603401089034010833
:104D1000A0340108B80B0000CC340108DC340108D1
:104D20009C000020C84B00208C350108881300002F
:104D30000D0A0000682F0108742F010804350108CE
:104D4000403501084C35010884350108F0B5CE46E0
:104D50004746002380B5674D87B067482B60FEF754
:104D600081FB642003F052F8644A654B0292654A65
:104D70006549126800200192644A00920522FEF7FC
:104D800019FD002108F080FFFEF7DAF9604928607C
:104D9000FBF7B0FB002821D0012202215D4803F07F
:104DA000FDFE0C225C4C5D49236820001A625C4BBE
:104DB000043A06F01FF95B4B05A902220B80200084
:104DC0000A2306F017F90022574B1A602868FCF7EF
:104DD0006DFA07B0C0BCB946B046F0BD0C224E4ECD
:104DE0005249336830001A624D4B013206F002F925
:104DF0006A464C4B05A9938230000A23022206F032
:104E0000F9F8FEF73FFC4A4C2378002B14D0002120
:104E1000484A200009F0C6FF9620400002F0F6FF45
:104E20002378002B08D000212000424A09F0BAFF65
:104E30009620400002F0EAFF3F48FEF713FBAF2048
:104E4000400002F0E3FF2378002B14D00021394A00
:104E5000200009F0A7FF9620400002F0D7FF23783A
:104E6000002B08D000212000324A09F09BFF962039
:104E7000400002F0CBFF2C4C236801330A2B06DCE8
:104E8000236000220221234803F088FE9EE70C22C3
:104E900000272A4B2A4899461B682A491A62036848
:104EA00090461A620F700B3A276006F071FAE12201
:104EB00025499200484606F06BFA244802F0A6FF06
:104EC000FFF76EFDAF20400002F0A0FF42463368BE
:104ED0001F491A623000124B06F08CF86A46114BDB
:104EE0003000938205A90A23022206F083F8276086
:104EF000C7E7C046981D0020C8350108D83501080D
:104F0000442E0108C8000020D0350108DC35010816
:104F10000000A040000C0050C84B0020FC350108E8
:104F2000881300000D0A00007447002008360108AD
:104F30005407002094110000C42C0108344B0020B9
:104F4000A04A002050070020F8420020160D000063
:104F500018360108F0B5DE4657464E464546A023B2
:104F6000E0B5DB05A3B01800002210219A4603F03B
:104F700015FE902309AD2B70FA23624F29009B0088
:104F800001223800994605F06DF8002306AC210097
:104F90000693A38003224B46380005F063F84A4687
:104FA0000223210000923800220005F027F9504624
:104FB0000122102103F0F2FD637822785249280083
:104FC00009F084FE514A2800904613680C221A62A8
:104FD000FBF79AF84E4982B28B460B0040462900F7
:104FE00006F008F84B4905AE0A2331800222310051
:104FF000404605F0FFFF50460022102103F0CEFD91
:105000009F233100337001224B46380005F02AF807
:1050100000234846A380220021000693009003331A
:10502000380005F0EBF850460122102103F0B6FDE0
:10503000A0786378227838490090280009F046FE6D
:1050400040460C22036828001A62FBF75DF85B46B5
:10505000290082B2404605F0CDFF2E490A23318057
:1050600002223100404605F0C5FF504600221021C3
:1050700003F094FD4B233100337001224B4638007E
:1050800004F0F0FF002321000693A38004224B4686
:10509000380004F0E7FF4B4622002100009338005F
:1050A000062305F0ABF850460122102103F076FDEF
:1050B0006079637822780390207918490290E0782B
:1050C0000190A0780090280009F000FE43460C22D1
:1050D0001B6828001A62FBF717F85B46290082B2AA
:1050E000404605F087FF0B490A2331800222310038
:1050F000404605F07FFF23B0F0BCBB46B246A94650
:10510000A046F0BDF049002028360108C84B002019
:10511000881300000D0A00004836010864360108B3
:10512000F0B5A024E40583B0070000222000102180
:10513000FA2603F033FD6A4606236946234DB6007E
:10514000D371280033000122073104F08BFF2000C7
:105150000122102103F022FD20000022102103F083
:105160001DFD6A4620236946D371280033000122C1
:10517000073104F077FF330039000322280004F0E0
:1051800071FF20000122102103F008FD2000002201
:10519000102103F003FD6A4604236946D3712800F9
:1051A00033000122073104F05DFF200001221021AD
:1051B00003F0F4FC0C220648064903681A629623A1
:1051C00032005B0005F088FF03B0F0BDF04900201D
:1051D000C84B00205C4C002070B5A024E40582B0D0
:1051E000200000221021FA2603F0D8FC6A4606238C
:1051F00069461C4DB600D3712800330001220731E7
:1052000004F030FF20000122102103F0C7FC200031
:105210000022102103F0C2FC6A46C7236946D371FD
:10522000280033000122073104F01CFF2000012276
:10523000102103F0B3FC20000022102103F0AEFC8B
:105240006A4604236946D3712800330001220731DE
:1052500004F008FF01221021200003F09FFC02B09F
:1052600070BDC046F0490020F0B5CE464746A026A6
:1052700080B5F60585B00F008146904630000022CB
:105280001021FA2503F08AFC6A4606230F21294CD7
:10529000AD00D37369442B000122200004F0E2FE2C
:1052A00030000122102103F079FC3000002210218F
:1052B00003F074FC6A4602230F21D37369442B0068
:1052C0000122200004F0CEFE2B00494603222000DC
:1052D00004F0C8FE43463A0039002000009504F06F
:1052E0008DFF30000122102103F058FC3000002215
:1052F000102103F053FC6A4604230F21D373694441
:105300002B000122200004F0ADFE3000012210210C
:1053100003F044FC0C220848084903681A629623EB
:105320002A005B0005F0D8FE05B0C0BCB946B04607
:10533000F0BDC046F0490020C84B00205C4C002066
:10534000F0B5CE464746A02380B5DB0585B00D00FD
:10535000804616001800002210219946FA2703F013
:105360001DFC0F210323104C6944BF000B70012268
:105370003B00200004F076FE3B0041460322200063
:1053800004F070FE33002A0029002000009704F08A
:1053900035FF01221021484603F000FC05B0C0BCD7
:1053A000B946B046F0BDC046F0490020F0B5D6463B
:1053B0004F4646468022C0B53E4C0021C0B0520147
:1053C000200009F0EFFC80223B4F52010021380001
:1053D00009F0E8FC394B984642461B7852781B028C
:1053E0009B18374A1B02934250DD42464146927851
:1053F0000F26D318013B1A140A70F0221B121E400C
:1054000013404B700023013632028B70404621005E
:1054100092B2FFF795FF2B4B80259A462A4B013E0F
:105420009946360234196D000021FF22684609F0C2
:10543000B9FC6946002303E001330131AB4206D0D9
:10544000E25C0A70FF2AF7D100226946CA54FF23A2
:10545000002269463800CA54FAF756FE013E6946F2
:10546000381809F065FD013C03225146FF3E09F062
:105470006BFEFF3C4E45D7D14046FFF751FE012061
:1054800040B0E0BCBA46B146A846F0BD0C220F4C75
:105490000F49236820001A620E4B05F0ABFD6A46E7
:1054A0000D4B6946138020000A23022205F0A2FD5D
:1054B0000020E5E7C0200020C0300020C000002010
:1054C000FF000300782A010800FFFFFFC84B0020FF
:1054D00088360108881300000D0A000070B5244DBD
:1054E000C0B02B786A781B029B18224A1B02934299
:1054F00001DD40B070BD0C221F4C20492368200004
:105500001A621F4B0F3205F075FD6A462000002419
:105510001C4B694613800A23022205F06BFD1A4ECC
:10552000220023003100684609F0D0FB6846FAF7F4
:10553000EBFD013082B2FE2A07D90134052CEFD1F0
:10554000FFF734FFFFF732FFD3E769462800FFF784
:105550008BFE2B786A781B029B18AA781B029B187B
:105560000133FF331A142A701A126A70AB70E4E721
:10557000C0000020FF000300C84B0020983601083F
:10558000881300000D0A0000B4360108F0B5DE46AD
:1055900057464E464546E0B5604C9946A544D09BDB
:1055A000924698465E4B0F001A8802A9CE9ECF9D68
:1055B0008A8080229B7883468B71520004A903A8BD
:1055C000FFF7BEFE012302AA5371802244A95200B4
:1055D00003A8FFF7B5FE022302AA5371802284A913
:1055E000520003A8FFF7ACFE5B460124013B019388
:1055F000019B02AA1B5D073258461355FAF784FD3A
:10560000A04202D30134112CF2D1002401E0642C19
:1056100009D03A5D04AB1B1938001A740134FAF74B
:1056200073FDA042F3D2002721AC01E03C2F08D04B
:105630005346DB5D5046E3550137FAF765FDB84246
:10564000F4D202AB9C46012308245B42FF344B4456
:1056500001279A46644402E00137292F07D05346B8
:10566000DB5D4846E355FAF74FFDB842F4D2002718
:105670004EAC01E0282F07D0F35D3000E355013731
:10568000FAF742FD8742F5D9002658AC01E0282EF2
:1056900007D0AB5D2800A3550136FAF735FDB042BF
:1056A000F5D202AB9C46022743461E4D01246544B9
:1056B0005E1EFF3702E00134BC4206D0335D404637
:1056C0002B55FAF721FDA042F5D2002302AA53710F
:1056D00003A8FFF725FD802204A903A85200FFF7C5
:1056E000C3FD012302AA5371802244A903A85200DA
:1056F000FFF7BAFD022302AA5371802203A85200C9
:1057000084A9FFF7B1FD0120C5239B009D44F0BC97
:10571000BB46B246A946A046F0BDC046ECFCFFFF22
:10572000E02801080702000010B582B069460D4B61
:105730000D4C1A8820008A8080229B7852008B7141
:10574000002109F02FFB01A810222100FFF7F8FD2E
:105750002000FAF7D9FC012800D8044C200002B040
:1057600010BDC046E02801087C4100208C370108AC
:1057700070B5FDF7AFFD144C61682068FAF73EFF85
:10578000A168FAF73BFF1149051CFAF7B3FE0028A0
:1057900015D10F49281CFAF799FE002811D121696B
:1057A000E068FAF72BFF6169FAF728FF0749FAF773
:1057B000A1FE431E984143420320184070BD0120C2
:1057C000FCE70220FAE7C046240300200000FA4468
:1057D0000000FAC4002370B50D4C78262000236029
:1057E0006360A360E36023616361A3610023094DEB
:1057F0002685290002222B30E361236209F0A4FCF4
:1058000020002900E68502223D3009F09DFC70BD94
:10581000000700209C370108F0B5C64600B5294EA8
:1058200046220021300096B009F0BCFA264CE3690C
:10583000012B40D000220421244803F0AFF93D237E
:10584000E0689846FDF734FCE769149015912069EB
:10585000FDF72EFC12901391A068FDF729FC109023
:105860001191236A1A4D0E936069FDF721FC0C908B
:105870000D91A069FDF71CFC23000A900B912B33BE
:1058800008936068FDF714FC230006900791283305
:1058900004932068FDF70CFCA0442E340290039181
:1058A00043463A0029003000009409F00FFA16B080
:1058B00080BCB846F0BD01220421044803F06EF913
:1058C000BDE7C046E046002000070020000C005065
:1058D000A037010810B52A21040009F078FA002148
:1058E0001022013008F068FA6378C1B22A2B0CD07C
:1058F0000022023401345A40631E1B782A2BF9D14E
:10590000881A43425841C0B210BD0022F8E7C04691
:10591000F0B5CE4647460C2280B5364E87B0336888
:1059200005AD1A6290463449344B354F153230007C
:1059300005F060FB0A230222290030002F8005F0C9
:1059400059FBFFF707FB2F4C2F4B22000C329146DF
:1059500068229446A4446246210020003431029219
:1059600001934A4600935830FFF710FE42463368D1
:1059700026491A623000214B033205F03BFB0A2313
:105980000222290030002F8005F034FB802223887A
:1059900000212B80A3781E4C52002000AB7009F030
:1059A00001FA280010222100FFF7CAFC2000FAF7B4
:1059B000ABFB012800D8174C0C22336820001A6278
:1059C000FAF7A2FB210082B20C4B300005F012FB6B
:1059D0000B4B022229002B8030000A2305F00AFB22
:1059E000FA20C00002F012FA07B0C0BCB946B046B7
:1059F000F0BDC046C84B0020E03701088813000006
:105A00000D0A0000E02801080438010814380108D4
:105A10007C4100208C37010800B593B0342200216E
:105A200005A809F0BFF91022002101A809F0BAF970
:105A30008020800003F0C8FC02230593FE3340223F
:105A40000893002305A809930A920C9303F0ECFC39
:105A5000002801D072B6FEE707230193A02302902D
:105A60000390DB01002101A8049303F08DFF0028BF
:105A700001D072B6FEE713B000BDC046F0B5DE46F9
:105A800057464E464546E0B504278DB002F098F9DA
:105A9000FFF7C2FF1422002107A809F083F9202292
:105AA0000126D44D90466B6BA0203B436B636B6B20
:105AB000D14C3B400293029B6B6B210013436B6301
:105AC0006B6BC00513400393039B6B6B33436B639A
:105AD0006B6B33400493049B02236A6B1A436A6323
