:020000040800F2
:1000000000900020B95200084D50000853500008DD
:1000100000000000000000000000000000000000E0
:1000200000000000000000000000000075CD000886
:10003000000000000000000091CE000855AC000850
:100040000953000800000000095300080953000884
:100050000953000809530008095300080953000810
:100060000000000059500008715000089550000829
:1000700009530008B95000080953000800000000A7
:1000800009530008D150000809530008095300081B
:1000900009530008095300080953000809530008D0
:1000A000095300080953000809530008E9500008E3
:0800B00001510008195100087C
:1000C00010B5064C2378002B07D1054B002B02D02E
:1000D000044800E000BF0123237010BDEC010020A4
:1000E00000000000D41E0108044B10B5002B03D003
:1000F0000349044800E000BF10BDC04600000000F6
:10010000F0010020D41E01080023C25C0133002A44
:10011000FBD1581E7047000002B4714649084900DF
:10012000095C49008E4402BC7047C04603B4714666
:10013000490840004900095E49008E4403BC7047ED
:10014000002243088B4274D303098B425FD3030A16
:100150008B4244D3030B8B4228D3030C8B420DD329
:10016000FF22090212BA030C8B4202D312120902B7
:1001700065D0030B8B4219D300E0090AC30B8B42F5
:1001800001D3CB03C01A5241830B8B4201D38B03A3
:10019000C01A5241430B8B4201D34B03C01A524148
:1001A000030B8B4201D30B03C01A5241C30A8B428B
:1001B00001D3CB02C01A5241830A8B4201D38B0276
:1001C000C01A5241430A8B4201D34B02C01A52411A
:1001D000030A8B4201D30B02C01A5241CDD2C3098C
:1001E0008B4201D3CB01C01A524183098B4201D308
:1001F0008B01C01A524143098B4201D34B01C01AF3
:10020000524103098B4201D30B01C01A5241C3086A
:100210008B4201D3CB00C01A524183088B4201D3D9
:100220008B00C01A524143088B4201D34B00C01AC5
:100230005241411A00D20146524110467047FFE731
:1002400001B5002000F0F0F802BDC0460029F7D04B
:1002500076E7704703460B437FD4002243088B4266
:1002600074D303098B425FD3030A8B4244D3030B3D
:100270008B4228D3030C8B420DD3FF22090212BA02
:10028000030C8B4202D31212090265D0030B8B427E
:1002900019D300E0090AC30B8B4201D3CB03C01A68
:1002A0005241830B8B4201D38B03C01A5241430B43
:1002B0008B4201D34B03C01A5241030B8B4201D333
:1002C0000B03C01A5241C30A8B4201D3CB02C01A9E
:1002D0005241830A8B4201D38B02C01A5241430A16
:1002E0008B4201D34B02C01A5241030A8B4201D305
:1002F0000B02C01A5241CDD2C3098B4201D3CB01AC
:10030000C01A524183098B4201D38B01C01A52415A
:1003100043098B4201D34B01C01A524103098B425E
:1003200001D30B01C01A5241C3088B4201D3CB0049
:10033000C01A524183088B4201D38B00C01A52412C
:1003400043088B4201D34B00C01A5241411A00D2DC
:1003500001465241104670475DE0CA0F00D0494245
:10036000031000D34042534000229C4603098B42B5
:100370002DD3030A8B4212D3FC22890112BA030A3D
:100380008B420CD3890192118B4208D389019211BF
:100390008B4204D389013AD0921100E08909C30944
:1003A0008B4201D3CB01C01A524183098B4201D346
:1003B0008B01C01A524143098B4201D34B01C01A31
:1003C000524103098B4201D30B01C01A5241C308A9
:1003D0008B4201D3CB00C01A524183088B4201D318
:1003E0008B00C01A5241D9D243088B4201D34B0033
:1003F000C01A5241411A00D20146634652415B1075
:10040000104601D34042002B00D549427047634655
:100410005B1000D3404201B5002000F005F802BD9A
:100420000029F8D016E770477047C0468446100090
:1004300062468C461900634600E0C0461FB501F0D5
:10044000A3FA002801D40021C8421FBD10B501F055
:10045000F3F94042013010BD10B501F095FA0028C3
:1004600001DB002010BD012010BDC04610B501F019
:100470008BFA002801DD002010BD012010BDC04610
:1004800010B501F01BFA002801DC002010BD01208E
:1004900010BDC04610B501F011FA002801DA0020A5
:1004A00010BD012010BDC04670B500220C4B0400E9
:1004B0000D00FFF7EFFF002804D12000290002F013
:1004C000E3F870BD064B00222000290001F02CFD4E
:1004D00002F0DAF880231B069C466044F1E7C04630
:1004E0000000E04170B505000C0000220023280048
:1004F0002100FFF7B1FF002808D12800210000F0FB
:100500000FF802000B001000190070BD80231B06BD
:10051000E118280000F004F8002342428B41F2E782
:1005200070B500220B4B0D00040001F091FAFFF7AB
:10053000BBFF060002F00EF90022074B01F088FA1B
:1005400002000B002000290001F0EEFCFFF7ACFFD9
:10055000310070BD0000F03D0000F04170B50600B4
:10056000080002F0C7F80022064B01F071FA0D00F6
:100570000400300002F0EEF82B00220000F02AFB0D
:1005800070BDC0460000F041F0B5C64643025B0AAC
:100590004E0245004F00DA00C40F9C46700A904698
:1005A00000B52D0E3F0EC90FB6098C424BD0EA1B89
:1005B000002A36DD002F61D0FF2D00D1ADE0802371
:1005C000DB041E431B2A00DCD3E001204346181A3B
:1005D000430100D48CE080018709380002F0B0F9B3
:1005E00005388740854200DCB6E02D1AB348384014
:1005F000430704D00F230340042B00D004304301F1
:1006000000D478E06A1CFE2D65D08001430A9C4628
:10061000D2B26346D0051843E407204380BCB846F5
:10062000F0BD002A35D07A1B002D00D0AFE0434644
:10063000002B00D1A7E0531E012A00D12FE1FF2A91
:1006400069D01A00AAE0E91B002970DD002F37D01D
:10065000FF2D62D08023DB041E431B2900DCB0E0A9
:1006600001204044430143D50135FF2D33D0012300
:10067000934A0340400810401843B9E7002E00D1C8
:1006800083E0511E012A00D1D8E0FF2A45D00A009C
:1006900098E7FE276A1C174200D086E0002D00D0A4
:1006A000B7E04346002B00D1F3E00022002EB0D08B
:1006B000981B430100D4FAE043460C00F01A97E778
:1006C000002E00D1C8E04A1E012900D1AEE0FF296A
:1006D00023D01100C1E70023FF229C4699E7FE21A9
:1006E0006A1C114277D0FF2AF5D0150046447008E5
:1006F000430700D07EE7C308FF2D0ED05B025B0AE4
:100700009C46EAB285E7002E07D08022D20313422E
:1007100003D0104201D10C000300002BDBD080205D
:10072000C00318434002430A9C46FF2271E7002998
:10073000D5D07A1B002D60D14346002B24D0531E08
:10074000012A73D0FF2AE7D01A001B2A00DC85E0BB
:1007500001203D00801985E720233A00451B380021
:100760000135EA405D1BA840431E98410025104317
:100770003EE7202330009B1A31009840D140431EB1
:100780009841084322E70C0003001500B4E7FF2F4F
:10079000C1D080234046DB04184380461B2A51DD2C
:1007A00001200C003D00301A12E743469F1B7B01DD
:1007B0002BD4002F00D010E70023002400229C46F9
:1007C00027E7202332003000CA40591A8840431ED0
:1007D0009841104345E7002D4AD14346002B63D092
:1007E0000022002E00D114E730004044430100D421
:1007F0007EE7324B013518407AE7FF2F8CD08023FB
:100800004146DB04194388469FE743460C00F71A2C
:10081000E3E64246002A00D075E7002E00D07AE7D2
:100820008023DB0300249C46FF22F2E63000404494
:100830000125430100D45BE7022518E74346012563
:10084000981BC5E6202344464046D4409A1A90405F
:10085000431E98412043A4E70D004DE72023414665
:100860004046D1409A1A9040431E9841084370E791
:100870004246002A00D14FE7002E00D14DE78022EA
:10088000D203134200D148E7104200D045E70300ED
:1008900043E7002E90D00C0084460022B9E6434680
:1008A0000C00F01A013593E684460022B1E60028D8
:1008B00000D01DE7002300249C46AAE6FFFFFFFBB3
:1008C000FFFFFF7DF0B54F464646D6464402450041
:1008D000C0B5640A0F1C2D0EC60F002D00D18DE08F
:1008E000FF2D00D192E00023802099469A46E40033
:1008F000C00404437F3D7802430A98467B001B0EE8
:10090000FF0F002B00D170E0FF2B00D186E04246A4
:10091000D00080227F3BED180023D2040243904692
:100920009C4631004B467940681C0F2B1CD8764AF8
:100930009B00D3589F4639004446E2465346022B5B
:100940000FD0032B00D1D7E0012B37D1002000249A
:10095000C0052043C9070843E0BCBA46B146A846D3
:10096000F0BDFF200024F3E7260C2404220C4446AB
:100970002404240C434627001B0C574374435A435A
:100980005E4312193B0C9B189C4203D980225202F1
:10099000944666443F041A043F0CD2199401671E22
:1009A000BC411B0C920E9B1914439B011C431B0161
:1009B00000D49BE0012362081C40144302007F32F4
:1009C000002A64DD630704D00F232340042B00D0EA
:1009D0000434230103D502004C4B80321C40FE2A14
:1009E000BFDCA401640AD0B2B2E74346002B3DD17C
:1009F0004A4601331A4391469C4692E7002C29D17E
:100A000004239946033B00259A4674E7002C1BD12A
:100A100008239946063BFF259A466CE74346FF3577
:100A2000002B0BD102234A461A4391469C4678E795
:100A300053463100022B00D083E792E703234A4656
:100A40001A4391469C466CE70C239946093BFF25C7
:100A50009A4650E7200001F073FF7625431F9C4023
:100A600000236D4299469A462D1A44E7404601F00C
:100A700067FF4246431F9A4000232D1A90469C462A
:100A8000763D4EE780240021FF20E40360E7012348
:100A90009B1A1B2B00DD59E722009E30DA40844070
:100AA0001300621E94411C43630704D00F232340AC
:100AB000042B00D0043463011AD50120002447E739
:100AC0008020C003044209D04346034206D1444675
:100AD000044364023900FF20640A39E78020C00320
:100AE000044364023100FF20640A31E7280065E70F
:100AF000A4010020640A2BE78020C00304436402A1
:100B0000FF20640A24E7C04618350108FFFFFFF7FD
:100B100041024200C30F490A0020120E7E2A03DD63
:100B20009D2A02DD094A981870478020000401437D
:100B3000952A07DC9620821AD1404842002BF3D137
:100B40000800F1E7963A9140F7E7C046FFFFFF7FC4
:100B500070B5051E0ED001F0F3FE9E2304001B1A93
:100B6000962B0CDC082801DD083CA5406D026D0ABF
:100B7000D8B201E000200025C005284370BD992BA4
:100B800009DD020029001B3291404A1E91410522D5
:100B9000121AD5400D43052C12DC29000C4E3140B1
:100BA0006A0709D00F202840042805D004314A01E3
:100BB00002D59F2331401B1B89014D0AD8B2DBE7C8
:100BC000621F95402900024E31406A07F4D0E9E7E0
:100BD000FFFFFFFBF0B54F464646D6460D0004002A
:100BE000C0B51F0011002803620F400A10437A00AD
:100BF000520DE3003C039146640AFA0F4F0F6E005A
:100C000027439246B846760DED0FC900954200D1B4
:100C100099E04C46341BA446002C00DC7CE04A469C
:100C2000002A00D1B8E0C54A964200D11CE18022DA
:100C30003C0012041443A0466246382A00DD61E1FC
:100C40001F2A00DDCCE164462022121B444694405A
:100C50000F00A14664469140E7404C464A1E914130
:100C60003C43424621436446E240801A5C1AA34258
:100C70009B415F42C71B3B0200D4D0E07F027F0A4A
:100C8000002F00D1FFE0380001F05AFE01000839C2
:100C9000202322005B1A8F40DA408C401743B14278
:100CA00000DAFFE0891B4B1C1F2B00DDA8E020228F
:100CB0003900D21A200094409140D840621E9441DD
:100CC000DF40002601430C43630709D00F23234074
:100CD000042B05D0231DA342A44164423F191C00EC
:100CE0003B0200D49EE0954B01369E4200D1B7E016
:100CF000934AE40817407B0771057F0223433F0BAB
:100D00004A0D12053A43ED072A4318001100E0BCD2
:100D1000BA46B146A846F0BD002C4BD04C46A41BA9
:100D2000A446002E00D023E104001C4300D1AFE113
:100D30006246541E012A00D115E2804DAC4500D117
:100D4000C8E1A4461BE14A46B21A9446002A00DCD8
:100D5000ACE04A46002A43D0784A964200D1AFE13F
:100D600080223C0012041443A0466246382A67DC05
:100D70001F2A00DC5FE14746203AD7406246202A1E
:100D800005D064464022121B4446944021434A1E2B
:100D900091410C003C4357E03A000A4300D105E181
:100DA0002200013A012C00D182E1644CA4455BD0C1
:100DB000944641E7634C771C274200D0C4E004000E
:100DC0001C43002E00D069E1002C00D1BFE1444655
:100DD0000C4300D0D0E14207DB081343C00829E0F0
:100DE0003A000A4300D170E162466446013A012CA0
:100DF00000D1E0E0514CA44500D161E19446B4E754
:100E00003A001F39CA401100202B03D04022D31AC8
:100E10009F403C43631E9C41002700260C43630710
:100E200000D053E7B446E4087B072343F808434A5D
:100E300094451DD06246070352053F0B520D60E7F3
:100E400044460C43621E9441E4189C429B415F421D
:100E50003F183B02E3D5394B01369E4200D0B5E046
:100E60003200002700234CE74207DB081343C00889
:100E70001A00024300D1E1E180273F0307433F030B
:100E80002E4A3F0B3DE7200001F05AFD01001831CA
:100E90001F2900DCFCE60838844027000024B1420A
:100EA00000DBFFE6264A761A17400DE7002A2FD00E
:100EB0004A46921B9446002E00D1ADE01F4A914550
:100EC00000D10FE18022120410436246382A00DD6F
:100ED0000FE11F2A00DD80E1644620221E00121B64
:100EE0006746040093409440FE405A1E9341F840E8
:100EF00034431C43804464188C42BF417F424E46B9
:100F00004744A6E742460A4311004A1E9141ADE616
:100F10000C4C721C224200D0A1E002001A43002EA9
:100F200000D0FAE0002A00D145E13A000A4300D09F
:100F300046E14207DB081343C0087BE7FF070000D8
:100F4000FFFF7FFFFE07000047465C1AC21BA3425B
:100F5000BF417F42B94617004A46BF1A3A0200D540
:100F60008DE023003B4300D08AE60020002561E7A6
:100F7000B44CA14500D1ADE0802424042043644654
:100F8000382C3DDC62461F2C00DDB7E020251E001A
:100F90002D1B0400AB40AC40D640D04042465D1E05
:100FA000AB413443121A904623432CE04207DB083E
:100FB0001343C0083BE75C189C429B4140445B42A2
:100FC000C71801263B0200D429E702269E4A63087F
:100FD0001740012214401C43FB071C437F0873E6A3
:100FE0004446203AD4406246202A05D06746402233
:100FF000D21B4746974039434A1E9141214335E66B
:101000000343581E8341CC1AA142BF4143467F424D
:1010100055464E46DF1B2EE602001A4300D1BDE0C6
:1010200062466446013A012C00D1E5E0854CA445B6
:1010300058D0944649E764462022121B4446944007
:101040000F00A14664469140E7404C464A1E91413C
:101050003C4342460C436146CA408018F4E6794C52
:10106000A24200D1FDE6591899429B4140445F429B
:10107000C719FC07490816000C437F08CFE6CC1AB5
:10108000A142BF4143467F42181A5546C71BF7E5A8
:10109000C9087B0755460B43F808C8E6002C00D06A
:1010A00081E043460B4315D1802000250003E3E691
:1010B0005C1AA3429B41C71B5B420126FF1ADAE57B
:1010C0004207DB081343C008D2E64207DB0813439C
:1010D000C008ACE643464246C9085B0755460B4389
:1010E000D008C5E6434642465B07C9080B43D00813
:1010F000BEE603431C00631E9C41FCE60200203C4C
:10110000E24014006246202A03D04025AD1AA840D0
:101110000343581E8341234375E7002AE2D03A0077
:101120000A43CDD04207DB0813438022C0081203D4
:10113000104206D0FC08144203D12000CB087A07E5
:1011400013435A0FDB005207DB08134390E6434674
:101150000B4300D109E743464246C9085B075546A1
:101160000B43D00866E6CC1AA14289413F1A494296
:10117000554601267F1A7EE542465C1A871AA3422D
:1011800092415242BF1A3A023DD5CC1AA14289413E
:10119000434649421F1A55467F1A95E57B07C90801
:1011A0000B43F80843E64446DB080C4330D14207C2
:1011B0001343C0085CE67B07C9080B43F80839E60F
:1011C0005C189C429B4140445B42C7183B0200D4E0
:1011D00025E61D4B01261F4021E60400203AD4409D
:1011E0006246202A04D040226646921B9040034368
:1011F0005A1E93411C437EE65C188C428941404450
:1012000049424718DDE623003B4300D1ADE606E640
:10121000440723438024C0082403204208D04246C8
:10122000D608264204D155463000CB0851070B435F
:101230005A0FDB00DB085207134319E60023014A6B
:101240001F005EE5FF070000FFFF7FFFF0B5574678
:101250004E464546DE46E0B5814605000C03480093
:1012600092461F0085B0240B400DCE0F002800D100
:1012700056E1D44B984200D172E16B0FE4001C435D
:1012800080231B0423439846CF4BED009B4600234D
:101290009946834400933C037B005046240B5B0D2E
:1012A000FF0F002B00D11FE1C64A934200D162E13B
:1012B000C549420F8C46E4005946144380226344DA
:1012C0001204CB1A14439B46C200002033007B401B
:1012D0009A464B460F2B27D8BC499B00CB589F46BC
:1012E000B246009B022B16D0032B00D18EE2012BBD
:1012F00000D0D9E000230024002552461B052343DB
:10130000D20713432800190005B0F0BCBB46B24613
:10131000A946A046F0BD00240025AA4BEDE7BA4639
:10132000A04615000090DCE7444500D2C7E100D19B
:10133000C2E101235B429C462E0040460025E34467
:101340002302140E1C431B0C994623041F0C12028B
:10135000494600920197FEF779FF02007A430B0499
:10136000310C804619438A4207D901235B429C46CF
:101370000919E0448C4200D807E2881A4946FEF772
:1013800065FF09048C4631046646019A090C424304
:10139000030031438A4204D90919013B8C4200D829
:1013A000EDE1881A424612041A4390464146009BDA
:1013B0000E041B0C1F000293009B360C1B04190C1F
:1013C0000B007343120C7E43039151437A431F0C6D
:1013D000BC4676186644B14203D9802149028C4646
:1013E0006244310C8A1831041E04360C8E19904266
:1013F00002D312D1B54210D24346591E009B9C46DF
:1014000065441F009D429B415B421B19C0188442EA
:1014100000D2A0E100D19BE18846AE1BB542AD41B0
:10142000801A6D42401B844200D1D5E14946FEF747
:101430000DFF019A0B044243310C050019438A4207
:1014400000D96CE1881A4946FEF700FF019A36047C
:1014500042430904360C03000E43B24200D953E163
:101460000398B61A02002D041D43029F2B041B0C87
:101470005A437B439C46290C4843130C84446344E1
:101480007943984203D98020400284466144180C75
:1014900012041B04120C41189B188E4200D2FFE06C
:1014A00000D1FAE001231D43494A5A44002A00DCD6
:1014B000AAE06B0700D03DE1ED084346DB0106D50D
:1014C0004246444B1A4090468022D2005A44424B36
:1014D0009A4200DD1FE743465B071D434346520522
:1014E0005C02240B530D08E75246224300D17BE0F7
:1014F000002C00D1FAE0200001F022FA02000B3AA1
:101500001D2301009B1A52460839DA408C401443CF
:1015100052468A40314B58449B4683440020D5E6CE
:101520004B462343984644D0002C00D1CEE0200007
:1015300001F006FA010002000B391D235B1A49462F
:101540001000D940083884400B004D46234398468C
:1015500085402348831A9B460023994600939AE6C8
:101560004B46234398461DD108239946063B002548
:10157000834600938FE65246224309D1022349460F
:101580001943184B89469C4600240220E3449DE6FB
:1015900003234A461A43134B91469C465246032066
:1015A000E34493E60C239946093BA0468346009307
:1015B00071E60423994600239B46013300250093DE
:1015C00069E6C046FF07000001FCFFFF583501082F
:1015D000FF030000FFFFFFFEFE070000F303000013
:1015E0000DFCFFFF01F8FFFF49460123194389461F
:1015F000002401206AE6002380249A4600258A4BB5
:1016000024037AE601256D4201239B1A382B00DD65
:1016100070E61F2B00DCBFE01F2149428A1A4146B9
:10162000D1400A00202B04D04146804B5B449940B6
:101630000D436B1E9D4107232A431D0000241540C6
:10164000134200D1D4E00F2100231140042900D11E
:10165000CBE0111D9142924152429B180A0019029F
:1016600000D4C2E001230024002546E68023414641
:101670001B03194208D01C4206D11C432403BA465E
:101680001500694B240B38E68024434624031C4391
:101690002403B246644B240B2FE6002B00D103E752
:1016A000A619681EA64200D28DE08E4200D2A3E0A9
:1016B00000D1B3E00500F5E6AA4200D939E6434679
:1016C000DE0758086B081E43ED0739E6484601F06F
:1016D00037F901000200153120321C2900DC2CE70B
:1016E0004B46083883400025984632E701F028F938
:1016F00003001A00153220301C2A00DC00E7544693
:10170000083B00229C4005E73619013BB44200D952
:10171000A6E6B24200D8A3E6831E3619A0E6091950
:10172000013D8C4200D98DE68A4200D88AE6851EAA
:10173000091987E60F232B40042B00D1BCE60523B3
:101740005B42AB429B4104355B42ED089844B4E6F2
:10175000AF4200D960E6824204D800D05CE6AE42D7
:1017600000D859E602235B429C46009BE0449C461D
:1017700065449D429B415B421B19C0184DE68A425D
:1017800000D80EE6831E09190BE68A4200D8F4E55C
:10179000831E98460919F0E52549280059448D40D3
:1017A00042468A40691E8D414146D840D940024395
:1017B0002A430B00510700D151E70F2111400429A2
:1017C00000D046E74BE705008E4200D06AE6009A5B
:1017D000934200D066E667E6164A5A44002A00DCC7
:1017E00010E701230025984467E65D075B021C0BA8
:1017F000D2080023154380E50098023D4200824252
:10180000BF417F423C1936190092DDE780244346F0
:1018100024031C432403044B240B6EE5009A9A42D4
:10182000EAD30500D3E7C046FF0700003E040000EE
:101830001E040000FF030000F0B54E464546DE469C
:1018400057469046E0B517001A03120B0500844670
:1018500019480E034C0091465A00DB0F9B46360B8D
:10186000640DC90F520D844219D0824210D001205C
:1018700094420ED14E450CD10120C44509D15945A1
:1018800017D0002C05D130002843431E984100E0BA
:101890000120F0BCBB46B246A946A046F0BD3300CD
:1018A00001202B43F5D1A242F3D14B463B43F0D16B
:1018B000E2E70020EDE7C046FF070000F0B547462D
:1018C000CE460400180016001B031B0B2D4D4A00CA
:1018D000994680B543000F03A446B0463F0B520D16
:1018E000C90F5B0DC00FAA4221D0AB4213D0002A12
:1018F00022D13C43002B02D14D462E4322D0002C56
:1019000010D0814222D00220013908400138C0BCE9
:10191000B946B046F0BD4D462E4329D1002AF0D13C
:101920003C43EED10028F2D101204042EFE73D00D8
:1019300025431DD19342EED0002BE2D14C462643E5
:10194000DFD1E0E70020002CE1D0DCE79A420ADC9E
:10195000E8DB4F45D7D80ED000204F45D7D200291D
:10196000E2D00800D3E74342584140000138CEE7B7
:1019700002204042CBE7C445C5D80020C445C6D2AA
:10198000EDE7C046FF070000F0B54746CE4604002D
:10199000180016001B031B0B2C4D4A00994680B5FE
:1019A00043000F03A446B0463F0B520DC90F5B0D19
:1019B000C00FAA420DD0AB4210D0002A27D13C4321
:1019C000002B11D14D462E430ED10020002C15D0F6
:1019D0000EE03D00254310D1934218D14D462E43D1
:1019E0000BD1002A02D13C43002C0BD0814214D0F1
:1019F000022001390840013800E00220C0BCB9468D
:101A0000B046F0BD0028F9D101204042F6E7002B96
:101A1000ECD14C462643E9D1EAE79A4204DD434241
:101A2000584140000138E9E79A42EBDB4F45DFD8E7
:101A300006D000204F45E1D20029E5D00800DDE7BF
:101A4000C445D5D80020C445D8D2F5E7FF0700002B
:101A5000F0B557464E464546DE46E0B598460C037F
:101A60004B000600924687B0240B5B0DCF0F002B76
:101A700000D15CE1D94A934200D175E1420FE40004
:101A80001443802212041443D54AC500944663448B
:101A90000093002399469B46434642461E03D20FBD
:101AA0005B0050469046360B5B0D00D120E1CB4ADF
:101AB000934200D162E1CA49420F8C4600996344C7
:101AC000F6008C46164380229C441204634616435B
:101AD000C200002000930099434601318C464946DC
:101AE0007B4001930F2926D8BE4B890059588F4659
:101AF000434601933400150083465B46022B16D003
:101B0000032B00D103E2012B00D0CDE00022002402
:101B10000025019B12052243DB071A432800110010
:101B200007B0F0BCBB46B246A946A046F0BD0024B3
:101B30000025AA4AEDE7280C2D042D0C2B00110CD2
:101B40001204120C5343984613002F004343994646
:101B50004F434F44BB4647460B003F0CBA464343F6
:101B6000DA440293D14504D980277F02B9464B4419
:101B7000029353461B0C9B4653461F0443461B04CB
:101B80001B0C98463B0043440493330C3604360C3C
:101B90009846330043439946434643432F009A46B1
:101BA000434677435D43380C4D444519A94503D955
:101BB00080235B029946CA443F04280C3F0C2D0445
:101BC000ED19270C2404240C0300200050437A4311
:101BD00091463A0053440593030C9A464A436143A5
:101BE00049445144AB44894503D980235B0299465B
:101BF0004A4400040B0C000C090409182000994603
:101C0000434670435C437E435F43030C9846A419EC
:101C100044444A440397A64204D980235B02984671
:101C2000474403972304029E9A46059B5E449846C8
:101C3000AE42AD4176188E4289410004000C5044FA
:101C400040446D424719B846934649428946C344C9
:101C5000D94498428041A845AD4193459241894578
:101C600089416D4240422843240C524249420A4372
:101C7000039B00198018C7184B46DC0D049B7502A6
:101C80001D436A1E95414B46F60D7F0235435A02AD
:101C90003C431543FB0100D41CE101216A080D40BF
:101CA0001543E207154364084F496144002900DCED
:101CB000B0E06B0709D00F222A40042A05D02A1D64
:101CC000AA42AD416D4264191500E30104D580219B
:101CD000464AC90014406144454A914200DD26E766
:101CE0006207ED08640249051543240B4A0D10E70D
:101CF0005246324300D17FE0002E00D1DCE03000BC
:101D000000F01EFE02000B3A1D2301009B1A5246F2
:101D10000839DA408E40164352468A40009B3549C6
:101D2000181A03008C46634400200093D3E6250074
:101D300005434AD0002C00D1B0E0200000F000FEA6
:101D4000010002000B391D2310005B1A3100350021
:101D500008388440D94085400C432648831A0093B4
:101D6000002399469B4697E60500254326D1082285
:101D700000930223002491469B468DE65246009B29
:101D8000324310D1154900268C46634449460093DE
:101D900002231943894602209DE65B460197022BE8
:101DA00000D0ADE6C3E60D4A0320944663444A469C
:101DB000009303231A43914652468CE60C2200936B
:101DC0000323050091469B4666E6042399460023BB
:101DD0000093013300249B465EE6C046FF070000E7
:101DE00001FCFFFF98350108FF030000FFFFFFFE25
:101DF000FE0700000DFCFFFF4946012319438946F9
:101E00000026012067E6002380240025434A019331
:101E100024037EE60120401A382800DD76E61F28DC
:101E20005BDD1F2223005242511ACB4019002028AB
:101E300003D03B4A6244944025436A1E95412A00E0
:101E40000A4307210D000024154011425BD00F21E9
:101E500000241140042953D0111D91429241524255
:101E6000A4180A0023024BD501220024002550E6C5
:101E700080231B031C4209D01E4207D133431C039D
:101E800043461500240B254A019342E680221203A3
:101E900014432403214A240B01973AE600F050FD35
:101EA00001000200153120321C2900DC4BE7340010
:101EB00008380025844050E700F042FD03001A0076
:101EC000153220301C2A00DC1EE75646083B002253
:101ED0009E4023E7009B9C46E6E6124922006144AF
:101EE0002E008D408A40C640691E8D4132432A43F0
:101EF000C4405307B6D00F2111400429ACD1B1E73B
:101F000065076402240BD2081543002201E68022F3
:101F1000120314432403014A240BFAE5FF070000CF
:101F20003E0400001E040000F8B557464E464546E4
:101F3000DE46E0B51E0017004A000B03520D5B0A97
:101F40009046420F1A43CD0FCD4C3103C300944647
:101F500070007A0F490AFF009A46B946400DF60F05
:101F60001143A04200D1B1E001225640B346B54230
:101F700000D188E04246121A002A00DCAEE00028B8
:101F800000D1C1E0BE48804500D151E1802000046D
:101F90000143382A00DD7BE11F2A00DDEEE120202D
:101FA0003E00801A0C00D640D140874062468440F3
:101FB000521A781E8741944634432743DC1BA342C0
:101FC0009B4162465B42D31A99464B461B0200D4A2
:101FD00018E14B465802430A99464B46002B00D164
:101FE00037E1484600F0ACFC01000839202322000C
:101FF00048465B1ADA4088408C4043461043884587
:1020000000DD36E1C91A4B1C1F2B00DDEAE020225F
:102010002600D21A01009440DE40D84000239140AF
:10202000621E94418146984631430C43630709D0B0
:102030000F232340042B05D0231DA342A441644257
:10204000A1441C004B461B0200D4DEE041468C4BF1
:102050000131994200D1E7E04B468A48E408034049
:10206000180049055B07400223434A0D040B120583
:10207000ED0722432A4318001100F0BCBB46B246CC
:10208000A946A046F8BD4246121A002A52DD002891
:1020900000D19CE0A04500D1CAE0802000040143AB
:1020A000382A00DD49E11F2A00DC97E110000E000C
:1020B0002038C640202A04D04020821A91400F4385
:1020C000B9464C46621E944134433AE10A003A4311
:1020D00028D0B346B5422BD06B4A4244002A5DD08B
:1020E00042464446821A002C00D0F5E065461D4366
:1020F00000D19CE1551E012A00D1FBE1604CA242B7
:1021000000D1BDE12A00F0E00800384300D1C3E06F
:10211000501E012A00D1A8E1594CA24200D187E00B
:10212000020036E701225640B346B54200D021E70F
:10213000554A4244002A00D1B5E042464446821A3C
:10214000002C00D138E14E4EB04200D1DEE18026B5
:10215000644636043443A446382A00DD96E11F2A3B
:1021600000DD24E22026B41AA24664465646B44056
:10217000A1461C004E46D440264334005646B34088
:102180005E1EB3411C436346D340C918E419BC42E8
:10219000BF417F42B94680468944D8E040463B4C27
:1021A0000130204200D0B4E04046002800D044E195
:1021B0006046184300D190E10800384300D0AAE1FE
:1021C0006146DB0849070B436146CC0827E008005D
:1021D000384361D0501E012A00D139E1A24227D0F4
:1021E00002005DE702001F39CA401100202B03D016
:1021F0004022D31A98400443631E9C410023994611
:1022000098460C43630700D012E74B464A46E40861
:102210005B072343D408424619498A420ED024035F
:102220005205240B520D22E70A00002400231EE76A
:10223000DB086246520713436246D4081A00224361
:1022400000D1FCE180221203144324030C4A240B26
:102250000DE7200000F074FB010018311F2900DC9D
:10226000C4E608388440434620000024884500DC4A
:10227000C8E6044A5B1A104098468146D6E6C04636
:10228000FF070000FFFF7FFF01F8FFFFFE070000D0
:102290000F437A1E974191E66146DB0849070B43DD
:1022A0006146CC08B8E74046D34C0130204200D00C
:1022B000A2E04046002800D001E16046184300D16A
:1022C0005EE10800384300D05FE16146DB08490762
:1022D0000B436146CC08A2E7C84DA84200D1CFE02D
:1022E000802564462D042C43A446382A56DC1F2A38
:1022F00000DDD1E020251E00AD1A6446AB40AC40A5
:10230000D6405D1EAB41344323436446D440091B91
:1023100049E06046DC1B461AA342804140428146A8
:1023200030004E46801B8146000276D44B46234344
:1023300000D052E60024002571E739430C00621EEC
:102340009441E4189C429B415B42634499464B464E
:102350001B0200D456E701239C46A84BE044984555
:1023600038D04B46A64801220340180063081440A9
:102370001C43C3071C434308994657E610000E0050
:102380002038C640202A04D04020821A91400F43B2
:10239000B9464F467A1E974137430FE662461A43C5
:1023A00013005A1E9341FC1AA742BF417F42CB1B28
:1023B00099465D46804608E666461E4300D1BEE06B
:1023C000561E012A00D109E18C4CA24200D119E12C
:1023D0003200C1E642460024002348E620200C00DB
:1023E000801A3E0087408440D640781E8741D14005
:1023F00034433C438C44A4E7804A904200D1E9E056
:10240000DF199F429B4161445B42C918CC077F089A
:102410004B08994680463C43F4E6FC1AA742BF416C
:1024200063467F42C91ACB1B99465D46D5E5FF0836
:102430004B075D463B43CC08EEE662461A4300D0AC
:1024400082E00B003B431BD1802400252403F9E6E6
:10245000DC199C429B41614489465B4299444B464E
:102460001B0244D401239846CCE6DC1B6246A342FF
:102470009B41511A5B42CB1A994601239846A4E529
:10248000FF084B075D463B43CC08D7E662461A433C
:102490001400631E9C4179E615006446203DEC4023
:1024A000A046202A05D040256446AA1A944023431A
:1024B0009A465446631E9C414346234373E7624653
:1024C0001A4323D00A003A4300D0A0E06246DB085A
:1024D000520713436246D408B0E60B003B4300D1D9
:1024E00028E7FF084B075D463B43CC0897E60223ED
:1024F000984636E7FC1AA742BF4163467F42C91A95
:10250000CB1B994601235D4698465EE54B07FF08C5
:102510003B43CC0892E6DC1B6046A342B641401A1E
:102520007642801B8146000260D5FC1AA742BF415B
:1025300063467F42C91ACB1B99465D4676E5FF0884
:102540004B073B43CC0867E60A00DB083A4300D15F
:102550006FE66246520713436246D4088022120394
:10256000144207D0C808104204D15D460400FB089D
:1025700049070B435A0FDB00DB08520713435DE6A4
:102580004B07FF083B43CC0849E6DC199C429B41C2
:10259000614489465B4299444B461B0200D431E6B4
:1025A0004A46174B1A400123914698462AE61600E0
:1025B0006446203EF440A046202A05D040266446CA
:1025C000B21A944023439A465446631E9C414346A4
:1025D0001C43DBE502000024002348E5DC19BC4273
:1025E000BF41614489467F42B94438E74B462343A3
:1025F00000D19FE606E6C046FE070000FF07000088
:10260000FFFF7FFFFF084B073B43CC0816E66246FF
:10261000DB08520713436246D40880221203144297
:1026200007D0C808104204D15D460400FB084907E2
:102630000B435A0FDB005207DB081343FEE5002370
:10264000014A1C0013E5C046FF07000070B50500F5
:102650000C481C0316005B000A034900120B490DCD
:10266000240B5B0D814208D0064A0020934203D11F
:1026700020003043431E984170BD01202A43FBD106
:10268000F2E7C046FF0700000A0030B5134C5300C4
:1026900009030500090B00205B0DD20FA34204DDE6
:1026A0000F48834202DD0F4BD01830BD802040031D
:1026B00001430D48C01A1F2808DD0C48C31AD94031
:1026C0000B005842002AF0D11800EEE7084CC54034
:1026D000A446634499400B002B43F2E7FE0300003D
:1026E0001D040000FFFFFF7F3304000013040000FF
:1026F000EDFBFFFF70B5002816D0C317C5185D406D
:10270000C40F280000F01CF9114A121A0A2816DC1E
:1027100003002E0015339E400B23181AC5405205A6
:102720002D032D0B530D03E000240023002500266C
:102730001B052B43E40723433000190070BD0B3801
:10274000854052052D0300262D0B530DF0E7C046A2
:102750001E04000010B5041E10D000F0F1F80F4B5D
:102760001B1A0A2811DC0B222100121AD140153045
:102770000A035B058440120B5B0D01E0002300227D
:102780001B0513432000190010BD22000B388240A6
:102790005B0512030024120B5B0DF1E71E04000021
:1027A00070B543004602C40FFE201B0E591C750A6B
:1027B00008420CD0E022920094466D07360B634429
:1027C0001B053343E40723432800190070BD002B89
:1027D00014D1002D1BD0280000F0B2F80A281CDC10
:1027E0000B232E001B1ADE40030015339D400E4ABA
:1027F0003603121A5205360B530DE1E7002D09D0AE
:102800008022360B1203094B6D071643D8E70023CD
:102810000026D5E70026054BD2E703000B3B9D4081
:102820002E000025E3E7C04689030000FF070000F3
:1028300002004B00F0B55B0D0C033D4E640A400FE7
:102840005F1CC90F0443D50037420AD039481E180F
:10285000FE2E16DDFF200024C0052043C9070843D3
:10286000F0BD002B06D12C4326D005229201540A3C
:10287000D8B2F1E72543EDD08020C0030443FF2008
:10288000EAE7002E1BDD9201531E9A41E4006D0F12
:1028900022432A43530748D00F231340042B00D070
:1028A00004328023DB0413403FD0701CFE2ED1D0B5
:1028B0009201540AC0B2CFE700200024CCE73200D6
:1028C000173222DB8020000420431E24A41B1F2C6F
:1028D0001DDD02225242961B0200F2401600202CFF
:1028E00004D0154A94466344984005432A00531E79
:1028F0009A41324300265307CED180241300E404CA
:10290000012023402242D3D1B0E70023ADE70B4A98
:1029100094462A00E24014002A0063449A409840FA
:10292000551EAA4102432243E4E733009EE7C04616
:10293000FE07000080FCFFFFA2FCFFFF82FCFFFF00
:102940001C2101231B04984201D3000C10391B0ADF
:10295000984201D3000A08391B09984201D30009A3
:10296000043902A2105C40187047C04604030202FA
:1029700001010101000000000000000080B582B0EC
:1029800000AF80235A01A023DB051100180004F0DA
:102990003BF903007B607B681800BD4602B080BD38
:1029A00080B582B000AF80231B01064A19001000D9
:1029B00004F02AF903007B607B681800BD4602B072
:1029C00080BDC0460004005080B582B000AF8023B7
:1029D0005B01064A1900100004F016F903007B6041
:1029E0007B681800BD4602B080BDC04600040050A0
:1029F00080B582B000AF80239B01064A1900100009
:102A000004F002F903007B607B681800BD4602B049
:102A100080BDC0460004005080B582B000AF802366
:102A2000DB01064A1900100004F0EEF803007B6099
:102A30007B681800BD4602B080BDC046000400504F
:102A400080B582B000AF80231B020D4A1900100030
:102A500004F0DAF803003B60FB1D4F221A703B685C
:102A6000012B03D1FB1D43221A7002E0FB1D4F22F4
:102A70001A70FB1D1B781800BD4602B080BDC04611
:102A80000004005080B582B000AF80235A00A0231C
:102A9000DB051100180004F0B7F803007B607B68C9
:102AA0001800BD4602B080BD80B500AF0449054B9B
:102AB0000422180002F090FFC046BD4680BDC0460B
:102AC000A00600200C02002080B582B000AF0B4BA6
:102AD0001B681800FEF73CF8031C7B60084B1B6862
:102AE0007968181CFDF7EEFE031C0649181CFDF75B
:102AF000E9FE031C181CBD4602B080BDA0060020E4
:102B0000000000200000304180B500AF0A4B5B6838
:102B10001800FEF71DF8021C084B1B68191C101C3E
:102B2000FDF7D0FE031C0649181CFDF7CBFE031C65
:102B3000181CBD4680BDC046A00600200000002035
:102B40000000304180B500AF0A4B9B681800FDF7CC
:102B5000FFFF021C084B1B68191C101CFDF7B2FE7E
:102B6000031C8321C905181CFDF7ACFE031C181CAF
:102B7000BD4680BDA00600200000002080B500AF4B
:102B80000A4BDB681800FDF7E3FF021C084B1B68CB
:102B9000191C101CFDF796FE031C191C181CFDF7D0
:102BA000F3FC031C181CBD4680BDC046A0060020D7
:102BB0000000002080B582B000AF78607B68012BF8
:102BC00006D10A4B01222021180004F03AF808E04F
:102BD0007B68002B05D1054B00222021180004F052
:102BE00030F8C046BD4602B080BDC046000400506B
:102BF00080B582B000AF78607B68012B08D180235C
:102C00001902A023DB050122180004F01AF80AE0DB
:102C10007B68002B07D180231902A023DB0500224B
:102C2000180004F00EF8C046BD4602B080BD00009A
:102C300080B582B000AF78607B68012B06D10A4B6B
:102C400001228021180003F0FCFF08E07B68002BC4
:102C500005D1054B00228021180003F0F2FFC04689
:102C6000BD4602B080BDC0460008005080B582B0AD
:102C700000AF78607B68012B06D10A4B012240210E
:102C8000180003F0DEFF08E07B68002B05D1054B40
:102C900000224021180003F0D4FFC046BD4602B018
:102CA00080BDC0460008005080B582B000AF020071
:102CB000FB1D1A70FA239B00F91D0448012205F040
:102CC00065FDC046BD4602B080BDC0462003002061
:102CD00080B500AFA023DB0500221021180003F00F
:102CE000B0FF0620FFF7E0FFA023DB050122102143
:102CF000180003F0A6FFC046BD4680BD80B500AFFA
:102D0000A023DB0500221021180003F09AFF042005
:102D1000FFF7CAFFA023DB0501221021180003F0F2
:102D200090FFC046BD4680BD80B582B000AF7860E0
:102D3000FA239B0079680448032205F027FDC0466A
:102D4000BD4602B080BDC0462003002090B585B0CE
:102D500002AF78600A00BB1C1A80BB1C1C887A6812
:102D600079680548FA239B000093230005F066FE6E
:102D7000C046BD4603B090BD2003002080B582B0A0
:102D800000AF7860FFF7A4FFA023DB05002210212D
:102D9000180003F056FF2020FFF786FF7B6818001D
:102DA000FFF7C2FFA023DB0501221021180003F06A
:102DB00048FFFFF7A3FF01F08FFDC046BD4602B0FC
:102DC00080BD80B500AFFFF783FFA023DB050022A5
:102DD0001021180003F035FFC720FFF765FFA0237F
:102DE000DB0501221021180003F02BFFFFF786FFFF
:102DF000C046BD4680BD80B584B000AFF860B96004
:102E0000BB1D1A80FFF764FFA023DB050022102101
:102E1000180003F016FF0220FFF746FFFB681800BA
:102E2000FFF782FFBB1D1A88BB6811001800FFF76F
:102E30008DFFA023DB0501221021180003F001FF04
:102E4000FFF75CFF01F048FDC046BD4604B080BD01
:102E500080B584B000AFF860B960BB1D1A80A023B4
:102E6000DB0500221021180003F0EBFE0320FFF722
:102E70001BFFFB681800FFF757FFBB1D1A88BB68D4
:102E800011001800FFF762FFA023DB0501221021CB
:102E9000180003F0D6FEC046BD4604B080BD000059
:102EA00080B584B000AF78601A4B1B781B02194ABA
:102EB00052789B181B02174A92789B187A68D3188D
:102EC000FB60FB68002B02DA134A944663441B1430
:102ED000DAB2104B1A70FB68104A134003D5013B5D
:102EE0000F4A13430133002B00DAFF331B12DAB20F
:102EF000084B5A70FB680B4A134003D5013B0A4A42
:102F000013430133DAB2034B9A70C046BD4604B096
:102F100080BDC04604000020FFFF0000FFFF0080CE
:102F20000000FFFFFF00008000FFFFFF80B582B0C0
:102F300000AF78600A00BB1C1A80BB1C1B88FE2BEC
:102F40000BD8BB1C1A887968064B1800FFF753FF93
:102F500080235B001800FFF7A3FFC046BD4602B008
:102F600080BDC0460400002080B582B000AF094B90
:102F70001B781B02074A52789B181B027B607B68F8
:102F8000054A934201DC012300E000231800BD46FE
:102F900002B080BD04000020FF000300F0B58BB03C
:102FA00004AF464B1B78033B5A425341DBB2434AC2
:102FB000527851424A41D2B21340DBB21A003F4B21
:102FC0005B7859424B41DBB2134073D000237B61E5
:102FD0006AE03B49394B05221800FFF739FF3B00F7
:102FE0001422002118000AF0A8FA344B1B781E00A6
:102FF000324B5B789C46314B9B781A00304B1B78E8
:103000001C002F4B5B781D002D4B9B782D49380001
:103010000393029501940092634632000BF0ACFAE0
:103020003B00180001F030FC254B1B78FF3B5A1E7B
:103030009341DBB2224A5278FF3A511E8A41D2B202
:103040001340DBB21A001E4B9B78FF3B591E8B418D
:10305000DBB213401A4AD278FF3A511E8A41D2B2EB
:103060001340174A1278511E8A41D2B21449497846
:10307000481E8141C9B20A40D2B21100104A92786A
:10308000501E8241D2B20A400D49C978481E814182
:10309000C9B20A4013400CD080235B001800FFF730
:1030A000FFFE7B6901337B617B69074A934290DDB8
:1030B00000E0C046C046BD4607B0F0BD0400002099
:1030C000B0070020682C01085FEA000090B5C5B089
:1030D00000AF80235A01644B002118000AF02DFA3A
:1030E00080235A01614B002118000AF026FAFFF7ED
:1030F0003BFF0300012B05D15D4B180001F0C4FB21
:103100000023ACE001235B421800FFF7C9FE594BD6
:103110005B781A000F2313407A1DFF3213607B1D6A
:10312000FF331B6801337A1DFF321360514B5B780C
:103130001B09DAB24F4B5A704E4B5B781B01DAB267
:103140004C4B5A704B4B00229A707B1DFF331B680F
:103150009BB21B029AB24449464B1800FFF778FE17
:10316000012386225200BA1813606AE080235A00B5
:103170003B1D002118000AF0E0F9002384225200D0
:10318000BA18136033E07B1DFF331A6886235B0097
:10319000FB181B68D31A1A02842040003B181B68D6
:1031A000D318314AD15C344B882464001B19DA19D6
:1031B0003B181B68D3180A1C1A702F4B1B19DA19FD
:1031C00001007B181B68D3181B78FF2B08D12A4BF2
:1031D0001B19DA197B181B68D31800221A700CE02F
:1031E00084225200BB181B680133BA181360842371
:1031F0005B00FB181B68FF2BC5DD1F4B88225200AC
:103200009B18DB19FF22002199543A1D174B11001E
:1032100018000BF01DFA154B1800FCF775FF0300A2
:103220001A00124BD218154B1000190003231A0074
:103230000AF07AF986225200BB181B680133BA18CB
:10324000136086235B00FB181A687B1DFF331B6825
:103250009A428BDD074B1800FFF790FD0123180001
:10326000BD4645B090BDC046B0070020B017002055
:10327000842C010804000020F4FEFFFF341F010825
:1032800080B5C2B000AFFFF76FFE0300012B42D143
:1032900000237A1DFF321360214B180001F0F4FA6D
:1032A00000237A1DFF3213601DE07B1DFF331B6876
:1032B0007A1DFF3212681B49381D0BF05DF93B1D6A
:1032C0001800FCF721FF03009BB201339AB23B1DAB
:1032D00011001800FFF72AFE7B1DFF331B68013326
:1032E0007A1DFF3213607B1DFF331B68042BDCDD6E
:1032F00000237A1DFF32136008E0FFF7E7FE7B1D15
:10330000FF331B6801337A1DFF3213607B1DFF33CF
:103310001B68012BF1DDC046BD4642B080BDC046F2
:10332000942C0108B02C010880B500AFFFF749FDCF
:10333000034B180002F026F8C046BD4680BDC046CB
:10334000983A0000B0B5C94CA54400AFF860B96028
:103350007A603B60C64BC824A4001B19DB19C54A20
:103360001188198092789A7080235A0086239B00D6
:10337000F91814257B191800FFF76AFDBC4B1B19BF
:10338000DB1901225A7080235A008C235B00F91844
:103390007B191800FFF75CFDB54B1B19DB190222E6
:1033A0005A7080235A001823F9187B191800FFF768
:1033B0004FFD0023C7229200B9180B600023C621DD
:1033C000890079180B600023BA18136018E0C72031
:1033D00080003B181B68FA68D218C6239B00FB18B4
:1033E00019683B181B68CB181178A34AC824A4009D
:1033F0001219D219D1543B181B6801333A181360C3
:10340000FB681800FCF780FE0200C72189007B18CA
:103410001B689A4203D37B181B680F2BD7DDC6228B
:103420009200BB181B681033BA1813600023C72220
:103430009200BA18136018E0C72080003B181B6880
:10344000BA68D218C6239B00FB1819683B181B6882
:10345000CB181178884AC824A4001219D219D15463
:103460003B181B6801333A181360BB681800FCF75F
:103470004BFE0200C72189007B181B689A4203D3C8
:103480007B181B68632BD7DDC6229200BB181B6814
:103490006433BA1813600023C7229200BA1813606D
:1034A00018E0C72080003B181B687A68D218C62332
:1034B0009B00FB1819683B181B68CB1811786E4AE3
:1034C000C824A4001219D219D1543B181B68013327
:1034D0003A1813607B681800FCF716FE0200C7213B
:1034E00089007B181B689A4203D37B181B683B2B0F
:1034F000D7DD0023C6229200BA1813600023C7222A
:103500009200BA18136018E0C72080003B181B68AF
:103510003A68D218C6239B00FB1819683B181B6831
:10352000CB181178554AC824A4001219D219D154C5
:103530003B181B6801333A1813603B681800FCF70E
:10354000E3FD0200C72189007B181B689A4203D360
:103550007B181B68272BD7DDC6229200BB181B687F
:103560002833BA1813600023C7229200BA181360D8
:103570001DE0C72080003B181B68CA22920008216A
:103580005218D2191268D218C6239B00FB1819686A
:103590003B181B68CB181178384AC824A4001219AC
:1035A000D219D1543B181B6801333A181360CA234F
:1035B0009B0008229B18DB191B681800FCF7A4FD70
:1035C0000200C72189007B181B689A4203D37B182D
:1035D0001B68272BCDDDC6229200BB181B68283341
:1035E000BA1813600023C7229200BA1813601DE0B6
:1035F000C72080003B181B68CB229200082152187C
:10360000D2191268D218C6239B00FB1819683B1800
:103610001B68CB181178194AC824A4001219D219B2
:10362000D1543B181B6801333A181360CB239B001D
:1036300008229B18DB191B681800FCF765FD0200C7
:10364000C72189007B181B689A4203D37B181B682B
:10365000272BCDDD0023C6229200BA181360002369
:10366000C7229200BA18136028E0C046E0FCFFFFB2
:10367000F4FCFFFF882D0108F8FEFFFFF8FDFFFFB7
:10368000C72080003B181B68CC22920008215218EA
:10369000D2191268D218C6239B00FB1819683B1870
:1036A0001B68CB1811782F4AC824A4001219D2190C
:1036B000D1543B181B6801333A181360CC239B008C
:1036C00008229B18DB191B681800FCF71DFD02007F
:1036D000C72189007B181B689A4203D37B181B689B
:1036E000FF2BCDDDC6229200BB181B680133FF33D0
:1036F000BA1813601C4BC825AD005B19DB190022FA
:103700005A7014243B191800FFF738FB80235A0025
:1037100086239B00F9183B191800FFF76CFB124B2E
:103720005B19DB1901225A7080235A008C235B003D
:10373000F9183B191800FFF75EFB0B4B5B19DB19FF
:1037400002225A7080235A001823F9183B191800D6
:10375000FFF751FB01231800BD46C8239B009D4481
:10376000B0BDC046F8FCFFFFF4FCFFFF80B582B09F
:1037700000AF3B1D0F4A1188198092789A70802300
:103780005A000D4B0021180009F0D7FE0A493B1DD5
:1037900010221800FFF75CFB074B1800FCF7B4FC85
:1037A0000300012B01D9044B00E0044B1800BD4677
:1037B00002B080BD882D0108B00600208C2D0108C4
:1037C00080B586B004AF3848FA239B0002930123EA
:1037D0000193FB1D009301237522D02103F012FCFD
:1037E000FB1D1B78682B44D1BB1D00221A702E488C
:1037F000FA239B00029301230193BB1D0093012335
:103800006B22D02103F0D0FABB1D07221A70264884
:10381000FA239B00029301230193BB1D0093012314
:103820001922D02103F0C0FABB1D00221A701E48D5
:10383000FA239B00029301230193BB1D00930123F4
:103840001C22D02103F0B0FABB1D00221A701648CA
:10385000FA239B00029301230193BB1D00930123D4
:103860001B22D02103F0A0FA104B180001F00CF835
:1038700003E00F4B180001F007F80E4B00221A600E
:103880000C4B00225A600B4B00229A60094B00221D
:10389000DA60084B00221A61064B00225A61C046CA
:1038A000BD4602B080BDC046CC020020A42D010858
:1038B000B82D0108D427002080B586B004AF7E4B18
:1038C00000221A607C4B00225A607B4B00229A60D7
:1038D000794B0022DA60784B00221A61764B002285
:1038E0005A617648FA239B000293062301933B001A
:1038F000009301233B22D02103F084FB3B001B7883
:103900001B021AB23B005B781BB213431AB26C4B1A
:103910001A803B009B781B021AB23B00DB781BB27B
:1039200013431AB2674B1A803B001B791B021AB271
:103930003B005B791BB213431AB2634B1A80604B96
:1039400000229B5E1800FEF7D5FE00225F4BFDF7BC
:103950007DFC02000B0010001900FEF769FF021C3D
:103960005B4B1A60574B00229B5E1800FEF7C2FEAD
:103970000022564BFDF76AFC02000B0010001900F4
:10398000FEF756FF021C534B1A604F4B00229B5E02
:103990001800FEF7AFFE00224C4BFDF757FC02006B
:1039A0000B0010001900FEF743FF021C4A4B1A607F
:1039B0004248FA239B000293062301933B000093A5
:1039C00001234322D02103F01DFB3B001B781B0287
:1039D0001AB23B005B781BB213431AB23F4B1A80FA
:1039E0003B009B781B021AB23B00DB781BB21343EF
:1039F0001AB23B4B1A803B001B791B021AB23B00E8
:103A00005B791BB213431AB2364B1A80334B002238
:103A10009B5E1800FEF76EFE0022334BFDF716FC8E
:103A200002000B0010001900FEF702FF021C2F4BD2
:103A30001A602B4B00229B5E1800FEF75BFE0022F3
:103A4000294BFDF703FC02000B0010001900FEF7E4
:103A5000EFFE021C264B1A60224B00229B5E1800D0
:103A6000FEF748FE0022204BFDF7F0FB02000B00A2
:103A700010001900FEF7DCFE021C1E4B1A60144BEE
:103A80001A680D4B1A60134B1A680B4B5A60124B95
:103A90001A68094B9A60154B1A68074BDA60144B89
:103AA0001A68054B1A61134B1A68034B5A61024B93
:103AB0001800BD4602B080BDD4270020CC020020F3
:103AC000B0270020B2270020B42700200000D040FB
:103AD000BC270020C0270020C4270020B6270020D4
:103AE000B8270020BA27002000606040C8270020C7
:103AF000CC270020D0270020F0B5CE46474680B521
:103B000085B004AFFFF7D8FE294B1B682949181C64
:103B1000FCF7D8FE031C181CFCF7FAFF8046244B68
:103B20005B682449181CFCF7CDFE031C181CFCF72D
:103B3000EFFF81461E4B9B681E49181CFCF7C2FE16
:103B4000031C181CFCF7E4FF0400194BDB6819493F
:103B5000181CFCF7B7FE031C181CFCF7D9FF050066
:103B6000134B1B691349181CFCF7ACFE031C181CF3
:103B7000FCF7CEFF06000E4B5B690E49181CFCF7E4
:103B8000A1FE031C181CFCF7C3FF03000A490B48E5
:103B900003930296019500944B4642460AF0ECFCD2
:103BA000064B1800BD4601B0C0BCB946B046F0BDDA
:103BB000D427002000007A44CC2D0108EC270020F7
:103BC000F0B5C64600B5A8B006AF002384243A1964
:103BD0001360354B180000F057FE00233A191360AC
:103BE00056E0324B180000F04FFEFEF7C7FE020011
:103BF00068243B191A60FEF7D3FE02003B195A6095
:103C0000FEF7E2FE02003B199A60FEF7F1FE0200A9
:103C10003B19DA60FEF700FF02003B191A61FEF75C
:103C20000FFF03001A003B195A61FEF72BFF020039
:103C30003B199A6122003B191B689C46BB185B68C4
:103C4000984615007B199A687B19D9687B19186901
:103C50007B195C697B199B69154E3D1D0493039488
:103C600002900191009243466246310028000AF01A
:103C700083FC3B1D180000F007FEFA23DB00180050
:103C800001F080FB8422BB181B680133BA18136053
:103C90008423FB181B68022BA3DDC046C046BD462B
:103CA00022B080BCB846F0BD582F0108802F010813
:103CB0009C2F0108F0B5ADB002AF0023A4243A193F
:103CC0001360434B180000F0DFFD00233A19136026
:103CD00074E0404B180000F0D7FDFEF7F5FE021C23
:103CE00094243B191A60FEF70FFF021C3B195A601F
:103CF000FEF728FF021C3B199A60FEF73FFF021CEB
:103D00003B19DA603B191B68181CFEF749FD0200DD
:103D10000B00314988257819009201930A00062189
:103D20000AF0F6FB3B195B68181CFEF739FD020030
:103D30000B0029497C26B819009201930A0006213C
:103D40000AF0E6FB3B199B68181CFEF729FD0200F0
:103D50000B00214970203818009201930A000621B7
:103D60000AF0D6FB3B19DB68181CFEF719FD0200B0
:103D70000B00194964243819009201930A000621A6
:103D80000AF0C6FBBC197A191449380064257B195E
:103D900001937023FB18009323000AF0EDFB3B0016
:103DA000180000F071FDFA23DB00180001F0EAFAB8
:103DB000A422BB181B680133BA181360A423FB1894
:103DC0001B68012B85DDC046C046BD462BB0F0BD4B
:103DD000F02F010818300108302E01083430010896
:103DE00080B582B000AF00237B600E4B180000F05E
:103DF0004BFD00237B600DE0FFF77EFE0300180003
:103E000000F042FDFA239B00180001F0BBFA7B682A
:103E100001337B607B68092BEEDDC046C046BD46A2
:103E200002B080BDE430010890B587B004AF002334
:103E30007B601C4B180000F027FD00237B6028E00E
:103E4000194B180000F020FDFFF76EFA174B180011
:103E500000F01AFD164C174A17491848184B0293E0
:103E6000184B0193184B00932300FFF76BFA174B85
:103E7000180000F009FDFFF779FC0300180000F0BE
:103E800003FDFA23DB00180001F07CFA7B680133A4
:103E90007B607B68002BD3DDC046C046BD4603B0C7
:103EA00090BDC046083101082C3101084431010899
:103EB0005C31010884310108AC310108D0310108BE
:103EC000E03101081C3201083C3201085832010877
:103ED00080B5C2B000AF00237A1DFF321360544B8F
:103EE000180000F0D1FC00237A1DFF32136025E09A
:103EF0007B1DFF331B687A1DFF3212684D49381D48
:103F00000AF03AFB4C4B180000F0BEFC3B1D1800B9
:103F100000F0BAFC3B1D1800FCF7F6F803009BB25A
:103F200001339AB23B1D11001800FEF7FFFF7B1D05
:103F3000FF331B6801337A1DFF3213607B1DFF3393
:103F40001B68272BD4DD00237A1DFF32136015E098
:103F50003A4B180000F098FCFFF7B8F8384B1800FF
:103F600000F092FCFA239B00180001F00BFA7B1D75
:103F7000FF331B6801337A1DFF3213607B1DFF3353
:103F80001B68012BE4DD28237A1DFF32136025E036
:103F90007B1DFF331B687A1DFF3212682549381DCF
:103FA0000AF0EAFA244B180000F06EFC3B1D1800E2
:103FB00000F06AFC3B1D1800FCF7A6F803009BB25A
:103FC00001339AB23B1D11001800FEF7AFFF7B1DB5
:103FD000FF331B6801337A1DFF3213607B1DFF33F3
:103FE0001B684F2BD4DD00237A1DFF32136015E0D0
:103FF000124B180000F048FCFFF768F8104B18004F
:1040000000F042FCFA239B00180001F0BBF97B1D75
:10401000FF331B6801337A1DFF3213607B1DFF33B2
:104020001B68012BE4DDC046C046BD4642B080BDE2
:10403000683201088C3201086433010874330108C6
:10404000B017002080B500AF01F060F900F042F831
:1040500000F0D4FA00F0A4FA00F086F800F016F9A7
:1040600000F054F900F090F900F0CAF900F016FAE7
:1040700000F062FA06F00AFE0E4B1A000221102030
:1040800006F0FEFE02000C4B1A600C4A0C4B00219D
:10409000180006F043FE02000A4B1A600A4A0B4B56
:1040A0000021180006F03AFE0200094B1A6006F0E3
:1040B0000FFEFEE720360108F0280020D835010861
:1040C000B9470008E8280020FC3501081548000819
:1040D000EC28002090B593B000AF14243B191800D1
:1040E00034231A00002109F028FA3B1D1800102380
:1040F0001A00002109F021FA80239B00180003F028
:1041000029FC3B1902221A603B1980225200DA6016
:104110003B1900221A613B1940225A613B190022C7
:10412000DA613B19180003F061FC031E01D000F0B6
:10413000E9FB3B1D07221A603B1D00225A603B1D14
:1041400000229A603B1DA022D201DA603B1D0021B3
:10415000180003F05BFF031E01D000F0D3FBC04644
:10416000BD4613B090BD000080B584B000AF3B1DCC
:1041700018000C231A00002109F0DFF93E4B3F4ADA
:104180001A603D4B8022D2055A603B4B00229A6058
:10419000394B0022DA60384B802292031A61364B89
:1041A00004225A61344B00221A76334B00225A768D
:1041B000314B00229A76304B0422DA612E4B2022BA
:1041C000002199542C4B00225A622B4B00229A62F8
:1041D000294B2C2200219954274B00221A63264B8D
:1041E00000225A63244B00229A63234B3C22002175
:1041F0009954214B0022DA641F4B180001F044FA55
:10420000031E01D000F07EFB3B1D1D4A1A603B1DC2
:1042100004225A603B1D00229A603A1D164B110081
:10422000180001F07FFC031E01D000F06BFB3B1D6A
:10423000144A1A603B1D08225A603A1D0E4B1100A9
:10424000180001F06FFC031E01D000F05BFB3B1D6A
:104250000D4A1A603B1D0C225A603A1D064B110094
:10426000180001F05FFC031E01D000F04BFBC046BC
:10427000BD4604B080BDC0460C02002000240140B1
:1042800002000004000200240008002C80B500AFEA
:104290001B4B1C4A1A601A4B1B4A5A60184B0022CF
:1042A0009A60174B0122DA60154B00221A61144BF9
:1042B00000225A61124B00229A61114B0022DA61EE
:1042C0000F4B00221A620E4B180002F0D7FC031E9F
:1042D00001D000F017FB0A4B0021180003F0A2FAEE
:1042E000031E01D000F00EFB054B0021180003F067
:1042F000E5FA031E01D000F005FBC046BD4680BDB7
:10430000CC02002000540040140E000080B500AF25
:104310001B4B1C4A1A601A4B822252005A60184BDF
:1043200000229A60164BE022D200DA60144B002281
:104330001A61134B00225A61114B802292009A613C
:104340000F4B0822DA610E4B00221A620C4B00223E
:104350005A620B4B00229A62094B0722DA62084B21
:1043600000221A63064B08225A63054B180004F01A
:1043700055F9031E01D000F0C5FAC046BD4680BD08
:10438000200300200030014080B584B000AF3B1D09
:1043900018000C231A00002109F0CFF8154B164A1B
:1043A0001A60144B154A5A60124B00229A60114B46
:1043B000F422FF32DA600F4B00229A610D4B180095
:1043C00004F084FE031E01D000F09CFA3B1D002285
:1043D0001A603B1D00229A603A1D064B110018001E
:1043E00005F0EAF8031E01D000F08CFAC046BD4685
:1043F00004B080BD84030020001000403F1F000077
:1044000080B500AF234B244A1A60224B96229201BA
:104410005A60204B00229A601E4B0022DA601D4B2E
:1044200000221A611B4B0C225A611A4B00229A611E
:10443000184B0022DA61174B00221A62154B00223A
:104440005A62144B00229A62124B180005F034F99C
:10445000031E01D000F056FA0E4B0021180006F0A2
:10446000ABFA031E01D000F04DFA0A4B00211800F0
:1044700006F0E2FA031E01D000F044FA054B1800E2
:1044800006F060FA031E01D000F03CFAC046BD46BB
:1044900080BDC046D00300200038014080B500AF89
:1044A000234B244A1A60224B962292015A60204BD9
:1044B00000229A601E4B0022DA601D4B00221A6116
:1044C0001B4B0C225A611A4B00229A61184B002296
:1044D000DA61174B00221A62154B00225A62144B04
:1044E00000229A62124B180005F0E6F8031E01D074
:1044F00000F008FA0E4B0021180006F05DFA031ECA
:1045000001D000F0FFF90A4B0021180006F094FAE0
:10451000031E01D000F0F6F9054B180006F012FA60
:10452000031E01D000F0EEF9C046BD4680BDC04676
:10453000640400200044004080B500AF164B174AC9
:104540001A60154B962292015A60134B00229A6012
:10455000114B0022DA60104B00221A610E4B0C2224
:104560005A610D4B00229A610B4B0022DA610A4B13
:1045700000221A62084B00225A62074B00229A62FC
:10458000054B180005F098F8031E01D000F0BAF9A9
:10459000C046BD4680BDC046F8040020004800402B
:1045A00080B582B000AF144B9A6B134B01210A43C4
:1045B0009A63114B9B6B012213407B607B68002246
:1045C0000321092001F022FE092001F034FE00221F
:1045D00003210A2001F01AFE0A2001F02CFE00221D
:1045E00003210B2001F012FE0B2001F024FEC04637
:1045F000BD4602B080BDC0460010024090B58BB0F1
:1046000000AF14243B19180014231A00002108F0ED
:1046100094FF644B5A6B634B04210A435A63614B0A
:104620005B6B042213403B613B695E4B5A6B5D4BF5
:1046300020210A435A635B4B5B6B20221340FB60D3
:10464000FB68584B5A6B574B01210A435A63554B31
:104650005B6B01221340BB60BB68524B5A6B514BE2
:1046600002210A435A634F4B5B6B022213407B606B
:104670007B684C4B5A6B4B4B08210A435A63494B9E
:104680005B6B082213403B603B684749A023DB0576
:104690000022180002F0D5FA444B0022C021180075
:1046A00002F0CFFA424B00220721180002F0C9FAAB
:1046B0008E239B003F480022190002F0C2FA3B19EA
:1046C000394A1A603B1901225A603B1900229A604C
:1046D0003B190022DA603A19A023DB05110018000B
:1046E00002F02EF921007B18F92212021A600C0048
:1046F0003B1900225A603B1900229A603B192D4A4F
:104700001900100002F01CF93B19882252011A60AE
:104710003B1900225A603B1900229A603A19A023E3
:10472000DB051100180002F00BF93B19C0221A60DA
:104730003B1901225A603B1900229A603B19002262
:10474000DA603B19194A1900100002F0F9F83B1918
:1047500007221A603B1901225A603B1900229A6015
:104760003B190022DA603B19114A1900100002F0CF
:10477000E7F821007B188E2292001A607B18012234
:104780005A607B1800229A607B180022DA607B183E
:10479000084A1900100002F0D3F8C046BD460BB01D
:1047A00090BDC0460010024010800000000800507C
:1047B000000C00500004005080B582B000AF78605B
:1047C0000120FEF715FA0120FEF750FA0120FEF74E
:1047D0002FFAFFF7F5F9FEF767F9FFF76BFA0120FB
:1047E000FEF7E8F90120FEF703FA0120FEF73EFA92
:1047F0000120FEF71DFAFEF7E3FFFFF7F1FA00F0E4
:1048000023F8FEF7CBFBFEF73BFDFFF70DFBFFF7B1
:104810005FFBD5E780B582B000AF7860012006F07D
:1048200013FBFBE780B582B000AF78607B681B6844
:10483000044A934201D100F089FDC046BD4602B052
:1048400080BDC046002C014090B585B004AFFEF796
:104850006BFD084C084A094909480A4B0293054B6D
:104860000193044B00932300FEF76CFDC046BD4648
:1048700001B090BDB033010884310108AC310108AA
:10488000D0310108E031010880B584B000AF786014
:104890000E4B1B680C221A627B681800FBF734FC75
:1048A00003009AB20A4B7968084804F05BFF0C21B8
:1048B0007B18084A1A80791804480A23022204F057
:1048C00051FFC046BD4604B080BDC046F80400207C
:1048D000881300000D0A000080B500AF074B1B686D
:1048E0000C221A6296235B00FA22920004490348C4
:1048F00004F0D4FF024B1800BD4680BDF804002030
:104900000802002080B500AF72B6C046FEE7000086
:1049100080B582B000AF154B1A6C144B01210A43CD
:104920001A64124B1B6C012213407B607B680F4B97
:10493000DA6B0E4B802149050A43DA630B4BDA6BC5
:1049400080235B0513403B603B6802235B420022EF
:104950000321180001F05AFCC023DB00180000F00E
:1049600035FDC046BD4602B080BDC04600100240C5
:1049700090B58BB000AF786014243B191800142355
:104980001A00002108F0D9FD7B681B683B4A93425E
:104990006FD13B4B1A6C3A4B802149030A431A648E
:1049A000374B1A6C80235B0313403B613B69344BEC
:1049B0005A6B334B01210A435A63314B5B6B012223
:1049C0001340FB60FB682E4B5A6B2D4B02210A43B0
:1049D0005A632B4B5B6B02221340BB60BB683B19D5
:1049E00003221A603B1903225A603B1900229A6085
:1049F0003A19A023DB051100180001F0A1FF3B19B3
:104A0000204A1A603B1903225A603B1900229A601F
:104A10003B191D4A1900100001F092FF1B4B1C4A64
:104A20001A601A4B05225A60184B00229A60174BE5
:104A30000022DA60154B80221A61144B802292000A
:104A40005A61124B802212019A61104B2022DA61C6
:104A50000E4B00221A620D4B180001F0FDFB031EE5
:104A600001D0FFF74FFF7B68084A1A65074B7A6849
:104A70009A62C046BD460BB090BDC04600240140BE
:104A800000100240020400000004005070020020E8
:104A90000800024090B591B000AF78602C23FB185D
:104AA000180014231A00002108F047FD10243B19B8
:104AB00018001C231A00002108F03FFD7B681B68CA
:104AC000224A93423DD13B1920221A603B19002211
:104AD000DA603B19180003F06DFC031E01D0FFF7EC
:104AE00011FF1B4B5A6B1A4B02210A435A63184B96
:104AF0005B6B02221340FB60FB682C217B18C022F9
:104B00001A607B1812225A607B1801229A607B1867
:104B10000022DA607B1806221A617B180D4A190000
:104B2000100001F00DFF0A4BDA6B094B802189035D
:104B30000A43DA63064BDA6B80239B031340BB60A6
:104B4000BB68C046BD4611B090BDC0460054004091
:104B5000001002400004005090B58BB000AF7860A8
:104B600014243B19180014231A00002108F0E5FC56
:104B70007B681B681B4A934230D11B4B1A6C1A4B43
:104B8000802149010A431A64174B1A6C80235B0188
:104B900013403B613B69144B5A6B134B01210A4391
:104BA0005A63114B5B6B01221340FB60FB682100D1
:104BB0007B18E0221A607B1802225A607B180022C0
:104BC0009A607B180022DA607B1800221A617A183A
:104BD000A023DB051100180001F0B2FEC046BD465F
:104BE0000BB090BD003001400010024080B584B091
:104BF00000AF78607B681B680D4A934213D10D4B60
:104C0000DA6B0C4B10210A43DA630A4BDB6B102280
:104C10001340FB60FB6800220321112001F0F6FA2B
:104C2000112001F008FBC046BD4604B080BDC0465F
:104C3000001000400010024090B595B000AF7860C1
:104C40003C23FB18180014231A00002108F075FCFF
:104C500020243B1918001C231A00002108F06DFCC9
:104C60007B681B68AB4A934272D13B1901221A60E0
:104C70003B1900225A603B19180003F09BFB031EEE
:104C800001D0FFF73FFEA44B1A6CA34B8021C90152
:104C90000A431A64A04B1A6C8023DB011340FB61AA
:104CA000FB699D4B5A6B9C4B01210A435A639A4BFB
:104CB0005B6B01221340BB61BB693C217B18C022A6
:104CC000D2001A607B1802225A607B1800229A6078
:104CD0007B180022DA607B1801221A617A18A0235F
:104CE000DB051100180001F02BFE8C4B8C4A1A607A
:104CF0008A4B32225A60894B00229A60874B0022ED
:104D0000DA60864B80221A61844B00225A61834B01
:104D100000229A61814B0022DA61804B00221A62E4
:104D20007E4B180001F098FA031E01D0FFF7EAFD50
:104D30007B688021794A5A50784B7A689A620022BF
:104D400003211B2001F062FA1B2001F074FADDE060
:104D50007B681B68734A934272D120217B18022220
:104D60001A607B1800229A607B18180003F022FB5F
:104D7000031E01D0FFF7C6FD674BDA6B664B80213F
:104D800089020A43DA63644BDA6B80239B02134087
:104D90007B617B69604B5A6B5F4B01210A435A630D
:104DA0005D4B5B6B012213403B613B693C217B18EF
:104DB0000C221A607B1802225A607B1800229A602B
:104DC0007B180022DA607B1801221A617A18A0236E
:104DD000DB051100180001F0B3FD534B534A1A6074
:104DE000514B34225A60504B00229A604E4B0022A5
:104DF000DA604D4B80221A614B4B00225A614A4BBC
:104E000000229A61484B0022DA61474B00221A6265
:104E1000454B180001F020FA031E01D0FFF772FD88
:104E20007B688021404A5A503F4B7A689A62002240
:104E300003211C2001F0EAF91C2001F0FCF965E0D7
:104E40007B681B683A4A934260D1334BDA6B324B32
:104E50008021C9020A43DA632F4BDA6B8023DB021D
:104E60001340FB60FB682C4B5A6B2B4B02210A430F
:104E70005A63294B5B6B02221340BB60BB683C2129
:104E80007B1805221A607B1802225A607B180022C8
:104E90009A607B180022DA607B1804221A617B1862
:104EA000244A1900100001F04BFD234B234A1A60DD
:104EB000214B37225A60204B10229A601E4B002251
:104EC000DA601D4B80221A611B4B00225A611A4B7B
:104ED00000229A61184B0022DA61174B00221A62F5
:104EE000154B180001F0B8F9031E01D0FFF70AFDB9
:104EF0007B68114ADA67104B7A689A6200220321B4
:104F00001D2001F083F91D2001F095F9C046BD4632
:104F100015B090BD00380140001002408C05002003
:104F20001C00024000440040E80500203000024020
:104F300000480040000400504406002044000240A5
:104F4000B0B58CB000AF78602B23FB1800221A702C
:104F5000384B1A6C374B802109010A431A64354BD0
:104F60001A6C80231B011340BB60BB680C23FA182A
:104F700010243B191100180003F0F2F93B19DB680B
:104F80007B627B6A002B04D103F0D4F90300FB623F
:104F900004E003F0CFF903005B00FB62FB6A2649E3
:104FA0001800FBF7CDF80300013B3B62234B244A7A
:104FB0001A60224B234ADA60204B3A6A5A601F4B30
:104FC00000221A611D4B00229A601C4B00229A613C
:104FD0002B257C19194B180004F078F80300237076
:104FE0007B191B78002B1ED17C19144B180004F080
:104FF000C5F8030023707B191B78002B13D10D20FB
:1050000001F019F97B68032B09D87B68002219008D
:105010000D2001F0FBF80C4B7A681A6003E02B239B
:10502000FB1801221A702B23FB181B781800BD46B1
:105030000CB0B0BD0010024040420F00F428002028
:10504000002C0140E70300000C00002080B500AFF9
:10505000FEE780B500AFFEE780B500AF034B180058
:1050600001F0D6FAC046BD4680BDC04670020020A1
:1050700080B500AF054B180001F0CAFA044B1800C8
:1050800001F0C6FAC046BD4680BDC0468C05002072
:10509000E805002080B500AF054B180001F0B8FA14
:1050A000044B180001F0F6FBC046BD4680BDC0466B
:1050B000440600207002002080B500AF034B1800AA
:1050C00004F0B2F8C046BD4680BDC046F4280020BA
:1050D00080B500AF034B180004F0A6F8C046BD46EB
:1050E00080BDC0468403002080B500AF034B18008C
:1050F00004F0B6FCC046BD4680BDC046D0030020CB
:1051000080B500AF034B180004F0AAFCC046BD46B2
:1051100080BDC0466404002080B500AF034B18007A
:1051200004F09EFCC046BD4680BDC046F804002089
:1051300080B500AF01231800BD4680BD80B582B0A8
:1051400000AF7860396008F0B5F8030016221A60E5
:1051500001235B421800BD4602B080BD80B582B01D
:1051600000AF786001235A427B6811001800FFF7F6
:10517000E5FFFEE780B586B000AFF860B9607A6001
:1051800000237B610AE000E000BF0100BB685A1CFD
:10519000BA60CAB21A707B6901337B617A697B6835
:1051A0009A42F0DB7B681800BD4606B080BD80B532
:1051B00086B000AFF860B9607A6000237B6109E0D7
:1051C000BB685A1CBA601B78180000E000BF7B69FE
:1051D00001337B617A697B689A42F1DB7B68180056
:1051E000BD4606B080BD80B582B000AF78600123B7
:1051F0005B421800BD4602B080BD80B582B000AFF2
:10520000786039603B68802292015A600023180060
:10521000BD4602B080BD80B582B000AF786001238A
:105220001800BD4602B080BD80B584B000AFF86004
:10523000B9607A6000231800BD4604B080BD00004C
:1052400080B586B000AF7860144A154BD31A7B61E5
:105250007B693B61134B1B68002B02D1114B124A37
:105260001A60104B1A687B68D3183A699A4207D2C1
:1052700008F020F803000C221A6001235B4209E0C9
:10528000084B1B68FB60074B1A687B68D218054BFC
:105290001A60FB681800BD4606B080BD0090002073
:1052A00000040000402900206043002080B500AFCA
:1052B000C046BD4680BD00000D488546FFF7F6FF9D
:1052C0000C480D490D4A002302E0D458C450043361
:1052D000C4188C42F9D30A4A0A4C002301E0136037
:1052E0000432A242FBD308F0EDF8FEF7ABFEFEE776
:1052F0000090002000000020EC010020983B0108F5
:10530000EC01002060430020FEE7000080B582B081
:1053100000AFFB1D00221A700B4B1A680A4B80214C
:1053200049000A431A600320FFF70AFE031E03D058
:10533000FB1D01221A7001E0FFF7EAFAFB1D1B7842
:105340001800BD4602B080BD0020024080B500AF0D
:10535000054B1B781A00054B1B68D218034B1A60CB
:10536000C046BD4680BDC046100000204429002034
:1053700080B500AF024B1B681800BD4680BDC0461B
:105380004429002080B584B000AF7860FFF7F0FFBB
:105390000300BB607B68FB60FB68013305D00A4BF0
:1053A0001B781A00FB689B18FB60C046FFF7E0FF04
:1053B0000200BB68D31AFA689A42F7D8C046C046C2
:1053C000BD4604B080BDC0461000002080B582B04C
:1053D00000AF7860064B1B68064A13401900044B67
:1053E0007A680A431A60C046BD4602B080BDC04616
:1053F00000000140FFF9FFFF80B582B000AF786088
:1054000039607B681B68054A1A403B681A437B6811
:105410001A60C046BD4602B080BDC046FFFF3FFED9
:1054200080B582B000AF78607B681A68E0235B04C7
:1054300013401800BD4602B080BD80B584B000AFF7
:10544000F860B9607A60FB685B69BA6804210A4059
:10545000072191400A00D2431A40BB6804210B4047
:10546000796899400B001A43FB685A61C046BD46F3
:1054700004B080BD80B582B000AF786039607B68D1
:105480005B693A6804210A40072191400A001A40EA
:105490003B6804210B40DA4013001800BD4602B0FF
:1054A00080BD80B582B000AF78607B68DA68C023C9
:1054B0001B01134001D1012300E000231800BD4669
:1054C00002B080BD80B584B000AFF860B9607A608A
:1054D000FB689B6ABA681F210A400F2191400A00AD
:1054E000D2431A407B689B0E0F211940BB681F20D6
:1054F000034099400B001A43FB689A62C046BD46C0
:1055000004B080BD80B582B000AF786039607B6840
:105510009A6A3B685B035B0B1A437B689A62C046DE
:10552000BD4602B080BD80B582B000AF7860396002
:105530007B689B6A3A685203520BD2431A407B68DD
:105540009A62C046BD4602B080BD000080B584B0FE
:1055500000AFF860B9607A60FB685B69BA681202F4
:10556000D2431A40BB681B0279680B4004490B40C8
:105570001A43FB685A61C046BD4604B080BDC046B0
:1055800000FFFF0780B582B000AF78607B689B6842
:10559000054A1340802252051A437B689A60C04630
:1055A000BD4602B080BDC046E8FFFF6F80B582B047
:1055B00000AF78607B689A6880235B051A4080237F
:1055C0005B059A4201D1012300E000231800BD468B
:1055D00002B080BD80B582B000AF78607B689B6808
:1055E000044A134001221A437B689A60C046BD46B4
:1055F00002B080BDE8FFFF7F80B582B000AF786069
:105600007B689B68044A134002221A437B689A60B5
:10561000C046BD4602B080BDE8FFFF7F80B582B0C6
:1056200000AF78607B689B6801221340012B01D199
:10563000012300E000231800BD4602B080BD000039
:1056400080B582B000AF78607B689B68044A1340E5
:1056500004221A437B689A60C046BD4602B080BDF2
:10566000E8FFFF7F80B582B000AF78607B689B6801
:1056700004221340042B01D1012300E00023180071
:10568000BD4602B080BD000080B588B000AF786034
:105690001F23FB1800221A700023BB6100237B61CB
:1056A0000023FB607B68002B01D101237FE17B6835
:1056B0009B6D002B0AD17B681800FFF759F97B68B6
:1056C0000022DA657B685422002199547B681B68AC
:1056D0001800FFF76BFF031E15D17B681B681800CD
:1056E000FFF750FFB44B1B68B4491800FAF728FDC8
:1056F000030001335B00FB6002E0FB68013BFB60E1
:10570000FB68002BF9D17B681B681800FFF74EFF80
:10571000031E0FD17B689B6D10221A437B689A652C
:105720007B68DB6D01221A437B68DA651F23FB1857
:1057300001221A707B681B681800FFF793FF0300B3
:105740003B617B689B6D1022134000D022E13B69D6
:10575000002B00D01EE17B689B6D994A134002220A
:105760001A437B689A657B681B681800FFF756FF31
:10577000031E00D0ADE07B689A687B681B7E9B03AC
:105780001A437B685B7EDB031A437B689B7E5B036B
:105790001A437B681B6B002B02D080235B0100E067
:1057A00000231A437B68DB681A437B681B69002B64
:1057B00004DA7B681B695B005B0801E080239B03C4
:1057C0001A437B682C215B5C5B001343BA6913436B
:1057D000BB617B6820229B5C012B15D17B689B7E83
:1057E000002B05D1BB69802252021343BB610BE041
:1057F0007B689B6D20221A437B689A657B68DB6D12
:1058000001221A437B68DA657B685B6A002B0AD049
:105810007B685A6AE0235B001A407B689B6A1343EB
:10582000BA691343BB617B681B68DB68654A134038
:1058300019007B681B68BA690A43DA607B685B6899
:105840009B0F9A077B68DB6C13437A6913437B6178
:105850007B683C229B5C012B11D17B685B689B0FB2
:105860009A077B681B6C1A437B685B6C1A437B68E6
:105870009B6C1A437B691343012213437B617B6852
:105880001B681B69504A134019007B681B687A69C2
:105890000A431A617B685A68C0231B069A4218D0D3
:1058A0007B685A688023DB059A4212D07B685A686D
:1058B00080231B069A420CD0444B1B68444A134079
:1058C00019007B685A68F0239B031A403F4B0A4338
:1058D0001A607B6818687B685B6B1A000021FFF711
:1058E000ACFD7B6818687B689B6B3A491A00FFF730
:1058F000A4FD7B681B69002B09D17B681B689A6A31
:105900007B681B68102149420A439A6218E07B6851
:105910001A6980239B039A4212D17B681B689B6A99
:105920007B68DB69013B9B001C2213401022524222
:105930009A4011007B681A6E7B681B680A439A6262
:105940007B681B6800211800FFF794FD02007B684C
:105950005B6B9A420BD17B680022DA657B689B6D9A
:105960000322934301221A437B689A651CE07B68FB
:105970009B6D1222934310221A437B689A657B68C1
:10598000DB6D01221A437B68DA651F23FB180122B5
:105990001A7009E07B689B6D10221A437B689A6538
:1059A0001F23FB1801221A701F23FB181B781800F5
:1059B000BD4608B080BDC04608000020400D030071
:1059C000FDFEFFFF0102FEFF02FCFF1F0827014052
:1059D000FFFFC3FF04FFFF07B0B586B000AFF8605C
:1059E000B9607A60FB681B681800FFF73BFE031E76
:1059F0006CD1FB6854229B5C012B01D102236CE02B
:105A0000FB68542201219954FB681B68DB68012262
:105A1000134013D1FB681B681800FFF7FFFD031E3E
:105A200004D0FB681B681800FFF7E6FDFB681B68E5
:105A3000DA68FB681B6801210A43DA6017257C19C4
:105A4000FB68180000F046FA030023702C003B1995
:105A50001B78002B3ED1FB689B6D224A13408022AD
:105A600052001A43FB689A65FB680022DA65FB68FE
:105A70001B6D1D4ADA62FB681B6D1C4A1A63FB68CA
:105A80001B6D1B4A5A63FB681B681C221A60FB686B
:105A9000542200219954FB681B685A68FB681B68F4
:105AA00010210A435A60FB68186DFB681B6840337D
:105AB0001900BA683C197B6800F058FC0300237099
:105AC000FB681B681800FFF7BBFD03E01723FB18FA
:105AD00002221A701723FB181B781800BD4606B067
