:020000040800F2
:1000000000900020C1350008553300085B3300081C
:1000100000000000000000000000000000000000E0
:100020000000000000000000000000001195000822
:10003000000000000000000031960008F173000885
:1000400011360008000000001136000811360008C3
:100050001136000811360008113600081136000864
:100060000000000061330008793300089D33000868
:1000700011360008C13300081136000800000000E6
:1000800011360008D933000811360008113600086F
:100090001136000811360008113600081136000824
:1000A000113600081136000811360008F133000837
:0800B0000934000821340008A6
:1000C00010B5064C2378002B07D1054B002B02D02E
:1000D000044800E000BF0123237010BDD8010020B8
:1000E0000000000034E40008044B10B5002B03D0DE
:1000F0000349044800E000BF10BDC04600000000F6
:10010000DC01002034E400080023C25C0133002A33
:10011000FBD1581E7047000002B4714649084900DF
:10012000095C49008E4402BC7047C04603B4714666
:10013000490840004900095E49008E4403BC7047ED
:10014000002243088B4274D303098B425FD3030A16
:100150008B4244D3030B8B4228D3030C8B420DD329
:10016000FF22090212BA030C8B4202D312120902B7
:1001700065D0030B8B4219D300E0090AC30B8B42F5
:1001800001D3CB03C01A5241830B8B4201D38B03A3
:10019000C01A5241430B8B4201D34B03C01A524148
:1001A000030B8B4201D30B03C01A5241C30A8B428B
:1001B00001D3CB02C01A5241830A8B4201D38B0276
:1001C000C01A5241430A8B4201D34B02C01A52411A
:1001D000030A8B4201D30B02C01A5241CDD2C3098C
:1001E0008B4201D3CB01C01A524183098B4201D308
:1001F0008B01C01A524143098B4201D34B01C01AF3
:10020000524103098B4201D30B01C01A5241C3086A
:100210008B4201D3CB00C01A524183088B4201D3D9
:100220008B00C01A524143088B4201D34B00C01AC5
:100230005241411A00D20146524110467047FFE731
:1002400001B5002000F0F0F802BDC0460029F7D04B
:1002500076E7704703460B437FD4002243088B4266
:1002600074D303098B425FD3030A8B4244D3030B3D
:100270008B4228D3030C8B420DD3FF22090212BA02
:10028000030C8B4202D31212090265D0030B8B427E
:1002900019D300E0090AC30B8B4201D3CB03C01A68
:1002A0005241830B8B4201D38B03C01A5241430B43
:1002B0008B4201D34B03C01A5241030B8B4201D333
:1002C0000B03C01A5241C30A8B4201D3CB02C01A9E
:1002D0005241830A8B4201D38B02C01A5241430A16
:1002E0008B4201D34B02C01A5241030A8B4201D305
:1002F0000B02C01A5241CDD2C3098B4201D3CB01AC
:10030000C01A524183098B4201D38B01C01A52415A
:1003100043098B4201D34B01C01A524103098B425E
:1003200001D30B01C01A5241C3088B4201D3CB0049
:10033000C01A524183088B4201D38B00C01A52412C
:1003400043088B4201D34B00C01A5241411A00D2DC
:1003500001465241104670475DE0CA0F00D0494245
:10036000031000D34042534000229C4603098B42B5
:100370002DD3030A8B4212D3FC22890112BA030A3D
:100380008B420CD3890192118B4208D389019211BF
:100390008B4204D389013AD0921100E08909C30944
:1003A0008B4201D3CB01C01A524183098B4201D346
:1003B0008B01C01A524143098B4201D34B01C01A31
:1003C000524103098B4201D30B01C01A5241C308A9
:1003D0008B4201D3CB00C01A524183088B4201D318
:1003E0008B00C01A5241D9D243088B4201D34B0033
:1003F000C01A5241411A00D20146634652415B1075
:10040000104601D34042002B00D549427047634655
:100410005B1000D3404201B5002000F005F802BD9A
:100420000029F8D016E770477047C0468446100090
:1004300062468C461900634600E0C0461FB500F0D6
:1004400099FF002801D40021C8421FBD10B500F05B
:10045000E9FE4042013010BD10B500F08BFF0028CE
:1004600001DB002010BD012010BDC04610B500F01A
:1004700081FF002801DD002010BD012010BDC04615
:1004800010B500F011FF002801DC002010BD012094
:1004900010BDC04610B500F007FF002801DA0020AB
:1004A00010BD012010BDC04670B500220C4B0400E9
:1004B0000D00FFF7EFFF002804D12000290001F014
:1004C0001FFE70BD064B00222000290001F078FAC3
:1004D00001F016FE80231B069C466044F1E7C046EF
:1004E0000000E04170B505000C0000220023280048
:1004F0002100FFF7B1FF002808D12800210000F0FB
:100500000FF802000B001000190070BD80231B06BD
:10051000E118280000F004F8002342428B41F2E782
:1005200070B500220B4B0D00040000F087FFFFF7B1
:10053000BBFF060001F04AFE0022074B00F07EFFE1
:1005400002000B002000290001F03AFAFFF7ACFF8F
:10055000310070BD0000F03D0000F04170B50600B4
:10056000080001F003FE0022064B00F067FF0D00BB
:100570000400300001F02AFE2B00220000F004F8F5
:1005800070BDC0460000F041F0B54F464646D64625
:100590000400C0B51F000B0310004E005B0ACD0F16
:1005A000610F7A001943E3003C03FF0FBC46640A65
:1005B000470F2743760D520DC000B9468046B71A43
:1005C000654500D19BE0002F00DC84E0002A00D1CB
:1005D000BEE0C84A964200D124E180224C46120473
:1005E0001443A146382F00DD67E11F2F00DDD6E15F
:1005F00020224C46D21B9440A2464446FC40200098
:100600005446044340469040421E90414A46FA40B8
:100610000443891A1C1BA342924152428B1A9A46E8
:1006200053461B0200D4D4E053465A02530A9A465A
:100630005346002B00D104E1504601F073FE030045
:10064000083B20222000D21A5146D0409940020097
:100650009C400A43B34200DA02E19B1B591C1F294C
:1006600000DDA7E02023100026005B1A9C40984084
:10067000CE40CA40631E9C4130439246002604434C
:10068000630709D00F232340042B05D0231DA34269
:10069000A4416442A2441C0053461B0200D49BE0C8
:1006A000944B01369E4200D1B8E053469249E4088B
:1006B0000B4019005B07234372054C02240B520DBB
:1006C0001205ED0722432A4318001100E0BCBA4688
:1006D000B146A846F0BD002F48D0971B002E00D091
:1006E0000EE10C001C4300D1B7E17C1E012F00D1AC
:1006F00026E2804DAF4200D1D5E1270007E1002F6F
:1007000000DCB2E0002A47D07A4A964200D189E064
:1007100080224C4612041443A146382F6BDC1F2F55
:1007200000DC6EE13A004846203AD0408446202F53
:1007300007D040224846D21B90400200404610435A
:1007400080464046421E904162460400144357E0F2
:100750004A46024300D103E17A1E012F00D193E102
:10076000644CA74200D18AE117003BE7634C721C3E
:10077000224200D0E0E00A001A43002E00D074E1CB
:10078000002A00D1D0E14A46024300D0E3E14A0703
:10079000DB081343C90829E04A46024300D17DE142
:1007A0007A1E012F00D1E0E0524CA74200D166E151
:1007B0001700B2E710001F3BD840202903D0402388
:1007C0005B1A9A401443631E9C41002300269A46FC
:1007D0000443630700D055E75246E308520713432A
:1007E00052463700D108434A97421FD009037A0581
:1007F0000C0B520D64E742464C461443621E944172
:10080000E4189C429241524292468A4453461B024B
:10081000DFD5384B01369E4200D0B3E032000024D1
:1008200000234DE74A07DB081343C9081A000A43AF
:1008300000D100E2802424030C4324032D4A240B1E
:100840003EE7200001F06EFD030018331F2B00DC93
:10085000F7E62200083882400024B34200DBFCE6C1
:10086000F61A254B1A4092460AE7002F2BD0971B09
:10087000002E00D1B8E01F4CA24200D11CE1802420
:1008800024042143382F00DD1EE11F2F00DD9EE1EF
:1008900020260C00F61B1800B340B440F8405E1E42
:1008A000B341F94004431C438944444444459B41BB
:1008B0005B424B449A461600A8E742464C46144316
:1008C000621E9441A6E60D4C721C224200D0A8E0A4
:1008D0000A001A43002E00D00AE1002A00D15EE18E
:1008E0004A46024300D061E14A07DB081343C908C6
:1008F0007CE7C046FF070000FFFF7FFFFE07000008
:10090000CF4CA24200D1CEE0802424042143382FD2
:100910005BDC1F2F00DDDCE020250C00ED1B1E0042
:10092000AB40AC40FE405D1EAB413443F9401C433C
:100930004B465B1A99464CE04A461C1A881AA34259
:1009400092415242924602005046121A92461202B8
:1009500078D45346234300D06AE60021002545E7BA
:100960004A07DB081343C9083DE71C189C429B411A
:1009700049448A465B429A44534601261B0200D4EE
:1009800027E702265246AF4B01211A4013002140AF
:1009900062080A43DC075B089A46144370E63A0093
:1009A0004C46203AD440A446202F07D04022484647
:1009B000D21B904002004046104380464046421EF3
:1009C000904162460400144324E619430C00631E60
:1009D0009C4143461C1BA0459B4149465B42CB1AA8
:1009E0009A46654616001BE60C001C4300D1C7E082
:1009F0007C1E012F00D1F9E0914EB7425CD0270058
:100A000040E720224C464046D21B9440F840044325
:100A100040469040421E90414A46FA40044389189D
:100A2000EEE6874CA24200D1F9E6181898429B41A5
:100A300049445B42CB18DC0740085B089A46160025
:100A40000443C6E64246D41AA04580414B46404284
:100A5000591A0B1A9A466546EAE54B464A46C008BB
:100A60005B0765460343D108BDE6002A00D08EE04F
:100A70004B46034317D1802100250903DAE64A07D4
:100A8000DB081343C908D1E61C1A4A46A3429B411E
:100A9000891A5B42CB1A9A460126C1E54A07DB0850
:100AA0001343C9089FE64346D8084B464A465B07AE
:100AB00065460343D108B9E64346D8084B464A4643
:100AC0005B070343D108B1E619430C00631E9C4148
:100AD000EBE63C000D00203CE540202F03D04024F5
:100AE000E41BA1400B431C00631E9C412C4370E798
:100AF000002AE1D04A460243C1D04A07DB0813432B
:100B00008022C9081203114208D04846C408144282
:100B100004D143462100DB08420713435A0FDB0090
:100B20005207DB08134381E64B46034300D114E729
:100B30004B464A46C0085B0765460343D10855E665
:100B4000C41AA04580414B464042591A0B1A9A4696
:100B50006546012664E51C1A4A46A34280418A1A6A
:100B60004042121A9246120249D54246D41AA04572
:100B700080414B464042591A0B1A9A4665467FE51A
:100B80004B464A46C0085B070343D1082BE64A465A
:100B9000DB08024338D14A071343C90846E64B46EF
:100BA0004A46C0085B070343D1081FE61C189C4255
:100BB0009B4149448A465B429A4453461B0200D4F7
:100BC00007E652461F4B01261A40924601E63C00BA
:100BD0000E00203CE640202F03D04024E41BA1401F
:100BE0000B431C00631E9C4134435EE64344834236
:100BF000804149448A4640421C008244BCE6534638
:100C0000234300D1A9E6E4E54A0713438022C9083B
:100C10001203114209D04846C408144205D1434684
:100C200065462100DB08420713435A0FDB00DB084F
:100C300052071343FAE50023014A1C0040E5C04671
:100C4000FF070000FFFF7FFFF0B557464E464546C1
:100C5000DE46E0B50C031F004B00814692460500BE
:100C600085B0240B5B0DCE0F002B00D152E1D24A90
:100C7000934200D16EE1420FE4001443802212043B
:100C800022439046CD4AC50093469B440023994693
:100C900000933C037B005046240B5B0DFF0F002BA1
:100CA00000D11AE1C44A934200D15EE1420FE40050
:100CB0002243802424041443C04AC10094465A4667
:100CC0006344D31A9B46002033007B409A464B4630
:100CD0000F2B27D8BA4A9B00D3589F46B246009B99
:100CE000022B16D0032B00D187E2012B00D0D5E0D8
:100CF0000023002200251B0513435246D20713434D
:100D00002800190005B0F0BCBB46B246A946A04673
:100D1000F0BD00220025A84BEDE7BA46A0460D0025
:100D20000090DCE7444500D2C4E100D1BFE10123DB
:100D30005B429C462E0040460025E34423020C0EF5
:100D40001C431B0C994623040A021F0C49460092BF
:100D50000197FFF77BFA02007A430B04310C8046BF
:100D600019438A4207D901235B429C460919E04492
:100D70008C4200D801E2881A4946FFF767FA019AC7
:100D8000360442430904360C03000E43B24204D930
:100D90003619013BB44200D8E9E1B01A4246009E40
:100DA00012041A43330C1F00110C904602931304D3
:100DB0003204160C32001B0C5A4303967B434E43FD
:100DC0007943170CBC469B1963449E4203D9802685
:100DD0007602B44661441E0C711816041B04360CCE
:100DE0009E19884202D312D1B54210D243465A1EF0
:100DF000009B9C4665441F009D429B415B421B1922
:100E0000C018844200D29EE100D199E19046AE1B09
:100E1000B542AD41401A6D42401B844200D1D2E13F
:100E20004946FFF713FA019A0B044243310C0500BF
:100E300019438A4200D96CE1881A4946FFF706FA3D
:100E4000019A360442430904360C03000E43B242B1
:100E500000D953E10398B61A02002D041D43029FE6
:100E60002B041B0C5A437B439C46290C4843130C10
:100E7000844463447943984203D9802040028446E5
:100E80006144180C12041B04120C40189B18864273
:100E900000D200E100D1FBE001231D43494B5B443C
:100EA000002B00DCAAE06A0700D03DE1E9084246D9
:100EB000D20106D54246444B1A4080239046DB00BF
:100EC0005B44424A934200DD23E742465B055507F7
:100ED00052020D43120B5B0D0DE75146214300D129
:100EE0007CE0002C00D1FBE0200001F01BFA0200A6
:100EF0000B3A1D239B1A52460100DA40534608392B
:100F00008B408C4019001443314B58449B4683441A
:100F10000020D9E603002343984644D0002C00D19A
:100F2000CFE0200001F0FEF9010002000B391D2383
:100F30005B1A49461000D940083884400B004D46E2
:100F4000234398468540234B9B1A9B460023994692
:100F500000939EE60200224390461DD108229B4644
:100F6000022300259146009393E65146214309D17F
:100F700002234A461A43184B91469C4600240220FD
:100F8000E344A1E603234A461A43134B91469C4689
:100F900051460320E34497E60C229B460323A046D8
:100FA0009146009375E60423994600239B4601333E
:100FB000002500936DE6C046FF07000001FCFFFF1F
:100FC0009CE40008FF030000FFFFFFFEFE07000097
:100FD000F30300000DFCFFFF01F8FFFF4A46012369
:100FE0001A439146002401206EE6002380229A468F
:100FF0000025884B12037EE601256D420122D21A9C
:10100000382A00DD74E61F2A00DCBDE01F214942BA
:10101000CB1A4146D9400B00202A04D041467E4AD3
:101020005A4491400D4329004A1E91411943072318
:101030001D0000220D400B4200D1D0E00F22002302
:101040000A40042A00D1C7E00A1D8A428941494268
:101050005B1811001A0200D4BEE001230022002513
:1010600049E6802243461203134208D0144206D1B7
:1010700022431203BA460D00664B120B3BE6802258
:10108000434612031A431203B246624B120B32E676
:10109000002B00D102E7A6196A1EA64200D289E001
:1010A000864200D29FE000D1AFE01500F4E6A942ED
:1010B00000D93CE64346DE0758086B081E43ED079F
:1010C0003CE601F02FF901000200153120321C2905
:1010D00000DC2CE74B46083883400025984632E771
:1010E00001F020F903001A00153220301C2A00DC20
:1010F000FFE65446083B00219C4005E73619013BBA
:10110000B44200D9A6E6B24200D8A3E6831E36193F
:10111000A0E60919013D8C4200D98DE68A4200D82B
:101120008AE6851E091987E60F222A40042A00D183
:10113000BCE6291DA942AD416D42C908A844B6E6E6
:10114000AF4200D962E6814204D800D05EE6AE42EA
:1011500000D85BE602235B429C46009BE0449C4631
:1011600065449D429B415B421B19C0184FE6B24249
:1011700000D812E6831E36190FE68A4200D8FAE537
:10118000831E98460919F6E5244B28005B44414626
:101190009D409940D0406B1E9D41434601432943E9
:1011A000D3404A0700D155E70F220A40042A00D055
:1011B0004AE74FE71500864200D06DE6009A9A4252
:1011C00000D069E66AE6164B5B44002B00DC13E7AF
:1011D00001250021A8446AE65D075B021A0BC908D5
:1011E00000230D4387E50099023D4A008A42BF4132
:1011F0007F423F19F6190092DDE780224346120331
:101200001A431203034B120B75E500999942EAD376
:101210001500D3E7FF0700003E0400001E04000095
:10122000FF030000F0B54E464546DE465746904661
:10123000E0B517001A03120B0500844619480E0387
:101240004C0091465A00DB0F9B46360B640DC90FCC
:10125000520D844219D0824210D0012094420ED106
:101260004E450CD10120C44509D1594517D0002C59
:1012700005D130002843431E984100E00120F0BC16
:10128000BB46B246A946A046F0BD330001202B4321
:10129000F5D1A242F3D14B463B43F0D1E2E7002027
:1012A000EDE7C046FF070000F0B54746CE46040014
:1012B000180016001B031B0B2D4D4A00994680B5E4
:1012C00043000F03A446B0463F0B520DC90F5B0D00
:1012D000C00FAA4221D0AB4213D0002A22D13C43F6
:1012E000002B02D14D462E4322D0002C10D081423B
:1012F00022D00220013908400138C0BCB946B046AE
:10130000F0BD4D462E4329D1002AF0D13C43EED109
:101310000028F2D101204042EFE73D0025431DD1D6
:101320009342EED0002BE2D14C462643DFD1E0E7DA
:101330000020002CE1D0DCE79A420ADCE8DB4F45D4
:10134000D7D80ED000204F45D7D20029E2D00800D0
:10135000D3E74342584140000138CEE702204042E3
:10136000CBE7C445C5D80020C445C6D2EDE7C0468A
:10137000FF070000F0B54746CE46040018001600EF
:101380001B031B0B2C4D4A00994680B543000F03ED
:10139000A446B0463F0B520DC90F5B0DC00FAA42C9
:1013A0000DD0AB4210D0002A27D13C43002B11D1E5
:1013B0004D462E430ED10020002C15D00EE03D00EE
:1013C000254310D1934218D14D462E430BD1002A0C
:1013D00002D13C43002C0BD0814214D002200139B1
:1013E0000840013800E00220C0BCB946B046F0BD5C
:1013F0000028F9D101204042F6E7002BECD14C4601
:101400002643E9D1EAE79A4204DD434258414000CD
:101410000138E9E79A42EBDB4F45DFD806D00020E0
:101420004F45E1D20029E5D00800DDE7C445D5D815
:101430000020C445D8D2F5E7FF070000F0B54546C7
:10144000DE4657464E46E0B51F000B031B0B9B467E
:101450004D00CB0F04009146984687B06D0D00D12A
:10146000CDE1CE4B9D4200D1E9E15A46430FD20077
:101470001343802212041A43C3009A46C84B934672
:101480009C4600230026654400933C037B004846AD
:10149000240B5B0DFF0F002B00D189E1BF4A934263
:1014A00019D0420FE4002243802424041443BC4A90
:1014B00000219446424663445B190193019B7A40A4
:1014C0000133C000D2B202930A2E1CDD3A000B2E6B
:1014D0005ED0474656E04946B04B2143EB18019396
:1014E00000292AD18020022200012B0084461643C5
:1014F000424663447A40D2B202930A2E00DD31E2C2
:10150000002000240221022E26DC013E012E52D8AA
:1015100002294CD0012900D018E100230024002525
:101520001B052343D20713432800190007B0F0BC62
:10153000BB46B246A946A046F0BD80210322090160
:101540002B008C461643424663447A40D2B2029343
:101550000A2E00DD28E203210125B540AC46A6266F
:101560006346F600354033420BD19026B600334235
:1015700018D1B93EFF3E1E421DD0A34682460091BF
:1015800000E0170000993A00022910D05C4650464E
:101590000329BFD180231B031C43240305007F4B79
:1015A000240BBDE7802400227C4B2403B8E70024F1
:1015B00000257A4BB4E753461E04360C1F0C33004B
:1015C000010C0004000C4343984603007B439946FA
:1015D00033004B439C4643460D001B0C9A467D430B
:1015E000CC44D4440095E14504D980235B0299465C
:1015F0004D44009563461B0C1D0063461B049C462E
:1016000043461B041B0C9846634643440393230C38
:10161000984633002404240C63439C4623007B43F8
:10162000994643465E435F434E446346B2461E0CB2
:101630005644B14503D980235B0299464F44330C8D
:1016400099463B004B4405936346AC461F043F0C50
:101650003604F619B444634604935B461B0C9C465F
:101660005B461F043F0C3B0043439946634643439C
:101670009A464B4660461B0C9B464843794351446F
:1016800059448A4503D980235B029A4650440B0C87
:101690009A464B461B041B0C99463B0063430904C6
:1016A00045464944994663465C436B439C464B46DA
:1016B0001B0C98466F433F1947445044BC4203D922
:1016C00080235B029846C444049B009D9846454491
:1016D000B542B641734298464B461E04059B3C04F6
:1016E0009946360CA4194C44A14683466E18C14451
:1016F0008E428941CB445D4649426D189C42A441CB
:10170000C1459B41834580418D4289415B42644292
:101710001C434042039B4942014370023F0C184363
:10172000E419471EB84164186444F60D6102304361
:10173000EC0D6E020C433043C90100D4F1E00121ED
:10174000430801400B43E007184364081549029B16
:101750008C466344002B00DC97E0410709D00F2141
:101760000140042905D0011D8142804140422418D6
:101770000800E10106D58021C9008C460A4B1C40B7
:10178000029B634409498B4200DD10E76107C508ED
:1017900064025B050D43240B5B0DC1E6FF070000EF
:1017A00001FCFFFFFF030000FFFFFFFEFE0700003C
:1017B0004B46234359D0002C00D1A3E0200000F079
:1017C000B1FD010003000B391D22521A49461800D1
:1017D000D1404A4608388240844010000C43744A85
:1017E000EB1A9446424663440193019B7A400133CD
:1017F0000021D2B202930A2E00DD67E683E65B4643
:1018000003439A462AD05B46002B6DD0584600F021
:1018100089FD010003000B391D22521A2100180016
:101820005D46D140083885400A0084402A439346EB
:10183000A2465F4D0026ED1A0023009325E65B4685
:1018400003439A4605D100239B46023308260093A2
:101850001BE6032382460C26009316E600239B46D4
:1018600001330426002500930FE64246013301951B
:101870001E43019B7A400133002400200121D2B293
:1018800002930A2E00DD21E63DE60121C91A38291E
:1018900000DD42E61F2947DD1F2625007642F31AA8
:1018A000DD402B00202905D04249029D8C4665442D
:1018B000AC402043411E8841184307231D000024EB
:1018C000054003424AD00F2300240340042B42D09A
:1018D000031D8342804140422418180023023AD558
:1018E0000123002400251BE600F01CFD010003007D
:1018F000153120331C298FDD0838002284409246A0
:10190000A34696E700F00EFD0100030015312033D9
:101910001C2900DC58E702004C46083A002094409D
:101920005DE7019B029311E7234B26009C460300D1
:10193000029DCB406544AE401E430300AB40581EA1
:10194000834130001843CC404307C7D00F230340E6
:10195000042BBDD1C2E765076402240BC008002335
:101960000543DDE5002502230F2E0CD180245B46C4
:10197000240323420ED021420CD10C4324033A000D
:101980000E4B240BCCE50B2E00D0A2E58B46AA46CD
:101990000093F7E580245B4624031C43240342465E
:1019A0005546064B240BBBE54D4621000323DBE7E0
:1019B0000DFCFFFF3E0400001E040000FF070000B6
:1019C000F0B557464E464546DE46E0B50D000400EC
:1019D000190010002B035B0A620F1A43E3000C038B
:1019E000640A470F2743D04C6E00914683B04A00EB
:1019F000C0009846A246760DED0F520DC90F01901A
:101A0000A24200D1B9E0012461408B468D4200D151
:101A10008DE0B41AA446002C00DCB7E0002A00D107
:101A2000CBE0C14A964200D186E1802212041743DE
:101A30006246382A00DDA4E11F2A00DD1DE261466E
:101A400020223C00521A010090409440421E9041D6
:101A50006246A0466446D7404A46E1404446D21B0F
:101A600091460C4304431C1BA34292414B465242F5
:101A70009B1A9A4653461B0200D42BE153465A0246
:101A8000530A9A465346002B00D166E1504600F0B7
:101A900049FC0300083B20222000D21A5146D040C6
:101AA000994002009C400A439E4200DD64E19B1B7A
:101AB000591C1F2900DDFEE02023100026005B1AC0
:101AC0009C409840CE40CA40631E9C4130439246A1
:101AD00000260443630709D00F232340042B05D0BD
:101AE000231DA342A4416442A2441C0053461B028E
:101AF00000D4F2E08C4B01369E4200D10FE15346F8
:101B00008A49E4080B4019005B07234372054C0225
:101B1000240B520D12052243ED072A431800110031
:101B200003B0F0BCBB46B246A946A046F0BDB41A0D
:101B3000A446002C59DD002A00D1B0E0564500D162
:101B4000FAE08022120417436246382A00DDD4E00E
:101B50001F2A00DCC0E13900203AD1406246202A29
:101B600006D064464022121B3C009440044301947A
:101B7000019C621E94410C43C3E03C0004432BD003
:101B80008B468D422ED06A4CA446B4446446002C49
:101B90005FD0941BA446002E00D020E14C461C438D
:101BA00000D1C7E161464C1E012900D123E25E4D00
:101BB000AC4500D1D8E1A4461AE13A00024300D175
:101BC000E4E02200013A012C00D1C3E156498C42E5
:101BD00000D1B1E094462BE7012461408B468D4251
:101BE00000D016E752498C46B4446446002C00D11C
:101BF000D3E0911B8C46002E00D15EE14A498A4217
:101C000000D1BEE180214C4609040C43A146614647
:101C1000382900DDBAE11F2900DD27E22024641AFB
:101C20004946A1401E0088466146A340CE40414639
:101C30005C1EA341314319430C0063464946D94019
:101C40007F18241884429B415B429A461600BA448E
:101C50005DE0384C721C224200D0DFE04A461A4355
:101C6000002E00D05CE1002A00D1CFE13A0002430F
:101C700000D17FE11C1A4A46A3428941D21B494246
:101C8000521A9246120200D40AE2C41AA0428041BB
:101C90004B464042FF1A3B1A9A465D461AE73A0005
:101CA000024373D02200013A012C00D1CBE054450D
:101CB00042D0944648E710001F3BD840202903D06B
:101CC00040235B1A9A401443631E9C410023002664
:101CD0009A460443630700D0FEE65246E3085207E3
:101CE00013435246B446D2080F498C452AD01203FA
:101CF000140B62465205520D0CE73C000443621E71
:101D00009441E4189C42924152424A4492465346BE
:101D10001B02DFD5044B01369E4200D0A0E032000A
:101D200000240023F6E6C046FF070000FFFF7FFF08
:101D300001F8FFFFFE070000DB084A465207134385
:101D40004A46D2081900114300D1B5E1802424038A
:101D500014432403D54A240BDCE6200000F0E2FA09
:101D6000030018331F2B00DC95E622000838824060
:101D700000249E4200DC9AE6F61ACD4B1A409246A9
:101D8000A8E63C000443621E94416CE64A46DB0828
:101D9000520713434A46D208A6E7C64C721C224299
:101DA00000D0ACE04A461A43002E00D005E1002ADC
:101DB00000D156E13A00024300D1DBE01C189C42FE
:101DC0009B414F44BA465B429A4453461B0200D49F
:101DD00080E75246B64B01261A4092467AE7B34C4A
:101DE000A24200D1C0E080244D4624042543A946E8
:101DF0006446382C53DC61461F2C00DDCDE02025E5
:101E00001E002D1B4C46AB40AC40CE405D1EAB418E
:101E1000344323434C46CC403F1B45E04A461C1A02
:101E2000D11BA3429241524292460A005146521A95
:101E30009246120200D583E05346234300D021E6A8
:101E40000022002553E71C189C429B414F44BA4690
:101E50005B429A44534601261B0200D43AE702260D
:101E60005246934B01211A401300214062080A4355
:101E7000DC075B089A4614432CE63900203AD1402F
:101E80006246202A06D064464022121B3C00944041
:101E900004430194019C621E94410C43E3E54946CE
:101EA00019430B005C1EA341C41AA0429B415B4234
:101EB000FB1A9A465D461600DCE54946194300D1F7
:101EC000AEE0614664460139012C00D1E0E0774C78
:101ED000A44556D08C469AE6614620223C00521A10
:101EE000944001009040A0466446421E90416246E4
:101EF000E1404446D7400C430443B94401E76B49F1
:101F00008A4200D10CE7181898429B414F445B422B
:101F1000FB18DC0740085B089A4616000443D9E624
:101F2000002A00D081E03B0003431DD18022002520
:101F300012030BE7C0087B075D460343FA08D3E6AC
:101F4000C41AA04280414B464042FF1A3B1A9A46AF
:101F50005D4697E51C1A4A46A3429B41D71B5B424C
:101F6000FB1A9A46012685E5C0087B075D460343B8
:101F7000FA08E7E64A46DB08520713434A46D20806
:101F8000B5E6C0087B070343FA08DBE64946194378
:101F90000B00591E8B411C0053E64D46203CE5408A
:101FA000202905D04024641A4946A1400B43984695
:101FB00043465C1EA3412B4376E7002AE1D03A005A
:101FC000DB08024300D1B8E64A4652078024134397
:101FD0004A462403D208224207D0FE08264204D1F2
:101FE0005D463200C3087F073B43590FDB004907BA
:101FF000DB080B43A6E6C41AA04280414B46404290
:10200000FF1A3B1A9A465D46012633E53B0003431F
:1020100000D115E7C0087B075D460343FA0866E672
:10202000C0087B070343FA085EE63A00DB08024378
:1020300000D182E64A465207802413434A462403CD
:10204000D208224207D0FE08264204D15D46320063
:10205000C3087F073B43590FDB00DB0849070B43ED
:1020600070E6C0087B070343FA0840E64C46203977
:10207000CC406146202906D066464021891B4E4649
:102080008E40334398464346591E8B411C43D8E546
:102090001C18844280414F44BA4640428244D9E6EB
:1020A0005346234300D1CBE614E6C046FF070000A9
:1020B000FFFF7FFFFE0700000023014A1C0029E507
:1020C000FF07000070B505000C481C0316005B00FC
:1020D0000A034900120B490D240B5B0D814208D005
:1020E000064A0020934203D120003043431E98410A
:1020F00070BD01202A43FBD1F2E7C046FF07000074
:102100000A0030B5134C530009030500090B0020E9
:102110005B0DD20FA34204DD0F48834202DD0F4B5B
:10212000D01830BD8020400301430D48C01A1F283D
:1021300008DD0C48C31AD9400B005842002AF0D1E0
:102140001800EEE7084CC540A446634499400B00D4
:102150002B43F2E7FE0300001D040000FFFFFF7F9A
:102160003304000013040000EDFBFFFF70B50028EE
:1021700016D0C317C5185D40C40F280000F0D2F870
:10218000114B1B1A0A2816DC02002E00153296404D
:102190000B22121AD5405B052D032D0B5B0D03E0BE
:1021A00000240023002500261B052B43E4072343BE
:1021B0003000190070BD0B3885405B052D030026EB
:1021C0002D0B5B0DF0E7C0461E04000010B5041E89
:1021D00010D000F0A7F80F4B1B1A0A2811DC0B22B5
:1021E0002100121AD14015300A035B058440120BFE
:1021F0005B0D01E0002300221B05134320001900A2
:1022000010BD22000B3882405B0512030024120B24
:102210005B0DF1E71E0400000200F0B54B000D035A
:10222000400F5B0DCC0F6D0A3A490543581CD7008F
:1022300008420AD038495918FE2916DDFF2000222D
:10224000C0051043E4072043F0BD002B06D13D43F9
:1022500026D005229201520AD8B2F1E72F43EDD0E1
:102260008022D203FF202A43EAE700291BDD9201E6
:10227000501E8241ED007F0F2A433A43530747D057
:102280000F231340042B00D004328023DB041340BF
:102290003ED0481CFE29D1D09201520AC0B2CFE7ED
:1022A00000200022CCE70A0017322FDB80263604FC
:1022B0002E431E256D1A1F2D11DD02225242521A85
:1022C0003100D140202D04D0144A944663449E40EE
:1022D00037433A00531E9A410A430021CEE7104A81
:1022E00038009446634498403A00411E88419E401D
:1022F000EA403043024300215307C1D1802113003B
:10230000C90401200B400A42C6D1A3E70023A0E77D
:102310000B009FE7FE07000080FCFFFFA2FCFFFF11
:1023200082FCFFFF1C2101231B04984201D3000CF7
:1023300010391B0A984201D3000A08391B09984238
:1023400001D30009043902A2105C40187047C0464E
:10235000040302020101010100000000000000006E
:1023600080B500AF01F056F900F052F800F0E4FA41
:1023700000F0B4FA00F096F800F026F900F064F9E5
:1023800000F0A0F900F0DAF900F026FA00F072FA95
:1023900005F04AF8134B1A000221102005F03EF90F
:1023A0000200114B1A60114A114B0021180005F070
:1023B00083F802000F4B1A600F4A104B00211800DF
:1023C00005F07AF802000E4B1A600E4A0E4B0021FF
:1023D000180005F071F802000C4B1A6005F046F881
:1023E000FEE7C04648E5000894060020DCE400084B
:1023F000592B00088806002000E50008792B00080A
:102400008C06002024E50008892B00089006002097
:1024100090B593B000AF14243B19180034231A0070
:10242000002108F0CDFA3B1D180010231A000021EE
:1024300008F0C6FA80239B00180002F0EBFB3B1962
:1024400002221A603B1980225200DA603B190022F6
:102450001A613B1940225A613B190022DA613B198B
:10246000180002F023FC031E01D000F0CFFB3B1D3F
:1024700007221A603B1D00225A603B1D00229A6011
:102480003B1DA022D201DA603B1D0021180002F0A2
:102490001DFF031E01D000F0B9FBC046BD4613B0BE
:1024A00090BD000080B584B000AF3B1D18000C2328
:1024B0001A00002108F084FA3E4B3F4A1A603D4B57
:1024C0008022D2055A603B4B00229A60394B002291
:1024D000DA60384B802292031A61364B04225A612B
:1024E000344B00221A76334B00225A76314B0022AD
:1024F0009A76304B0422DA612E4B20220021995427
:102500002C4B00225A622B4B00229A62294B2C2220
:1025100000219954274B00221A63264B00225A634C
:10252000244B00229A63234B3C2200219954214BD7
:102530000022DA641F4B180001F0E0F9031E01D0FD
:1025400000F064FB3B1D1D4A1A603B1D04225A60CB
:102550003B1D00229A603A1D164B1100180001F035
:1025600075FB031E01D000F051FB3B1D144A1A609D
:102570003B1D08225A603A1D0E4B1100180001F055
:1025800065FB031E01D000F041FB3B1D0D4A1A60A4
:102590003B1D0C225A603A1D064B1100180001F039
:1025A00055FB031E01D000F031FBC046BD4604B010
:1025B00080BDC046F4010020002401400200000458
:1025C000000200240008002C80B500AF1B4B1C4A01
:1025D0001A601A4B1B4A5A60184B00229A60174B1C
:1025E0000122DA60154B00221A61144B00225A6155
:1025F000124B00229A61114B0022DA610F4B00222C
:102600001A620E4B180002F0D7F9031E01D000F039
:10261000FDFA0A4B0021180002F064FA031E01D0F3
:1026200000F0F4FA054B0021180002F0A7FA031E8F
:1026300001D000F0EBFAC046BD4680BDB4020020D8
:1026400000540040140E000080B500AF1B4B1C4A24
:102650001A601A4B822252005A60184B00229A606C
:10266000164BE022D200DA60144B00221A61134BA1
:1026700000225A61114B802292009A610F4B08226E
:10268000DA610E4B00221A620C4B00225A620B4B8D
:1026900000229A62094B0722DA62084B00221A6371
:1026A000064B08225A63054B180003F017F9031E66
:1026B00001D000F0ABFAC046BD4680BD0803002043
:1026C0000030014080B584B000AF3B1D18000C23E2
:1026D0001A00002108F074F9154B164A1A60144BC1
:1026E000154A5A60124B00229A60114BF422FF32B5
:1026F000DA600F4B00229A610D4B180003F0A6F927
:10270000031E01D000F082FA3B1D00221A603B1D1F
:1027100000229A603A1D064B1100180003F00CFCD1
:10272000031E01D000F072FAC046BD4604B080BD61
:102730006C030020001000403F1F000080B500AF78
:10274000234B244A1A60224B962292015A60204B56
:1027500000229A601E4B0022DA601D4B00221A6193
:102760001B4B0C225A611A4B00229A61184B002213
:10277000DA61174B00221A62154B00225A62144B81
:1027800000229A62124B180003F056FC031E01D07F
:1027900000F03CFA0E4B0021180004F0DBFC031E95
:1027A00001D000F033FA0A4B0021180004F012FDAA
:1027B000031E01D000F02AFA054B180004F090FC2B
:1027C000031E01D000F022FAC046BD4680BDC046BF
:1027D000B80300200038014080B500AF234B244AE5
:1027E0001A60224B962292015A60204B00229A6076
:1027F0001E4B0022DA601D4B00221A611B4B0C227B
:102800005A611A4B00229A61184B0022DA61174B69
:1028100000221A62154B00225A62144B00229A625F
:10282000124B180003F008FC031E01D000F0EEF973
:102830000E4B0021180004F08DFC031E01D000F0A7
:10284000E5F90A4B0021180004F0C4FC031E01D076
:1028500000F0DCF9054B180004F042FC031E01D027
:1028600000F0D4F9C046BD4680BDC0464C040020EF
:102870000044004080B500AF164B174A1A60154B54
:10288000962292015A60134B00229A60114B00224B
:10289000DA60104B00221A610E4B0C225A610D4B6C
:1028A00000229A610B4B0022DA610A4B00221A6265
:1028B000084B00225A62074B00229A62054B18000F
:1028C00003F0BAFB031E01D000F0A0F9C046BD46DC
:1028D00080BDC046E00400200048004080B582B0C2
:1028E00000AF144B9A6B134B01210A439A63114BAF
:1028F0009B6B012213407B607B680022032109202F
:1029000001F004FC092001F016FC002203210A203A
:1029100001F0FCFB0A2001F00EFC002203210B2039
:1029200001F0F4FB0B2001F006FCC046BD4602B0EE
:1029300080BDC0460010024090B58BB000AF14249B
:102940003B19180014231A00002108F039F8754BC0
:102950005A6B744B04210A435A63724B5B6B04221B
:1029600013403B613B696F4B5A6B6E4B20210A430E
:102970005A636C4B5B6B20221340FB60FB68694B16
:102980005A6B684B01210A435A63664B5B6B012209
:102990001340BB60BB68634B5A6B624B02210A4316
:1029A0005A63604B5B6B022213407B607B685D4B1C
:1029B0005A6B5C4B08210A435A635A4B5B6B0822E3
:1029C00013403B603B685849A023DB0500221800F8
:1029D00001F0D4FF554B0022C021180001F0CEFFBA
:1029E000534B00220721180001F0C8FF8E239B00E3
:1029F00050480022190001F0C1FF3B194A4A1A60F1
:102A00003B1901225A603B1900229A603B190022AF
:102A1000DA603A19A023DB051100180001F04AFE24
:102A200021007B18F222D2011A600C003B1900220F
:102A30005A603B1900229A603B193E4A1900100067
:102A400001F038FE21007B18802212021A600C006F
:102A50003B1900225A603B1901229A603B19354A02
:102A60001900100001F026FE3B19802252001A6066
:102A70003B1900225A603B1901229A603A19A0239F
:102A8000DB051100180001F015FE3B1980225201F0
:102A90001A603B1900225A603B1900229A603A19C9
:102AA000A023DB051100180001F004FE3B19C02231
:102AB0001A603B1901225A603B1900229A603B19A7
:102AC0000022DA603B19194A1900100001F0F2FDEA
:102AD0003B1907221A603B1901225A603B19002258
:102AE0009A603B190022DA603B19114A1900100064
:102AF00001F0E0FD21007B188E2292001A607B1805
:102B000001225A607B1800229A607B180022DA604A
:102B10007B18084A1900100001F0CCFDC046BD46E4
:102B20000BB090BD00100240108000000008005063
:102B3000000C00500004005080B582B000AF7860F7
:102B4000C046BD4602B080BD80B582B000AF78609F
:102B5000C046BD4602B080BD80B582B000AF78608F
:102B6000044B180000F02AF8FA23DB00180000F0EC
:102B70008DFDF5E77CE4000880B582B000AF786099
:102B8000012004F02FFDFBE780B582B000AF786034
:102B9000012004F027FDFBE780B582B000AF78602C
:102BA0007B681B68044A934201D100F053FDC04684
:102BB000BD4602B080BDC046002C014080B584B047
:102BC00000AF78600E4B1B680C221A627B681800FD
:102BD000FDF79AFA03009AB20A4B7968084803F0A5
:102BE00081FA0C217B18084A1A80791804480A23B4
:102BF000022203F077FAC046BD4604B080BDC0464D
:102C0000E0040020881300000D0A000080B500AF2A
:102C100072B6C046FEE7000080B582B000AF154B2B
:102C20001A6C144B01210A431A64124B1B6C0122CB
:102C300013407B607B680F4BDA6B0E4B802149059C
:102C40000A43DA630B4BDA6B80235B0513403B606E
:102C50003B6802235B4200220321180001F056FA70
:102C6000C023DB00180000F035FDC046BD4602B0B1
:102C700080BDC0460010024090B58BB000AF7860B8
:102C800014243B19180014231A00002107F098FEA1
:102C90007B681B683B4A93426FD13B4B1A6C3A4BA3
:102CA000802149030A431A64374B1A6C80235B0363
:102CB00013403B613B69344B5A6B334B01210A4350
:102CC0005A63314B5B6B01221340FB60FB682E4B58
:102CD0005A6B2D4B02210A435A632B4B5B6B02222A
:102CE0001340BB60BB683B1903221A603B190322E7
:102CF0005A603B1900229A603A19A023DB051100A3
:102D0000180001F0D7FC3B19204A1A603B19032236
:102D10005A603B1900229A603B191D4A19001000A5
:102D200001F0C8FC1B4B1C4A1A601A4B05225A6062
:102D3000184B00229A60174B0022DA60154B802254
:102D40001A61144B802292005A61124B80221201A8
:102D50009A61104B2022DA610E4B00221A620D4B51
:102D6000180001F0F9F9031E01D0FFF74FFF7B684F
:102D7000084A1A65074B7A689A62C046BD460BB08E
:102D800090BDC04600240140001002400204000033
:102D900000040050580200200800024090B591B095
:102DA00000AF78602C23FB18180014231A000021B0
:102DB00007F006FE10243B1918001C231A000021FE
:102DC00007F0FEFD7B681B68224A93423DD13B1908
:102DD00020221A603B190022DA603B19180002F029
:102DE00049FC031E01D0FFF711FF1B4B5A6B1A4B16
:102DF00002210A435A63184B5B6B02221340FB60AB
:102E0000FB682C217B18C0221A607B1812225A60A2
:102E10007B1801229A607B180022DA607B18062258
:102E20001A617B180D4A1900100001F043FC0A4B8F
:102E3000DA6B094B802189030A43DA63064BDA6BAC
:102E400080239B031340BB60BB68C046BD4611B0E6
:102E500090BDC046005400400010024000040050E5
:102E600090B58BB000AF786014243B191800142380
:102E70001A00002107F0A4FD7B681B681B4A9342DF
:102E800030D11B4B1A6C1A4B802149010A431A643A
:102E9000174B1A6C80235B0113403B613B69144B59
:102EA0005A6B134B01210A435A63114B5B6B01228E
:102EB0001340FB60FB6821007B18E0221A607B183E
:102EC00002225A607B1800229A607B180022DA6086
:102ED0007B1800221A617A18A023DB051100180064
:102EE00001F0E8FBC046BD460BB090BD003001408C
:102EF0000010024080B584B000AF78607B681B682A
:102F00000D4A934213D10D4BDA6B0C4B10210A433F
:102F1000DA630A4BDB6B10221340FB60FB68002274
:102F20000321112001F0F2F8112001F004F9C0464C
:102F3000BD4604B080BDC0460010004000100240F5
:102F400090B595B000AF78603C23FB1818001423AF
:102F50001A00002107F034FD20243B1918001C231F
:102F60001A00002107F02CFD7B681B68AB4A9342D6
:102F700072D13B1901221A603B1900225A603B1999
:102F8000180002F077FB031E01D0FFF73FFEA44BB1
:102F90001A6CA34B8021C9010A431A64A04B1A6C16
:102FA0008023DB011340FB61FB699D4B5A6B9C4BFB
:102FB00001210A435A639A4B5B6B01221340BB61A8
:102FC000BB693C217B18C022D2001A607B18022208
:102FD0005A607B1800229A607B180022DA607B1806
:102FE00001221A617A18A023DB051100180001F0F4
:102FF00061FB8C4B8C4A1A608A4B32225A60894B97
:1030000000229A60874B0022DA60864B80221A6188
:10301000844B00225A61834B00229A61814B00222B
:10302000DA61804B00221A627E4B180001F094F89E
:10303000031E01D0FFF7EAFD7B688021794A5A50D0
:10304000784B7A689A62002203211B2001F05EF817
:103050001B2001F070F8DDE07B681B68734A934227
:1030600072D120217B1802221A607B1800229A60FC
:103070007B18180002F0FEFA031E01D0FFF7C6FD10
:10308000674BDA6B664B802189020A43DA63644B33
:10309000DA6B80239B0213407B617B69604B5A6B28
:1030A0005F4B01210A435A635D4B5B6B0122134066
:1030B0003B613B693C217B180C221A607B18022281
:1030C0005A607B1800229A607B180022DA607B1815
:1030D00001221A617A18A023DB051100180001F003
:1030E000E9FA534B534A1A60514B34225A60504B01
:1030F00000229A604E4B0022DA604D4B80221A610A
:103100004B4B00225A614A4B00229A61484B0022E5
:10311000DA61474B00221A62454B180001F01CF897
:10312000031E01D0FFF772FD7B688021404A5A5090
:103130003F4B7A689A62002203211C2000F0E6FFD0
:103140001C2000F0F8FF65E07B681B683A4A934258
:1031500060D1334BDA6B324B8021C9020A43DA6308
:103160002F4BDA6B8023DB021340FB60FB682C4B98
:103170005A6B2B4B02210A435A63294B5B6B022289
:103180001340BB60BB683C217B1805221A607B188A
:1031900002225A607B1800229A607B180022DA60B3
:1031A0007B1804221A617B18244A1900100001F0D0
:1031B00081FA234B234A1A60214B37225A60204B55
:1031C00010229A601E4B0022DA601D4B80221A6189
:1031D0001B4B00225A611A4B00229A61184B0022A5
:1031E000DA61174B00221A62154B180000F0B4FF89
:1031F000031E01D0FFF70AFD7B68114ADA67104B06
:103200007A689A62002203211D2000F07FFF1D20B2
:1032100000F091FFC046BD4615B090BD003801409A
:1032200000100240740500201C00024000440040D1
:10323000D00500203000024000480040000400504B
:103240002C06002044000240B0B58CB000AF78607E
:103250002B23FB1800221A70384B1A6C374B802135
:1032600009010A431A64354B1A6C80231B01134071
:10327000BB60BB680C23FA1810243B19110018001E
:1032800002F0CEF93B19DB687B627B6A002B04D12C
:1032900002F0B0F90300FB6204E002F0ABF90300B6
:1032A0005B00FB62FB6A26491800FCF749FF03003C
:1032B000013B3B62234B244A1A60224B234ADA60CB
:1032C000204B3A6A5A601F4B00221A611D4B0022A4
:1032D0009A601C4B00229A612B257C19194B18000F
:1032E00002F0B4FB030023707B191B78002B1ED166
:1032F0007C19144B180002F001FC030023707B19A9
:103300001B78002B13D10D2000F015FF7B68032BD9
:1033100009D87B68002219000D2000F0F7FE0C4B45
:103320007A681A6003E02B23FB1801221A702B2302
:10333000FB181B781800BD460CB0B0BD0010024051
:1033400040420F0098060020002C0140E7030000D7
:103350000400002080B500AFFEE780B500AFFEE7B7
:1033600080B500AF034B180001F04CF8C046BD46D5
:1033700080BDC0465802002080B500AF054B180044
:1033800001F040F8044B180001F03CF8C046BD467F
:1033900080BDC04674050020D005002080B500AF78
:1033A000054B180001F02EF8044B180001F02CF921
:1033B000C046BD4680BDC0462C06002058020020F5
:1033C00080B500AF034B180002F0EEFBC046BD46CF
:1033D00080BDC0469806002080B500AF034B1800A2
:1033E00002F0E2FBC046BD4680BDC0466C03002033
:1033F00080B500AF034B180002F010FFC046BD4679
:1034000080BDC046B803002080B500AF034B180054
:1034100002F004FFC046BD4680BDC0464C040020FB
:1034200080B500AF034B180002F0F8FEC046BD4661
:1034300080BDC046E004002080B500AF0123180025
:10344000BD4680BD80B582B000AF7860396007F0BE
:103450006FFB030016221A6001235B421800BD4671
:1034600002B080BD80B582B000AF786001235A42BF
:103470007B6811001800FFF7E5FFFEE780B586B016
:1034800000AFF860B9607A6000237B610AE000E079
:1034900000BF0100BB685A1CBA60CAB21A707B69CF
:1034A00001337B617A697B689A42F0DB7B681800A4
:1034B000BD4606B080BD80B586B000AFF860B9608B
:1034C0007A6000237B6109E0BB685A1CBA601B78F4
:1034D000180000E000BF7B6901337B617A697B687B
:1034E0009A42F1DB7B681800BD4606B080BD80B50E
:1034F00082B000AF786001235B421800BD4602B085
:1035000080BD80B582B000AF786039603B688022B2
:1035100092015A6000231800BD4602B080BD80B5FC
:1035200082B000AF786001231800BD4602B080BDB4
:1035300080B584B000AFF860B9607A6000231800ED
:10354000BD4604B080BD000080B586B000AF786095
:10355000144A154BD31A7B617B693B61134B1B6883
:10356000002B02D1114B124A1A60104B1A687B686B
:10357000D3183A699A4207D207F0DAFA03000C220C
:103580001A6001235B4209E0084B1B68FB60074B94
:103590001A687B68D218054B1A60FB681800BD4694
:1035A00006B080BD0090002000040000E40600206A
:1035B0001822002080B500AFC046BD4680BD000087
:1035C0000D488546FFF7F6FF0C480D490D4A0023CC
:1035D00002E0D458C4500433C4188C42F9D30A4AC8
:1035E0000A4C002301E013600432A242FBD307F02F
:1035F000A5FAFEF7B5FEFEE70090002000000020CF
:10360000D801002040EA0008D8010020182200203C
:10361000FEE7000080B582B000AFFB1D00221A70EB
:103620000B4B1A680A4B802149000A431A60032099
:10363000FFF70AFE031E03D0FB1D01221A7001E0F2
:10364000FFF7EAFAFB1D1B781800BD4602B080BDEB
:103650000020024080B500AF054B1B781A00054BD7
:103660001B68D218034B1A60C046BD4680BDC046D9
:1036700008000020E806002080B500AF024B1B6860
:103680001800BD4680BDC046E806002080B584B065
:1036900000AF7860FFF7F0FF0300BB607B68FB6062
:1036A000FB68013305D00A4B1B781A00FB689B1896
:1036B000FB60C046FFF7E0FF0200BB68D31AFA6860
:1036C0009A42F7D8C046C046BD4604B080BDC04649
:1036D0000800002080B582B000AF7860064B1B6800
:1036E000064A13401900044B7A680A431A60C04620
:1036F000BD4602B080BDC04600000140FFF9FFFF9B
:1037000080B582B000AF786039607B681B68054A7D
:103710001A403B681A437B681A60C046BD4602B037
:1037200080BDC046FFFF3FFE80B582B000AF78602D
:103730007B681A68E0235B0413401800BD4602B0A2
:1037400080BD80B584B000AFF860B9607A60FB6876
:103750005B69BA6804210A40072191400A00D243FC
:103760001A40BB6804210B40796899400B001A434A
:10377000FB685A61C046BD4604B080BD80B582B0CA
:1037800000AF786039607B685B693A6804210A4061
:10379000072191400A001A403B6804210B40DA409F
:1037A00013001800BD4602B080BD80B584B000AFE4
:1037B000F860B9607A60FB689B6ABA681F210A40AA
:1037C0000F2191400A00D2431A407B689B0E0F21C3
:1037D0001940BB681F20034099400B001A43FB6847
:1037E0009A62C046BD4604B080BD80B582B000AFCD
:1037F000786039607B689A6A3B685B035B0B1A43AD
:103800007B689A62C046BD4602B080BD80B582B07A
:1038100000AF786039607B689B6A3A685203520B4C
:10382000D2431A407B689A62C046BD4602B080BD52
:1038300080B584B000AFF860B9607A60FB685B69FE
:10384000BA681202D2431A40BB681B0279680B4067
:1038500004490B401A43FB685A61C046BD4604B098
:1038600080BDC04600FFFF0780B582B000AF786022
:103870007B689B68054A1340802252051A437B6887
:103880009A60C046BD4602B080BDC046E8FFFF6FEB
:1038900080B582B000AF78607B689A6880235B0552
:1038A0001A4080235B059A4201D1012300E00023E6
:1038B0001800BD4602B080BD80B582B000AF786010
:1038C0007B689B6801221340012B01D1012300E09A
:1038D00000231800BD4602B080BD80B582B000AFA5
:1038E00078607B689B6804221340042B01D101237C
:1038F00000E000231800BD4602B080BD80B588B04E
:1039000000AF78601F23FB1800221A700023BB61F0
:1039100000237B610023FB607B68002B01D1012326
:103920007FE17B689B6D002B0AD17B681800FFF755
:10393000A3F97B680022DA657B6854220021995440
:103940007B681B681800FFF7A3FF031E15D17B6877
:103950001B681800FFF788FFB44B1B68B4491800B8
:10396000FCF7EEFB030001335B00FB6002E0FB6849
:10397000013BFB60FB68002BF9D17B681B681800DA
:10398000FFF786FF031E0FD17B689B6D10221A4341
:103990007B689A657B68DB6D01221A437B68DA6578
:1039A0001F23FB1801221A707B681B681800FFF7A1
:1039B00094FF03003B617B689B6D1022134000D095
:1039C00022E13B69002B00D01EE17B689B6D994A88
:1039D000134002221A437B689A657B681B681800B3
:1039E000FFF76AFF031E00D0ADE07B689A687B6832
:1039F0001B7E9B031A437B685B7EDB031A437B6859
:103A00009B7E5B031A437B681B6B002B02D08023D9
:103A10005B0100E000231A437B68DB681A437B6884
:103A20001B69002B04DA7B681B695B005B0801E003
:103A300080239B031A437B682C215B5C5B00134350
:103A4000BA691343BB617B6820229B5C012B15D1B3
:103A50007B689B7E002B05D1BB69802252021343F9
:103A6000BB610BE07B689B6D20221A437B689A65E3
:103A70007B68DB6D01221A437B68DA657B685B6AD1
:103A8000002B0AD07B685A6AE0235B001A407B68EF
:103A90009B6A1343BA691343BB617B681B68DB688D
:103AA000654A134019007B681B68BA690A43DA60EB
:103AB0007B685B689B0F9A077B68DB6C13437A69B2
:103AC00013437B617B683C229B5C012B11D17B689B
:103AD0005B689B0F9A077B681B6C1A437B685B6C67
:103AE0001A437B689B6C1A437B691343012213437F
:103AF0007B617B681B681B69504A134019007B6817
:103B00001B687A690A431A617B685A68C0231B06DE
:103B10009A4218D07B685A688023DB059A4212D0FB
:103B20007B685A6880231B069A420CD0444B1B6862
:103B3000444A134019007B685A68F0239B031A40DB
:103B40003F4B0A431A607B6818687B685B6B1A00FE
:103B50000021FFF7F6FD7B6818687B689B6B3A498C
:103B60001A00FFF7EEFD7B681B69002B09D17B680B
:103B70001B689A6A7B681B68102149420A439A6253
:103B800018E07B681A6980239B039A4212D17B68F4
:103B90001B689B6A7B68DB69013B9B001C2213400E
:103BA000102252429A4011007B681A6E7B681B6893
:103BB0000A439A627B681B6800211800FFF7DEFD4C
:103BC00002007B685B6B9A420BD17B680022DA654E
:103BD0007B689B6D0322934301221A437B689A659D
:103BE0001CE07B689B6D1222934310221A437B6872
:103BF0009A657B68DB6D01221A437B68DA651F23B7
:103C0000FB1801221A7009E07B689B6D10221A4391
:103C10007B689A651F23FB1801221A701F23FB186B
:103C20001B781800BD4608B080BDC04600000020CB
:103C3000400D0300FDFEFFFF0102FEFF02FCFF1F1F
:103C400008270140FFFFC3FF04FFFF0780B586B0D0
:103C500000AF786039601723FB1800221A70002328
:103C6000FB607B6854229B5C012B01D10223C0E1E5
:103C70007B685422012199547B681B681800FFF768
:103C80002CFE031E00D0A3E13B685B68022B00D131
:103C900043E17B681A6980231B069A4204D07B6843
:103CA0001B69C14A934208D17B681A683B681B684C
:103CB00019001000FFF799FDC9E07B681A6E3B6898
:103CC0005B681F210B400F2199400B00DB43134021
:103CD00019003B681B685B035B0B05D13B681B68E5
:103CE0009B0E1F22134098E03B681B680122134083
:103CF00000D091E03B681B680222134000D089E0AD
:103D00003B681B680422134000D081E03B681B68BD
:103D10000822134000D079E03B681B681022134052
:103D200000D071E03B681B682022134000D069E09E
:103D30003B681B684022134000D061E03B681B6871
:103D40008022134000D059E03B681A6880235B0052
:103D5000134051D13B681A6880239B00134049D11E
:103D60003B681A688023DB00134041D13B681A6826
:103D700080231B01134039D13B681A6880235B0103
:103D8000134031D13B681A6880239B01134029D12D
:103D90003B681A688023DB01134021D13B681A6815
:103DA00080231B02134019D13B681A6880235B02F1
:103DB000134011D13B681A6880239B02134009D13C
:103DC0003B681A688023DB02134001D0122324E0F1
:103DD000002322E0112320E010231EE00F231CE02B
:103DE0000E231AE00D2318E00C2316E00B2314E039
:103DF0000A2312E0092310E008230EE007230CE059
:103E000006230AE0052308E0042306E0032304E078
:103E1000022302E0012300E000233A6852681F20D9
:103E2000024093400A001A437B681A663B685B684D
:103E30009B085A1C7B68DB699A4208D87B68186823
:103E40003B6859683B681B681A00FFF7AEFC7B684B
:103E500018683B6819683B689B681A00FFF7E8FC24
:103E60003B681B68002B00DBBCE0504B1800FFF7E1
:103E70005BFC03003B613B681B684D4A934222D1C7
:103E80003A6980231B0413401DD13B698022120430
:103E90001343464A19001000FFF732FC454B1B68DC
:103EA00045491800FCF74CF903005A1C13005B004D
:103EB0009B189B00FB6002E0FB68013BFB60FB681A
:103EC000002BF9D18EE03B681B683C4A93420ED12F
:103ED0003A6980235B04134009D13B698022520474
:103EE0001343324A19001000FFF70AFC7AE03B68DE
:103EF0001B68334A934200D074E03A698023DB03A5
:103F0000134000D06EE03B698022D2031343274A5E
:103F100019001000FFF7F4FB64E07B681A69802346
:103F20001B069A4204D07B681B691F4A934207D143
:103F30007B681A683B681B6819001000FFF766FC75
:103F40003B681B68002B4DDA184B1800FFF7ECFBA1
:103F500003003B613B681B68154A934208D13B69EB
:103F6000184A1340114A19001000FFF7C9FB39E045
:103F70003B681B68114A934208D13B69124A1340BF
:103F80000A4A19001000FFF7BBFB2BE03B681B68D7
:103F90000B4A934226D13B690C4A1340034A19004D
:103FA0001000FFF7ADFB1DE0040000800827014072
:103FB000001000B000000020400D0300004000B8D9
:103FC000002000B4FFFF7FFFFFFFFFFEFFFFBFFFEA
:103FD0007B689B6D20221A437B689A651723FB1828
:103FE00001221A707B685422002199541723FB1870
:103FF0001B781800BD4606B080BDC04680B582B0B3
:1040000000AF0200FB1D1A70FB1D1B787F2B09D827
:10401000FB1D1B781A001F231A40044B01219140FD
:104020000A001A60C046BD4602B080BD00E100E053
:1040300090B583B000AF02003960FB1D1A70FB1D04
:104040001B787F2B28D82F4AFB1D1B785BB29B085F
:10405000C0339B009B58FA1D1278110003220A40BE
:10406000D200FF2191400A00D2431A4011003B6860
:104070009B01FF221A40FB1D1B78180003230340FD
:10408000DB009A401F48FB1D1B785BB29B080A436C
:10409000C0339B001A5031E01B4AFB1D1B781900EE
:1040A0000F230B40083B9B0806339B00D3180433B7
:1040B0001B68FA1D1278110003220A40D200FF216A
:1040C00091400A00D2431A4011003B689B01FF2235
:1040D0001A40FB1D1B78180003230340DB009A40A5
:1040E0000948FB1D1B781C000F232340083B9B083D
:1040F0000A4306339B00C31804331A60C046BD460A
:1041000003B090BD00E100E000ED00E080B584B0B8
:1041100000AFB9607A600F217B18021C1A70BA6870
:104120007B181B785BB211001800FFF781FFC046B7
:10413000BD4604B080BD80B582B000AF0200FB1D5B
:104140001A70FB1D1B785BB21800FFF757FFC046C3
:10415000BD4602B080BD000080B582B000AF78607F
:104160007B68002B01D1012377E07B681B683D4A07
:104170009446634414211800FBF7E2FF03009A0001
:104180007B681A647B682522022199547B681B682E
:104190001A687B681B6834490A401A607B681B6890
:1041A00019687B689A687B68DB681A437B681B69BF
:1041B0001A437B685B691A437B689B691A437B6877
:1041C000DB691A437B681B6A1A437B681B680A43D6
:1041D0001A607B68180000F0C7F97B689A68802332
:1041E000DB019A4202D17B6800225A607B685A68E0
:1041F0007B685B6C3F210A401A607B689B6C7A6825
:10420000D26C5A607B685B68002B11D07B685B685E
:10421000042B0DD87B68180000F0D2F97B681B6D69
:1042200000221A607B685B6D7A68926D5A6008E0C4
:104230007B6800221A657B6800225A657B68002231
:104240009A657B680022DA637B68252201219954F4
:104250007B6824220021995400231800BD4602B037
:1042600080BDC046F8FFFDBF0F80FFFF80B582B064
:1042700000AF78607B68002B01D1012350E07B68A0
:1042800025229B5CDBB2022B08D07B680422DA6318
:104290007B68242200219954012341E07B681B683C
:1042A0001A687B681B680E218A431A607B685B6C06
:1042B0001A687B685B6C1C490A401A607B681B6843
:1042C0001A687B681B6801218A431A60174B59687A
:1042D0007B681B6C1C22134001229A40134B0A433B
:1042E0005A607B689B6C7A68D26C5A607B681B6DE5
:1042F000002B0CD07B681B6D1A687B681B6D0A490C
:104300000A401A607B685B6D7A68926D5A607B68C0
:104310002522012199547B682422002199540023ED
:104320001800BD4602B080BDFFFEFFFF0000024046
:1043300080B584B000AF78600F217B1800221A701E
:104340007B6825229B5CDBB2022B06D07B680422B3
:10435000DA637B1801221A7049E07B681B681A68CF
:104360007B681B680E218A431A607B681B681A6889
:104370007B681B6801218A431A607B685B6C1A6842
:104380007B685B6C1D490A401A601D4B59687B684D
:104390001B6C1C22134001229A40194B0A435A609D
:1043A0007B689B6C7A68D26C5A607B681B6D002BB3
:1043B0000CD07B681B6D1A687B681B6D0F490A4027
:1043C0001A607B685B6D7A68926D5A607B68252203
:1043D000012199547B682422002199547B689B6BAE
:1043E000002B04D07B689B6B7A68100098470F23E2
:1043F000FB181B781800BD4604B080BDFFFEFFFF10
:104400000000024080B584B000AF7860554B1B6857
:10441000FB607B681B681B68BB607B681B6C1C2295
:10442000134004229A401300FA68134027D0BB6857
:104430000422134023D07B681B681B682022134092
:1044400007D17B681B681A687B681B6804218A4354
:104450001A60444B59687B681B6C1C221340042271
:104460009A40404B0A435A607B681B6B002B00D17B
:1044700073E07B681B6B7A68100098476DE07B687F
:104480001B6C1C22134002229A401300FA6813404E
:104490002ED0BB68022213402AD07B681B681B68A1
:1044A000202213400BD17B681B681A687B681B684D
:1044B0000A218A431A607B68252201219954294BDD
:1044C00059687B681B6C1C22134002229A40254BC2
:1044D0000A435A607B682422002199547B68DB6A76
:1044E000002B3AD07B68DB6A7A681000984734E08A
:1044F0007B681B6C1C22134008229A401300FA6848
:1045000013402BD0BB680822134027D07B681B6860
:104510001A687B681B680E218A431A60114B596820
:104520007B681B6C1C22134001229A400D4B0A43EE
:104530005A607B680122DA637B6825220121995445
:104540007B682422002199547B685B6B002B05D08B
:104550007B685B6B7A6810009847C046C046BD46D2
:1045600004B080BD0000024080B584B000AF786028
:104570007B681B6C9B08104A944663449B001A009E
:104580007B685A647B681B681A00FF231340083B52
:1045900014211800FBF7D4FD0300FB607B68074A79
:1045A0009A64FB681F22134001229A407B68DA64F8
:1045B000C046BD4604B080BD0082001080080240A5
:1045C00080B584B000AF78607B685B683F221340A1
:1045D000FB60FB680A4A944663449B001A007B68B0
:1045E0001A657B68074A5A65FB68013B0322134042
:1045F00001229A407B689A65C046BD4604B080BDE2
:104600003F8200104009024080B582B000AF786060
:104610007B689B6C1A687B68DB6C13401CD07B68E2
:104620005B6C1A687B685B6C21490A401A607B6886
:104630009B6C7A68D26C5A607B68DB6B802292003C
:104640001A437B68DA637B685B6B002B04D07B6862
:104650005B6B7A68100098477B681B6D002B23D03A
:104660007B685B6D1A687B689B6D13401CD07B6810
:104670001B6D1A687B681B6D0D490A401A607B68C8
:104680005B6D7A68926D5A607B68DB6B8022D2002A
:104690001A437B68DA637B685B6B002B04D07B6812
:1046A0005B6B7A6810009847C046BD4602B080BD7B
:1046B000FFFEFFFF80B586B000AF78603960002351
:1046C0007B6147E13B681B6801217A6991400A00E0
:1046D0001340FB60FB68002B00D138E13B685B684E
:1046E00003221340012B05D03B685B680322134073
:1046F000022B30D17B689B683B617B695B000322A6
:104700009A401300DA433B6913403B613B68DA6827
:104710007B695B009A4013003A6913433B617B68F5
:104720003A699A607B685B683B6101227B699A40C9
:104730001300DA433B6913403B613B685B681B092C
:1047400001221A407B699A4013003A6913433B6186
:104750007B683A695A603B685B6803221340032B0D
:1047600017D07B68DB683B617B695B0003229A4062
:104770001300DA433B6913403B613B689A687B69ED
:104780005B009A4013003A6913433B617B683A69C6
:10479000DA603B685B6803221340022B23D17B69FC
:1047A000DA087B6808329200D3583B617B690722A4
:1047B00013409B000F229A401300DA433B691340D9
:1047C0003B613B681A697B6907210B409B009A405B
:1047D00013003A6913433B617B69DA087B6808324E
:1047E00092003969D1507B681B683B617B695B0033
:1047F00003229A401300DA433B6913403B613B6854
:104800005B6803221A407B695B009A4013003A6997
:1048100013433B617B683A691A603B685A68C0235E
:104820009B02134000D192E0504A7B699B081833E9
:104830009B009B583B617B6903221340DB000F22E6
:104840009A401300DA433B6913403B617A68A02326
:10485000DB059A4213D07B68454A93420DD07B68B2
:10486000444A934207D07B68434A934201D10323D1
:1048700006E0052304E0022302E0012300E0002318
:104880007A6903210A40D20093403A6913433B619D
:1048900036497B699B0818339B003A695A50334B61
:1048A0001B683B61FB68DA433B6913403B613B6833
:1048B0005A6880235B03134003D03A69FB681343B3
:1048C0003B612A4B3A691A60284B5B683B61FB6885
:1048D000DA433B6913403B613B685A6880239B0382
:1048E000134003D03A69FB6813433B611F4B3A699D
:1048F0005A601E4A8423D3583B61FB68DA433B6904
:1049000013403B613B685A6880239B02134003D0ED
:104910003A69FB6813433B61144984223B698B501D
:10492000124A8023D3583B61FB68DA433B6913404A
:104930003B613B685A6880235B02134003D03A69AD
:10494000FB6813433B61094980223B698B507B69BB
:1049500001337B613B681A687B69DA40131E00D023
:10496000B0E6C046C046BD4606B080BD0018024055
:104970000004005000080050000C005080B582B0C8
:1049800000AF786008001100BB1C021C1A807B1C61
:104990000A1C1A707B1C1B78002B04D0BB1C1A88C5
:1049A0007B689A6103E0BB1C1A887B689A62C046E8
:1049B000BD4602B080BD000080B582B000AF786017
:1049C0007B68002B01D1012382E07B6841229B5C44
:1049D000DBB2002B07D17B684022002199547B6811
:1049E0001800FEF7DBF97B684122242199547B688B
:1049F0001B681A687B681B6801218A431A607B6800
:104A00005A687B681B6834490A401A617B681B68D6
:104A10009A687B681B6831490A409A607B68DB684A
:104A2000012B08D17B689A687B681B68802109028A
:104A30000A439A6007E07B689A687B681B68842158
:104A400009020A439A607B68DB68022B04D17B6809
:104A50001B68802212015A607B681B685A687B6859
:104A60001B681F490A435A607B681B68DA687B68C9
:104A70001B681A490A40DA607B681A697B685B69BF
:104A80001A4311007B689B691A027B681B680A4302
:104A9000DA607B68D9697B681A6A7B681B680A439D
:104AA0001A607B681B681A687B681B6801210A43CF
:104AB0001A607B6800225A647B6841222021995445
:104AC0007B6800221A637B684222002199540023EC
:104AD0001800BD4602B080BDFFFFFFF0FF7FFFFF63
:104AE0000080000280B582B000AF786039607B68DA
:104AF00041229B5CDBB2202B38D17B6840229B5C3F
:104B0000012B01D1022332E07B684022012199541C
:104B10007B684122242199547B681B681A687B6852
:104B20001B6801218A431A607B681B681A687B68CE
:104B30001B6811490A401A607B681B6819687B680A
:104B40001B683A680A431A607B681B681A687B68AE
:104B50001B6801210A431A607B6841222021995475
:104B60007B68402200219954002300E002231800B2
:104B7000BD4602B080BDC046FFEFFFFF80B584B0E8
:104B800000AF786039607B6841229B5CDBB2202BF0
:104B900039D17B6840229B5C012B01D1022333E099
:104BA0007B684022012199547B6841222421995439
:104BB0007B681B681A687B681B6801218A431A603E
:104BC0007B681B681B68FB60FB68114A1340FB6035
:104BD0003B681B02FA681343FB607B681B68FA683A
:104BE0001A607B681B681A687B681B6801210A438E
:104BF0001A607B684122202199547B684022002161
:104C00009954002300E002231800BD4604B080BD83
:104C1000FFF0FFFF80B584B000AF7860194B1B68D0
:104C2000194A13401900174B7A680A431A607A68C8
:104C300080239B009A421FD1144B1A6813005B001B
:104C40009B185B0012491800FBF77AFA0300013346
:104C5000FB6008E0FB68002B03D0FB68013BFB60B6
:104C600001E0032309E0074B5A698023DB001A4067
:104C70008023DB009A42EDD000231800BD4604B02B
:104C800080BDC04600700040FFF9FFFF000000201B
:104C900040420F0080B500AF034B9A68E023DB0170
:104CA00013401800BD4680BD0010024080B588B09A
:104CB00000AF78607B68002B01D10123F3E27B68B1
:104CC0001B680122134000D17CE0C34B9B68382253
:104CD0001340BB61C04BDB68032213407B61BB699F
:104CE000102B02D17B69032B02D0BB69082B0BD19F
:104CF000B94B1A6880239B02134062D07B685B68C3
:104D0000002B5ED10123CEE27B685A6880235B02D0
:104D10009A4207D1B04B1A68AF4B802149020A432F
:104D20001A6020E07B685A68A023DB029A420ED109
:104D3000A94B1A68A84B8021C9020A431A60A64BE6
:104D40001A68A54B802149020A431A600BE0A24B66
:104D50001A68A14BA1490A401A609F4B1A689E4BE2
:104D60009F490A401A607B685B68002B14D0FEF7ED
:104D700083FC03003B6108E0FEF77EFC02003B6918
:104D8000D31A642B01D903238DE2934B1A68802335
:104D90009B021340F0D015E0FEF76EFC03003B6170
:104DA00008E0FEF769FC02003B69D31A642B01D9C5
:104DB000032378E2884B1A6880239B021340F0D1CA
:104DC00000E0C0467B681B680222134000D199E0D6
:104DD000814B9B6838221340BB617F4BDB68032209
:104DE00013407B61BB69102B02D17B69022B02D07F
:104DF000BB69002B35D1784B1A688023DB00134048
:104E000005D07B68DB68002B01D101234BE2724B9C
:104E10005B68744A134019007B685B691A026E4B29
:104E20000A435A60BB69002B12D16B4B1B686E4A58
:104E3000134019007B681A69674B0A431A60664B76
:104E40001B68DB0A07221340684ADA40684B1A6085
:104E5000684B1B681800FEF7F7F9031E51D00123B9
:104E600021E27B68DB68002B30D05B4B1B685E4A1D
:104E7000134019007B681A69574B0A431A60564B56
:104E80001A68554B802149000A431A60FEF7F4FB6B
:104E900003003B6108E0FEF7EFFB02003B69D31A19
:104EA000022B01D90323FEE14B4B1A688023DB0060
:104EB0001340F0D0484B5B684A4A134019007B68A6
:104EC0005B691A02444B0A435A601BE0424B1A6862
:104ED000414B49490A401A60FEF7CEFB03003B6193
:104EE00008E0FEF7C9FB02003B69D31A022B01D987
:104EF0000323D8E1384B1A688023DB001340F0D13C
:104F000000E0C0467B681B680822134047D0324B44
:104F10009B6838221340182B0AD12F4B1B6E02229C
:104F200013403CD07B689B69002B38D10123BAE148
:104F30007B689B69002B19D0274B1A6E264B0121E9
:104F40000A431A66FEF798FB03003B6108E0FEF790
:104F500093FB02003B69D31A022B01D90323A2E180
:104F60001D4B1B6E02221340F1D018E01A4B1A6E33
:104F7000194B01218A431A66FEF77EFB03003B6151
:104F800008E0FEF779FB02003B69D31A022B01D936
:104F9000032388E1104B1B6E02221340F1D17B6882
:104FA0001B680422134000D1C6E01F23FB18002217
:104FB0001A70094B9B6838221340202B1ED1064BD8
:104FC000DB6D0222134000D1B6E07B689B68002BAA
:104FD00000D0B1E0012366E100100240FFFFFEFFB8
:104FE000FFFFFBFFFF80FFFFFFC7FFFF0024F40070
:104FF0000000002004000020FFFEFFFFAC4BDA6B36
:1050000080235B05134001D1012300E00023002B26
:1050100011D0A74BDA6BA64B802149050A43DA630E
:10502000A34BDA6B80235B051340FB60FB681F23F7
:10503000FB1801221A709F4B1A6880235B001340F3
:105040001AD19C4B1A689B4B802149000A431A6075
:10505000FEF712FB03003B6108E0FEF70DFB0200C8
:105060003B69D31A022B01D903231CE1914B1A6827
:1050700080235B001340F0D07B689B68012B06D136
:105080008B4BDA6D8A4B01210A43DA651CE07B68A1
:105090009B68052B0CD1864BDA6D854B04210A43A6
:1050A000DA65834BDA6D824B01210A43DA650BE046
:1050B0007F4BDA6D7E4B01218A43DA657C4BDA6DDA
:1050C0007B4B04218A43DA657B689B68002B14D0F4
:1050D000FEF7D2FA03003B6109E0FEF7CDFA0200C9
:1050E0003B69D31A744A934201D90323DBE0704B26
:1050F000DB6D02221340F0D013E0FEF7BDFA03008F
:105100003B6109E0FEF7B8FA02003B69D31A6A4A2C
:10511000934201D90323C6E0654BDB6D02221340A5
:10512000F0D11F23FB181B78012B05D1604BDA6BE4
:105130005F4B62490A40DA637B68DB69002B00D170
:10514000B0E05B4B9B6838221340102B00D178E015
:105150007B68DB69022B53D1554B1A68544B584975
:105160000A401A60FEF788FA03003B6108E0FEF788
:1051700083FA02003B69D31A022B01D9032392E080
:105180004B4B1A6880239B041340F0D1484BDB68DB
:105190004C4A134019007B681A6A7B685B6A1A43A1
:1051A0007B689B6A1B021A437B68DB6A1A437B6835
:1051B0001B6B1A433E4B0A43DA603D4B1A683C4B6B
:1051C000802149040A431A60394BDA68384B802140
:1051D00049050A43DA60FEF74FFA03003B6108E035
:1051E000FEF74AFA02003B69D31A022B01D90323C6
:1051F00059E02F4B1A6880239B041340F0D051E0F4
:105200002B4B1A682A4B2E490A401A60FEF734FAD3
:1052100003003B6108E0FEF72FFA02003B69D31A56
:10522000022B01D903233EE0214B1A6880239B0403
:105230001340F0D11E4BDA681D4B23490A40DA6057
:1052400030E07B68DB69012B01D101232BE0184B97
:10525000DB687B617B6903221A407B681B6A9A4288
:105260001ED17B6970221A407B685B6A9A4217D113
:105270007A69FE23DB011A407B689B6A1B029A4213
:105280000ED17A69F8239B031A407B68DB6A9A4245
:1052900006D17B695B0F5A077B681B6B9A4201D072
:1052A000012300E000231800BD4608B080BDC046C1
:1052B000001002400070004088130000FFFFFFEF65
:1052C000FFFFFFFE8C80C11FFCFFFEEF80B584B0A6
:1052D00000AF786039607B68002B01D10123E9E0E1
:1052E000764B1B68072213403A689A421ED9734BCB
:1052F0001B68072293431900704B3A680A431A60EF
:10530000FEF7BAF90300FB6009E0FEF7B5F9020009
:10531000FB68D31A6A4A934201D90323CAE0674B58
:105320001B68072213403A689A42EED17B681B68DB
:105330000222134015D07B681B680422134006D05C
:10534000604B9A685F4BE021C9010A439A605D4B4C
:105350009B685D4A134019007B689A68594B0A4361
:105360009A607B681B680122134057D07B685B689A
:10537000012B07D1534B1A6880239B0213402BD17A
:10538000012397E07B685B68022B07D14D4B1A68BD
:1053900080239B0413401FD101238BE07B685B6853
:1053A000002B07D1474B1A688023DB00134013D131
:1053B00001237FE07B685B68032B06D1414B1B6EAA
:1053C0000222134008D1012374E03E4BDB6D022220
:1053D000134001D101236DE03A4B9B6807229343B0
:1053E00019007B685A68374B0A439A60FEF744F904
:1053F0000300FB6009E0FEF73FF90200FB68D31AE7
:105400002F4A934201D9032354E02E4B9B68382244
:105410001A407B685B68DB009A42ECD1274B1B6823
:10542000072213403A689A421ED2244B1B68072277
:1054300093431900214B3A680A431A60FEF71CF99E
:105440000300FB6009E0FEF717F90200FB68D31ABE
:105450001B4A934201D903232CE0184B1B680722F7
:1054600013403A689A42EED17B681B6804221340CD
:1054700009D0144B9B68154A134019007B68DA6801
:10548000104B0A439A6000F029F801000D4B9B680D
:105490001B0A0F221A400E4B9200D3581F221340B2
:1054A0000A00DA400B4B1A600B4B1B681800FDF723
:1054B000CBFE03001800BD4604B080BD00200240B2
:1054C0008813000000100240FFF0FFFFFF8FFFFF76
:1054D00060E50008000000200400002080B586B0D0
:1054E00000AF3C4B9B68382213400FD1394B1B68EF
:1054F000DB0A0722134001229A4013003B603968FF
:105500003548FAF71DFE03003B615DE0314B9B68B7
:1055100038221340082B02D1304B3B6154E02D4B15
:105520009B6838221340102B38D12A4BDB680322AA
:105530001340FB60274BDB681B0907221340013334
:10554000BB60FB68032B0DD1B9682448FAF7F8FD5E
:10555000030019001F4BDB681B0A7F2213404B43DB
:105560007B610DE0B9681C48FAF7EAFD03001900F9
:10557000184BDB681B0A7F2213404B437B61C046FC
:10558000144BDB685B0F0722134001337B607968A3
:105590007869FAF7D5FD03003B6115E00D4B9B6878
:1055A00038221340202B03D180231B023B610BE0E8
:1055B000084B9B6838221340182B03D1FA23DB01D8
:1055C0003B6101E000233B613B691800BD4606B02A
:1055D00080BDC046001002400024F40000127A0092
:1055E00080B500AF024B1B681800BD4680BDC046A9
:1055F00000000020B0B500AFFFF7F2FF0400FFF796
:1056000049FB03001A0B054B9200D3581F2213408D
:10561000DC4023001800BD46B0BDC046A0E5000830
:1056200080B582B000AF786039607B6807221A606D
:105630000E4B9B6807221A407B685A600B4B9A6896
:10564000F0231B011A407B689A60084B9A68E0239C
:10565000DB011A407B68DA60054B1B6807221A40A1
:105660003B681A60C046BD4602B080BD00100240D3
:105670000020024080B586B000AF78601323FB188D
:1056800000221A701223FB1800221A707B681A6815
:1056900080239B02134000D1A3E011203B1800227D
:1056A0001A70864BDA6B80235B05134010D1834B55
:1056B000DA6B824B802149050A43DA637F4BDA6B50
:1056C00080235B051340BB60BB683B1801221A7046
:1056D0007B4B1A687A4B802149000A431A60FDF718
:1056E000CBFF0300FB600BE0FDF7C6FF0200FB6889
:1056F000D31A022B04D91323FB1803221A7005E0D6
:105700006F4B1A6880235B001340EDD01323FB1806
:105710001B78002B54D1694BDA6DC0239B001340DA
:105720007B617B69002B19D07B689B697A699A42FF
:1057300014D0624BDB6D634A13407B615F4BDA6DC3
:105740005E4B802149020A43DA655C4BDA6D5B4BA4
:105750005D490A40DA65594B7A69DA657B6901224D
:10576000134016D0FDF788FF0300FB600CE0FDF747
:1057700083FF0200FB68D31A544A934204D91323CF
:10578000FB1803221A7004E04C4BDB6D022213401D
:10579000EDD01323FB181B78002B0AD1474BDB6D90
:1057A000484A134019007B689A69444B0A43DA65FA
:1057B0000CE01223FB181322BA1812781A7005E0B5
:1057C0001223FB181322BA1812781A701123FB182F
:1057D0001B78012B05D1394BDA6B384B3C490A4019
:1057E000DA637B681B680122134009D0334B5B6D81
:1057F0000322934319007B685A68304B0A435A6569
:105800007B681B680222134009D02C4B5B6D0C2275
:10581000934319007B689A68284B0A435A657B6852
:105820001B682022134009D0244B5B6D294A13408A
:1058300019007B68DA68214B0A435A657B681A684D
:105840008023DB01134015D01C4B5B6D9B00990836
:105850007B685A69194B0A435A657B685A698023E9
:10586000DB059A4206D1154BDA68144B80214902B8
:105870000A43DA607B681A6880231B01134016D044
:105880000E4B5B6D144A134019007B681A690B4B71
:105890000A435A657B681A698023DB019A4206D164
:1058A000064BDA68054B802149020A43DA6012236D
:1058B000FB181B781800BD4606B080BD00100240E2
:1058C00000700040FFFCFFFFFFFFFEFF8813000099
:1058D000FFFFFFEFFFCFFFFFFF3FFFFF80B584B06B
:1058E00000AF78607B68002B01D10123A8E07B68C2
:1058F0005B6A002B09D17B685A6882235B009A425D
:1059000009D07B680022DA6105E07B6800221A6119
:105910007B6800225A617B6800229A627B685D2264
:105920009B5CDBB2002B07D17B685C220021995481
:105930007B681800FDF794FA7B685D220221995478
:105940007B681B681A687B681B6840218A431A6061
:105950007B68DA68E023DB009A4202D90023FB600F
:1059600002E080235B01FB607B68DA68F0231B01A7
:105970009A4208D07B68DA68E023DB009A4202D0C2
:105980007B6800229A627B685A6882235B001A4017
:105990007B68996884231B020B401A437B681B6950
:1059A00002210B401A437B685B6901210B401A43BB
:1059B0007B68996980239B000B401A437B68DB69F5
:1059C00038210B401A437B681B6A80210B401A4325
:1059D00011007B689A6A80239B011A407B681B68D0
:1059E0000A431A607B689B691B0C04221A407B687F
:1059F0005B6A10210B401A437B685B6B08210B40EC
:105A00001A437B68D968F0231B010B401A4311002D
:105A1000FA6880235B011A407B681B680A435A605E
:105A20007B681B68DA697B681B6807490A40DA6192
:105A30007B6800221A667B685D220121995400234D
:105A40001800BD4604B080BDFFF7FFFF80B582B0EF
:105A500000AF78607B68002B01D101234AE07B68AE
:105A60003D229B5CDBB2002B07D17B683C220021EE
:105A700099547B681800FDF73DFA7B683D220221AE
:105A800099547B681A687B6804331900100000F091
:105A9000DDF97B684822012199547B683E2201216F
:105AA00099547B683F22012199547B68402201214F
:105AB00099547B684122012199547B68422201213B
:105AC00099547B684322012199547B684422012127
:105AD00099547B684522012199547B684622012113
