:020000040800F2
:1000000000900020D9420008A9410008AD41000835
:1000100000000000000000000000000000000000E0
:10002000000000000000000000000000B1410008D6
:100030000000000000000000B5410008B9410008C0
:100040002943000800000000294300082943000854
:1000500029430008294300082943000829430008D0
:100060000000000029430008BD410008CD41000800
:1000700029430008DD410008294300080000000072
:1000800029430008ED4100082943000829430008DE
:100090002943000829430008294300082943000890
:1000A000294300082943000829430008FD410008AE
:0800B000294300080D4200087D
:1000B80010B5064C2378002B07D1054B002B02D036
:1000C800044800E000BF0123237010BDEC010020AC
:1000D800000000001CAF0008044B10B5002B03D033
:1000E8000349044800E000BF10BDC04600000000FE
:1000F800F00100201CAF00080023C25C0133002A75
:10010800FBD1581E7047000002B4714649084900E7
:10011800095C49008E4402BC7047C04603B471466E
:10012800490840004900095E49008E4403BC7047F5
:10013800002243088B4274D303098B425FD3030A1E
:100148008B4244D3030B8B4228D3030C8B420DD331
:10015800FF22090212BA030C8B4202D312120902BF
:1001680065D0030B8B4219D300E0090AC30B8B42FD
:1001780001D3CB03C01A5241830B8B4201D38B03AB
:10018800C01A5241430B8B4201D34B03C01A524150
:10019800030B8B4201D30B03C01A5241C30A8B4293
:1001A80001D3CB02C01A5241830A8B4201D38B027E
:1001B800C01A5241430A8B4201D34B02C01A524122
:1001C800030A8B4201D30B02C01A5241CDD2C30994
:1001D8008B4201D3CB01C01A524183098B4201D310
:1001E8008B01C01A524143098B4201D34B01C01AFB
:1001F800524103098B4201D30B01C01A5241C30873
:100208008B4201D3CB00C01A524183088B4201D3E1
:100218008B00C01A524143088B4201D34B00C01ACD
:100228005241411A00D20146524110467047FFE739
:1002380001B5002000F0F0F802BDC0460029F7D053
:1002480076E7704703460B437FD4002243088B426E
:1002580074D303098B425FD3030A8B4244D3030B45
:100268008B4228D3030C8B420DD3FF22090212BA0A
:10027800030C8B4202D31212090265D0030B8B4286
:1002880019D300E0090AC30B8B4201D3CB03C01A70
:100298005241830B8B4201D38B03C01A5241430B4B
:1002A8008B4201D34B03C01A5241030B8B4201D33B
:1002B8000B03C01A5241C30A8B4201D3CB02C01AA6
:1002C8005241830A8B4201D38B02C01A5241430A1E
:1002D8008B4201D34B02C01A5241030A8B4201D30D
:1002E8000B02C01A5241CDD2C3098B4201D3CB01B4
:1002F800C01A524183098B4201D38B01C01A524163
:1003080043098B4201D34B01C01A524103098B4266
:1003180001D30B01C01A5241C3088B4201D3CB0051
:10032800C01A524183088B4201D38B00C01A524134
:1003380043088B4201D34B00C01A5241411A00D2E4
:1003480001465241104670475DE0CA0F00D049424D
:10035800031000D34042534000229C4603098B42BD
:100368002DD3030A8B4212D3FC22890112BA030A45
:100378008B420CD3890192118B4208D389019211C7
:100388008B4204D389013AD0921100E08909C3094C
:100398008B4201D3CB01C01A524183098B4201D34E
:1003A8008B01C01A524143098B4201D34B01C01A39
:1003B800524103098B4201D30B01C01A5241C308B1
:1003C8008B4201D3CB00C01A524183088B4201D320
:1003D8008B00C01A5241D9D243088B4201D34B003B
:1003E800C01A5241411A00D20146634652415B107D
:1003F800104601D34042002B00D54942704763465E
:100408005B1000D3404201B5002000F005F802BDA2
:100418000029F8D016E770477047C0468446100098
:1004280062468C461900634600E0C0461FB500F0DE
:1004380099FF002801D40021C8421FBD10B500F063
:10044800E9FE4042013010BD10B500F08BFF0028D6
:1004580001DB002010BD012010BDC04610B500F022
:1004680081FF002801DD002010BD012010BDC0461D
:1004780010B500F011FF002801DC002010BD01209C
:1004880010BDC04610B500F007FF002801DA0020B3
:1004980010BD012010BDC04670B500220C4B0400F1
:1004A8000D00FFF7EFFF002804D12000290001F01C
:1004B8001FFE70BD064B00222000290001F078FACB
:1004C80001F016FE80231B069C466044F1E7C046F7
:1004D8000000E04170B505000C0000220023280050
:1004E8002100FFF7B1FF002808D12800210000F003
:1004F8000FF802000B001000190070BD80231B06C6
:10050800E118280000F004F8002342428B41F2E78A
:1005180070B500220B4B0D00040000F087FFFFF7B9
:10052800BBFF060001F04AFE0022074B00F07EFFE9
:1005380002000B002000290001F03AFAFFF7ACFF97
:10054800310070BD0000F03D0000F04170B50600BC
:10055800080001F003FE0022064B00F067FF0D00C3
:100568000400300001F02AFE2B00220000F004F8FD
:1005780070BDC0460000F041F0B54F464646D6462D
:100588000400C0B51F000B0310004E005B0ACD0F1E
:10059800610F7A001943E3003C03FF0FBC46640A6D
:1005A800470F2743760D520DC000B9468046B71A4B
:1005B800654500D19BE0002F00DC84E0002A00D1D3
:1005C800BEE0C84A964200D124E180224C4612047B
:1005D8001443A146382F00DD67E11F2F00DDD6E167
:1005E80020224C46D21B9440A2464446FC402000A0
:1005F8005446044340469040421E90414A46FA40C1
:100608000443891A1C1BA342924152428B1A9A46F0
:1006180053461B0200D4D4E053465A02530A9A4662
:100628005346002B00D104E1504601F073FE03004D
:10063800083B20222000D21A5146D040994002009F
:100648009C400A43B34200DA02E19B1B591C1F2954
:1006580000DDA7E02023100026005B1A9C4098408C
:10066800CE40CA40631E9C41304392460026044354
:10067800630709D00F232340042B05D0231DA34271
:10068800A4416442A2441C0053461B0200D49BE0D0
:10069800944B01369E4200D1B8E053469249E40893
:1006A8000B4019005B07234372054C02240B520DC3
:1006B8001205ED0722432A4318001100E0BCBA4690
:1006C800B146A846F0BD002F48D0971B002E00D099
:1006D8000EE10C001C4300D1B7E17C1E012F00D1B4
:1006E80026E2804DAF4200D1D5E1270007E1002F77
:1006F80000DCB2E0002A47D07A4A964200D189E06D
:1007080080224C4612041443A146382F6BDC1F2F5D
:1007180000DC6EE13A004846203AD0408446202F5B
:1007280007D040224846D21B904002004046104362
:1007380080464046421E904162460400144357E0FA
:100748004A46024300D103E17A1E012F00D193E10A
:10075800644CA74200D18AE117003BE7634C721C46
:10076800224200D0E0E00A001A43002E00D074E1D3
:10077800002A00D1D0E14A46024300D0E3E14A070B
:10078800DB081343C90829E04A46024300D17DE14A
:100798007A1E012F00D1E0E0524CA74200D166E159
:1007A8001700B2E710001F3BD840202903D0402390
:1007B8005B1A9A401443631E9C41002300269A4604
:1007C8000443630700D055E75246E3085207134332
:1007D80052463700D108434A97421FD009037A0589
:1007E8000C0B520D64E742464C461443621E94417A
:1007F800E4189C429241524292468A4453461B0254
:10080800DFD5384B01369E4200D0B3E032000024D9
:1008180000234DE74A07DB081343C9081A000A43B7
:1008280000D100E2802424030C4324032D4A240B26
:100838003EE7200001F06EFD030018331F2B00DC9B
:10084800F7E62200083882400024B34200DBFCE6C9
:10085800F61A254B1A4092460AE7002F2BD0971B11
:10086800002E00D1B8E01F4CA24200D11CE1802428
:1008780024042143382F00DD1EE11F2F00DD9EE1F7
:1008880020260C00F61B1800B340B440F8405E1E4A
:10089800B341F94004431C438944444444459B41C3
:1008A8005B424B449A461600A8E742464C4614431E
:1008B800621E9441A6E60D4C721C224200D0A8E0AC
:1008C8000A001A43002E00D00AE1002A00D15EE196
:1008D8004A46024300D061E14A07DB081343C908CE
:1008E8007CE7C046FF070000FFFF7FFFFE07000010
:1008F800CF4CA24200D1CEE0802424042143382FDB
:100908005BDC1F2F00DDDCE020250C00ED1B1E004A
:10091800AB40AC40FE405D1EAB413443F9401C4344
:100928004B465B1A99464CE04A461C1A881AA34261
:1009380092415242924602005046121A92461202C0
:1009480078D45346234300D06AE60021002545E7C2
:100958004A07DB081343C9083DE71C189C429B4122
:1009680049448A465B429A44534601261B0200D4F6
:1009780027E702265246AF4B01211A4013002140B7
:1009880062080A43DC075B089A46144370E63A009B
:100998004C46203AD440A446202F07D0402248464F
:1009A800D21B904002004046104380464046421EFB
:1009B800904162460400144324E619430C00631E68
:1009C8009C4143461C1BA0459B4149465B42CB1AB0
:1009D8009A46654616001BE60C001C4300D1C7E08A
:1009E8007C1E012F00D1F9E0914EB7425CD0270060
:1009F80040E720224C464046D21B9440F84004432E
:100A080040469040421E90414A46FA4004438918A5
:100A1800EEE6874CA24200D1F9E6181898429B41AD
:100A280049445B42CB18DC0740085B089A4616002D
:100A38000443C6E64246D41AA04580414B4640428C
:100A4800591A0B1A9A466546EAE54B464A46C008C3
:100A58005B0765460343D108BDE6002A00D08EE057
:100A68004B46034317D1802100250903DAE64A07DC
:100A7800DB081343C908D1E61C1A4A46A3429B4126
:100A8800891A5B42CB1A9A460126C1E54A07DB0858
:100A98001343C9089FE64346D8084B464A465B07B6
:100AA80065460343D108B9E64346D8084B464A464B
:100AB8005B070343D108B1E619430C00631E9C4150
:100AC800EBE63C000D00203CE540202F03D04024FD
:100AD800E41BA1400B431C00631E9C412C4370E7A0
:100AE800002AE1D04A460243C1D04A07DB08134333
:100AF8008022C9081203114208D04846C40814428B
:100B080004D143462100DB08420713435A0FDB0098
:100B18005207DB08134381E64B46034300D114E731
:100B28004B464A46C0085B0765460343D10855E66D
:100B3800C41AA04580414B464042591A0B1A9A469E
:100B48006546012664E51C1A4A46A34280418A1A72
:100B58004042121A9246120249D54246D41AA0457A
:100B680080414B464042591A0B1A9A4665467FE522
:100B78004B464A46C0085B070343D1082BE64A4662
:100B8800DB08024338D14A071343C90846E64B46F7
:100B98004A46C0085B070343D1081FE61C189C425D
:100BA8009B4149448A465B429A4453461B0200D4FF
:100BB80007E652461F4B01261A40924601E63C00C2
:100BC8000E00203CE640202F03D04024E41BA14027
:100BD8000B431C00631E9C4134435EE6434483423E
:100BE800804149448A4640421C008244BCE6534640
:100BF800234300D1A9E6E4E54A0713438022C90844
:100C08001203114209D04846C408144205D143468C
:100C180065462100DB08420713435A0FDB00DB0857
:100C280052071343FAE50023014A1C0040E5C04679
:100C3800FF070000FFFF7FFFF0B557464E464546C9
:100C4800DE46E0B50C031F004B00814692460500C6
:100C580085B0240B5B0DCE0F002B00D152E1D24A98
:100C6800934200D16EE1420FE40014438022120443
:100C780022439046CD4AC50093469B44002399469B
:100C880000933C037B005046240B5B0DFF0F002BA9
:100C980000D11AE1C44A934200D15EE1420FE40058
:100CA8002243802424041443C04AC10094465A466F
:100CB8006344D31A9B46002033007B409A464B4638
:100CC8000F2B27D8BA4A9B00D3589F46B246009BA1
:100CD800022B16D0032B00D187E2012B00D0D5E0E0
:100CE8000023002200251B0513435246D207134355
:100CF8002800190005B0F0BCBB46B246A946A0467C
:100D0800F0BD00220025A84BEDE7BA46A0460D002D
:100D18000090DCE7444500D2C4E100D1BFE10123E3
:100D28005B429C462E0040460025E34423020C0EFD
:100D38001C431B0C994623040A021F0C49460092C7
:100D48000197FFF77BFA02007A430B04310C8046C7
:100D580019438A4207D901235B429C460919E0449A
:100D68008C4200D801E2881A4946FFF767FA019ACF
:100D7800360442430904360C03000E43B24204D938
:100D88003619013BB44200D8E9E1B01A4246009E48
:100D980012041A43330C1F00110C904602931304DB
:100DA8003204160C32001B0C5A4303967B434E4305
:100DB8007943170CBC469B1963449E4203D980268D
:100DC8007602B44661441E0C711816041B04360CD6
:100DD8009E19884202D312D1B54210D243465A1EF8
:100DE800009B9C4665441F009D429B415B421B192A
:100DF800C018844200D29EE100D199E19046AE1B12
:100E0800B542AD41401A6D42401B844200D1D2E147
:100E18004946FFF713FA019A0B044243310C0500C7
:100E280019438A4200D96CE1881A4946FFF706FA45
:100E3800019A360442430904360C03000E43B242B9
:100E480000D953E10398B61A02002D041D43029FEE
:100E58002B041B0C5A437B439C46290C4843130C18
:100E6800844463447943984203D9802040028446ED
:100E78006144180C12041B04120C40189B1886427B
:100E880000D200E100D1FBE001231D43494B5B4444
:100E9800002B00DCAAE06A0700D03DE1E9084246E1
:100EA800D20106D54246444B1A4080239046DB00C7
:100EB8005B44424A934200DD23E742465B055507FF
:100EC80052020D43120B5B0D0DE75146214300D131
:100ED8007CE0002C00D1FBE0200001F01BFA0200AE
:100EE8000B3A1D239B1A52460100DA405346083933
:100EF8008B408C4019001443314B58449B46834423
:100F08000020D9E603002343984644D0002C00D1A2
:100F1800CFE0200001F0FEF9010002000B391D238B
:100F28005B1A49461000D940083884400B004D46EA
:100F3800234398468540234B9B1A9B46002399469A
:100F480000939EE60200224390461DD108229B464C
:100F5800022300259146009393E65146214309D187
:100F680002234A461A43184B91469C460024022005
:100F7800E344A1E603234A461A43134B91469C4691
:100F880051460320E34497E60C229B460323A046E0
:100F98009146009375E60423994600239B46013346
:100FA800002500936DE6C046FF07000001FCFFFF27
:100FB80038AF0008FF030000FFFFFFFEFE07000038
:100FC800F30300000DFCFFFF01F8FFFF4A46012371
:100FD8001A439146002401206EE6002380229A4697
:100FE8000025884B12037EE601256D420122D21AA4
:100FF800382A00DD74E61F2A00DCBDE01F214942C3
:10100800CB1A4146D9400B00202A04D041467E4ADB
:101018005A4491400D4329004A1E91411943072320
:101028001D0000220D400B4200D1D0E00F2200230A
:101038000A40042A00D1C7E00A1D8A428941494270
:101048005B1811001A0200D4BEE00123002200251B
:1010580049E6802243461203134208D0144206D1BF
:1010680022431203BA460D00664B120B3BE6802260
:10107800434612031A431203B246624B120B32E67E
:10108800002B00D102E7A6196A1EA64200D289E009
:10109800864200D29FE000D1AFE01500F4E6A942F5
:1010A80000D93CE64346DE0758086B081E43ED07A7
:1010B8003CE601F02FF901000200153120321C290D
:1010C80000DC2CE74B46083883400025984632E779
:1010D80001F020F903001A00153220301C2A00DC28
:1010E800FFE65446083B00219C4005E73619013BC2
:1010F800B44200D9A6E6B24200D8A3E6831E361948
:10110800A0E60919013D8C4200D98DE68A4200D833
:101118008AE6851E091987E60F222A40042A00D18B
:10112800BCE6291DA942AD416D42C908A844B6E6EE
:10113800AF4200D962E6814204D800D05EE6AE42F2
:1011480000D85BE602235B429C46009BE0449C4639
:1011580065449D429B415B421B19C0184FE6B24251
:1011680000D812E6831E36190FE68A4200D8FAE53F
:10117800831E98460919F6E5244B28005B4441462E
:101188009D409940D0406B1E9D41434601432943F1
:10119800D3404A0700D155E70F220A40042A00D05D
:1011A8004AE74FE71500864200D06DE6009A9A425A
:1011B80000D069E66AE6164B5B44002B00DC13E7B7
:1011C80001250021A8446AE65D075B021A0BC908DD
:1011D80000230D4387E50099023D4A008A42BF413A
:1011E8007F423F19F6190092DDE780224346120339
:1011F8001A431203034B120B75E500999942EAD37F
:101208001500D3E7FF0700003E0400001E0400009D
:10121800FF030000F0B54E464546DE465746904669
:10122800E0B517001A03120B0500844619480E038F
:101238004C0091465A00DB0F9B46360B640DC90FD4
:10124800520D844219D0824210D0012094420ED10E
:101258004E450CD10120C44509D1594517D0002C61
:1012680005D130002843431E984100E00120F0BC1E
:10127800BB46B246A946A046F0BD330001202B4329
:10128800F5D1A242F3D14B463B43F0D1E2E700202F
:10129800EDE7C046FF070000F0B54746CE4604001C
:1012A800180016001B031B0B2D4D4A00994680B5EC
:1012B80043000F03A446B0463F0B520DC90F5B0D08
:1012C800C00FAA4221D0AB4213D0002A22D13C43FE
:1012D800002B02D14D462E4322D0002C10D0814243
:1012E80022D00220013908400138C0BCB946B046B6
:1012F800F0BD4D462E4329D1002AF0D13C43EED112
:101308000028F2D101204042EFE73D0025431DD1DE
:101318009342EED0002BE2D14C462643DFD1E0E7E2
:101328000020002CE1D0DCE79A420ADCE8DB4F45DC
:10133800D7D80ED000204F45D7D20029E2D00800D8
:10134800D3E74342584140000138CEE702204042EB
:10135800CBE7C445C5D80020C445C6D2EDE7C04692
:10136800FF070000F0B54746CE46040018001600F7
:101378001B031B0B2C4D4A00994680B543000F03F5
:10138800A446B0463F0B520DC90F5B0DC00FAA42D1
:101398000DD0AB4210D0002A27D13C43002B11D1ED
:1013A8004D462E430ED10020002C15D00EE03D00F6
:1013B800254310D1934218D14D462E430BD1002A14
:1013C80002D13C43002C0BD0814214D002200139B9
:1013D8000840013800E00220C0BCB946B046F0BD64
:1013E8000028F9D101204042F6E7002BECD14C4609
:1013F8002643E9D1EAE79A4204DD434258414000D6
:101408000138E9E79A42EBDB4F45DFD806D00020E8
:101418004F45E1D20029E5D00800DDE7C445D5D81D
:101428000020C445D8D2F5E7FF070000F0B54546CF
:10143800DE4657464E46E0B51F000B031B0B9B4686
:101448004D00CB0F04009146984687B06D0D00D132
:10145800CDE1CE4B9D4200D1E9E15A46430FD2007F
:101468001343802212041A43C3009A46C84B93467A
:101478009C4600230026654400933C037B004846B5
:10148800240B5B0DFF0F002B00D189E1BF4A93426B
:1014980019D0420FE4002243802424041443BC4A98
:1014A80000219446424663445B190193019B7A40AC
:1014B8000133C000D2B202930A2E1CDD3A000B2E73
:1014C8005ED0474656E04946B04B2143EB1801939E
:1014D80000292AD18020022200012B0084461643CD
:1014E800424663447A40D2B202930A2E00DD31E2CA
:1014F800002000240221022E26DC013E012E52D8B3
:1015080002294CD0012900D018E10023002400252D
:101518001B052343D20713432800190007B0F0BC6A
:10152800BB46B246A946A046F0BD80210322090168
:101538002B008C461643424663447A40D2B202934B
:101548000A2E00DD28E203210125B540AC46A62677
:101558006346F600354033420BD19026B60033423D
:1015680018D1B93EFF3E1E421DD0A34682460091C7
:1015780000E0170000993A00022910D05C46504656
:101588000329BFD180231B031C43240305007F4B81
:10159800240BBDE7802400227C4B2403B8E70024F9
:1015A80000257A4BB4E753461E04360C1F0C330053
:1015B800010C0004000C4343984603007B43994602
:1015C80033004B439C4643460D001B0C9A467D4313
:1015D800CC44D4440095E14504D980235B02994664
:1015E8004D44009563461B0C1D0063461B049C4636
:1015F80043461B041B0C9846634643440393230C41
:10160800984633002404240C63439C4623007B4300
:10161800994643465E435F434E446346B2461E0CBA
:101628005644B14503D980235B0299464F44330C95
:1016380099463B004B4405936346AC461F043F0C58
:101648003604F619B444634604935B461B0C9C4667
:101658005B461F043F0C3B004343994663464343A4
:101668009A464B4660461B0C9B4648437943514477
:1016780059448A4503D980235B029A4650440B0C8F
:101688009A464B461B041B0C99463B0063430904CE
:1016980045464944994663465C436B439C464B46E2
:1016A8001B0C98466F433F1947445044BC4203D92A
:1016B80080235B029846C444049B009D9846454499
:1016C800B542B641734298464B461E04059B3C04FE
:1016D8009946360CA4194C44A14683466E18C14459
:1016E8008E428941CB445D4649426D189C42A441D3
:1016F800C1459B41834580418D4289415B4264429B
:101708001C434042039B4942014370023F0C18436B
:10171800E419471EB84164186444F60D6102304369
:10172800EC0D6E020C433043C90100D4F1E00121F5
:10173800430801400B43E007184364081549029B1E
:101748008C466344002B00DC97E0410709D00F2149
:101758000140042905D0011D8142804140422418DE
:101768000800E10106D58021C9008C460A4B1C40BF
:10177800029B634409498B4200DD10E76107C508F5
:1017880064025B050D43240B5B0DC1E6FF070000F7
:1017980001FCFFFFFF030000FFFFFFFEFE07000044
:1017A8004B46234359D0002C00D1A3E0200000F081
:1017B800B1FD010003000B391D22521A49461800D9
:1017C800D1404A4608388240844010000C43744A8D
:1017D800EB1A9446424663440193019B7A400133D5
:1017E8000021D2B202930A2E00DD67E683E65B464B
:1017F80003439A462AD05B46002B6DD0584600F02A
:1018080089FD010003000B391D22521A210018001E
:101818005D46D140083885400A0084402A439346F3
:10182800A2465F4D0026ED1A0023009325E65B468D
:1018380003439A4605D100239B46023308260093AA
:101848001BE6032382460C26009316E600239B46DC
:1018580001330426002500930FE642460133019523
:101868001E43019B7A400133002400200121D2B29B
:1018780002930A2E00DD21E63DE60121C91A382926
:1018880000DD42E61F2947DD1F2625007642F31AB0
:10189800DD402B00202905D04249029D8C46654435
:1018A800AC402043411E8841184307231D000024F3
:1018B800054003424AD00F2300240340042B42D0A2
:1018C800031D8342804140422418180023023AD560
:1018D8000123002400251BE600F01CFD0100030085
:1018E800153120331C298FDD0838002284409246A8
:1018F800A34696E700F00EFD0100030015312033E2
:101908001C2900DC58E702004C46083A00209440A5
:101918005DE7019B029311E7234B26009C460300D9
:10192800029DCB406544AE401E430300AB40581EA9
:10193800834130001843CC404307C7D00F230340EE
:10194800042BBDD1C2E765076402240BC00800233D
:101958000543DDE5002502230F2E0CD180245B46CC
:10196800240323420ED021420CD10C4324033A0015
:101978000E4B240BCCE50B2E00D0A2E58B46AA46D5
:101988000093F7E580245B4624031C432403424666
:101998005546064B240BBBE54D4621000323DBE7E8
:1019A8000DFCFFFF3E0400001E040000FF070000BE
:1019B800F0B557464E464546DE46E0B50D000400F4
:1019C800190010002B035B0A620F1A43E3000C0393
:1019D800640A470F2743D04C6E00914683B04A00F3
:1019E800C0009846A246760DED0F520DC90F019022
:1019F800A24200D1B9E0012461408B468D4200D15A
:101A08008DE0B41AA446002C00DCB7E0002A00D10F
:101A1800CBE0C14A964200D186E1802212041743E6
:101A28006246382A00DDA4E11F2A00DD1DE2614676
:101A380020223C00521A010090409440421E9041DE
:101A48006246A0466446D7404A46E1404446D21B17
:101A580091460C4304431C1BA34292414B465242FD
:101A68009B1A9A4653461B0200D42BE153465A024E
:101A7800530A9A465346002B00D166E1504600F0BF
:101A880049FC0300083B20222000D21A5146D040CE
:101A9800994002009C400A439E4200DD64E19B1B82
:101AA800591C1F2900DDFEE02023100026005B1AC8
:101AB8009C409840CE40CA40631E9C4130439246A9
:101AC80000260443630709D00F232340042B05D0C5
:101AD800231DA342A4416442A2441C0053461B0296
:101AE80000D4F2E08C4B01369E4200D10FE1534600
:101AF8008A49E4080B4019005B07234372054C022E
:101B0800240B520D12052243ED072A431800110039
:101B180003B0F0BCBB46B246A946A046F0BDB41A15
:101B2800A446002C59DD002A00D1B0E0564500D16A
:101B3800FAE08022120417436246382A00DDD4E016
:101B48001F2A00DCC0E13900203AD1406246202A31
:101B580006D064464022121B3C0094400443019482
:101B6800019C621E94410C43C3E03C0004432BD00B
:101B78008B468D422ED06A4CA446B4446446002C51
:101B88005FD0941BA446002E00D020E14C461C4395
:101B980000D1C7E161464C1E012900D123E25E4D08
:101BA800AC4500D1D8E1A4461AE13A00024300D17D
:101BB800E4E02200013A012C00D1C3E156498C42ED
:101BC80000D1B1E094462BE7012461408B468D4259
:101BD80000D016E752498C46B4446446002C00D124
:101BE800D3E0911B8C46002E00D15EE14A498A421F
:101BF80000D1BEE180214C4609040C43A146614650
:101C0800382900DDBAE11F2900DD27E22024641A03
:101C18004946A1401E0088466146A340CE40414641
:101C28005C1EA341314319430C0063464946D94021
:101C38007F18241884429B415B429A461600BA4496
:101C48005DE0384C721C224200D0DFE04A461A435D
:101C5800002E00D05CE1002A00D1CFE13A00024317
:101C680000D17FE11C1A4A46A3428941D21B49424E
:101C7800521A9246120200D40AE2C41AA0428041C3
:101C88004B464042FF1A3B1A9A465D461AE73A000D
:101C9800024373D02200013A012C00D1CBE0544515
:101CA80042D0944648E710001F3BD840202903D073
:101CB80040235B1A9A401443631E9C41002300266C
:101CC8009A460443630700D0FEE65246E3085207EB
:101CD80013435246B446D2080F498C452AD0120302
:101CE800140B62465205520D0CE73C000443621E79
:101CF8009441E4189C42924152424A4492465346C7
:101D08001B02DFD5044B01369E4200D0A0E0320012
:101D180000240023F6E6C046FF070000FFFF7FFF10
:101D280001F8FFFFFE070000DB084A46520713438D
:101D38004A46D2081900114300D1B5E18024240392
:101D480014432403D54A240BDCE6200000F0E2FA11
:101D5800030018331F2B00DC95E622000838824068
:101D680000249E4200DC9AE6F61ACD4B1A409246B1
:101D7800A8E63C000443621E94416CE64A46DB0830
:101D8800520713434A46D208A6E7C64C721C2242A1
:101D980000D0ACE04A461A43002E00D005E1002AE4
:101DA80000D156E13A00024300D1DBE01C189C4206
:101DB8009B414F44BA465B429A4453461B0200D4A7
:101DC80080E75246B64B01261A4092467AE7B34C52
:101DD800A24200D1C0E080244D4624042543A946F0
:101DE8006446382C53DC61461F2C00DDCDE02025ED
:101DF8001E002D1B4C46AB40AC40CE405D1EAB4197
:101E0800344323434C46CC403F1B45E04A461C1A0A
:101E1800D11BA3429241524292460A005146521A9D
:101E28009246120200D583E05346234300D021E6B0
:101E38000022002553E71C189C429B414F44BA4698
:101E48005B429A44534601261B0200D43AE7022615
:101E58005246934B01211A401300214062080A435D
:101E6800DC075B089A4614432CE63900203AD14037
:101E78006246202A06D064464022121B3C00944049
:101E880004430194019C621E94410C43E3E54946D6
:101E980019430B005C1EA341C41AA0429B415B423C
:101EA800FB1A9A465D461600DCE54946194300D1FF
:101EB800AEE0614664460139012C00D1E0E0774C80
:101EC800A44556D08C469AE6614620223C00521A18
:101ED800944001009040A0466446421E90416246EC
:101EE800E1404446D7400C430443B94401E76B49F9
:101EF8008A4200D10CE7181898429B414F445B4234
:101F0800FB18DC0740085B089A4616000443D9E62C
:101F1800002A00D081E03B0003431DD18022002528
:101F280012030BE7C0087B075D460343FA08D3E6B4
:101F3800C41AA04280414B464042FF1A3B1A9A46B7
:101F48005D4697E51C1A4A46A3429B41D71B5B4254
:101F5800FB1A9A46012685E5C0087B075D460343C0
:101F6800FA08E7E64A46DB08520713434A46D2080E
:101F7800B5E6C0087B070343FA08DBE64946194380
:101F88000B00591E8B411C0053E64D46203CE54092
:101F9800202905D04024641A4946A1400B4398469D
:101FA80043465C1EA3412B4376E7002AE1D03A0062
:101FB800DB08024300D1B8E64A465207802413439F
:101FC8004A462403D208224207D0FE08264204D1FA
:101FD8005D463200C3087F073B43590FDB004907C2
:101FE800DB080B43A6E6C41AA04280414B46404298
:101FF800FF1A3B1A9A465D46012633E53B00034328
:1020080000D115E7C0087B075D460343FA0866E67A
:10201800C0087B070343FA085EE63A00DB08024380
:1020280000D182E64A465207802413434A462403D5
:10203800D208224207D0FE08264204D15D4632006B
:10204800C3087F073B43590FDB00DB0849070B43F5
:1020580070E6C0087B070343FA0840E64C4620397F
:10206800CC406146202906D066464021891B4E4651
:102078008E40334398464346591E8B411C43D8E54E
:102088001C18844280414F44BA4640428244D9E6F3
:102098005346234300D1CBE614E6C046FF070000B1
:1020A800FFFF7FFFFE0700000023014A1C0029E50F
:1020B800FF07000070B505000C481C0316005B0004
:1020C8000A034900120B490D240B5B0D814208D00D
:1020D800064A0020934203D120003043431E984112
:1020E80070BD01202A43FBD1F2E7C046FF0700007C
:1020F8000A0030B5134C530009030500090B0020F2
:102108005B0DD20FA34204DD0F48834202DD0F4B63
:10211800D01830BD8020400301430D48C01A1F2845
:1021280008DD0C48C31AD9400B005842002AF0D1E8
:102138001800EEE7084CC540A446634499400B00DC
:102148002B43F2E7FE0300001D040000FFFFFF7FA2
:102158003304000013040000EDFBFFFF70B50028F6
:1021680016D0C317C5185D40C40F280000F0D2F878
:10217800114B1B1A0A2816DC02002E001532964055
:102188000B22121AD5405B052D032D0B5B0D03E0C6
:1021980000240023002500261B052B43E4072343C6
:1021A8003000190070BD0B3885405B052D030026F3
:1021B8002D0B5B0DF0E7C0461E04000010B5041E91
:1021C80010D000F0A7F80F4B1B1A0A2811DC0B22BD
:1021D8002100121AD14015300A035B058440120B06
:1021E8005B0D01E0002300221B05134320001900AA
:1021F80010BD22000B3882405B0512030024120B2D
:102208005B0DF1E71E0400000200F0B54B000D0362
:10221800400F5B0DCC0F6D0A3A490543581CD70097
:1022280008420AD038495918FE2916DDFF20002235
:10223800C0051043E4072043F0BD002B06D13D4301
:1022480026D005229201520AD8B2F1E72F43EDD0E9
:102258008022D203FF202A43EAE700291BDD9201EE
:10226800501E8241ED007F0F2A433A43530747D05F
:102278000F231340042B00D004328023DB041340C7
:102288003ED0481CFE29D1D09201520AC0B2CFE7F5
:1022980000200022CCE70A0017322FDB8026360404
:1022A8002E431E256D1A1F2D11DD02225242521A8D
:1022B8003100D140202D04D0144A944663449E40F6
:1022C80037433A00531E9A410A430021CEE7104A89
:1022D80038009446634498403A00411E88419E4025
:1022E800EA403043024300215307C1D18021130043
:1022F800C90401200B400A42C6D1A3E70023A0E786
:102308000B009FE7FE07000080FCFFFFA2FCFFFF19
:1023180082FCFFFF1C2101231B04984201D3000CFF
:1023280010391B0A984201D3000A08391B09984240
:1023380001D30009043902A2105C40187047C04656
:102348000403020201010101000000000000000076
:102358000C2210B5104C82B0236820001A620F4975
:102368000F4B073203F0DEFE0E4B01A90B80022251
:102378000A23200003F0D6FE01210B4B0B4A936081
:102388000B4A116072B61B6883F30888094B1B68F7
:10239800984702B010BDC046C426002078AF000898
:1023A800881300000D0A000000C8000800ED00E0D6
:1023B8000000014004C8000870B50C00050082B098
:1023C80002F002FA124E2A0023000120316802F0BE
:1023D80055FA002807D133680833336002F006FA4B
:1023E800002002B070BD0C220A4C0B492368200063
:1023F8001A620A4B053203F095FE094B01A90B80BE
:1024080002220A23200003F08DFE02F0FBF9E8E720
:1024180008000020C42600208CAF000888130000A4
:102428000D0A0000F0B50C27554C87B0236802ADA3
:10243800544E062254491F622000544B03F072FE8A
:102448000A230222290020002E8003F06BFE236855
:1024580006224F491F6220004C4B03F063FE0A23FB
:102468000222290020002E8003F05CFE8022494BC6
:1024780049491A6123687A3A1F622000434B03F0E6
:1024880051FE0A230222290020002E8003F04AFE72
:102498002368062241491F6220003C4B03F042FE9C
:1024A8000A230222290020002E8003F03BFE00238D
:1024B8000193023302933033AB60243BEB60236813
:1024C800062237491F622000304B03F02BFE6B4673
:1024D80069461E8002220A23200003F023FE2800FA
:1024E80001A902F01BFA002838D10C27236806221C
:1024F8001F6220002B49254B03F014FE6B46214E2A
:1025080069461E8002220A23200003F00BFE23687E
:1025180006221F62200024491C4B03F003FE2900F9
:102528000A23022220002E8003F0FCFD174801F048
:102538001FFF8022174B20001A6123681B491F6266
:102548007A3A124B03F0EEFD0A23022229002000FA
:102558002E8003F0E7FD002007B0F0BD23680722B6
:102568001F6220001249094B03F0DCFD6B46022272
:102578001E8069460A23200003F0D4FDB5E7C04653
:10258800C42600200D0A0000A0AF00088813000030
:10259800A8AF000800200240B0AF0008B8AF00089C
:1025A800C0AF0008D0AF0008D8AF0008E0AF0008FF
:1025B800C8AF0008F0B54E464546DE465746E0B57A
:1025C8004F4B504C99461B68A5440600884601921B
:1025D800002B00D17FE0019B9B0768D101988308FD
:1025E8005F00BB4632189B44531E1B78023A3D3BA2
:1025F80059424B415946CB1A9B4613783D3B5A42A8
:1026080053415A46D31A9B4600283CD04B463000CB
:1026180003220024196803AE30E0CB5C9B044578A4
:102628003D2D03D04D5D2D03AC46634485783D2D8B
:1026380003D04D5DAD01AC466344C5783D2D02D055
:102648004D5DAC4663445C4511D2651CAC461D0C1F
:102658003555DC454FD2A51CA9461D0AAA46654634
:1026680057467755D94548D24D4603347355019D91
:10267800131D01320430954206D91A0003783D2B08
:10268800CBD10023CBE703AE4346802258021E4B32
:102698003100C018920005F0FFFE012085239B0041
:1026A8009D44F0BCBB46B246A946A046F0BD0C22EC
:1026B800164C1749236820001A62164B023203F0A1
:1026C80031FD154B03A90B8002220A23200003F0D9
:1026D80029FD0020E2E78020400003F02FFF4B4651
:1026E800412418600D49002300E05C5C0355013368
:1026F800402BFAD16FE76446B9E74C46B7E7C046C6
:1027080088240020ECFDFFFF10020020C4260020D2
:10271800E8AF0008881300000D0A00000CBA000892
:1027280070B5AF25FA261F4C01222000402102F087
:1027380047FAAD0000228021200002F041FA28006B
:1027480001F016FE760001228021200002F038FAFE
:10275800300001F00DFE00228021200002F030FA46
:10276800280001F005FE00224021200002F028FA8E
:10277800280001F0FDFD01228021200002F020FA4E
:10278800300001F0F5FD01224021200002F018FA86
:10279800C82001F0EDFD00228021200002F010FA8F
:1027A80070BDC04600080050F0B5C6460C270500AD
:1027B80000B5002182B0244A244805F05DFD244B71
:1027C800244E1B6801221F622349300003F0E6FDF6
:1027D800224C64220021200005F04EFD2800FDF760
:1027E8008BFC1F4B1B68012B01D15A2818D82900D4
:1027F800200005F0A4FD1B49032205F04DFE0C2224
:10280800336820001A62FDF777FC962382B2210014
:1028180030005B0003F086FC02B080BCB846F0BD17
:10282800114B1C2298461B6840461F620F49104BEB
:1028380003F078FC0F4B01A90B8002220A234046C3
:1028480003F070FCD3E7C046DE030000CC0D002087
:10285800302600209C2500200C0200201024002097
:102868000C00002018B00008C4260020F8AF0008AB
:10287800881300000D0A0000F0B5DE464E464546B6
:1028880057460C22E0B5E14B87B01B6804001A627A
:10289800DF4BE049180090460B3A994603F07EFD5D
:1028A800FA22DD4D00219200280005F0E5FCDB4E00
:1028B80064220021300005F0DFFC2000FDF71CFC3D
:1028C800D74B1B68012B02D15A2800D97DE0D54B84
:1028D800019303AB98462100300005F030FDD24942
:1028E800032205F0D9FDD14B0C249B4601235A46FF
:1028F80013604B461B6830001C62FDF7FDFB9623F6
:10290800310082B25B00484603F00CFC019F3000A6
:102918003B681C62FDF7F0FB310082B2C44B380003
:1029280003F000FC4246C34B4146138038000A239B
:10293800022203F0F7FB1526BF4C07E0013E002EEC
:1029480000D197E1FA20400001F012FD2100280093
:1029580005F0DFFC0028F1D02800B84905F0D9FCC3
:10296800061E00D19AE0B64B1B68002B44DC0C26EF
:10297800019F15223B68B3491E623800AC4B03F037
:10298800D1FB4346AB4C022241461C8038000A2347
:1029980003F0C8FB3B6828001E62FDF7ADFB290069
:1029A80082B2A34B380003F0BDFB434602221C80D1
:1029B80041460A23380003F0B5FB022007B0F0BCFB
:1029C800BB46B246A946A046F0BD424695489E4938
:1029D800036807001A621C22954B019003F0A2FBC2
:1029E80003AB98464246934B4146138038000A236E
:1029F800022203F097FB6EE70C22019F934E3B687F
:102A080030001A629146FDF777FB310082B2884B9D
:102A1800380003F087FB4346864C02221C8041465F
:102A28000A23380003F07EFB4A463B6888491A624D
:102A380038007F4B03F076FB434602221C80414658
:102A48000A23380003F06EFB824B741E9946B1448A
:102A5800260008342300002000211F78020E0902F6
:102A68000002013B384311439E42F6D1FFF7A4FC14
:102A78004C45EDD10C22019C7749236820001A624D
:102A88006B4B093203F04EFB42466A4B41461380BA
:102A980020000A23022203F045FB68E76F4928005B
:102AA80005F037FC01002800093105F0E2FC21009F
:102AB800280005F02EFC821E127803003D2A4ED015
:102AC8000670280000260024FDF716FBB0420AD93C
:102AD800AB5D882B01D02B55013428000136FDF75A
:102AE8000BFBB042F4D80023554F2B553B68002B05
:102AF80000D1B9E0023C5A492200404605F050FB9B
:102B08000C22019E4046336892461A62FDF7F4FA99
:102B1800414682B2464B300003F004FB454B02A904
:102B28009846424602AB1A8030000A23022203F07C
:102B3800F9FA220028003968FFF73CFD3B68022BB0
:102B480010DC01335A463B60002346481360FFF708
:102B58002BFEFA20800001F00BFC01202EE7013B40
:102B68001E70AEE75246019D384C2B6820001A6251
:102B7800FDF7C2FA210082B22D4B280003F0D2FAE9
:102B8800424602AB1A8028000A23022202A903F057
:102B9800C9FA52462B6828001A622D490C22244B88
:102BA80003F0C0FA424602AB1A8028000A23022228
:102BB80002A903F0B7FA274B651E9846A0442E00D9
:102BC80008352B00002000211C78020E09020002A3
:102BD800013B20431143B342F6D1FFF7EDFBA84573
:102BE800EDD10C22019C1C49236820001A62104B6D
:102BF800093203F097FA0F4B02AA138020000A2328
:102C0800022202A903F08EFA00239BE73026002057
:102C18009C2500200C020020CC0D00201024002050
:102C28000C000020C426002018B000088C240020C6
:102C3800881300000D0A00001CB0000890B00008BE
:102C48000802002050B00008F8AF00081002002069
:102C580028B00008FF07000038B0000868B0000876
:102C680070B0000874B000080021164A164805F034
:102C780003FB3FE70C26019F15223B6813491E62A0
:102C88003800134B03F04EFA4346124C02224146D9
:102C98001C8038000A2303F045FA3B6828001E62AE
:102CA800FDF72AFA290082B2094B380003F03AFAF4
:102CB800434602221C8041460A23380003F032FAB8
:102CC80000207BE6B80B00001002002078B0000856
:102CD800881300000D0A0000F0B5DE464E46454652
:102CE8005746E0B587B09A46119B02929946784BB1
:102CF800642218008B460021039305F0BDFAFA22DE
:102D0800744D00219200280005F0B6FA01F02AFB64
:102D18008046714B714E724C019301F023FB434680
:102D2800C01A81451FD3462001F022FB3778002FB7
:102D380028D1236801332360092BEEDDFFF7F0FC6F
:102D4800684B69481A680C230199136202680F706E
:102D58001362012203F022FB276001F003FB4346C4
:102D6800C01A8145DFD2039B1B78002B5CD06420FE
:102D780001F0FEFA039807B0F0BCBB46B246A9467C
:102D8800A046F0BD3100280005F073FB2800129919
:102D980005F0BFFA002825D05B461B78002B00D130
:102DA8008CE05946280005F0B4FA53461B78070012
:102DB800002B00D187E05146280005F0AAFA002828
:102DC8000CD0029B9C4667443800FDF795F90090AB
:102DD8005046FDF791F9009B83425FD80022404B93
:102DE8001A609AE72800414905F093FA002805D1AE
:102DF80028003F4905F08DFA0028EFD00C223D4C01
:102E08003D49236820001A623C4B033A03F08AF9D3
:102E18003B4B05A90B8002220A23200003F082F90C
:102E2800039B1B78002BA2D10C27324C344E23680D
:102E380004221F6220003349304B03F073F904ABBE
:102E480005A902229E8020000A2303F06BF923685B
:102E580028001F62FDF750F9290082B2274B200095
:102E680003F060F904AB05A902229E8020000A2322
:102E780003F058F9236810981F62FDF73DF910997F
:102E880082B21E4B200003F04DF904AB9E80022253
:102E98000A23200005A903F045F968E73800002255
:102EA800514605F031FA0700FDF726F9572895D85D
:102EB800421C3900039805F0EFFA54E70100039823
:102EC80005F0D7FA4FE70100039805F0D2FA4AE770
:102ED800AC230020C41F00200C020020CC0D0020D1
:102EE80094240020302600209C250020A0B0000853
:102EF800A8B00008C4260020B0B00008881300005D
:102F08000D0A0000BCB0000800B5094885B0FFF7FD
:102F18004BFC084A084B0292084A094912680020EB
:102F28000192084A00920822FFF7D6FE05B000BDBC
:102F380004B10008DCB00008D0B000081000002080
:102F480010B1000818B10008F0B5D6464F464646FD
:102F5800C0B50C27C24C8EB0236813221F62200014
:102F6800C049C14B03F0DEF8C04B04A999466B4633
:102F78004A4620001A820A23022203F0D3F80121CC
:102F8800BB4BBC4A9360BC4A116072B61B6883F3A2
:102F98000888BA4B1B689847B948FFF705FCB94B36
:102FA800B94E029398463368B84D0193B84B002246
:102FB800009329002B000020FFF78EFE0378002BDA
:102FC8003BD10027B348FFF7EFFBB34B290002932F
:102FD800336800220193B14B002000932B00FFF7C8
:102FE8007BFEAF48FFF7E0FB43460293AD4B290059
:102FF8001B6800220193AC4B002000932B00FFF7C5
:103008006BFE0C22236820001A62A849964B043AEA
:1030180003F088F86A46954B2000138204A90A2316
:10302800022203F07FF800223800A14B1A600EB08C
:10303800E0BCBA46B146A846F0BD236809229D49BE
:103048001F622000884B03F06DF86B464A4604A9BE
:103058001A8220000A23022203F064F89648FFF738
:10306800A3FB964B00220293336829000193944BEB
:10307800002000932B00FFF72FFE0378002BA0D031
:1030880023680D228F491F622000774B03F04AF80E
:103098006B464A4604A91A8220000A23022203F03A
:1030A80041F88948FFF780FB4346029333680022C2
:1030B8000193864B2900009300202B00FFF70CFE9C
:1030C8000378002B00D17CE723680D2280491F621A
:1030D8002000654B03F026F86B464A4604A91A827D
:1030E80020000A23022203F01DF87A48FFF75CFB50
:1030F80043460293336800220193774B29000093DB
:1031080000202B00FFF7E8FD0378002B00D158E7DB
:103118002368092271491F622000534B03F002F80B
:103128006B464A4604A91A8220000A23022202F0AA
:10313800F9FF6B48FFF738FB6A4B002202933368AC
:1031480029000193684B002000932B00FFF7C4FD72
:103158000378002B00D134E72368092263491F62F2
:103168002000414B02F0DEFF6B464A4604A91A8252
:1031780020000A23022202F0D5FF5D48FFF714FB66
:103188005C4B002202933368290001935A4B0020BC
:1031980000932B00FFF7A0FD0378002B00D110E768
:1031A80023680D2255491F6220002F4B02F0BAFFF9
:1031B8004A466B4604A91A8220000A23022202F01A
:1031C800B1FF23680F224E491F622000264B02F0F0
:1031D800A9FF4A466B4604A91A8220000A23022244
:1031E80002F0A0FFFFF71EF92368122245491F626B
:1031F80020001D4B02F096FF4A466B4604A91A822E
:1032080020000A23022202F08DFF23680A223E4989
:103218001F622000144B02F085FF4A466B462000CF
:103228001A8204A90A23022202F07CFF012399468C
:10323800364B9A464A46514604A804F0B1FF04A802
:10324800FFF71AFB071E03D104A8FFF715FBB9E621
:1032580001239C46E1440228ECD11F00B2E6C04697
:10326800C426002078AF0008881300000D0A00006B
:1032780000C8000800ED00E00000014004C8000894
:1032880038B10008DCB0000814000020B0B3000812
:1032980048B1000860B3000870B300087CB30008A8
:1032A80074B0000810000020A0B30008B4B30008F0
:1032B8008C24002068B1000874B1000884B10008AB
:1032C80090B10008B4B10008C4B10008DCB100082E
:1032D80000B2000810B2000828B200084CB200087A
:1032E80058B200086CB200087CB20008A0B200080E
:1032F800ACB20008D0B20008DCB2000800B3000885
:1033080010B3000820B3000834B3000840B3000825
:10331800F0B557464E464546DE460023E0B58046A2
:103328000525334F8BB03B60324B334C0693334B00
:10333800334E9B46334B05979A46334B9946334B4E
:103348000793334B0893334B0993FA20C00001F0DD
:103358000FF82000002158220C3004F08DFF2200C5
:10336800069B83CB83C220001B884146A3810E3075
:1033780004F0E5FF0A22594605F08EF82000FFF711
:1033880013FA534602934B461B6800220193079B8E
:103398003100009300203300FFF79EFCFCF7ACFEE1
:1033A800059B1860002809D1013D002DCDD10BB037
:1033B800F0BCBB46B246A946A046F0BD0898FFF748
:1033C800F3F9534602934B461B6800220193099B6D
:1033D8003100009300203300FFF77EFCFCF78CFEE1
:1033E800059B013D1860002DE1D00028ADDDDEE72A
:1033F80090240020ECB30008601F0020FCB30008F4
:10340800B0B30008DCB000081000002008B40008C1
:1034180028B4000838B40008F0B5DE4657464E46D2
:1034280045460C22E0B5A34E89B03368A2491A621A
:103438003000A24B243202F075FEA14B07AF3B804F
:1034480002220A233900300002F06CFE9D4B0A2547
:1034580099469D4B9D4C9A469D4B98469D4B9B4645
:103468009D4B059302E0002D00D193E09B4800F0AE
:103478007FFF4846FFF798F95346029343461B6877
:10348800002201935B462100009300202300013DA8
:10349800FFF722FCFCF730FE0028E4D00C2233684A
:1034A80005991A623000854B293202F03BFE844BA5
:1034B800022239003B8030000A2302F033FE88489C
:1034C800FFF772F95346029343461B6800220193A3
:1034D800844B2100009300202300FFF7FDFBFCF73D
:1034E8000BFE04907D4800F043FF049B002BBAD0EC
:1034F8000C2233687C491A623000704B313202F07A
:1035080011FE6F4B022239003B8030000A2302F083
:1035180009FE7648FFF748F95346029343461B686D
:1035280000220193724B2100009300202300FFF733
:10353800D3FBFCF7E1FD002895D06E4B04931B6884
:10354800002B68D0012B00D18FE00C2233686A4928
:103558001A623000594B253202F0E4FD584B022222
:1035680039003B8030000A2302F0DCFD6348FFF796
:103578001BF95346029343461B6800220193604B94
:103588002100009300202300FFF7A6FBFCF7B4FD01
:10359800002D3DD10C22336830001A625949474B3F
:1035A800253202F0BFFD464B390002223B80300035
:1035B8000A2302F0B7FD544B18009846FFF7F4F8B9
:1035C800524F534E02973368524D00222100019307
:1035D8000F2023000095FFF77FFBFCF78DFD0028E7
:1035E8000CD14046FFF7E0F80297336800220193B8
:1035F800210023000F200095FFF76EFB464800F0DE
:10360800B7FE09B0F0BCBB46B246A946A046F0BD1D
:103618000028BFD12AE70C22336840491A623000DB
:10362800264B343202F07EFD254B022239003B80C6
:1036380030000A2302F076FD3948FFF7B5F8534603
:10364800029343461B6800220193364B21000093E6
:1036580000202300FFF740FBFCF74EFD0123049AEE
:103668001360002800D1FEE66FE70C2233682E496C
:103678001A623000114B363202F054FD104B022210
:1036880039003B8030000A2302F04CFD2748FFF741
:103698008BF85346029343461B6800220193244B40
:1036A8002100009300202300FFF716FBFCF724FD00
:1036B8000023D4E7C42600205CB400088813000067
:1036C8000D0A000090B40008DCB00008B0B3000890
:1036D800140000209CB4000828B50008B80B0000AE
:1036E80060B5000888B50008A8B50008E8B5000866
:1036F80008B60008040000204CB7000880B700088E
:10370800A8B70008B8B40008ECB40008F8B400087A
:10371800100000200CB50008701700002CB6000837
:1037280070B600089CB60008BCB6000800B70008D0
:103738002CB70008F0B5DE46454657464E46E0B57C
:10374800C64887B000F014FEC54B18009946FFF72D
:103758002BF8C44BC44F0293C44C9846C44D3B68E5
:103768000022210001930F2023000095FFF7B4FAEF
:10377800FCF7C2FC00280DD14846FFF715F8434670
:1037880002933B6800220193210023000F2000953B
:10379800FFF7A2FA02239A46B64DB74E2800FFF764
:1037A80003F8434602933B6800220193210023005B
:1037B8000F200096FFF790FA5346012B00D018E12E
:1037C800FA20C00000F0D4FDFFF726FE4846FEF7B9
:1037D800EBFF434602933B6800220193A74B21006D
:1037E8009A4600930A202300FFF776FAFCF784FC38
:1037F80000280ED14846FEF7D7FF434602933B68A0
:10380800002201935346210000930A202300FFF76A
:1038180063FA022399462800FEF7C6FF434602933F
:103828003B6800220193210023000A200096FFF73D
:1038380053FA4B46012B00D0D3E0914B0A269A4607
:10384800904B9946904B9B4602E0002E00D1C1E078
:103858005046FEF7A9FF434602933B6800220193B6
:103868004B462100009305202300FFF735FAFCF7AB
:1038780043FC0500FA208000013E00F079FD002D90
:10388800E3D05846FEF790FF434602933B68002278
:1038980001937E4B2100009300202300FFF71CFAC0
:1038A800FCF72AFC0028D0D07948FEF77DFF434674
:1038B80002933B6800220193764B2100009300207D
:1038C8002300FFF709FAFCF717FC0028BDD072485F
:1038D800FEF76AFF434602933B68002201936F4B51
:1038E8002100009300202300FFF7F6F9FCF704FC01
:1038F8000028AAD06A48FEF757FF434602933B6860
:1039080000220193674B2100009300202300FFF75A
:10391800E3F9FCF7F1FB002897D0634800F028FD95
:103928006248FEF741FF434602933B680022019339
:103938005F4B2100009300202300FFF7CDF9FCF72F
:10394800DBFB002881D0FA20800000F011FD594BE4
:10395800594D1B68002B54D0012B68D005AEFA20B6
:10396800800000F005FD0C222B6828001A625349DC
:103978003A4B2C3202F0D6FB514B310002223380F5
:1039880028000A2302F0CEFBFA20800000F0F0FCA9
:103998004C4E3000FEF708FF434602933B684A4D01
:1039A800002221000193002023000095FFF794F9DD
:1039B800FA20800000F0DCFC3000FEF7F5FE4346FC
:1039C80002933B6800220193210023000020009508
:1039D800FFF782F907B0F0BCBB46B246A946A0463D
:1039E800F0BDFCF789FB01239946002800D112E7B6
:1039F80023E7FCF781FB01239A46002800D1CDE696
:103A0800DEE60C222B6828001A623049134B2C3250
:103A180002F088FB2A4B05AE338002220A233100CC
:103A2800280002F07FFB2A48FFF772FC97E70C2278
:103A38002B6828001A622749084B2A3202F072FBC9
:103A48001F4B05AE338002220A233100280002F002
:103A580069FB2148FFF75CFC81E7C046881300003A
:103A6800C4B70008DCB0000810000020B0B300089C
:103A7800CCB7000874B00008E0B70008F4B7000835
:103A880008B8000814B800083CB8000848B800088E
:103A980070B800087CB8000898B80008A4B80008F6
:103AA800D4B80008E4B80008B80B000010B9000842
:103AB80020B9000804000020C4260020D0B900085E
:103AC8000D0A0000C0B30008CCB3000848B90008CC
:103AD80084B9000890B90008C8B900087047C04602
:103AE80070B504210400114801F070F8104DAC4283
:103AF80000D070BD0F4C2000FCF7FEFA0E4B984228
:103B080003D80E490B78002B0BD10D4B1B68012BEA
:103B1800EFD100230949012228000B7002F03EFC76
:103B2800E7E7001904F0A5FCEFE7C046000C0050D9
:103B38009C250020CC0D00206B0700000C02002003
:103B480000000020094B10B5984200D010BD084B6A
:103B58001B68012BFAD100230C2206490B7003685D
:103B68001A620B3A02F01AFCF0E7C0469C250020C6
:103B7800000000200C02002000B593B03422002180
:103B880005A804F079FB1022002101A804F074FBB9
:103B98008020800001F022F802230593FE334022A2
:103BA8000893002305A809930A920C9301F046F89C
:103BB800002801D072B6FEE707230193A0230290E4
:103BC8000390DB01002101A8049301F0EDFA00281D
:103BD80001D072B6FEE713B000BDC046F0B5DE46B0
:103BE80057464E464546E0B58DB000F09BFBFFF7C3
:103BF800C3FF1422002107A804F03EFB0423B64D9E
:103C080001266A6B02271A436A636A6BA020134075
:103C18000293029B20236A6BC0051A436A636A6B8E
:103C2800002413400393039B6B6B33436B636B6BF1
:103C380033400493049B6B6B3B436B636B6B3B4060
:103C48000593059B08236A6B1A436A636A6B1340E2
:103C58000693069BA14B002219009B4600F0B0FF7B
:103C68000022C0219E4800F0ABFF002207219D489A
:103C780000F0A6FF8E239B00002219009A489A465E
:103C880000F09EFFA020032307A9C00599460793CB
:103C98000893099400F0A8FEA0200C2307A9C005EA
:103CA8009846079308970B9609940A9400F09CFE8F
:103CB800A0205B4607A9C0050793089609940A94B3
:103CC80000F092FEA020E02307A9C00507930897FB
:103CD80009940A940B9400F087FE844B824807935A
:103CE8004B4607A90893099400F07EFEF9237E4805
:103CF8001B0207A907930894099400F075FE88230E
:103D0800A0205B0107A9C0050793BE370894099452
:103D180000F06AFE724807A90896079709940A9462
:103D280000F062FE07236F4807A9079308960994D5
:103D38000A9400F059FE53466B4807A90793089662
:103D480009940A9400F050FE12236748089307A9C3
:103D58000C3B09960B9307970A9400F045FEAB6B52
:103D680000223343AB63AB6B00211E400A2001964F
:103D7800019B00F01BFB0A2000F04AFB00220021F7
:103D88000B2000F013FB0B2000F042FB0C2200215B
:103D980007A804F071FA564D564B28002B60564B75
:103DA800AC606B60F423FF33EB60AC6101F00AFD9B
:103DB800002801D072B6FEE70790099007A92800ED
:103DC80001F030FD002816D14C4C4D4B9625236050
:103DD8004346A060E0602061A061E061206260620B
:103DE800A062AD0120006560636102F049FA011E1E
:103DF80003D072B6FEE772B6FEE7200002F040FB81
:103E0800011E01D072B6FEE7200002F067FB002811
:103E180001D072B6FEE7200002F014FB021E01D0AA
:103E280072B6FEE7374B384918005D6019609A6032
:103E3800DA601A61434682614361C261026242628A
:103E4800826202F01DFA051E01D072B6FEE78021DB
:103E5800A02001220902C00500F0B2FE0122402183
:103E68001F4800F0ADFE012280211D4800F0A8FE89
:103E7800012220211C4800F0A3FE8021A02001225D
:103E88000902C00500F09CFE01224021144800F000
:103E980097FE01228021124800F092FE1B4E3570D9
:103EA80072B6FEF755FA4246236831001A622000BE
:103EB800012202F073FAFFF73DFC154C2900142289
:103EC800200004F0D9F9FFF71FF80100200004F0E2
:103ED800D0FAFFF739F8FCE7001002401080000024
:103EE80000080050000C00500004005002040000BC
:103EF80050250020001000403F1F00009C25002096
:103F080000380140C4260020004800400C02002070
:103F180074240020044B026810B59A4200D010BDEA
:103F280000F014FAFBE7C046002C014072B6FEE729
:103F3800012200B50B4BC020196C83B011431964E2
:103F4800196CC0000A4080210092009ADA6B49057A
:103F58000A43DA63DB6B0B400193019B00F01AFA0A
:103F680003B000BD0010024000B50C4B026883B0DE
:103F78009A4201D003B000BD1023094A1120D16B29
:103F88001943D163D26B0021134001930022019B96
:103F980000F00CFA112000F03BFAEBE700100040AB
:103FA8000010024070B5040090B01422002104A84B
:103FB80004F062F91C22002109A804F05DF92368C5
:103FC800474A934204D0474A934246D010B070BD46
:103FD800012309A8099301F0DFF900287AD180218B
:103FE800414BC9011A6CA0200A431A641A6C0026B6
:103FF8000A400092009A0122596BC0051143596387
:104008005B6B04A913400193019BC023DB0004935D
:104018000223069605930796089200F0E5FC334DB7
:10402800334B28002B6032236B604E33AE60EE605A
:104038002B616E61AE61EE612E6200F019FA002804
:1040480045D18023002200211B20E550AC6200F0FE
:10405800ADF91B2000F0DCF9B8E78021224BC9023A
:10406800DA6B24480A43DA63DA6B0A400292029A4E
:104078000222596B114359635B6B04A913400393E4
:10408800039B05230493013B0592089300F0ACFCC5
:10409800194D1A4B80222B6037236B60273BAB608E
:1040A80000232800EB602A616B61AB61EB612B6236
:1040B80000F0DEF9002810D1002200211D20E5675C
:1040C800AC6200F073F91D2000F0A2F97EE7FFF75B
:1040D8002DFFB6E7FFF72AFF81E7FFF727FFEBE79A
:1040E8000038014000480040001002409824002099
:1040F8001C00024000040050F42400204400024048
:10410800802170B5204B09011A6C86B00A431A64E5
:104118001B6C06000B400193694602A8019B01F045
:1041280021F9059B002B17D101F008F9174C184B02
:1041380018492360184BE360FBF7FAFF00230138A6
:10414800606020002361A360A36101F03BFB051EB2
:1041580006D0280006B070BD01F0F0F84000E5E791
:10416800200001F0E5F9051EF3D10D2000F050F90B
:10417800032E01D90125ECE7002231000D2000F0C3
:1041880015F9064B1E60E4E700100240582700208E
:10419800002C014040420F00E703000020000020EF
:1041A800FEE7C046FEE7C0467047C0467047C046B7
:1041B8007047C04610B5024800F09EFA10BDC046D0
:1041C8009824002010B5024800F096FA10BDC046A9
:1041D800F424002010B5024801F0E6F910BDC046ED
:1041E8005827002010B5024801F0DEF910BDC0467E
:1041F8005025002010B5024801F0D8FB10BDC0467C
:104208009C25002010B5024801F0D0FB10BDC04627
:10421800C42600200120704710B504F0FDF81623CD
:1042280003600120404210BD10B504F0F5F81623D4
:104238000360FEE770B5161E07DD0C008D1800E060
:1042480000BF20700134AC42F9D1300070BDC046C7
:1042580070B5161E07DD0C008D182078013400E0BB
:1042680000BFAC42F9D1300070BDC04601204042C9
:104278007047C04680239B0100204B607047C046B2
:10428800012070470020704710B50C490C4A030004
:10429800521A0C490868002804D0C318934206D85B
:1042A8000B6010BD0848C31808609342F8D904F0A1
:1042B800B3F80C23036001204042F2E70004000039
:1042C80000900020A4270020182900207047C0462D
:1042D8000D488546FFF7FAFF0C480D490D4A0023A3
:1042E80002E0D458C4500433C4188C42F9D30A4AA3
:1042F8000A4C002301E013600432A242FBD304F00D
:1043080091F8FFF76BFCFEE700900020000000200A
:10431800EC0100201CBF0008EC010020142900203B
:10432800FEE70000802310B5074A5B0011680320F0
:104338000B431360FFF7E4FE041E02D001242000A3
:1043480010BDFFF7F5FDFAE700200240034A044BD1
:1043580011681B785B1813607047C046A8270020B7
:104368001C000020014B18687047C046A827002091
:1043780070B50400FFF7F6FF0500631C02D0044B7C
:104388001B78E418FFF7EEFF401BA042FAD370BD7C
:104398001C000020034A044913680B4003431360C0
:1043A8007047C04600000140FFF9FFFF70B50028C4
:1043B80014DB154B03229C46FF2384080240180097
:1043C800C026D200890190400B409340A400644469
:1043D800B600A55985432B43A35170BD0B4A0F2343
:1043E8009446032203401040FC321500C0008901A6
:1043F80085400A408240083B9B089B006344DC6977
:10440800AC432243DA61E8E700E100E000ED00E0B8
:10441800002805DB1F22012302409340014A136054
:104428007047C04600E100E0F0B5846CC56C65607B
:10443800046D002C02D0446D856D65601C24056CEC
:104448000A4E25401B3CAC4077683C4374600468C6
:1044580063608368102B04D0036899600368DA608E
:10446800F0BD03689A600368D960F9E7000002406C
:1044780070B5041E69D00568354B1421E818FBF7A0
:1044880057FE2523022280002064E2542B68314A1B
:1044980013402B60E068A368226803432069116811
:1044A800034360690343A0690343E0690343206A47
:1044B80003430B431360284B256C9C46AD086544A9
:1044C8002078AD00142165640838FBF731FE234BD2
:1044D800A268A3641F2318401E3B8340E364802323
:1044E800DB019A4222D03F22636813402B60A36C01
:1044F800E26C5A6063685A1E032A21D818498C4610
:104508001849634461650121914000229B0023659D
:10451800A1651A60636DA26D5A60002325220121EE
:104528000020E363A154013AA35470BD00236360E3
:104538002B60A36CE26C5A6063685A1E032ADDD9AB
:10454800002323656365A365E7E70120EDE7C0461F
:10455800F8FFFDBF0F80FFFF0082001080080240B7
:104568003F82001040090240F8B504002420255C71
:10457800012D37D0012525262554A55DEFB2012D43
:1045880005D08023E363002323540120F8BD22389B
:10459800A05500202568E0632868B84328602000FB
:1045A800FFF742FF236B2268002B1DD00E211368F2
:1045B8000B431360626C1368DB0304D58023116816
:1045C8005B000B431360236D002B04D08022196815
:1045D80052000A431A6001212268002013680B4325
:1045E8001360D3E70220D1E7042113688B431360DB
:1045F8002268063113680B431360DBE770B50028A7
:1046080035D02523C35C022B2AD10E210268194C10
:1046180013681C268B431360426C13682340136095
:10462800012301680A689A430A60026C1249324001
:1046380093404D682B434B60836CC26C5A60036D8A
:10464800002B05D01A6822401A60436D826D5A60AB
:1046580025230122C2540022013BC254002070BD10
:1046680004230022C3632033C2540120F7E701204A
:10467800F5E7C046FFFEFFFF00000240252370B5A6
:10468800C35C022B03D00423C363012070BD0E2139
:1046980002681C261368164C8B43136001230168BB
:1046A8000A689A430A60416C0A6822400A60026CF0
:1046B8001049324093404D682B434B60836CC26C69
:1046C8005A60036D002B05D01A6822401A60436DAA
:1046D800826D5A6025230122C2540022013BC25434
:1046E800836B002B02D098470020CFE70020CDE74E
:1046F800FFFEFFFF00000240F8B504241C27250038
:10470800304B01681A68036C0E683B409D402A4292
:1047180014D0344212D00B689B0606D40B68A3430E
:104728000B60036C3B409C402500264A53682B4392
:104738005360036B002B00D09847F8BD0224250076
:104748009D402A421CD034421AD00B689B060BD4D9
:104758000A220B6893430B602523093AC254036C61
:104768001B3213409C402500164A53682B43536064
:1047780024230022C254C36A002BDED09847DCE70A
:10478800082425009D402A42D7D03442D5D00E2295
:104798000B6893430B601C23026C0A491A401B3BAD
:1047A8001D0095402A004C6822434A602522C363B5
:1047B800835400222333C254436B002BBDD0984747
:1047C800BBE7C04600000240054B00205A69002A9A
:1047D80005DA044A9A60044A9A605869C00F70471B
:1047E8000020024023016745AB89EFCD8022044BAE
:1047F800120659690A435A615869C043C00F704785
:1048080000200240014B58687047C046AC27002082
:10481800F8B507008026FFF7A5FD144DC4197602E8
:1048280003E0FFF79FFDA0420ED22B693342F8D177
:104838002A690F4B10000F49184029611A4205D008
:104848000D4B5860012000E00320F8BDFFF78AFDFA
:104858008025064E3F18ED0203E0FFF783FD8742EF
:10486800F2D933692B42F8D10020EEE7002002404C
:10487800FA830000FB830000AC270020F0B5C64691
:1048880000B5244F14003A7880460D001E00012A16
:1048980024D00123FA203B70002380007B60FFF7BF
:1048A800B7FF002804D000233B7080BCB846F0BD99
:1048B8004346194A012B13D1414653690B435361AF
:1048C8002C60BFF36F8F6E60FA208000FFF7A0FFA7
:1048D8004146114A53698B435361E4E70220E4E7F8
:1048E80080235169DB020B435361EFF3108072B6EA
:1048F800661CFF362D1B23682B510434B442FAD1B1
:104908008022054952020B691342FCD180F31088BA
:10491800DAE7C046AC27002000200240F0B54F4639
:104928004646D646C0B52B4B050098461B788946A7
:10493800012B41D042460123FA2013700023800046
:104948005360FFF765FF071E2DD104236B602B68AA
:10495800042B33D001234A465B421360AC68EB68F2
:10496800E3189C421AD21C4B1C4E9A4605E0AB68D1
:10497800EA6801349B18A34210D95146FA2072699B
:10498800E3000A401343164A800013437361FFF79C
:104998003FFF0028EBD04B4607001C6002210F4A5E
:1049A80053698B4353610023424613703800E0BCBF
:1049B800BA46B146A846F0BD0227F7E7FA20074AEB
:1049C800084B516980000B435361FFF721FF070033
:1049D800E9E7C046AC27002007E0FFFF00200240BF
:1049E8000200010004000100F0B54E46DE465746BD
:1049F8004546E0B50E6800220023002E00D19FE056
:104A08000124A4466A4C674635009F403D40A846AD
:104A18003E4200D18DE003254E682E40751E012DC3
:104A280000D893E003259540ED43A946032E22D0F4
:104A38004D468E68C76896402F4003253E43C660A2
:104A48004E682E40022E16D1DF08BF00C7193D6AF6
:104A580005361E40AA46B5000F26AB46AE40554661
:104A6800B543AA465D460E69AE4055462E4303251A
:104A78003E624E682E404D46964007683D402E43A4
:104A8800C02506604E68AD022E4251D0484D9E08A2
:104A9800A946B6004E44356EAB4603251D40ED00D1
:104AA800A9460F254F46BD405F46AF43A025BB46EC
:104AB800ED05A84214D03F4DAA46654650450AD098
:104AC8003D4DAA460225504505D03C4DAA46032532
:104AD800504500D005254F46BD405F462F43BB4695
:104AE8005D46356625688026AA464546EF434D68EB
:104AF8007603354257D156463E4026608026656883
:104B0800B603AA464D68354249D156463E406660CE
:104B180084264D68A659AD0334D484253E40665199
:104B280080264D68A659ED0335D43E408027E651CE
:104B38000E6837000133DF400232002F00D062E7F1
:104B4800F0BCBB46B246A946A046F0BD0325954039
:104B5800AA46ED43A94655468668AE43B246CE6896
:104B6800554696402E43654686604668BE433700E4
:104B78004E6836092E409E4003253E4346604E68E7
:104B88002E4053E745462E438425665180264D68BE
:104B9800A659ED03C9D5454635432E00C6E7454617
:104BA80056462E43B3E7454656462E43A5E7C0462C
:104BB800001802400004005000080050000C00508B
:104BC800002A01D0816170478162FCE742691300C5
:104BD8000B401B0491430B438361704770B5134C22
:104BE800134A2368002513400343236080239B0056
:104BF800984201D0280070BD0E4B0F491B68580021
:104C0800C0184000FBF794FA80226369D200013093
:104C1800134202D1EEE7002805D063690138134238
:104C2800F9D10025E6E70325E4E7C0460070004017
:104C3800FFF9FFFF1800002040420F00F0B5CE46F4
:104C4800474680B5040083B0002800D1F7E0036828
:104C5800DA0733D53822C4498868C9680240102A5F
:104C680000D1F2E0082A00D1F3E080226368520202
:104C7800934200D100E1A021C9028B4200D1D0E1CA
:104C8800B94BBA491A680A401A601A68B8490A4002
:104C98001A606368002B00D138E1FFF763FB8026B8
:104CA8000500B14FB60205E0FFF75CFB401B642826
:104CB80000D929E13B683342F6D023689A072BD5FF
:104CC8003823A94A91680B40D168102B00D1D8E04D
:104CD800002B00D0DAE013685B0500D5ABE0516823
:104CE8006369A4481B0201400B4353609E4AA249D2
:104CF80013680B4021690B43136013689F4A9B0498
:104D08005B0FDA409E490A609E4B1868FFF7F8F976
:104D1800002800D093E023681A076FD45B0747D5B3
:104D28003823914A91680B40202B00D1D4E080238E
:104D38000020D16B5B058146194208D1D16B19431C
:104D4800D163D26B13400193019B012399468027BD
:104D58008D4E7F0033683B4200D1C6E0A368012B2B
:104D680000D17DE1052B00D1BDE101217E4BDA6D3B
:104D78008A43DA65DA6D03318A43DA65A368002B62
:104D880000D115E1FFF7EEFA774B060098460227A7
:104D98007E4D05E0FFF7E6FA801BA84200D9B3E094
:104DA8004346DB6D1F42F5D04B46012B00D151E144
:104DB800E369002B20D038226B4DA9680A40102ADD
:104DC80000D107E1022B00D14FE12B68704A802601
:104DD80013402B60FFF7C6FAB604040005E0FFF79E
:104DE800C1FA001B022800D98EE02B683342F6D1A5
:104DF800EB68684A1340EB60002021E038225A4DE6
:104E0800A9680A40182A2ED0A369002B00D18EE089
:104E180001222B6E022713432B66FFF7A3FA060025
:104E280004E0FFF79FFA801B02286DD82B6E1F4203
:104E3800F7D0236872E7E368002B00D04FE7012022
:104E480003B0C0BCB946B046F0BDC943890700D01D
:104E58000BE7454A1268920300D42FE76268002ADC
:104E680000D02BE7EBE72A6E920700D456E7A26939
:104E7800002A00D052E7E2E73B4A11680B4313606F
:104E880007E70D3B0B40022B00D1D4E0E368364D19
:104E9800002B5FD02B68384A802713402269FF0017
:104EA80013432B6080232A685B0013432B60FFF7B2
:104EB80059FA060004E0FFF755FA801B022823D8A8
:104EC8002B683B42F7D06A6863692A491B020A408B
:104ED80013436B6023681FE7D36D9B0700D467E714
:104EE800A368002B00D063E7A9E733683B4333602E
:104EF800FFF738FA050033683B4200D02EE7FFF78A
:104F080031FA401B0228F6D9032099E7FFF72AFA5D
:104F180080260500144FB60204E0FFF723FA401B71
:104F28006428F1D83B683342F7D12368C6E60122EA
:104F38002B6E022793432B66FFF714FA060004E052
:104F4800FFF710FA801B0228DED82B6E1F42F7D11C
:104F58002368E3E62B68104A802713402B60FFF78D
:104F680001FAFF0006001EE000100240FFFFFEFFEE
:104F7800FFFFFBFFFF80FFFFFFC7FFFF0024F400D8
:104F88001800002020000020007000408813000056
:104F9800FFFFFFFEFCFFFEEFFFFEFFFFFFF7E2F95A
:104FA800801B0228B0D82B683B42F7D12368B3E6B0
:104FB800FFF7D8F9514B060098460227504D04E0F8
:104FC800FFF7D0F9801BA8429ED84346DB6D1F42ED
:104FD800F6D1E9E6012B00D131E70323EA68216A1B
:104FE80013408B4200D02AE77023616A13408B423A
:104FF80000D024E7FE21A36AC90111401B0299428F
:1050080000D01CE7F823E16A9B0313408B4200D0D1
:1050180015E7236B520F52079A4200D00FE7002082
:105028000EE78021354BC9021868014319601968D9
:105038000A431A602DE613685B0503D5E368002B65
:1050480000D1FCE6516863692E481B0201400B43FE
:10505800536059E6294A2C49D36B0B40D363A7E622
:105068002649CA6D1343CB6588E62B68274A8027F3
:1050780013402B60FFF776F9BF04060005E0FFF741
:1050880071F9801B022800D93EE72B683B42F6D114
:10509800616A236AEA680B431D49184E0A401343A4
:1050A800E26A1343226B1343A26A12021343EB60B2
:1050B80080232A685B0413432B608023EA685B051E
:1050C8001343EB60FFF74EF980250400AD0405E0BB
:1050D800FFF748F9001B022800D915E733682B426F
:1050E800F6D00020ACE60421044BDA6D0A43DA65F9
:1050F800DA6D03390A43DA6540E6C046001002401B
:1051080088130000FF80FFFFFFFFFFEFFFFFFFFE98
:105118008C80C11F382310B5204A91680B4205D1F5
:1051280013681F489B045B0FD84010BD9168194055
:10513800082912D091681940102910D09168194097
:10514800202922D092681340183B18004342584146
:10515800FA234042DB011840E7E71248E5E7D36845
:10516800D168DB43D4684906490F64040131640EF1
:105178009B070DD00A48FAF7DBFF6043074BD96855
:10518800490F0131FAF7D4FFCFE780200002CCE7BE
:105198000448FAF7CDFF6043F0E7C046001002402C
:1051A8000024F40000127A00F8B5CE464746050000
:1051B8000C0080B5002827D00722584E33681340CA
:1051C8008B425FD32B689A070FD55B0705D5E02381
:1051D800534ADB0191680B439360514A51499368E4
:1051E8000B40A9680B4393602B68DB072BD56B68D2
:1051F8004B4A012B00D17CE0022B07D0002B00D0BA
:105208007DE01268520504D4012037E0126892014B
:10521800FAD50721424EB2688A431343B360FFF7B9
:10522800A1F838239846404B0700994604E0FFF759
:1052380099F8C01B48453BD84346B2681A406B688A
:10524800DB009A42F3D10722344E33681340A3425D
:1052580038D82B685B072DD4FFF75CFF304B334AF7
:105268009B6833491B051B0F9B009B581F2213404B
:10527800D840304B08601868FEF742FFC0BCB946FA
:10528800B046F8BD336893430B433360FFF76AF8C1
:1052980007239846244B0700994642463368134033
:1052A800A34200D18EE7FFF75DF8C01B4845F4D94B
:1052B8000320E3E71A4A204993680B40E9680B4347
:1052C8009360C9E73368934323433360FFF74AF891
:1052D80007239846144B0700994642463368134003
:1052E800A342B6D0FFF73EF8C01B4845F5D90320C6
:1052F800C4E71268920300D58BE70120BEE7032BB1
:1053080005D0D26D920700D583E70120B6E7126E6B
:10531800920700D57DE70120B0E7C0460020024093
:1053280000100240FFF0FFFF881300004CBA00088D
:105338001800002020000020FF8FFFFF064B0749C0
:105348009B68074A5B045B0F9B005B581F21106832
:105358000B40D8407047C046001002408CBA000885
:1053680018000020072330B5F025094A0360946827
:105378002D011C40446094682C408460E0249268AD
:10538800E4012240C260034A126813400B6030BD3A
:105398000010024000200240F0B5CE46474680B5D6
:1053A8000368040083B000209A034FD58022584B2D
:1053B8005205D96B8046114200D187E08027554DB0
:1053C8007F002B683B432B60FEF7CCFF060005E00F
:1053D800FEF7C8FF801B022800D981E02B683B42FA
:1053E800F6D04B4DC023EA6D9B00110019401A42BC
:1053F80020D0A3698B421ED08021EB6DE86D490255
:105408000143E965E96D444A44481A400140E965A9
:10541800EA65DB070ED5FEF7A5FF414B060002271C
:10542800994604E0FEF79EFF801B484558D8EB6D6F
:105438001F42F7D0A169364A3748D36D03400B4362
:10544800D36543460020012B4ED02368DA0707D5E1
:1054580003212F4A536D8B4361680B4353652368BF
:105468009A0707D50C212A4A536D8B43A1680B4331
:10547800536523689A0607D5254A2A49536D0B4078
:10548800E1680B43536523685A040CD5204A6169C7
:10549800536D9B009B080B43536580236169DB05B3
:1054A800994228D023681B050BD5194A1E49536D0C
:1054B8000B4021690B43536580232169DB01994225
:1054C8001FD003B0C0BCB946B046F0BDD96B11437C
:1054D800D963DB6B13400193019B012398466DE769
:1054E80043460320012BB0D1094A1049D36B0B4026
:1054F800D3632368AAE78023D1685B020B43D36098
:10550800D0E78023D1685B020B43D360D9E7C0465C
:105518000010024000700040FFFCFFFFFFFFFEFF8D
:1055280088130000FFCFFFFFFF3FFFFFFFFFFFEFE4
:105538003D22815C03000120012913D101319954D6
:105548001968CA680243CA601B680F4A93420AD0A6
:105558000E4A934207D00E4A934204D01A68024377
:1055680000201A6070479A680A490A40062A08D03B
:1055780007398A4205D001211A6800200A431A60B7
:10558800F0E70020EEE7C046002C01400004004090
:1055980000400140070001007047C0467047C04600
:1055A8007047C0467047C046022210B50368040021
:1055B80019690A4203D0D9680A4200D075E004226A
:1055C80019690A4202D0D9680A425AD108221969CF
:1055D8000A4202D0D9680A4241D1102219690A4206
:1055E80002D0D9680A4226D1012219690A4203D099
:1055F800D9680A4200D06FE0802219690A4203D0B4
:10560800D9680A4200D06EE01A69D20503D5DA6873
:10561800120600D56FE0402219690A4203D0D96802
:105628000A4200D06EE0202219690A4202D0D968E5
:105638000A424BD110BD213A1A6108232377236807
:105648002000DA69C0239B001A426BD1FFF7A4FF40
:105658002000FFF7A5FF002323772368C4E7113A4A
:105668001A610423237723682000DB699B0756D13E
:10567800FFF792FF2000FFF793FF002323772368AB
:10568800ABE7093A1A6102232377236820009A6955
:10569800C0239B001A423FD1FFF77EFF2000FFF78F
:1056A8007FFF00232377236890E7053A1A610123D7
:1056B800037703689B699B072BD1FFF76DFF2000D9
:1056C800FFF76EFF00232377236878E7413A20002D
:1056D8001A6100F0E3F8ADE7033A1A612000FEF71B
:1056E80019FC236888E7023AFF3A1A61200000F0A3
:1056F800D7F8236888E70D4A20001A6100F0D2F82D
:10570800236888E7813A1A612000FFF74BFF236876
:1057180089E7FFF743FFD5E7FFF740FFC1E7FFF74A
:105728003DFFAAE7FFF73AFF95E7C046FFFEFFFFF8
:105738001D4A0368904223D01C4A904217D01C4A45
:10574800904218D01B4A90421ED01B4A90421BD050
:105758001A4A904218D0802293434A69134303603F
:105768008B68C3620B6883620123436170477022B0
:1057780093434A681343124A1340CA681343EAE73B
:10578800702293434A6813430D4A1340CA6813436F
:10579800802293434A69134303608B68C3620B6892
:1057A80083620B690363DFE7002C014000040040BB
:1057B80000200040004001400044014000480140F2
:1057C800FFFCFFFF70B5041E2AD03D23C35CDAB28C
:1057D800002B20D002233D252100635501C9FFF786
:1057E800A7FF012348220020A3540A3AA3540132F8
:1057F800A3540132A3540132A3540132A3540132F9
:10580800A3540132A3540132A3540132A3540132E8
:10581800A354635570BD3C33C254FEF7A5FBD9E7CA
:105828000120F7E73C2330B5C25C012A2BD00122C6
:10583800C25401330132C2540268144D536894684B
:10584800AA421BD07025AB430D682B4353600368F5
:105858000E4A934205D00E4A934202D00D4A934213
:1058680004D1802294438A6814439C603D2301221A
:10587800C2540022013BC254002030BD064D2B40CB
:105888004D682B43DEE70220F7E7C046002C0140B5
:105898000004004000400140FFFF0FFF7047C04672
:1058A8007047C0467047C04630B5EFF310840122F8
:1058B80082F310880168134D0B682B400B6084F34A
:1058C8001088EFF3108182F3108802680E4C9368F9
:1058D8002340936081F31088C36E012B0AD1EFF344
:1058E800108183F31088102402681368A34313609F
:1058F80081F310888C232022C2500023C36643679B
:1059080030BDC046DFFEFFFFFEFFFFEF7047C04619
:10591800F8B588218C23846A6558E05823689A680A
:10592800120601D5212D14D09B685B0601D52228CB
:1059380008D090221021A35820000B43A350FEF753
:1059480001F9F8BD5E2300222000E252FFF7ACFF08
:10595800EFE756230022E252EFF31086013282F37A
:105968001088C02725682B68BB432B6086F31088F6
:10597800EFF3108582F310882268054E9368334050
:10598800936085F31088202363502368CCE7C046D2
:10599800FFFF7FFF00235E2210B5806A8352083A1A
:1059A8008352FEF7CFF810BD7047C046F8B545469C
:1059B800DE4657464E46E0B50268B14DD36904004D
:1059C800106891682B4200D1CBE0AE4EAE4D0E4030
:1059D8000540354359D1E56E012D26D080256D034C
:1059E8002B4202D04E0200D5DEE080221A4206D0B9
:1059F80080252D04024029400A4300D0CDE04022F2
:105A08001A4202D0024200D0D7E01A0202D5420060
:105A180000D5E6E0DB0102D5002800DA28E1F0BC79
:105A2800BB46B246A946A046F8BD10261E42D5D0B0
:105A38000642D3D0166223689A68402318001040A3
:105A4800134200D1D7E08022A058944602685268D9
:105A580092B2002AE3D05C218B46615A9142DED98A
:105A68005E27E25302681068202217000740B846F4
:105A7800024200D110E1022323675C33E35A20007D
:105A8800C91A89B2FFF790FFC9E701251D4206D060
:105A9800C70504D590271562E2592A43E25102222C
:105AA8001A426DD0CD0708D5256890272A620425AB
:105AB800E2592A43E2511D4266D108251D4209D008
:105AC80020220240324305D0902622681562A2594E
