:020000040800F2
:1000000000900020E1720008757000087B70000805
:1000100000000000000000000000000000000000E0
:10002000000000000000000000000000EDFD0008DE
:10003000000000000000000011FF0008CDDC0008F7
:1000400031730008000000003173000831730008AC
:1000500031730008317300083173000831730008F0
:10006000000000008170000899700008BD70000851
:1000700031730008E17000083173000800000000CF
:1000800031730008F97000083173000831730008FB
:1000900031730008317300083173000831730008B0
:1000A00031730008317300083173000811710008C2
:0800B0002971000841710008EC
:1000C00010B5064C2378002B07D1054B002B02D02E
:1000D000044800E000BF0123237010BDF801002098
:1000E00000000000845E0108044B10B5002B03D013
:1000F0000349044800E000BF10BDC04600000000F6
:10010000FC010020845E01080023C25C0133002A48
:10011000FBD1581E7047000002B4714649084900DF
:10012000095C49008E4402BC7047C04603B4714666
:10013000490840004900095E49008E4403BC7047ED
:10014000002243088B4274D303098B425FD3030A16
:100150008B4244D3030B8B4228D3030C8B420DD329
:10016000FF22090212BA030C8B4202D312120902B7
:1001700065D0030B8B4219D300E0090AC30B8B42F5
:1001800001D3CB03C01A5241830B8B4201D38B03A3
:10019000C01A5241430B8B4201D34B03C01A524148
:1001A000030B8B4201D30B03C01A5241C30A8B428B
:1001B00001D3CB02C01A5241830A8B4201D38B0276
:1001C000C01A5241430A8B4201D34B02C01A52411A
:1001D000030A8B4201D30B02C01A5241CDD2C3098C
:1001E0008B4201D3CB01C01A524183098B4201D308
:1001F0008B01C01A524143098B4201D34B01C01AF3
:10020000524103098B4201D30B01C01A5241C3086A
:100210008B4201D3CB00C01A524183088B4201D3D9
:100220008B00C01A524143088B4201D34B00C01AC5
:100230005241411A00D20146524110467047FFE731
:1002400001B5002000F0F0F802BDC0460029F7D04B
:1002500076E7704703460B437FD4002243088B4266
:1002600074D303098B425FD3030A8B4244D3030B3D
:100270008B4228D3030C8B420DD3FF22090212BA02
:10028000030C8B4202D31212090265D0030B8B427E
:1002900019D300E0090AC30B8B4201D3CB03C01A68
:1002A0005241830B8B4201D38B03C01A5241430B43
:1002B0008B4201D34B03C01A5241030B8B4201D333
:1002C0000B03C01A5241C30A8B4201D3CB02C01A9E
:1002D0005241830A8B4201D38B02C01A5241430A16
:1002E0008B4201D34B02C01A5241030A8B4201D305
:1002F0000B02C01A5241CDD2C3098B4201D3CB01AC
:10030000C01A524183098B4201D38B01C01A52415A
:1003100043098B4201D34B01C01A524103098B425E
:1003200001D30B01C01A5241C3088B4201D3CB0049
:10033000C01A524183088B4201D38B00C01A52412C
:1003400043088B4201D34B00C01A5241411A00D2DC
:1003500001465241104670475DE0CA0F00D0494245
:10036000031000D34042534000229C4603098B42B5
:100370002DD3030A8B4212D3FC22890112BA030A3D
:100380008B420CD3890192118B4208D389019211BF
:100390008B4204D389013AD0921100E08909C30944
:1003A0008B4201D3CB01C01A524183098B4201D346
:1003B0008B01C01A524143098B4201D34B01C01A31
:1003C000524103098B4201D30B01C01A5241C308A9
:1003D0008B4201D3CB00C01A524183088B4201D318
:1003E0008B00C01A5241D9D243088B4201D34B0033
:1003F000C01A5241411A00D20146634652415B1075
:10040000104601D34042002B00D549427047634655
:100410005B1000D3404201B5002000F005F802BD9A
:100420000029F8D016E770477047C0468446100090
:1004300062468C461900634600E0C0461FB501F0D5
:10044000A1FE002801D40021C8421FBD10B501F053
:10045000F1FD4042013010BD10B501F093FE0028BF
:1004600001DB002010BD012010BDC04610B501F019
:1004700089FE002801DD002010BD012010BDC0460E
:1004800010B501F019FE002801DC002010BD01208C
:1004900010BDC04610B501F00FFE002801DA0020A3
:1004A00010BD012010BDC046844608006146FFE72C
:1004B0001FB500F0C5FB002801D40021C8421FBDB4
:1004C00010B500F051FB4042013010BD10B500F0F6
:1004D000B7FB002801DB002010BD012010BDC04685
:1004E00010B500F0ADFB002801DD002010BD01209B
:1004F00010BDC04610B500F05DFB002801DC0020F7
:1005000010BD012010BDC04610B500F053FB0028FF
:1005100001DA002010BD012010BDC04670B50022D8
:100520000C4B04000D00FFF7B5FF002804D120009C
:10053000290002F0A7FC70BD064B00222000290014
:1005400002F0F0F802F09EFC80231B069C466044FB
:10055000F1E7C0460000E04170B505000C00002244
:10056000002328002100FFF777FF002808D128008A
:10057000210000F00FF802000B001000190070BD00
:1005800080231B06E118280000F004F800234242F3
:100590008B41F2E770B500220B4B0D00040001F017
:1005A00055FEFFF7BBFF060002F0D2FC0022074B0E
:1005B00001F04CFE02000B002000290002F0B2F80E
:1005C000FFF7ACFF310070BD0000F03D0000F041CE
:1005D00070B50600080002F08BFC0022064B01F00B
:1005E00035FE0D000400300002F0B2FC2B002200AA
:1005F00000F0EEFE70BDC0460000F041F0B5C6460A
:1006000043025B0A4E0245004F00DA00C40F9C46CD
:10061000700A904600B52D0E3F0EC90FB6098C42E8
:100620004BD0EA1B002A36DD002F61D0FF2D00D110
:10063000ADE08023DB041E431B2A00DCD3E0012055
:100640004346181A430100D48CE080018709380022
:1006500002F074FD05388740854200DCB6E02D1AB3
:10066000B3483840430704D00F230340042B00D085
:100670000430430100D478E06A1CFE2D65D080016F
:10068000430A9C46D2B26346D0051843E407204390
:1006900080BCB846F0BD002A35D07A1B002D00D0B2
:1006A000AFE04346002B00D1A7E0531E012A00D142
:1006B0002FE1FF2A69D01A00AAE0E91B002970DDAA
:1006C000002F37D0FF2D62D08023DB041E431B296F
:1006D00000DCB0E001204044430143D50135FF2D4B
:1006E00033D00123934A0340400810401843B9E730
:1006F000002E00D183E0511E012A00D1D8E0FF2A4C
:1007000045D00A0098E7FE276A1C174200D086E011
:10071000002D00D0B7E04346002B00D1F3E00022CB
:10072000002EB0D0981B430100D4FAE043460C00E1
:10073000F01A97E7002E00D1C8E04A1E012900D127
:10074000AEE0FF2923D01100C1E70023FF229C4621
:1007500099E7FE216A1C114277D0FF2AF5D01500D7
:1007600046447008430700D07EE7C308FF2D0ED033
:100770005B025B0A9C46EAB285E7002E07D0802226
:10078000D203134203D0104201D10C000300002B0E
:10079000DBD08020C00318434002430A9C46FF225E
:1007A00071E70029D5D07A1B002D60D14346002B7C
:1007B00024D0531E012A73D0FF2AE7D01A001B2A27
:1007C00000DC85E001203D00801985E720233A0008
:1007D000451B38000135EA405D1BA840431E984187
:1007E000002510433EE7202330009B1A310098403B
:1007F000D140431E9841084322E70C000300150036
:10080000B4E7FF2FC1D080234046DB041843804665
:100810001B2A51DD01200C003D00301A12E743462F
:100820009F1B7B012BD4002F00D010E70023002456
:1008300000229C4627E7202332003000CA40591A84
:100840008840431E9841104345E7002D4AD1434656
:10085000002B63D00022002E00D114E7300040446A
:10086000430100D47EE7324B013518407AE7FF2F71
:100870008CD080234146DB04194388469FE74346DA
:100880000C00F71AE3E64246002A00D075E7002E76
:1008900000D07AE78023DB0300249C46FF22F2E6A7
:1008A000300040440125430100D45BE7022518E7EE
:1008B00043460125981BC5E6202344464046D440C4
:1008C0009A1A9040431E98412043A4E70D004DE73B
:1008D000202341464046D1409A1A9040431E9841F9
:1008E000084370E74246002A00D14FE7002E00D1AE
:1008F0004DE78022D203134200D148E7104200D0D6
:1009000045E7030043E7002E90D00C008446002208
:10091000B9E643460C00F01A013593E684460022FE
:10092000B1E6002800D01DE7002300249C46AAE67B
:10093000FFFFFFFBFFFFFF7DF0B54F464646D64663
:100940004502C0B547000C1C6D0A3F0EC60F002FB4
:1009500000D170E0FF2F00D175E0EB008025ED04A1
:100960001D43002399469A467F3F6002430A9846FA
:1009700063001B0EE40F002B4ED0FF2B46D04246E7
:10098000D0008022D2040243904600227F3B3100F7
:10099000FF1A4B466140C9B213430F2B00D9B5E093
:1009A0006E489B00C3589F46002398462600454644
:1009B00092465346022B00D189E0032B00D19EE0E2
:1009C000012B18D03B007F33002B69DD6A0704D070
:1009D0000F222A40042A00D004352A0103D5604B97
:1009E0001D403B008033FE2B00DD70E0AD016D0A41
:1009F000D8B202E00E0000200025C0052843F6070B
:100A00003043E0BCBA46B146A846F0BD4346002B91
:100A10003FD10222FF3F03E04346002B2DD10122AC
:100A200031004B466140C9B213430F2B34D84D48B7
:100A30009B00C3589F46002D13D104239946033BC6
:100A400000279A4691E7002D05D108239946063BD9
:100A5000FF279A4689E70C239946093BFF279A46C8
:100A600083E7280002F06AFB7627431F9D4000239E
:100A70007F4299469A463F1A77E7404602F05EFB6E
:100A80004246431F9A4076235B4290461B1A00223F
:100A90007DE7FF2303227AE70E00FF200025ACE765
:100AA0000120C01A1B28A6DC9E372A00BD40C24088
:100AB0006B1E9D4115436B0704D00F232B40042B65
:100AC00000D004356B0144D50120002595E7FF20B7
:100AD000002592E780250026FF20ED038DE7002307
:100AE00098468020C003054209D04346034206D100
:100AF000454605436D022600FF206D0A7DE78020F4
:100B0000C00305436D02FF206D0A76E742466B0184
:100B10005001834219D21B220025013F01261C00EF
:100B20006D005B00002C01DB984201D81B1A354395
:100B3000013A002AF3D15A1E93411D433B007F33F3
:100B40000E00002B00DD41E7AAE71A2201251B1A3F
:100B5000E4E7AD0100206D0A4FE7C046CC74010800
:100B6000FFFFFFF70C75010870B5420045024E0209
:100B70004C00C30F6D0A0120120E760A240EC90F15
:100B8000FF2A06D0FF2C03D0A24201D1B54206D0E5
:100B900070BD002DFCD1FF2CFAD1002EF8D18B4274
:100BA00006D00120002AF3D12800431E9841EFE728
:100BB0000020EDE770B5420045024E024C00C30F25
:100BC0006D0A120E760A240EC80FFF2A1BD0FF2CC6
:100BD0000ED0002A1BD1002C01D1002E1CD0002DDC
:100BE0000CD083421CD00221581E0840013870BD31
:100BF000002E22D1002AF4D1002DF2D10028F6D106
:100C000001204042F3E7002D17D1FF2CF0D0002C3B
:100C1000E7D1002EE5D1E6E70020002DE7D0E2E79E
:100C2000A24205DCEADBB54202D8E7D30020DEE7CA
:100C30004342584140000138D9E702204042D6E7FC
:100C400070B5420045024E024C00C30F6D0A120EF1
:100C5000760A240EC80FFF2A0BD0FF2C0DD0002AD5
:100C60001FD1002C16D1002E14D10020002D10D041
:100C700009E0002D0CD1FF2C13D1002E08D1002A41
:100C800008D0834212D00221581E0840013800E0EB
:100C9000022070BD002DF4D10028FAD1012040427D
:100CA000F7E7002CEDD1002EEBD1ECE7A24205DCFA
:100CB000F2DBB54202D8EFD30020EAE743425841C5
:100CC00040000138E5E7C046F0B54F464646D646F7
:100CD00044024500C0B5640A0F1C2D0EC60F002D3E
:100CE00000D18DE0FF2D00D192E0002380209946B5
:100CF0009A46E400C00404437F3D7802430A9846C4
:100D00007B001B0EFF0F002B00D170E0FF2B00D1EA
:100D100086E04246D00080227F3BED180023D204BB
:100D2000024390469C4631004B467940681C0F2B8D
:100D30001CD8764A9B00D3589F4639004446E24669
:100D40005346022B0FD0032B00D1D7E0012B37D114
:100D500000200024C0052043C9070843E0BCBA4670
:100D6000B146A846F0BDFF200024F3E7260C24047A
:100D7000220C44462404240C434627001B0C5743F2
:100D800074435A435E4312193B0C9B189C4203D98F
:100D900080225202944666443F041A043F0CD21942
:100DA0009401671EBC411B0C920E9B1914439B01BE
:100DB0001C431B0100D49BE0012362081C40144328
:100DC00002007F32002A64DD630704D00F23234032
:100DD000042B00D00434230103D502004C4B803295
:100DE0001C40FE2ABFDCA401640AD0B2B2E743462D
:100DF000002B3DD14A4601331A4391469C4692E767
:100E0000002C29D104239946033B00259A4674E718
:100E1000002C1BD108239946063BFF259A466CE718
:100E20004346FF35002B0BD102234A461A43914615
:100E30009C4678E753463100022B00D083E792E7C7
:100E400003234A461A4391469C466CE70C23994675
:100E5000093BFF259A4650E7200002F06FF97625FE
:100E6000431F9C4000236D4299469A462D1A44E741
:100E7000404602F063F94246431F9A4000232D1A70
:100E800090469C46763D4EE780240021FF20E403F7
:100E900060E701239B1A1B2B00DD59E722009E30DF
:100EA000DA4084401300621E94411C43630704D05F
:100EB0000F232340042B00D0043463011AD50120F2
:100EC000002447E78020C003044209D04346034280
:100ED00006D14446044364023900FF20640A39E71E
:100EE0008020C003044364023100FF20640A31E71C
:100EF000280065E7A4010020640A2BE78020C003D6
:100F000004436402FF20640A24E7C0464C750108CC
:100F1000FFFFFFF7F8B5CE46474643025B0A4E0295
:100F2000DA009446720A914645004A0080B52D0EBB
:100F30001F00C40F120EC90FB609FF2A5BD0012093
:100F400041408C4239D0A81A00285ADD002A6AD0C4
:100F5000FF2D00D1D9E08022D20416431B2800DCEB
:100F6000E9E001206346181A430100D4B4E080018F
:100F70008709380002F0E2F805388740854200DC36
:100F8000CCE02D1AB5483840430704D00F23034066
:100F9000042B00D00430430100D4A0E06A1CFE2DD5
:100FA00000D18DE08001470AD2B2D0053843E40772
:100FB0002043C0BCB946B046F8BDA81A80460028F8
:100FC00045DD002A70D0FF2D00D19EE08023DB0498
:100FD0001E4343461B2B00DCD2E00120604443014A
:100FE0007AD50135FF2D6BD001239D4A034040087F
:100FF00010401843C8E7002E20D08C4223D0280090
:10100000FF38002839D0571B002D00D09DE06346E3
:10101000002B00D1DBE07B1E012F00D10DE1FF2F63
:1010200071D01F0098E0002E00D1A7E0421E0128D9
:1010300000D1E6E0FF2868D010008FE70120414092
:10104000A14200D07FE7FF2040428046A8444046AE
:10105000002838D0511B002D00D1AEE0FF2A00D16E
:10106000DFE080236046DB04184384461B2900DC54
:10107000D9E0012015008019B1E7FE206A1C10425A
:1010800071D1002D00D0A6E06346002B00D1D9E03D
:101090000022002E00D188E7981B430100D4E1E034
:1010A00063460C00F01A6FE7002E00D1B7E0020093
:1010B000013A012800D19CE0FF2826D0904688E71D
:1010C000FF22002771E7FE206A1C104264D0FF2A2D
:1010D000F6D0150066447008430700D056E7C308F1
:1010E000FF2D12D05B025F0AEAB25EE76246002A79
:1010F00000D196E0002E08D08022D203134204D003
:101100004846104201D10C004B46002BD8D0802716
:10111000FF031F437F02FF227F0A46E720233A0096
:10112000451B38000135EA405D1BA840431E98412D
:101130000025104328E720231B1A32009E40C2409E
:101140003000431E984110430CE7FF2ADBD0802378
:101150006046DB04184384461B2F56DD01200C003B
:101160001500301A00E763469F1B7B013DD4002F1A
:1011700000D0FEE600240022002716E70500AFE7B6
:10118000320043464146DA4020235B1A9E4030003D
:10119000431E9841104321E7002DA7D16346002B41
:1011A00059D00022002E00D1FFE6300060444301F8
:1011B00092D52A4B013518408EE76346002B47D065
:1011C0004B1E012915D0FF292BD019004EE70C002A
:1011D0004B463D0084E76246002A8BD1002E92D117
:1011E00080270024FF22FF03DFE663460C00F71A86
:1011F000BFE6300060440125430100D46CE70225BE
:10120000F2E663460125981BAEE62023644660465D
:10121000FC40DF1BB840431E984120439FE7050078
:101220005EE74B4671E7202365466046CD40591A7C
:101230008840431E984128431CE763460C00012563
:10124000F01A91E6002E95D00C004F460022ACE635
:101250004B460D0044E74F460022A6E6FFFFFFFB8A
:10126000FFFFFF7D002800D036E7002400279CE622
:1012700041024200C30F490A0020120E7E2A03DDFC
:101280009D2A02DD094A9818704780200004014316
:10129000952A07DC9620821AD1404842002BF3D1D0
:1012A0000800F1E7963A9140F7E7C046FFFFFF7F5D
:1012B000F8B5002813D0C317C6185E40C40F30001D
:1012C00001F03CFF9E2305001B1A962B0FDC08281B
:1012D00001DD083DAE407602760AD8B202E0002475
:1012E00000200026C0053043E4072043F8BD992BB9
:1012F0000CDD05223100121AD1400A000100300035
:101300001B318840411E884102431600052D12DC26
:1013100031000D4F3940720709D00F2030400428AA
:1013200005D004314A0102D59F2339405B1B890156
:101330004E0AD8B2D6E76A1F96403100024F3940B4
:101340007207F4D0E9E7C046FFFFFFFB70B5051E4A
:101350000ED001F0F3FE9E2304001B1A962B0CDC2A
:10136000082801DD083CA5406D026D0AD8B201E0F5
:1013700000200025C005284370BD992B09DD02001F
:1013800029001B3291404A1E91410522121AD54074
:101390000D43052C12DC29000C4E31406A0709D0A0
:1013A0000F202840042805D004314A0102D59F238C
:1013B00031401B1B89014D0AD8B2DBE7621F954003
:1013C0002900024E31406A07F4D0E9E7FFFFFFFB36
:1013D000F0B54F464646D6460D000400C0B51F0086
:1013E00011002803620F400A10437A00520DE300F7
:1013F0003C039146640AFA0F4F0F6E002743924652
:10140000B846760DED0FC900954200D199E04C46E3
:10141000341BA446002C00DC7CE04A46002A00D1A4
:10142000B8E0C54A964200D11CE180223C0012047B
:101430001443A0466246382A00DD61E11F2A00DD20
:10144000CCE164462022121B444694400F00A14682
:1014500064469140E7404C464A1E91413C43424617
:1014600021436446E240801A5C1AA3429B415F42DA
:10147000C71B3B0200D4D0E07F027F0A002F00D1BF
:10148000FFE0380001F05AFE010008392023220055
:101490005B1A8F40DA408C401743B14200DAFFE01C
:1014A000891B4B1C1F2B00DDA8E020223900D21A1B
:1014B000200094409140D840621E9441DF400026B5
:1014C00001430C43630709D00F232340042B05D0AD
:1014D000231DA342A44164423F191C003B0200D4D7
:1014E0009EE0954B01369E4200D1B7E0934AE40856
:1014F00017407B0771057F0223433F0B4A0D1205FE
:101500003A43ED072A4318001100E0BCBA46B14641
:10151000A846F0BD002C4BD04C46A41BA446002E80
:1015200000D023E104001C4300D1AFE16246541E09
:10153000012A00D115E2804DAC4500D1C8E1A44696
:101540001BE14A46B21A9446002A00DCACE04A4647
:10155000002A43D0784A964200D1AFE180223C0075
:1015600012041443A0466246382A67DC1F2A00DCB6
:101570005FE14746203AD7406246202A05D06446BC
:101580004022121B4446944021434A1E91410C00C4
:101590003C4357E03A000A4300D105E12200013AFA
:1015A000012C00D182E1644CA4455BD0944641E714
:1015B000634C771C274200D0C4E004001C43002E7B
:1015C00000D069E1002C00D1BFE144460C4300D0BB
:1015D000D0E14207DB081343C00829E03A000A4380
:1015E00000D170E162466446013A012C00D1E0E08E
:1015F000514CA44500D161E19446B4E73A001F394B
:10160000CA401100202B03D04022D31A9F403C43F4
:10161000631E9C41002700260C43630700D053E75C
:10162000B446E4087B072343F808434A94451DD099
:101630006246070352053F0B520D60E744460C43D8
:10164000621E9441E4189C429B415F423F183B025A
:10165000E3D5394B01369E4200D0B5E03200002779
:1016600000234CE74207DB081343C0081A0002437B
:1016700000D1E1E180273F0307433F032E4A3F0BA0
:101680003DE7200001F05AFD010018311F2900DC60
:10169000FCE60838844027000024B14200DBFFE666
:1016A000264A761A17400DE7002A2FD04A46921B89
:1016B0009446002E00D1ADE01F4A914500D10FE1C4
:1016C0008022120410436246382A00DD0FE11F2AEF
:1016D00000DD80E1644620221E00121B67460400E4
:1016E00093409440FE405A1E9341F84034431C43BB
:1016F000804464188C42BF417F424E464744A6E76F
:1017000042460A4311004A1E9141ADE60C4C721C40
:10171000224200D0A1E002001A43002E00D0FAE0DD
:10172000002A00D145E13A000A4300D046E14207D1
:10173000DB081343C0087BE7FF070000FFFF7FFFC4
:10174000FE07000047465C1AC21BA342BF417F420E
:10175000B94617004A46BF1A3A0200D58DE0230069
:101760003B4300D08AE60020002561E7B44CA14548
:1017700000D1ADE08024240420436446382C3DDCB5
:1017800062461F2C00DDB7E020251E002D1B040043
:10179000AB40AC40D640D04042465D1EAB413443E6
:1017A000121A904623432CE04207DB081343C0087B
:1017B0003BE75C189C429B4140445B42C7180126B2
:1017C0003B0200D429E702269E4A63081740012203
:1017D00014401C43FB071C437F0873E64446203A31
:1017E000D4406246202A05D067464022D21B474695
:1017F000974039434A1E9141214335E60343581E21
:101800008341CC1AA142BF4143467F4255464E46D2
:10181000DF1B2EE602001A4300D1BDE0624664469B
:10182000013A012C00D1E5E0854CA44558D09446FE
:1018300049E764462022121B444694400F00A1460B
:1018400064469140E7404C464A1E91413C43424623
:101850000C436146CA408018F4E6794CA24200D19C
:10186000FDE6591899429B4140445F42C719FC0765
:10187000490816000C437F08CFE6CC1AA142BF41AD
:1018800043467F42181A5546C71BF7E5C9087B0730
:1018900055460B43F808C8E6002C00D081E04346CB
:1018A0000B4315D1802000250003E3E65C1AA34218
:1018B0009B41C71B5B420126FF1ADAE54207DB08A2
:1018C0001343C008D2E64207DB081343C008ACE666
:1018D00043464246C9085B0755460B43D008C5E658
:1018E000434642465B07C9080B43D008BEE60343A4
:1018F0001C00631E9C41FCE60200203CE2401400F8
:101900006246202A03D04025AD1AA8400343581E42
:101910008341234375E7002AE2D03A000A43CDD041
:101920004207DB0813438022C0081203104206D08E
:10193000FC08144203D12000CB087A0713435A0F46
:10194000DB005207DB08134390E643460B4300D10C
:1019500009E743464246C9085B0755460B43D00892
:1019600066E6CC1AA14289413F1A494255460126F2
:101970007F1A7EE542465C1A871AA3429241524280
:10198000BF1A3A023DD5CC1AA14289414346494289
:101990001F1A55467F1A95E57B07C9080B43F808BF
:1019A00043E64446DB080C4330D142071343C008EA
:1019B0005CE67B07C9080B43F80839E65C189C42D3
:1019C0009B4140445B42C7183B0200D425E61D4BB7
:1019D00001261F4021E60400203AD4406246202A16
:1019E00004D040226646921B904003435A1E934106
:1019F0001C437EE65C188C428941404449424718AA
:101A0000DDE623003B4300D1ADE606E64407234371
:101A10008024C0082403204208D04246D60826422B
:101A200004D155463000CB0851070B435A0FDB0059
:101A3000DB085207134319E60023014A1F005EE545
:101A4000FF070000FFFF7FFFF0B557464E464546B3
:101A5000DE46E0B5814605000C03480092461F00B3
:101A600085B0240B400DCE0F002800D156E1D44B99
:101A7000984200D172E16B0FE4001C4380231B04E9
:101A800023439846CF4BED009B4600239946834461
:101A900000933C037B005046240B5B0DFF0F002B93
:101AA00000D11FE1C64A934200D162E1C549420F0D
:101AB0008C46E40059461443802263441204CB1A36
:101AC00014439B46C200002033007B409A464B469D
:101AD0000F2B27D8BC499B00CB589F46B246009B92
:101AE000022B16D0032B00D18EE2012B00D0D9E0BF
:101AF00000230024002552461B052343D20713432D
:101B00002800190005B0F0BCBB46B246A946A04665
:101B1000F0BD00240025AA4BEDE7BA46A04615000B
:101B20000090DCE7444500D2C7E100D1C2E10123C7
:101B30005B429C462E0040460025E3442302140EDF
:101B40001C431B0C994623041F0C120249460092A9
:101B50000197FEF77BFB02007A430B04310C8046B1
:101B600019438A4207D901235B429C460919E04484
:101B70008C4200D807E2881A4946FEF767FB090441
:101B80008C4631046646019A090C424303003143F6
:101B90008A4204D90919013B8C4200D8EDE1881A28
:101BA000424612041A4390464146009B0E041B0C09
:101BB0001F000293009B360C1B04190C0B0073438F
:101BC000120C7E43039151437A431F0CBC46761896
:101BD0006644B14203D9802149028C466244310CEB
:101BE0008A1831041E04360C8E19904202D312D189
:101BF000B54210D24346591E009B9C4665441F00C7
:101C00009D429B415B421B19C018844200D2A0E157
:101C100000D19BE18846AE1BB542AD41801A6D42B2
:101C2000401B844200D1D5E14946FEF70FFB019AE3
:101C30000B044243310C050019438A4200D96CE180
:101C4000881A4946FEF702FB019A3604424309040A
:101C5000360C03000E43B24200D953E10398B61A82
:101C600002002D041D43029F2B041B0C5A437B438F
:101C70009C46290C4843130C84446344794398429E
:101C800003D98020400284466144180C12041B04CE
:101C9000120C41189B188E4200D2FFE000D1FAE0EE
:101CA00001231D43494A5A44002A00DCAAE06B077D
:101CB00000D03DE1ED084346DB0106D54246444BEA
:101CC0001A4090468022D2005A44424B9A4200DD8C
:101CD0001FE743465B071D43434652055C02240B46
:101CE000530D08E75246224300D17BE0002C00D17F
:101CF000FAE0200001F022FA02000B3A1D23010055
:101D00009B1A52460839DA408C40144352468A40A6
:101D1000314B58449B4683440020D5E64B46234331
:101D2000984644D0002C00D1CEE0200001F006FA05
:101D3000010002000B391D235B1A49461000D940EF
:101D4000083884400B004D4623439846854023487D
:101D5000831A9B460023994600939AE64B462343F9
:101D600098461DD108239946063B002583460093DB
:101D70008FE65246224309D1022349461943184BA4
:101D800089469C4600240220E3449DE603234A46FC
:101D90001A43134B91469C4652460320E34493E674
:101DA0000C239946093BA0468346009371E6042321
:101DB000994600239B4601330025009369E6C046FF
:101DC000FF07000001FCFFFF8C750108FF03000006
:101DD000FFFFFFFEFE070000F30300000DFCFFFF06
:101DE00001F8FFFF494601231943894600240120D9
:101DF0006AE6002380249A4600258A4B24037AE66B
:101E000001256D4201239B1A382B00DD70E61F2B44
:101E100000DCBFE01F2149428A1A4146D1400A0036
:101E2000202B04D04146804B5B4499400D436B1EF0
:101E30009D4107232A431D0000241540134200D171
:101E4000D4E00F2100231140042900D1CBE0111D63
:101E50009142924152429B180A00190200D4C2E0FA
:101E600001230024002546E6802341461B03194236
:101E700008D01C4206D11C432403BA461500694B06
:101E8000240B38E68024434624031C432403B24633
:101E9000644B240B2FE6002B00D103E7A619681E24
:101EA000A64200D28DE08E4200D2A3E000D1B3E082
:101EB0000500F5E6AA4200D939E64346DE07580890
:101EC0006B081E43ED0739E6484601F037F901007B
:101ED0000200153120321C2900DC2CE74B46083863
:101EE00083400025984632E701F028F903001A00E4
:101EF000153220301C2A00DC00E75446083B002243
:101F00009C4005E73619013BB44200D9A6E6B2422F
:101F100000D8A3E6831E3619A0E60919013D8C42BC
:101F200000D98DE68A4200D88AE6851E091987E61F
:101F30000F232B40042B00D1BCE605235B42AB42B0
:101F40009B4104355B42ED089844B4E6AF4200D9AA
:101F500060E6824204D800D05CE6AE4200D859E682
:101F600002235B429C46009BE0449C4665449D42A4
:101F70009B415B421B19C0184DE68A4200D80EE611
:101F8000831E09190BE68A4200D8F4E5831E9846A1
:101F90000919F0E52549280059448D4042468A40F8
:101FA000691E8D414146D840D94002432A430B0067
:101FB000510700D151E70F211140042900D046E715
:101FC0004BE705008E4200D06AE6009A934200D0AB
:101FD00066E667E6164A5A44002A00DC10E7012349
:101FE0000025984467E65D075B021C0BD2080023BE
:101FF000154380E50098023D42008242BF417F4286
:102000003C1936190092DDE78024434624031C4323
:102010002403044B240B6EE5009A9A42EAD3050090
:10202000D3E7C046FF0700003E0400001E04000086
:10203000FF030000F0B54E464546DE465746904643
:10204000E0B517001A03120B0500844619480E0369
:102050004C0091465A00DB0F9B46360B640DC90FAE
:10206000520D844219D0824210D0012094420ED1E8
:102070004E450CD10120C44509D1594517D0002C3B
:1020800005D130002843431E984100E00120F0BCF8
:10209000BB46B246A946A046F0BD330001202B4303
:1020A000F5D1A242F3D14B463B43F0D1E2E7002009
:1020B000EDE7C046FF070000F0B54746CE460400F6
:1020C000180016001B031B0B2D4D4A00994680B5C6
:1020D00043000F03A446B0463F0B520DC90F5B0DE2
:1020E000C00FAA4221D0AB4213D0002A22D13C43D8
:1020F000002B02D14D462E4322D0002C10D081421D
:1021000022D00220013908400138C0BCB946B0468F
:10211000F0BD4D462E4329D1002AF0D13C43EED1EB
:102120000028F2D101204042EFE73D0025431DD1B8
:102130009342EED0002BE2D14C462643DFD1E0E7BC
:102140000020002CE1D0DCE79A420ADCE8DB4F45B6
:10215000D7D80ED000204F45D7D20029E2D00800B2
:10216000D3E74342584140000138CEE702204042C5
:10217000CBE7C445C5D80020C445C6D2EDE7C0466C
:10218000FF070000F0B54746CE46040018001600D1
:102190001B031B0B2C4D4A00994680B543000F03CF
:1021A000A446B0463F0B520DC90F5B0DC00FAA42AB
:1021B0000DD0AB4210D0002A27D13C43002B11D1C7
:1021C0004D462E430ED10020002C15D00EE03D00D0
:1021D000254310D1934218D14D462E430BD1002AEE
:1021E00002D13C43002C0BD0814214D00220013993
:1021F0000840013800E00220C0BCB946B046F0BD3E
:102200000028F9D101204042F6E7002BECD14C46E2
:102210002643E9D1EAE79A4204DD434258414000AF
:102220000138E9E79A42EBDB4F45DFD806D00020C2
:102230004F45E1D20029E5D00800DDE7C445D5D8F7
:102240000020C445D8D2F5E7FF070000F0B5574697
:102250004E464546DE46E0B598460C034B00060068
:10226000924687B0240B5B0DCF0F002B00D15CE1B1
:10227000D94A934200D175E1420FE4001443802211
:1022800012041443D54AC5009446634400930023C6
:1022900099469B46434642461E03D20F5B0050467A
:1022A0009046360B5B0D00D120E1CB4A934200D122
:1022B00062E1CA49420F8C4600996344F6008C469D
:1022C000164380229C44120463461643C200002039
:1022D00000930099434601318C4649467B40019367
:1022E0000F2926D8BE4B890059588F464346019383
:1022F0003400150083465B46022B16D0032B00D119
:1023000003E2012B00D0CDE0002200240025019B38
:1023100012052243DB071A432800110007B0F0BC66
:10232000BB46B246A946A046F0BD00240025AA4AF5
:10233000EDE7280C2D042D0C2B00110C1204120CAF
:102340005343984613002F00434399464F434F444D
:10235000BB4647460B003F0CBA464343DA44029360
:10236000D14504D980277F02B9464B440293534696
:102370001B0C9B4653461F0443461B041B0C9846EC
:102380003B0043440493330C3604360C9846330028
:1023900043439946434643432F009A464346774377
:1023A0005D43380C4D444519A94503D980235B0290
:1023B0009946CA443F04280C3F0C2D04ED19270C04
:1023C0002404240C0300200050437A4391463A0031
:1023D00053440593030C9A464A436143494451448C
:1023E000AB44894503D980235B0299464A440004E3
:1023F0000B0C000C09040918200099464346704351
:102400005C437E435F43030C9846A41944444A440A
:102410000397A64204D980235B029846474403975A
:102420002304029E9A46059B5E449846AE42AD4107
:1024300076188E4289410004000C504440446D429D
:102440004719B846934649428946C344D9449842FD
:102450008041A845AD4193459241894589416D42EE
:1024600040422843240C524249420A43039B00192C
:102470008018C7184B46DC0D049B75021D436A1E6D
:1024800095414B46F60D7F0235435A023C431543B6
:10249000FB0100D41CE101216A080D401543E2074D
:1024A000154364084F496144002900DCB0E06B0724
:1024B00009D00F222A40042A05D02A1DAA42AD4184
:1024C0006D4264191500E30104D58021464AC90014
:1024D00014406144454A914200DD26E76207ED0859
:1024E000640249051543240B4A0D10E75246324356
:1024F00000D17FE0002E00D1DCE0300000F01EFEB5
:1025000002000B3A1D2301009B1A52460839DA409B
:102510008E40164352468A40009B3549181A0300E4
:102520008C46634400200093D3E6250005434AD03F
:10253000002C00D1B0E0200000F000FE01000200FD
:102540000B391D2310005B1A310035000838844018
:10255000D94085400C432648831A009300239946AE
:102560009B4697E60500254326D1082200930223C7
:10257000002491469B468DE65246009B324310D183
:10258000154900268C4663444946009302231943AB
:10259000894602209DE65B460197022B00D0ADE6FE
:1025A000C3E60D4A0320944663444A46009303233E
:1025B0001A43914652468CE60C22009303230500F1
:1025C00091469B4666E60423994600230093013317
:1025D00000249B465EE6C046FF07000001FCFFFFAB
:1025E000CC750108FF030000FFFFFFFEFE0700009F
:1025F0000DFCFFFF494601231943894600260120AF
:1026000067E6002380240025434A019324037EE6E5
:102610000120401A382800DD76E61F285BDD1F22E6
:1026200023005242511ACB401900202803D03B4AC4
:102630006244944025436A1E95412A000A430721BB
:102640000D000024154011425BD00F2100241140E1
:10265000042953D0111D914292415242A4180A00FC
:1026600023024BD501220024002550E680231B03C2
:102670001C4209D01E4207D133431C0343461500B8
:10268000240B254A019342E68022120314432403BB
:10269000214A240B01973AE600F050FD01000200A8
:1026A000153120321C2900DC4BE7340008380025A6
:1026B000844050E700F042FD03001A00153220303C
:1026C0001C2A00DC1EE75646083B00229E4023E7FA
:1026D000009B9C46E6E61249220061442E008D4094
:1026E0008A40C640691E8D4132432A43C440530785
:1026F000B6D00F2111400429ACD1B1E765076402BF
:10270000240BD2081543002201E680221203144351
:102710002403014A240BFAE5FF0700003E040000F1
:102720001E040000F8B557464E464546DE46E0B565
:102730001E0017004A000B03520D5B0A9046420F21
:102740001A43CD0FCD4C3103C300944670007A0F6D
:10275000490AFF009A46B946400DF60F1143A042C0
:1027600000D1B1E001225640B346B54200D188E025
:102770004246121A002A00DCAEE0002800D1C1E077
:10278000BE48804500D151E1802000040143382A31
:1027900000DD7BE11F2A00DDEEE120203E00801AF3
:1027A0000C00D640D140874062468440521A781EC1
:1027B0008741944634432743DC1BA3429B41624636
:1027C0005B42D31A99464B461B0200D418E14B4694
:1027D0005802430A99464B46002B00D137E1484640
:1027E00000F0ACFC010008392023220048465B1AA7
:1027F000DA4088408C4043461043884500DD36E18E
:10280000C91A4B1C1F2B00DDEAE020222600D21A39
:1028100001009440DE40D84000239140621E944164
:102820008146984631430C43630709D00F23234068
:10283000042B05D0231DA342A4416442A1441C00E3
:102840004B461B0200D4DEE041468C4B01319942DD
:1028500000D1E7E04B468A48E408034018004905E8
:102860005B07400223434A0D040B1205ED07224388
:102870002A4318001100F0BCBB46B246A946A04648
:10288000F8BD4246121A002A52DD002800D19CE011
:10289000A04500D1CAE0802000040143382A00DDB1
:1028A00049E11F2A00DC97E110000E002038C640E5
:1028B000202A04D04020821A91400F43B9464C464A
:1028C000621E944134433AE10A003A4328D0B346A9
:1028D000B5422BD06B4A4244002A5DD04246444662
:1028E000821A002C00D0F5E065461D4300D19CE122
:1028F000551E012A00D1FBE1604CA24200D1BDE18E
:102900002A00F0E00800384300D1C3E0501E012A3D
:1029100000D1A8E1594CA24200D187E0020036E77D
:1029200001225640B346B54200D021E7554A424401
:10293000002A00D1B5E042464446821A002C00D15C
:1029400038E14E4EB04200D1DEE1802664463604C6
:102950003443A446382A00DD96E11F2A00DD24E234
:102960002026B41AA24664465646B440A1461C002E
:102970004E46D440264334005646B3405E1EB34113
:102980001C436346D340C918E419BC42BF417F428F
:10299000B94680468944D8E040463B4C013020424D
:1029A00000D0B4E04046002800D044E1604618431F
:1029B00000D190E10800384300D0AAE16146DB086D
:1029C00049070B436146CC0827E00800384361D033
:1029D000501E012A00D139E1A24227D002005DE752
:1029E00002001F39CA401100202B03D04022D31A05
:1029F00098400443631E9C410023994698460C432B
:102A0000630700D012E74B464A46E4085B072343BE
:102A1000D408424619498A420ED024035205240B99
:102A2000520D22E70A00002400231EE7DB0862465D
:102A3000520713436246D4081A00224300D1FCE136
:102A400080221203144324030C4A240B0DE72000B8
:102A500000F074FB010018311F2900DCC4E60838BF
:102A60008440434620000024884500DCC8E6044A30
:102A70005B1A104098468146D6E6C046FF07000024
:102A8000FFFF7FFF01F8FFFFFE0700000F437A1EE4
:102A9000974191E66146DB0849070B436146CC0844
:102AA000B8E74046D34C0130204200D0A2E0404677
:102AB000002800D001E16046184300D15EE1080023
:102AC000384300D05FE16146DB0849070B436146AC
:102AD000CC08A2E7C84DA84200D1CFE080256446CB
:102AE0002D042C43A446382A56DC1F2A00DDD1E0F1
:102AF00020251E00AD1A6446AB40AC40D6405D1E9A
:102B0000AB41344323436446D440091B49E060464B
:102B1000DC1B461AA34280414042814630004E46AB
:102B2000801B8146000276D44B46234300D052E6F8
:102B30000024002571E739430C00621E9441E4181B
:102B40009C429B415B42634499464B461B0200D426
:102B500056E701239C46A84BE044984538D04B46A5
:102B6000A648012203401800630814401C43C30711
:102B70001C434308994657E610000E002038C64013
:102B8000202A04D04020821A91400F43B9464F4674
:102B90007A1E974137430FE662461A4313005A1EC6
:102BA0009341FC1AA742BF417F42CB1B99465D4629
:102BB000804608E666461E4300D1BEE0561E012A46
:102BC00000D109E18C4CA24200D119E13200C1E6EA
:102BD00042460024002348E620200C00801A3E00D4
:102BE00087408440D640781E8741D14034433C43DF
:102BF0008C44A4E7804A904200D1E9E0DF199F426B
:102C00009B4161445B42C918CC077F084B08994639
:102C100080463C43F4E6FC1AA742BF4163467F422C
:102C2000C91ACB1B99465D46D5E5FF084B075D46A3
:102C30003B43CC08EEE662461A4300D082E00B002C
:102C40003B431BD1802400252403F9E6DC199C4278
:102C50009B41614489465B4299444B461B0244D4E4
:102C600001239846CCE6DC1B6246A3429B41511AE5
:102C70005B42CB1A994601239846A4E5FF084B070F
:102C80005D463B43CC08D7E662461A431400631EF8
:102C90009C4179E615006446203DEC40A046202A80
:102CA00005D040256446AA1A944023439A465446C8
:102CB000631E9C414346234373E762461A4323D075
:102CC0000A003A4300D0A0E06246DB0852071343F3
:102CD0006246D408B0E60B003B4300D128E7FF086A
:102CE0004B075D463B43CC0897E60223984636E700
:102CF000FC1AA742BF4163467F42C91ACB1B9946C3
:102D000001235D4698465EE54B07FF083B43CC0830
:102D100092E6DC1B6046A342B641401A7642801B15
:102D20008146000260D5FC1AA742BF4163467F423C
:102D3000C91ACB1B99465D4676E5FF084B073B4316
:102D4000CC0867E60A00DB083A4300D16FE662462A
:102D5000520713436246D40880221203144207D05C
:102D6000C808104204D15D460400FB0849070B4324
:102D70005A0FDB00DB08520713435DE64B07FF08E1
:102D80003B43CC0849E6DC199C429B41614489469F
:102D90005B4299444B461B0200D431E64A46174B2E
:102DA0001A400123914698462AE616006446203EC2
:102DB000F440A046202A05D040266446B21A94402A
:102DC00023439A465446631E9C4143461C43DBE51D
:102DD00002000024002348E5DC19BC42BF416144E5
:102DE00089467F42B94438E74B46234300D19FE6EA
:102DF00006E6C046FE070000FF070000FFFF7FFF5A
:102E0000FF084B073B43CC0816E66246DB08520737
:102E100013436246D40880221203144207D0C80824
:102E2000104204D15D460400FB0849070B435A0FCA
:102E3000DB005207DB081343FEE50023014A1C00B8
:102E400013E5C046FF07000070B505000C481C03E1
:102E500016005B000A034900120B490D240B5B0DA1
:102E6000814208D0064A0020934203D1200030431B
:102E7000431E984170BD01202A43FBD1F2E7C046B2
:102E8000FF0700000A0030B5134C5300090305008A
:102E9000090B00205B0DD20FA34204DD0F488342D3
:102EA00002DD0F4BD01830BD8020400301430D4898
:102EB000C01A1F2808DD0C48C31AD9400B0058421D
:102EC000002AF0D11800EEE7084CC540A446634440
:102ED00099400B002B43F2E7FE0300001D040000A5
:102EE000FFFFFF7F3304000013040000EDFBFFFF32
:102EF00070B5002816D0C317C5185D40C40F280050
:102F000000F01CF9114A121A0A2816DC03002E00E0
:102F100015339E400B23181AC54052052D032D0B67
:102F2000530D03E000240023002500261B052B433E
:102F3000E40723433000190070BD0B38854052056B
:102F40002D0300262D0B530DF0E7C0461E04000094
:102F500010B5041E10D000F0F1F80F4B1B1A0A2810
:102F600011DC0B222100121AD14015300A035B0537
:102F70008440120B5B0D01E0002300221B0513436C
:102F80002000190010BD22000B3882405B0512039F
:102F90000024120B5B0DF1E71E04000070B5430026
:102FA0004602C40FFE201B0E591C750A08420CD0A5
:102FB000E022920094466D07360B63441B053343B1
:102FC000E40723432800190070BD002B14D1002D05
:102FD0001BD0280000F0B2F80A281CDC0B232E00BE
:102FE0001B1ADE40030015339D400E4A3603121AA9
:102FF0005205360B530DE1E7002D09D08022360B28
:103000001203094B6D071643D8E700230026D5E7C6
:103010000026054BD2E703000B3B9D402E00002508
:10302000E3E7C04689030000FF07000002004B00F1
:10303000F0B55B0D0C033D4E640A400F5F1CC90FD9
:103040000443D50037420AD039481E18FE2E16DD3B
:10305000FF200024C0052043C9070843F0BD002B12
:1030600006D12C4326D005229201540AD8B2F1E7AA
:103070002543EDD08020C0030443FF20EAE7002E63
:103080001BDD9201531E9A41E4006D0F22432A4337
:10309000530748D00F231340042B00D00432802361
:1030A000DB0413403FD0701CFE2ED1D09201540A95
:1030B000C0B2CFE700200024CCE73200173222DB79
:1030C0008020000420431E24A41B1F2C1DDD02228F
:1030D0005242961B0200F2401600202C04D0154AE2
:1030E00094466344984005432A00531E9A41324354
:1030F00000265307CED180241300E404012023408E
:103100002242D3D1B0E70023ADE70B4A94462A0010
:10311000E24014002A0063449A409840551EAA4198
:1031200002432243E4E733009EE7C046FE07000067
:1031300080FCFFFFA2FCFFFF82FCFFFF1C2101239C
:103140001B04984201D3000C10391B0A984201D38A
:10315000000A08391B09984201D30009043902A268
:10316000105C40187047C0460403020201010101CF
:10317000000000000000000080B582B000AF802396
:103180005A01A023DB051100180005F051FD0300D2
:103190007B607B681800BD4602B080BD80B582B000
:1031A00000AF80231B01064A1900100005F040FD06
:1031B00003007B607B681800BD4602B080BDC0463E
:1031C0000004005080B582B000AF80235B01064A46
:1031D0001900100005F02CFD03007B607B681800CF
:1031E000BD4602B080BDC0460004005080B582B02C
:1031F00000AF80239B01064A1900100005F018FD5E
:1032000003007B607B681800BD4602B080BDC046ED
:103210000004005080B582B000AF8023DB01064A75
:103220001900100005F004FD03007B607B681800A6
:10323000BD4602B080BDC0460004005080B582B0DB
:1032400000AF80231B020D4A1900100005F0F0FCAE
:1032500003003B60FB1D4F221A703B68012B03D11A
:10326000FB1D4F221A7002E0FB1D43221A70FB1D4A
:103270001B781800BD4602B080BDC0460004005057
:1032800080B582B000AF80235A00A023DB05110077
:10329000180005F0CDFC03007B607B681800BD467C
:1032A00002B080BD80B500AF0449054B0422180070
:1032B00004F0A6FBC046BD4680BDC046B80600204F
:1032C0002402002080B582B000AF0B4B1B681800B1
:1032D000FEF73CF8031C7B60084B1B687968181CE0
:1032E000FDF7F2FC031C0649181CFDF7EDFC031C5E
:1032F000181CBD4602B080BDB806002004000020A6
:103300000000304180B500AF0A4B5B681800FEF743
:103310001DF8021C084B1B68191C101CFDF7D4FC7F
:10332000031C0649181CFDF7CFFC031C181CBD46E6
:1033300080BDC046B80600200400002000003041D7
:1033400080B500AF0A4B9B681800FDF7FFFF021C19
:10335000084B1B68191C101CFDF7B6FC031C8321CD
:10336000C905181CFDF7B0FC031C181CBD4680BD28
:10337000B80600200400002080B500AF0A4BDB68CF
:103380001800FDF7E3FF021C084B1B68191C101CFA
:10339000FDF79AFC031C191C181CFDF72FF9031CE0
:1033A000181CBD4680BDC046B806002004000020A1
:1033B00080B582B000AF78607B68012B07D1802395
:1033C0009B000A480122190005F04FFC09E07B68C8
:1033D000002B06D180239B0004480022190005F031
:1033E00044FCC046BD4602B080BDC046000400504B
:1033F00080B582B000AF78607B68012B06D10A4BA4
:1034000001222021180005F030FC08E07B68002B29
:1034100005D1054B00222021180005F026FCC046EE
:10342000BD4602B080BDC0460004005080B582B0E9
:1034300000AF78607B68012B06D10A4B0122102176
:10344000180005F012FC08E07B68002B05D1054B45
:1034500000221021180005F008FCC046BD4602B04D
:1034600080BDC0460004005080B582B000AF7860D7
:103470007B68012B06D10A4B01220821180005F0B8
:10348000F4FB08E07B68002B05D1054B00220821E6
:10349000180005F0EAFBC046BD4602B080BDC0463C
:1034A0000004005080B582B000AF78607B68012BCB
:1034B00006D10A4B01220421180005F0D6FB08E0D2
:1034C0007B68002B05D1054B00220421180005F074
:1034D000CCFBC046BD4602B080BDC046000C0050CB
:1034E00080B582B000AF78607B68012B06D10A4BB3
:1034F00001220221180005F0B8FB08E07B68002BD0
:1035000005D1054B00220221180005F0AEFBC04694
:10351000BD4602B080BDC046000C005080B582B0F0
:1035200000AF78607B68012B06D10A4B0122012194
:10353000180005F09AFB08E07B68002B05D1054BCD
:1035400000220121180005F090FBC046BD4602B0E4
:1035500080BDC046000C005080B582B000AF7860DE
:103560007B68012B08D180231902A023DB050122EF
:10357000180005F07AFB0AE07B68002B07D1802356
:103580001902A023DB050022180005F06EFBC046DF
:10359000BD4602B080BD000080B582B000AF78604B
:1035A0007B68012B06D10A4B01228021180005F00F
:1035B0005CFB08E07B68002B05D1054B00228021D5
:1035C000180005F052FBC046BD4602B080BDC046A3
:1035D0000008005080B582B000AF78607B68012B96
:1035E00006D10A4B01224021180005F03EFB08E0FD
:1035F0007B68002B05D1054B00224021180005F007
:1036000034FBC046BD4602B080BDC0460008005035
:1036100080B582B000AF7860254A264B00211800A3
:103620000CF0D1FF244B1B680C221A622349244B57
:103630000122180008F09BFA224B64220021180096
:103640000CF0C1FF7B681800FCF75EFD03005A22F6
:103650009A429B415B42DAB21B4B1B68013B5942C9
:103660004B41DBB21340DBB2002B03D0174B1800E9
:1036700003F004F97A68134B110018000EF049F8B2
:10368000104B1800FCF740FD03001A000D4BD21838
:103690000F4B1000190003231A000CF08BFF094B8D
:1036A000180003F029F9C046BD4602B080BDC046EF
:1036B000DE030000B00A00207C0400208C100020F3
:1036C000E80300209010002008000020C45E0108DC
:1036D000E45E010880B582B000AF7860254B1B68BE
:1036E0000C221A622449254B0122180008F03FFAE7
:1036F000234A244B002118000CF065FF224B642262
:10370000002118000CF05FFF7B681800FCF7FCFC40
:1037100003005A229A429B415B42DAB21B4B1B6860
:10372000013B59424B41DBB21340DBB2002B03D0CB
:10373000174B180003F0A2F87A68134B1100180019
:103740000DF0E7FF104B1800FCF7DEFC03001A0039
:103750000D4BD2180F4B1000190003231A000CF068
:1037600029FF094B180003F0C7F8C046BD4602B058
:1037700080BDC0467C0400208C100020E80300209F
:10378000DE030000B00A0020901000200800002096
:10379000C45E0108E45E010890B589B000AFF8602E
:1037A000B9607A603B60564B6422002118000CF02F
:1037B0000AFFFA239A00534B002118000CF003FF74
:1037C00003F0EAFD0300FB6179E0462003F0EEFD23
:1037D0004D4B1B78002B00D171E04B4A494B110037
:1037E00018000DF096FFBA6B464B110018000DF053
:1037F000ACFF0300BB61BB69002B4BD0BB681B78DF
:10380000002B06D1BA693E4B110018000DF081FF64
:103810005EE0BA683B4B110018000DF096FF030004
:103820007B613B681B78002B06D17A69344B110011
:1038300018000DF06EFF4BE03A68324B1100180093
:103840000DF083FF031E3AD07B687A69D318180005
:10385000FCF75AFC04003B681800FCF755FC030019
:103860009C422CD97B687A69D318396800221800E9
:103870000EF019FE03003B613B691800FCF744FCA5
:103880000300572B1BD83A691D4B110018000DF08F
:1038900040FF1DE01D4A1B4B110018000DF055FFA5
:1038A000031E07D11A4A174B110018000DF04DFFE7
:1038B000031E04D0174B180002F0E0FF08E003F0ED
:1038C0006BFD0200FB69D21A7B6B9A4200D87CE741
:1038D0000B4B1B78002B0BD10F4B180002F0CEFFC7
:1038E000084B180002F0CAFF3B6B180002F0C6FF3D
:1038F000642003F05BFD024B1800BD4609B090BD8B
:1039000048110020C8060020B00A00206C5F0108A2
:10391000745F01087C5F0108885F010880B584B08E
:1039200004AF0A4B1800FFF773FE094A09490A4B16
:1039300002930A4B01930A4B009313000C220020C0
:10394000FFF72AFF03001800BD4680BDD85F0108BD
:10395000E45F0108E85F0108F05F010888130000D8
:10396000F45F010880B584B004AF0B4B1800FFF77B
:103970004FFE0A4B1B680A480A490B4A0292019300
:103980000A4B0093030008220020FFF705FF030005
:103990001800BD4680BDC046746001080C000020C0
:1039A000E45F010880600108F05F01088860010899
:1039B00080B584B004AF0B4B1800FFF729FE0A4B0B
:1039C0001B680A480A490B4A029201930A4B00936A
:1039D000030008220020FFF7DFFE03001800BD46A9
:1039E00080BDC046A86001080C000020E45F01080B
:1039F000B4600108F05F0108BC60010890B597B0A1
:103A000010AFCB4B0422002118000CF0DCFDC94B99
:103A10000422002118000CF0D6FDC74B042200211F
:103A200018000CF0D0FDC54B0422002118000CF04A
:103A3000CAFDC34B0422002118000CF0C4FDC14B89
:103A40000522002118000CF0BEFDBF4B052200210D
:103A500018000CF0B8FDBD4B0622002118000CF038
:103A6000B2FDBB4B0622002118000CF0ACFDB94B97
:103A70000622002118000CF0A6FDB74B06220021FB
:103A800018000CF0A0FDB54B0622002118000CF028
:103A90009AFDB34B0622002118000CF094FDB14BA7
:103AA0000622002118000CF08EFDAF4B06220021EB
:103AB00018000CF088FDAD4B0622002118000CF018
:103AC00082FDAB4B0622002118000CF07CFD9D4BC3
:103AD00078221A809C4B78221A809C4B78221A807C
:103AE000A34B78221A80924B78221A80914B78222D
:103AF0001A809E4B78221A80954B78221A808E4B22
:103B000078221A80984B78221A80924B78221A8059
:103B10008A4B78221A80934B78221A808E4B782217
:103B20001A80874B78221A808D4B78221A808B4B13
:103B300078221A80C8239A008E4B002118000CF0BE
:103B400042FD8D4B1800FFF7C5FDFA235B001800FE
:103B500003F02CFC894A874B110018000DF0F5FD8D
:103B600003007B607B685A1E9341DCB27B681800BF
:103B7000FCF7CAFA030001229A429B415B42DBB286
:103B80002340DBB2002B42D000237B6133E07B6912
:103B9000012B06D1FA686B4B110018000DF0B9FD2E
:103BA00026E07B69022B06D1FA68674B11001800EA
:103BB0000DF0AFFD1CE07B69032B06D1FA68634B67
:103BC000110018000DF0A5FD12E07B69042B06D151
:103BD000FA68674B110018000DF09BFD08E07B6947
:103BE000072B05D1FA68524B110018000DF091FD1A
:103BF0007B6901337B617B683A1D614918000EF0D7
:103C000052FC0300FB60FB68002BC0D103E05D4B5E
:103C1000180002F033FE5C4A564B110018000DF0FC
:103C200094FD03003B603B685A1E9341DCB23B6845
:103C30001800FCF769FA030001229A429B415B429B
:103C4000DBB22340DBB2002B00D1B7E000233B61A5
:103C5000A8E03B69032B06D1BA68364B1100180067
:103C60000DF057FD9BE03B690A2B06D1BA683F4B2C
:103C7000110018000DF04DFD91E03B69092B06D1B4
:103C8000BA68334B110018000DF043FD87E03B6923
:103C90000D2B06D1BA68284B110018000DF039FD24
:103CA0007DE03B69142B06D1BA682F4B1100180038
:103CB0000DF02FFD73E03B69132B06D1BA68254B3D
:103CC000110018000DF025FD69E03B69172B06D1A6
:103CD000BA681A4B110018000DF01BFD5FE03B693C
:103CE0001E2B06D1BA681F4B110018000DF011FDF4
:103CF00055E03B691D2B06D1BA68174B110018001F
:103D00000DF007FD4BE03B69212B06D1BA680C4B47
:103D1000110018000DF0FDFC41E03B69282B35D166
:103D2000BA680F4B110018000DF0F3FC37E0C046E5
:103D3000B0110020D4110020E8110020FC11002057
:103D400010120020B4110020BC110020C41100206A
:103D5000D8110020EC1100200012002014120020C5
:103D60001C12002008120020F4110020E011002095
:103D7000CC110020B00A0020B4640108C06401081E
:103D8000985F0108CC640108E46401083B69272BB3
:103D900005D1BA68244B110018000DF0BAFC3B693C
:103DA00001333B613B683A00204918000EF07BFB71
:103DB0000300BB60BB68002B00D04AE71C4B5022BD
:103DC000002118000CF0FFFB1A4B1B68181CFDF7B4
:103DD0004FFA0400184A19491548194B0E93124B13
:103DE0000D93184B0C93184B0B93184B0A93184BCD
:103DF0000993184B0893184B0793184B0693184BCD
:103E00000593184B0493184B0393184B0293184BCC
:103E10000193184B0093130022000DF0F3FB044BA9
:103E20001800BD4607B090BD14120020985F01082D
:103E3000F8100020AC110020B4110020F06401083B
:103E4000101200201C120020FC1100200012002083
:103E500008120020E8110020EC110020F4110020CD
:103E6000D4110020D8110020E0110020CC11002036
:103E7000C4110020BC11002080B582B000AF020048
:103E8000FB1D1A70FA239B00F91D0448012206F05D
:103E9000ADFCC046BD4602B080BDC0463803002020
:103EA00080B500AFA023DB0500221021180004F02C
:103EB000DCFE0620FFF7E0FFA023DB050122102136
:103EC000180004F0D2FEC046BD4680BD80B500AFEC
:103ED000A023DB0500221021180004F0C6FE0420F8
:103EE000FFF7CAFFA023DB0501221021180004F010
:103EF000BCFEC046BD4680BD80B582B000AF7860D4
:103F0000FA239B0079680448032206F06FFCC04640
:103F1000BD4602B080BDC0463803002090B585B0D4
:103F200002AF78600A00BB1C1A80BB1C1C887A6830
:103F300079680548FA239B000093230006F0AEFD44
:103F4000C046BD4603B090BD38030020F0B5A1B017
:103F500004AFA023DB0500221021180004F085FE29
:103F60009020FFF789FF64243B1900221A703B1947
:103F700000225A703B1900229A703B190022DA7015
:103F80003B1900221A713B1900225A713B19180083
:103F9000FFF7B2FF3B1902211800FFF7BFFFA02374
:103FA000DB0501221021180004F05FFE3B191B788D
:103FB0001A003B195B784C4938000DF023FB3B009D
:103FC000180002F05BFCA023DB0500221021180082
:103FD00004F04BFE9F20FFF74FFF25007B190022C6
:103FE0001A707B1900225A707B1900229A707B1973
:103FF0000022DA707B1900221A717B1900225A7193
:104000007B1903211800FFF789FFA023DB0501229C
:104010001021180004F029FE7B191B781A007B1967
:104020005B781C007B199B78304938000093230093
:104030000DF0E8FA3B00180002F020FCA023DB059D
:1040400000221021180004F010FE4B20FFF714FF8F
:1040500029007B1800221A707B1800225A707B18E6
:1040600000229A707B180022DA707B1800221A71E5
:104070007B1800225A71FA239B000C0039191C4846
:10408000042206F0B3FB3B1906211800FFF746FF98
:10409000A023DB0501221021180004F0E6FD210019
:1040A0007B181B781E007B185B789C467B189B78DE
:1040B0001A007B18DB781C007B181B791D007B180D
:1040C0005B790C4938000393029501940092634692
:1040D00032000DF097FA3B00180002F0CFFBC0460B
:1040E000BD461DB0F0BDC046E86B0108086C010874
:1040F00038030020246C010880B582B000AF7860DE
:10410000FFF7CEFEA023DB0500221021180004F0EB
:10411000ACFD2020FFF7B0FE7B681800FFF7ECFE37
:10412000A023DB0501221021180004F09EFDFFF7FB
:10413000CDFE02F0CBFBC046BD4602B080BD80B5CF
:1041400084B000AFF860B960BB1D1A80FFF7A8FE0D
:10415000A023DB0500221021180004F086FD0220B8
:10416000FFF78AFEFB681800FFF7C6FEBB1D1A8822
:10417000BB6811001800FFF7D1FEA023DB05012268
:104180001021180004F071FDFFF7A0FE02F09EFB65
:10419000C046BD4604B080BD80B584B000AFF860B5
:1041A000B960BB1D1A80A023DB0500221021180076
:1041B00004F05BFD0320FFF75FFEFB681800FFF7CC
:1041C0009BFEBB1D1A88BB6811001800FFF7A6FEF6
:1041D000A023DB0501221021180004F046FDC04693
:1041E000BD4604B080BD000080B584B000AF7860EB
:1041F0001A4B1B781B02194A52789B181B02174A4C
:1042000092789B187A68D318FB60FB68002B02DA5F
:10421000134A944663441B14DAB2104B1A70FB68BD
:10422000104A134003D5013B0F4A13430133002BBF
:1042300000DAFF331B12DAB2084B5A70FB680B4AE4
:10424000134003D5013B0A4A13430133DAB2034B4F
:104250009A70C046BD4604B080BDC0461000002024
:10426000FFFF0000FFFF00800000FFFFFF00008055
:1042700000FFFFFF80B582B000AF78600A00BB1C72
:104280001A80BB1C1B88FE2B0BD8BB1C1A887968B4
:10429000064B1800FFF753FF80235B001800FFF761
:1042A000A3FFC046BD4602B080BDC046100000203E
:1042B00080B582B000AF094B1B781B02074A5278C9
:1042C0009B181B027B607B68054A934201DC01233B
:1042D00000E000231800BD4602B080BD10000020A1
:1042E000FF00030090B5C5B000AF80235A01644BB6
:1042F000002118000CF067F980235A01614B00215E
:1043000018000CF060F9FFF7D3FF0300012B05D173
:104310005D4B180002F0B2FA0023ACE001235B42CF
:104320001800FFF761FF594B5B781A000F23134009
:104330007A1DFF3213607B1DFF331B6801337A1D2A
:10434000FF321360514B5B781B09DAB24F4B5A7046
:104350004E4B5B781B01DAB24C4B5A704B4B002230
:104360009A707B1DFF331B689BB21B029AB24449B3
:10437000464B1800FFF710FF012386225200BA189F
:1043800013606AE080235A003B1D002118000CF0E6
:104390001AF9002384225200BA18136033E07B1DFF
:1043A000FF331A6886235B00FB181B68D31A1A02B6
:1043B000842040003B181B68D318314AD15C344B31
:1043C000882464001B19DA193B181B68D3180A1CCF
:1043D0001A702F4B1B19DA1901007B181B68D318B0
:1043E0001B78FF2B08D12A4B1B19DA197B181B6885
:1043F000D31800221A700CE084225200BB181B68EC
:104400000133BA18136084235B00FB181B68FF2B71
:10441000C5DD1F4B882252009B18DB19FF220021AB
:1044200099543A1D174B110018000DF057F9154B10
:104430001800FBF769FE03001A00124BD218154B47
:104440001000190003231A000CF0B4F88622520061
:10445000BB181B680133BA18136086235B00FB1876
:104460001A687B1DFF331B689A428BDD074B1800CF
:10447000FFF742FE01231800BD4645B090BDC0467F
:104480002413002024230020786C01081000002051
:10449000F4FEFFFFE45E0108B0B5C94CA54400AFCF
:1044A000F860B9607A603B60C64BC824A4001B1951
:1044B000DB19C54A1188198092789A7080235A00B6
:1044C00086239B00F91814257B191800FFF764FE5A
:1044D000BC4B1B19DB1901225A7080235A008C2314
:1044E0005B00F9187B191800FFF756FEB54B1B1936
:1044F000DB1902225A7080235A001823F9187B19FD
:104500001800FFF749FE0023C7229200B9180B607C
:104510000023C621890079180B600023BA181360A4
:1045200018E0C72080003B181B68FA68D218C62321
:104530009B00FB1819683B181B68CB181178A34A1D
:10454000C824A4001219D219D1543B181B68013396
:104550003A181360FB681800FBF7D6FD0200C7216C
:1045600089007B181B689A4203D37B181B680F2BAA
:10457000D7DDC6229200BB181B681033BA1813602F
:104580000023C7229200BA18136018E0C7208000E9
:104590003B181B68BA68D218C6239B00FB18196821
:1045A0003B181B68CB181178884AC824A40012193C
:1045B000D219D1543B181B6801333A181360BB68F9
:1045C0001800FBF7A1FD0200C72189007B181B68BA
:1045D0009A4203D37B181B68632BD7DDC622920057
:1045E000BB181B686433BA1813600023C7229200FB
:1045F000BA18136018E0C72080003B181B687A685F
:10460000D218C6239B00FB1819683B181B68CB18EF
:1046100011786E4AC824A4001219D219D1543B183B
:104620001B6801333A1813607B681800FBF76CFDB8
:104630000200C72189007B181B689A4203D37B18AC
:104640001B683B2BD7DD0023C6229200BA181360EB
:104650000023C7229200BA18136018E0C720800018
:104660003B181B683A68D218C6239B00FB181968D0
:104670003B181B68CB181178554AC824A40012199E
:10468000D219D1543B181B6801333A1813603B68A8
:104690001800FBF739FD0200C72189007B181B6851
:1046A0009A4203D37B181B68272BD7DDC6229200C2
:1046B000BB181B682833BA1813600023C722920066
:1046C000BA1813601DE0C72080003B181B68CA227F
:1046D000920008215218D2191268D218C6239B00E2
:1046E000FB1819683B181B68CB181178384AC82486
:1046F000A4001219D219D1543B181B6801333A187F
:104700001360CA239B0008229B18DB191B68180042
:10471000FBF7FAFC0200C72189007B181B689A424C
:1047200003D37B181B68272BCDDDC6229200BB1854
:104730001B682833BA1813600023C7229200BA18E6
:1047400013601DE0C72080003B181B68CB2292003D
:1047500008215218D2191268D218C6239B00FB18E0
:1047600019683B181B68CB181178194AC824A40093
:104770001219D219D1543B181B6801333A1813602F
:10478000CB239B0008229B18DB191B681800FBF742
:10479000BBFC0200C72189007B181B689A4203D327
:1047A0007B181B68272BCDDD0023C6229200BA1888
:1047B00013600023C7229200BA18136028E0C04695
:1047C000E0FCFFFFF4FCFFFF7C6D0108F8FEFFFF3B
:1047D000F8FDFFFFC72080003B181B68CC22920029
:1047E00008215218D2191268D218C6239B00FB1850
:1047F00019683B181B68CB1811782F4AC824A400ED
:104800001219D219D1543B181B6801333A1813609E
:10481000CC239B0008229B18DB191B681800FBF7B0
:1048200073FC0200C72189007B181B689A4203D3DE
:104830007B181B68FF2BCDDDC6229200BB181B68BE
:104840000133FF33BA1813601C4BC825AD005B1948
:10485000DB1900225A7014243B191800FFF74CFC96
:1048600080235A0086239B00F9183B191800FFF794
:1048700066FC124B5B19DB1901225A7080235A0027
:104880008C235B00F9183B191800FFF758FC0B4B01
:104890005B19DB1902225A7080235A001823F91879
:1048A0003B191800FFF74BFC01231800BD46C82335
:1048B0009B009D44B0BDC046F8FCFFFFF4FCFFFF29
:1048C00080B582B000AF3B1D0F4A118819809278E5
:1048D0009A7080235A000D4B002118000BF073FED4
:1048E0000A493B1D10221800FFF756FC074B180021
:1048F000FBF70AFC0300012B01D9044B00E0044B39
:104900001800BD4602B080BD7C6D01082412002055
:10491000806D010880B586B004AF5848FA239B002B
:10492000029301230193FB1D009301237522D021E3
:1049300004F098FBFB1D1B78682B44D1BB1D0022A3
:104940001A704E48FA239B00029301230193BB1D6A
:10495000009301236B22D02104F056FABB1D0722DD
:104960001A704648FA239B00029301230193BB1D52
:10497000009301231922D02104F046FABB1D002226
:104980001A703E48FA239B00029301230193BB1D3A
:10499000009301231C22D02104F036FABB1D002213
:1049A0001A703648FA239B00029301230193BB1D22
:1049B000009301231B22D02104F026FA304B18006B
:1049C00001F05CFF43E0BB1D00221A702B48FA2364
:1049D0009B00029301230193BB1D009301236B22D3
:1049E000D02104F011FABB1D07221A702348FA23C4
:1049F0009B00029301230193BB1D00930123192205
:104A0000D02104F001FABB1D00221A701B48FA23C2
:104A10009B00029301230193BB1D009301231C22E1
:104A2000D02104F0F1F9BB1D00221A701348FA23BB
:104A30009B00029301230193BB1D009301231B22C2
:104A4000D02104F0E1F90F4B180001F017FF0E4BD5
:104A500000221A600C4B00225A600B4B00229A6015
:104A6000094B0022DA60084B00221A61064B002233
:104A70005A61C046BD4602B080BDC046E402002077
:104A8000986D0108AC6D01084833002080B586B0F0
:104A900004AF7E4B00221A607C4B00225A607B4B95
:104AA00000229A60794B0022DA60784B00221A616A
:104AB000764B00225A617648FA239B000293062324
:104AC00001933B00009301233B22D02104F0CAFA5A
:104AD0003B001B781B021AB23B005B781BB21343EE
:104AE0001AB26C4B1A803B009B781B021AB23B0037
:104AF000DB781BB213431AB2674B1A803B001B7959
:104B00001B021AB23B005B791BB213431AB2634B10
:104B10001A80604B00229B5E1800FEF7E9F9002224
:104B20005F4BFCF791FF02000B0010001900FEF72D
:104B30007DFA021C5B4B1A60574B00229B5E1800EB
:104B4000FEF7D6F90022564BFCF77EFF02000B0061
:104B500010001900FEF76AFA021C534B1A604F4B03
:104B600000229B5E1800FEF7C3F900224C4BFCF7B5
:104B70006BFF02000B0010001900FEF757FA021C31
:104B80004A4B1A604248FA239B0002930623019382
:104B90003B00009301234322D02104F063FA3B0041
:104BA0001B781B021AB23B005B781BB213431AB28C
:104BB0003F4B1A803B009B781B021AB23B00DB780C
:104BC0001BB213431AB23B4B1A803B001B791B02EA
:104BD0001AB23B005B791BB213431AB2364B1A80F0
:104BE000334B00229B5E1800FEF782F90022334B04
:104BF000FCF72AFF02000B0010001900FEF716FA5E
:104C0000021C2F4B1A602B4B00229B5E1800FEF7F4
:104C10006FF90022294BFCF717FF02000B00100070
:104C20001900FEF703FA021C264B1A60224B0022E1
:104C30009B5E1800FEF75CF90022204BFCF704FF96
:104C400002000B0010001900FEF7F0F9021C1E4BC9
:104C50001A60144B1A680D4B1A60134B1A680B4BF1
:104C60005A60124B1A68094B9A60154B1A68074B29
:104C7000DA60144B1A68054B1A61134B1A68034B20
:104C80005A61024B1800BD4602B080BD4833002077
:104C9000E4020020243300202633002028330020A3
:104CA0000000D0403033002034330020383300205F
:104CB0002A3300202C3300202E3300200060604077
:104CC0003C330020403300204433002080B500AF47
:104CD000FFF7DCFE274B1A68264B5B68191C101C7B
:104CE000FBF78CFC031C1A1C224B9B68191C101C24
:104CF000FBF784FC031C2049181CFBF7FBFB031E7D
:104D000001D0012332E01B4B1A681A4B5B68191C57
:104D1000101CFBF773FC031C1A1C164B9B68191C18
:104D2000101CFBF76BFC031C1449181CFBF7CEFB93
:104D3000031E01D0022319E00E4BDA680D4B1B69EC
:104D4000191C101CFBF75AFC031C1A1C094B5B694D
:104D5000191C101CFBF752FC031C0749181CFBF71D
:104D6000C9FB031E01D0032300E000231800BD4649
:104D700080BDC046483300200000FA440000FAC459
:104D8000F0B5CE46474680B585B004AFFFF77EFE4E
:104D9000294B1B682949181CFBF796FF031C181C9C
:104DA000FCF766FA8046244B5B682449181CFBF725
:104DB0008BFF031C181CFCF75BFA81461E4B9B689B
:104DC0001E49181CFBF780FF031C181CFCF750FA47
:104DD0000400194BDB681949181CFBF775FF031C0D
:104DE000181CFCF745FA0500134B1B691349181CE6
:104DF000FBF76AFF031C181CFCF73AFA06000E4B7F
:104E00005B690E49181CFBF75FFF031C181CFCF7BD
:104E10002FFA03000A490B48039302960195009468
:104E20004B4642460CF0EEFB064B1800BD4601B067
:104E3000C0BCB946B046F0BD4833002000007A44FB
:104E4000BC6D01086033002080B500AF194B002213
:104E50001A60184B00225A60164B00229A60154BBC
:104E60000022DA60134B00221A61124B00225A61B1
:104E7000104B00229A610F4B0022DA610D4B002289
:104E80001A620D4B78221A800C4A0D4B1000190043
:104E900002231A000BF08EFB0A4B78221A800A4A72
:104EA000074B1000190002231A000BF083FBC046C9
:104EB000BD4680BD5C34002084340020873400204F
:104EC000E86D01088A34002099340020F0B5CE4600
:104ED000474680B5A1B016AF3A4B462200211800D4
:104EE0000BF071FB384BDB69012B03D10120FEF77E
:104EF000D9FA02E00020FEF7D5FA334BDB69994678
:104F0000314B1B68181CFEF749F8386279622E4B4A
:104F10005B68181CFEF742F8B861F9612A4B9B697F
:104F2000181CFEF73BF838617961274B5B69181C48
:104F3000FEF734F8B860F960234B1A6A9046224BAA
:104F40009B68181CFEF72AF8386079601E4B1B69B5
:104F5000181CFEF723F804000D001B4BDB68181C1F
:104F6000FEF71CF802000B00184E19491548149260
:104F70001593129413953B687C68109311944246E4
:104F80000E92BB68FC680C930D943B697C690A9394
:104F90000B94104B0893BB69FC69069307940E4B66
:104FA00004933B6A7C6A029303940C4B0093330096
:104FB0004A460CF027FBC046BD460BB0C0BCB94604
:104FC000B046F0BD903800205C34002099340020B9
:104FD000EC6D010887340020843400208A340020DE
:104FE00080B584B000AF786015497868FBF7A4FC01
:104FF000031C181CFCF73CF90300FB60FB686422EF
:1050000053431800FCF754F9031C191C7868FBF78C
:1050100081FF031CBB600B49B868FBF78DFC031CC8
:10502000BB60F868FCF744F9031C191CB868FBF76F
:10503000E5FA031CBB60BB68181CBD4604B080BD0C
:105040000000C8420000704280B586B000AF7860B2
:1050500000237B615A4A7B68110018000DF0C0F9EB
:1050600003003B61A2E07B69012B05D13969554BF7
:10507000062218000CF055FB7B690A2B0DD13B6909
:105080004E2118000CF037FB031E03D04E4B0022BC
:10509000DA6102E04C4B0122DA617B69032B0AD111
:1050A0003B69180001F008F9031C181CFFF798FF72
:1050B000021C454B1A607B69042B05D13A69434BAE
:1050C000110018000CF025FB7B69052B0AD13B6908
:1050D000180001F0F1F8031C181CFFF781FF021CF7
:1050E000394B5A607B69062B05D13A69384B110060
:1050F00018000CF00EFB7B69092B39D1354B0A22C5
:10510000002118000BF05FFA0023FB600BE0FB6846
:105110003A69D31819782F4AFB68D3180A1C1A70F9
:10512000FB680133FB60FB68032BF0DD294B322267
:105130001A71284B30225A710623BB600CE0BB6801
:10514000023B3A69D3181978224ABB68D3180A1C63
:105150001A70BB680133BB60BB68072BEFDD1D4BCA
:1051600000221A721B4A1C4B110018000CF0D1FAD5
:105170007B69072B06D13B69180001F09DF8021CE2
:10518000114B9A617B69082B06D13B69180001F02D
:1051900093F8021C0C4B5A61094B190000200DF0CA
:1051A0001FF903003B617B6901337B613B69002B85
:1051B00000D058E7C046C046BD4606B080BDC046D8
:1051C000985F01088A3400205C3400208434002079
:1051D00087340020D83800209934002080B584B06E
:1051E00000AF78600023FB60174A7B68110018004D
:1051F0000DF0F6F80300BB601DE0FB680F2B06D135
:10520000BB68180001F058F8021C104B1A61FB68CB
:10521000102B06D1BB68180001F04EF8021C0B4B96
:10522000DA60094B190000200DF0DAF80300BB60CA
:10523000FB680133FB60BB68002BDED1C046C04673
:10524000BD4604B080BDC046985F01085C340020B4
:1052500080B584B000AF78600023FB60174A7B689C
:10526000110018000DF0BCF80300BB601DE0FB68E6
:10527000072B06D1BB6818000BF05CF80200104B3E
:105280001A62FB68092B06D1BB68180001F014F8FC
:10529000021C0B4B9A60094B190000200DF0A0F87E
:1052A0000300BB60FB680133FB60BB68002BDED1F1
:1052B000C046C046BD4604B080BDC046985F0108E8
:1052C0005C34002080B584B000AF78607B682A2110
:1052D00018000CF010FA030001331022002118000E
:1052E0000DF078F902000E23FB181A700F23FB183B
:1052F00000221A707B6801337B6008E00F22BB1824
:10530000B9180D22BA18097812784A401A707B68C9
:105310005A1C7A600D217A181B7813707B181B7841
:105320002A2BEBD10F23FA180E23FB1812781B78C7
:105330009A4201D0002300E001231800BD4604B0CA
:1053400080BD0000B0B584B000AF78600023FB6082
:105350000B257B1900221A707C197B681800FFF757
:10536000B1FF030023707B191B78012B01D00023B0
:1053700056E07B681800FAF7C7FE0300032B01D83C
:1053800000234DE0284A7B68110018000CF0DDF97D
:10539000031E06D00123FB607B681800FFF754FE54
:1053A0003DE0224A7B68110018000CF0CEF9031E84
:1053B00006D00223FB607B681800FFF749FF2EE050
:1053C0001B4A7B68110018000CF0BFF9031E06D0C1
:1053D0000323FB607B681800FFF700FF1FE0154AFE
:1053E0007B68110018000CF0B0F9031E02D00423F2
:1053F000FB6014E0104A7B68110018000CF0A5F95E
:10540000031E02D00523FB6009E00C4A7B681100F3
:1054100018000CF09AF9031E01D00623FB60FB680C
:105420001800BD4604B0B0BD246E01082C6E010802
:10543000346E01083C6E0108446E01084C6E010890
:1054400080B584B000AF0023FB60144B1800FAF75E
:105450005BFE0300052B1DD900237B603A1D10491C
:105460000E4B18000DF01FF80300BB600FE0BB6887
:105470001800FFF767FF0200FB689B18FB603A1DEE
:10548000074B190000200DF00EF80300BB60BB684D
:10549000002BECD1C046BD4604B080BDA83400202E
:1054A000E45E010880B582B000AF00237B60244B2E
:1054B000180001F0E3F900237B6035E0214B180070
:1054C00001F0DCF90120FDF7B1FF0120FDF7CCFF71
:1054D0000120FDF7E7FF0120FEF702F80120FEF7AB
:1054E0001DF80120FDF764FFFA231B01180001F0ED
:1054F0005DFF154B180001F0C1F90020FDF796FF84
:105500000020FDF7B1FF0020FDF7CCFF0020FDF7E4
:10551000E7FF0020FEF702F8FA231B01180001F054
:1055200045FF7B6801337B607B68012BC6DD074B41
:10553000180001F03BFFC046BD4602B080BDC0462A
:10554000846E0108B06E0108F06E01088813000037
:10555000F0B5C64600B5A8B006AF002384243A19BA
:105560001360354B180001F089F900233A191360D4
:1055700056E0324B180001F081F9FDF7FDFD020005
:1055800068243B191A60FDF709FE02003B195A60B6
:10559000FDF718FE02003B199A60FDF727FE020096
:1055A0003B19DA60FDF736FE02003B191A61FDF780
:1055B00045FE03001A003B195A61FDF761FE020027
:1055C0003B199A6122003B191B689C46BB185B681B
:1055D000984615007B199A687B19D9687B19186958
:1055E0007B195C697B199B69154E3D1D04930394DF
:1055F00002900191009243466246310028000CF06F
:1056000001F83B1D180001F039F9FA23DB001800FE
:1056100001F0CCFE8422BB181B680133BA1813605A
:105620008423FB181B68022BA3DDC046C046BD4681
:1056300022B080BCB846F0BD306F0108586F010839
:10564000746F0108F0B5ADB002AF0023A4243A197D
:105650001360434B180001F011F900233A1913604D
:1056600074E0404B180001F009F9FDF72BFE021C15
:1056700094243B191A60FDF745FE021C3B195A6041
:10568000FDF75EFE021C3B199A60FDF775FE021CD9
:105690003B19DA603B191B68181CFDF77FFC020000
:1056A0000B00314988257819009201930A000621E0
:1056B0000BF074FF3B195B68181CFDF76FFC0200D0
:1056C0000B0029497C26B819009201930A00062193
:1056D0000BF064FF3B199B68181CFDF75FFC020090
:1056E0000B00214970203818009201930A0006210E
:1056F0000BF054FF3B19DB68181CFDF74FFC020050
:105700000B00194964243819009201930A000621FC
:105710000BF044FFBC197A191449380064257B1931
:1057200001937023FB18009323000BF06BFF3B00E9
:10573000180001F0A3F8FA23DB00180001F036FE90
:10574000A422BB181B680133BA181360A423FB18EA
:105750001B68012B85DDC046C046BD462BB0F0BDA1
:10576000C86F0108F06F0108206E01080C70010875
:1057700080B582B000AF00237B600E4B180001F0B3
:105780007DF800237B600DE00B4B180001F076F8EC
:10579000E1239A0009490A4B180006F091F97B6849
:1057A00001337B607B68042BEEDDC046C046BD46FE
:1057B00002B080BD4070010890380020A83400205D
:1057C0007C04002080B500AF194B180001F056F89A
:1057D000184B180001F052F8FEF7C4F80300180047
:1057E00001F04CF8144B180001F048F8FEF7E0F80F
:1057F0000300180001F042F8104B180001F03EF8C9
:10580000FEF78CF80300180001F038F80C4B180074
:1058100001F034F8FEF7F2F80300180001F02EF85A
:10582000FA23DB00180001F0C1FDC046BD4680BD73
:10583000607001088470010894700108A470010868
:10584000BC70010880B582B000AF00237B600E4BB6
:10585000180001F013F800237B600DE0FFF790FAC9
:105860000300180001F00AF8FA239B00180001F069
:105870009DFD7B6801337B607B68092BEEDDC046B4
:10588000C046BD4602B080BDCC70010890B587B05F
:1058900004AF00237B60184B180000F0EFFF0023DB
:1058A0007B6020E0FEF752FB144C154A1549164860
:1058B000164B0293114B0193104B00932300FEF7FC
:1058C000EBFD134B180000F0D9FFFEF7F9FF0300C2
:1058D000180000F0D3FFFA23DB00180001F066FD8A
:1058E0007B6801337B607B68002BDBDDC046C046F4
:1058F000BD4603B090BDC046F070010814710108A8
:10590000247101084C71010870710108807101084F
:10591000BC71010880B5C2B000AF00237A1DFF3210
:1059200013605D4B180000F0A9FF5C4B180000F0FD
:10593000A5FF00237A1DFF32136026E07B1DFF3395
:105940001B687A1DFF3212685549381D0BF05AFE4C
:10595000544B180000F092FF3B1D1800FAF7D4FBDF
:1059600003009BB201339AB23B1D11001800FEF7F1
:1059700081FCFA235B00180001F018FD7B1DFF334A
:105980001B6801337A1DFF3213607B1DFF331B68D8
:10599000032BD3DD444B180000F070FF00237A1D69
:1059A000FF32136015E0414B180000F067FFFEF76F
:1059B00099FC3F4B180000F061FFFA239B00180090
:1059C00001F0F4FC7B1DFF331B6801337A1DFF32AD
:1059D00013607B1DFF331B68002BE4DD354B180083
:1059E00000F04CFF04237A1DFF32136026E07B1D7C
:1059F000FF331B687A1DFF3212682949381D0BF0EE
:105A000001FE284B180000F039FF3B1D1800FAF783
:105A10007BFB03009BB201339AB23B1D11001800BF
:105A2000FEF728FCFA235B00180001F0BFFC7B1D89
:105A3000FF331B6801337A1DFF3213607B1DFF3378
:105A40001B68072BD3DD1C4B180000F017FF002349
:105A50007A1DFF32136015E0144B180000F00EFFA2
:105A6000FEF740FC124B180000F008FFFA239B00E1
:105A7000180001F09BFC7B1DFF331B6801337A1D6E
:105A8000FF3213607B1DFF331B68002BE4DDC04633
:105A9000C046BD4642B080BDCC710108F07101081E
:105AA00008720108E0720108F07201080873010829
:105AB00024230020187301083073010880B500AF5B
:105AC00001F038FC00F042F800F0D4FA00F0A4FA3B
:105AD00000F086F800F016F900F054F900F090F9A3
