:020000040800F2
:100000000090002025560008B9530008BF5300088F
:1000100000000000000000000000000000000000E0
:100020000000000000000000000000008DCC00086F
:100030000000000000000000B1CD00086DAB00081A
:100040007556000800000000755600087556000837
:100050007556000875560008755600087556000854
:1000600000000000C5530008DD53000801540008DB
:100070007556000825540008755600080000000059
:10008000755600083D54000875560008755600085E
:100090007556000875560008755600087556000814
:1000A0007556000875560008755600085554000826
:0800B0006D540008855400089E
:1000C00010B5064C2378002B07D1054B002B02D02E
:1000D000044800E000BF0123237010BDF0010020A0
:1000E00000000000BC2C0108044B10B5002B03D00D
:1000F0000349044800E000BF10BDC04600000000F6
:10010000F4010020BC2C01080023C25C0133002A4A
:10011000FBD1581E7047000002B4714649084900DF
:10012000095C49008E4402BC7047C04603B4714666
:10013000490840004900095E49008E4403BC7047ED
:10014000002243088B4274D303098B425FD3030A16
:100150008B4244D3030B8B4228D3030C8B420DD329
:10016000FF22090212BA030C8B4202D312120902B7
:1001700065D0030B8B4219D300E0090AC30B8B42F5
:1001800001D3CB03C01A5241830B8B4201D38B03A3
:10019000C01A5241430B8B4201D34B03C01A524148
:1001A000030B8B4201D30B03C01A5241C30A8B428B
:1001B00001D3CB02C01A5241830A8B4201D38B0276
:1001C000C01A5241430A8B4201D34B02C01A52411A
:1001D000030A8B4201D30B02C01A5241CDD2C3098C
:1001E0008B4201D3CB01C01A524183098B4201D308
:1001F0008B01C01A524143098B4201D34B01C01AF3
:10020000524103098B4201D30B01C01A5241C3086A
:100210008B4201D3CB00C01A524183088B4201D3D9
:100220008B00C01A524143088B4201D34B00C01AC5
:100230005241411A00D20146524110467047FFE731
:1002400001B5002000F0F0F802BDC0460029F7D04B
:1002500076E7704703460B437FD4002243088B4266
:1002600074D303098B425FD3030A8B4244D3030B3D
:100270008B4228D3030C8B420DD3FF22090212BA02
:10028000030C8B4202D31212090265D0030B8B427E
:1002900019D300E0090AC30B8B4201D3CB03C01A68
:1002A0005241830B8B4201D38B03C01A5241430B43
:1002B0008B4201D34B03C01A5241030B8B4201D333
:1002C0000B03C01A5241C30A8B4201D3CB02C01A9E
:1002D0005241830A8B4201D38B02C01A5241430A16
:1002E0008B4201D34B02C01A5241030A8B4201D305
:1002F0000B02C01A5241CDD2C3098B4201D3CB01AC
:10030000C01A524183098B4201D38B01C01A52415A
:1003100043098B4201D34B01C01A524103098B425E
:1003200001D30B01C01A5241C3088B4201D3CB0049
:10033000C01A524183088B4201D38B00C01A52412C
:1003400043088B4201D34B00C01A5241411A00D2DC
:1003500001465241104670475DE0CA0F00D0494245
:10036000031000D34042534000229C4603098B42B5
:100370002DD3030A8B4212D3FC22890112BA030A3D
:100380008B420CD3890192118B4208D389019211BF
:100390008B4204D389013AD0921100E08909C30944
:1003A0008B4201D3CB01C01A524183098B4201D346
:1003B0008B01C01A524143098B4201D34B01C01A31
:1003C000524103098B4201D30B01C01A5241C308A9
:1003D0008B4201D3CB00C01A524183088B4201D318
:1003E0008B00C01A5241D9D243088B4201D34B0033
:1003F000C01A5241411A00D20146634652415B1075
:10040000104601D34042002B00D549427047634655
:100410005B1000D3404201B5002000F005F802BD9A
:100420000029F8D016E770477047C0468446100090
:1004300062468C461900634600E0C0461FB501F0D5
:10044000A1FE002801D40021C8421FBD10B501F053
:10045000F1FD4042013010BD10B501F093FE0028BF
:1004600001DB002010BD012010BDC04610B501F019
:1004700089FE002801DD002010BD012010BDC0460E
:1004800010B501F019FE002801DC002010BD01208C
:1004900010BDC04610B501F00FFE002801DA0020A3
:1004A00010BD012010BDC046844608006146FFE72C
:1004B0001FB500F0C5FB002801D40021C8421FBDB4
:1004C00010B500F051FB4042013010BD10B500F0F6
:1004D000B7FB002801DB002010BD012010BDC04685
:1004E00010B500F0ADFB002801DD002010BD01209B
:1004F00010BDC04610B500F05DFB002801DC0020F7
:1005000010BD012010BDC04610B500F053FB0028FF
:1005100001DA002010BD012010BDC04670B50022D8
:100520000C4B04000D00FFF7B5FF002804D120009C
:10053000290002F0A7FC70BD064B00222000290014
:1005400002F0F0F802F09EFC80231B069C466044FB
:10055000F1E7C0460000E04170B505000C00002244
:10056000002328002100FFF777FF002808D128008A
:10057000210000F00FF802000B001000190070BD00
:1005800080231B06E118280000F004F800234242F3
:100590008B41F2E770B500220B4B0D00040001F017
:1005A00055FEFFF7BBFF060002F0D2FC0022074B0E
:1005B00001F04CFE02000B002000290002F0B2F80E
:1005C000FFF7ACFF310070BD0000F03D0000F041CE
:1005D00070B50600080002F08BFC0022064B01F00B
:1005E00035FE0D000400300002F0B2FC2B002200AA
:1005F00000F0EEFE70BDC0460000F041F0B5C6460A
:1006000043025B0A4E0245004F00DA00C40F9C46CD
:10061000700A904600B52D0E3F0EC90FB6098C42E8
:100620004BD0EA1B002A36DD002F61D0FF2D00D110
:10063000ADE08023DB041E431B2A00DCD3E0012055
:100640004346181A430100D48CE080018709380022
:1006500002F074FD05388740854200DCB6E02D1AB3
:10066000B3483840430704D00F230340042B00D085
:100670000430430100D478E06A1CFE2D65D080016F
:10068000430A9C46D2B26346D0051843E407204390
:1006900080BCB846F0BD002A35D07A1B002D00D0B2
:1006A000AFE04346002B00D1A7E0531E012A00D142
:1006B0002FE1FF2A69D01A00AAE0E91B002970DDAA
:1006C000002F37D0FF2D62D08023DB041E431B296F
:1006D00000DCB0E001204044430143D50135FF2D4B
:1006E00033D00123934A0340400810401843B9E730
:1006F000002E00D183E0511E012A00D1D8E0FF2A4C
:1007000045D00A0098E7FE276A1C174200D086E011
:10071000002D00D0B7E04346002B00D1F3E00022CB
:10072000002EB0D0981B430100D4FAE043460C00E1
:10073000F01A97E7002E00D1C8E04A1E012900D127
:10074000AEE0FF2923D01100C1E70023FF229C4621
:1007500099E7FE216A1C114277D0FF2AF5D01500D7
:1007600046447008430700D07EE7C308FF2D0ED033
:100770005B025B0A9C46EAB285E7002E07D0802226
:10078000D203134203D0104201D10C000300002B0E
:10079000DBD08020C00318434002430A9C46FF225E
:1007A00071E70029D5D07A1B002D60D14346002B7C
:1007B00024D0531E012A73D0FF2AE7D01A001B2A27
:1007C00000DC85E001203D00801985E720233A0008
:1007D000451B38000135EA405D1BA840431E984187
:1007E000002510433EE7202330009B1A310098403B
:1007F000D140431E9841084322E70C000300150036
:10080000B4E7FF2FC1D080234046DB041843804665
:100810001B2A51DD01200C003D00301A12E743462F
:100820009F1B7B012BD4002F00D010E70023002456
:1008300000229C4627E7202332003000CA40591A84
:100840008840431E9841104345E7002D4AD1434656
:10085000002B63D00022002E00D114E7300040446A
:10086000430100D47EE7324B013518407AE7FF2F71
:100870008CD080234146DB04194388469FE74346DA
:100880000C00F71AE3E64246002A00D075E7002E76
:1008900000D07AE78023DB0300249C46FF22F2E6A7
:1008A000300040440125430100D45BE7022518E7EE
:1008B00043460125981BC5E6202344464046D440C4
:1008C0009A1A9040431E98412043A4E70D004DE73B
:1008D000202341464046D1409A1A9040431E9841F9
:1008E000084370E74246002A00D14FE7002E00D1AE
:1008F0004DE78022D203134200D148E7104200D0D6
:1009000045E7030043E7002E90D00C008446002208
:10091000B9E643460C00F01A013593E684460022FE
:10092000B1E6002800D01DE7002300249C46AAE67B
:10093000FFFFFFFBFFFFFF7DF0B54F464646D64663
:100940004502C0B547000C1C6D0A3F0EC60F002FB4
:1009500000D170E0FF2F00D175E0EB008025ED04A1
:100960001D43002399469A467F3F6002430A9846FA
:1009700063001B0EE40F002B4ED0FF2B46D04246E7
:10098000D0008022D2040243904600227F3B3100F7
:10099000FF1A4B466140C9B213430F2B00D9B5E093
:1009A0006E489B00C3589F46002398462600454644
:1009B00092465346022B00D189E0032B00D19EE0E2
:1009C000012B18D03B007F33002B69DD6A0704D070
:1009D0000F222A40042A00D004352A0103D5604B97
:1009E0001D403B008033FE2B00DD70E0AD016D0A41
:1009F000D8B202E00E0000200025C0052843F6070B
:100A00003043E0BCBA46B146A846F0BD4346002B91
:100A10003FD10222FF3F03E04346002B2DD10122AC
:100A200031004B466140C9B213430F2B34D84D48B7
:100A30009B00C3589F46002D13D104239946033BC6
:100A400000279A4691E7002D05D108239946063BD9
:100A5000FF279A4689E70C239946093BFF279A46C8
:100A600083E7280002F06AFB7627431F9D4000239E
:100A70007F4299469A463F1A77E7404602F05EFB6E
:100A80004246431F9A4076235B4290461B1A00223F
:100A90007DE7FF2303227AE70E00FF200025ACE765
:100AA0000120C01A1B28A6DC9E372A00BD40C24088
:100AB0006B1E9D4115436B0704D00F232B40042B65
:100AC00000D004356B0144D50120002595E7FF20B7
:100AD000002592E780250026FF20ED038DE7002307
:100AE00098468020C003054209D04346034206D100
:100AF000454605436D022600FF206D0A7DE78020F4
:100B0000C00305436D02FF206D0A76E742466B0184
:100B10005001834219D21B220025013F01261C00EF
:100B20006D005B00002C01DB984201D81B1A354395
:100B3000013A002AF3D15A1E93411D433B007F33F3
:100B40000E00002B00DD41E7AAE71A2201251B1A3F
:100B5000E4E7AD0100206D0A4FE7C046944201086A
:100B6000FFFFFFF7D442010870B5420045024E0274
:100B70004C00C30F6D0A0120120E760A240EC90F15
:100B8000FF2A06D0FF2C03D0A24201D1B54206D0E5
:100B900070BD002DFCD1FF2CFAD1002EF8D18B4274
:100BA00006D00120002AF3D12800431E9841EFE728
:100BB0000020EDE770B5420045024E024C00C30F25
:100BC0006D0A120E760A240EC80FFF2A1BD0FF2CC6
:100BD0000ED0002A1BD1002C01D1002E1CD0002DDC
:100BE0000CD083421CD00221581E0840013870BD31
:100BF000002E22D1002AF4D1002DF2D10028F6D106
:100C000001204042F3E7002D17D1FF2CF0D0002C3B
:100C1000E7D1002EE5D1E6E70020002DE7D0E2E79E
:100C2000A24205DCEADBB54202D8E7D30020DEE7CA
:100C30004342584140000138D9E702204042D6E7FC
:100C400070B5420045024E024C00C30F6D0A120EF1
:100C5000760A240EC80FFF2A0BD0FF2C0DD0002AD5
:100C60001FD1002C16D1002E14D10020002D10D041
:100C700009E0002D0CD1FF2C13D1002E08D1002A41
:100C800008D0834212D00221581E0840013800E0EB
:100C9000022070BD002DF4D10028FAD1012040427D
:100CA000F7E7002CEDD1002EEBD1ECE7A24205DCFA
:100CB000F2DBB54202D8EFD30020EAE743425841C5
:100CC00040000138E5E7C046F0B54F464646D646F7
:100CD00044024500C0B5640A0F1C2D0EC60F002D3E
:100CE00000D18DE0FF2D00D192E0002380209946B5
:100CF0009A46E400C00404437F3D7802430A9846C4
:100D00007B001B0EFF0F002B00D170E0FF2B00D1EA
:100D100086E04246D00080227F3BED180023D204BB
:100D2000024390469C4631004B467940681C0F2B8D
:100D30001CD8764A9B00D3589F4639004446E24669
:100D40005346022B0FD0032B00D1D7E0012B37D114
:100D500000200024C0052043C9070843E0BCBA4670
:100D6000B146A846F0BDFF200024F3E7260C24047A
:100D7000220C44462404240C434627001B0C5743F2
:100D800074435A435E4312193B0C9B189C4203D98F
:100D900080225202944666443F041A043F0CD21942
:100DA0009401671EBC411B0C920E9B1914439B01BE
:100DB0001C431B0100D49BE0012362081C40144328
:100DC00002007F32002A64DD630704D00F23234032
:100DD000042B00D00434230103D502004C4B803295
:100DE0001C40FE2ABFDCA401640AD0B2B2E743462D
:100DF000002B3DD14A4601331A4391469C4692E767
:100E0000002C29D104239946033B00259A4674E718
:100E1000002C1BD108239946063BFF259A466CE718
:100E20004346FF35002B0BD102234A461A43914615
:100E30009C4678E753463100022B00D083E792E7C7
:100E400003234A461A4391469C466CE70C23994675
:100E5000093BFF259A4650E7200002F06FF97625FE
:100E6000431F9C4000236D4299469A462D1A44E741
:100E7000404602F063F94246431F9A4000232D1A70
:100E800090469C46763D4EE780240021FF20E403F7
:100E900060E701239B1A1B2B00DD59E722009E30DF
:100EA000DA4084401300621E94411C43630704D05F
:100EB0000F232340042B00D0043463011AD50120F2
:100EC000002447E78020C003044209D04346034280
:100ED00006D14446044364023900FF20640A39E71E
:100EE0008020C003044364023100FF20640A31E71C
:100EF000280065E7A4010020640A2BE78020C003D6
:100F000004436402FF20640A24E7C0461443010836
:100F1000FFFFFFF7F8B5CE46474643025B0A4E0295
:100F2000DA009446720A914645004A0080B52D0EBB
:100F30001F00C40F120EC90FB609FF2A5BD0012093
:100F400041408C4239D0A81A00285ADD002A6AD0C4
:100F5000FF2D00D1D9E08022D20416431B2800DCEB
:100F6000E9E001206346181A430100D4B4E080018F
:100F70008709380002F0E2F805388740854200DC36
:100F8000CCE02D1AB5483840430704D00F23034066
:100F9000042B00D00430430100D4A0E06A1CFE2DD5
:100FA00000D18DE08001470AD2B2D0053843E40772
:100FB0002043C0BCB946B046F8BDA81A80460028F8
:100FC00045DD002A70D0FF2D00D19EE08023DB0498
:100FD0001E4343461B2B00DCD2E00120604443014A
:100FE0007AD50135FF2D6BD001239D4A034040087F
:100FF00010401843C8E7002E20D08C4223D0280090
:10100000FF38002839D0571B002D00D09DE06346E3
:10101000002B00D1DBE07B1E012F00D10DE1FF2F63
:1010200071D01F0098E0002E00D1A7E0421E0128D9
:1010300000D1E6E0FF2868D010008FE70120414092
:10104000A14200D07FE7FF2040428046A8444046AE
:10105000002838D0511B002D00D1AEE0FF2A00D16E
:10106000DFE080236046DB04184384461B2900DC54
:10107000D9E0012015008019B1E7FE206A1C10425A
:1010800071D1002D00D0A6E06346002B00D1D9E03D
:101090000022002E00D188E7981B430100D4E1E034
:1010A00063460C00F01A6FE7002E00D1B7E0020093
:1010B000013A012800D19CE0FF2826D0904688E71D
:1010C000FF22002771E7FE206A1C104264D0FF2A2D
:1010D000F6D0150066447008430700D056E7C308F1
:1010E000FF2D12D05B025F0AEAB25EE76246002A79
:1010F00000D196E0002E08D08022D203134204D003
:101100004846104201D10C004B46002BD8D0802716
:10111000FF031F437F02FF227F0A46E720233A0096
:10112000451B38000135EA405D1BA840431E98412D
:101130000025104328E720231B1A32009E40C2409E
:101140003000431E984110430CE7FF2ADBD0802378
:101150006046DB04184384461B2F56DD01200C003B
:101160001500301A00E763469F1B7B013DD4002F1A
:1011700000D0FEE600240022002716E70500AFE7B6
:10118000320043464146DA4020235B1A9E4030003D
:10119000431E9841104321E7002DA7D16346002B41
:1011A00059D00022002E00D1FFE6300060444301F8
:1011B00092D52A4B013518408EE76346002B47D065
:1011C0004B1E012915D0FF292BD019004EE70C002A
:1011D0004B463D0084E76246002A8BD1002E92D117
:1011E00080270024FF22FF03DFE663460C00F71A86
:1011F000BFE6300060440125430100D46CE70225BE
:10120000F2E663460125981BAEE62023644660465D
:10121000FC40DF1BB840431E984120439FE7050078
:101220005EE74B4671E7202365466046CD40591A7C
:101230008840431E984128431CE763460C00012563
:10124000F01A91E6002E95D00C004F460022ACE635
:101250004B460D0044E74F460022A6E6FFFFFFFB8A
:10126000FFFFFF7D002800D036E7002400279CE622
:1012700041024200C30F490A0020120E7E2A03DDFC
:101280009D2A02DD094A9818704780200004014316
:10129000952A07DC9620821AD1404842002BF3D1D0
:1012A0000800F1E7963A9140F7E7C046FFFFFF7F5D
:1012B000F8B5002813D0C317C6185E40C40F30001D
:1012C00001F03CFF9E2305001B1A962B0FDC08281B
:1012D00001DD083DAE407602760AD8B202E0002475
:1012E00000200026C0053043E4072043F8BD992BB9
:1012F0000CDD05223100121AD1400A000100300035
:101300001B318840411E884102431600052D12DC26
:1013100031000D4F3940720709D00F2030400428AA
:1013200005D004314A0102D59F2339405B1B890156
:101330004E0AD8B2D6E76A1F96403100024F3940B4
:101340007207F4D0E9E7C046FFFFFFFB70B5051E4A
:101350000ED001F0F3FE9E2304001B1A962B0CDC2A
:10136000082801DD083CA5406D026D0AD8B201E0F5
:1013700000200025C005284370BD992B09DD02001F
:1013800029001B3291404A1E91410522121AD54074
:101390000D43052C12DC29000C4E31406A0709D0A0
:1013A0000F202840042805D004314A0102D59F238C
:1013B00031401B1B89014D0AD8B2DBE7621F954003
:1013C0002900024E31406A07F4D0E9E7FFFFFFFB36
:1013D000F0B54F464646D6460D000400C0B51F0086
:1013E00011002803620F400A10437A00520DE300F7
:1013F0003C039146640AFA0F4F0F6E002743924652
:10140000B846760DED0FC900954200D199E04C46E3
:10141000341BA446002C00DC7CE04A46002A00D1A4
:10142000B8E0C54A964200D11CE180223C0012047B
:101430001443A0466246382A00DD61E11F2A00DD20
:10144000CCE164462022121B444694400F00A14682
:1014500064469140E7404C464A1E91413C43424617
:1014600021436446E240801A5C1AA3429B415F42DA
:10147000C71B3B0200D4D0E07F027F0A002F00D1BF
:10148000FFE0380001F05AFE010008392023220055
:101490005B1A8F40DA408C401743B14200DAFFE01C
:1014A000891B4B1C1F2B00DDA8E020223900D21A1B
:1014B000200094409140D840621E9441DF400026B5
:1014C00001430C43630709D00F232340042B05D0AD
:1014D000231DA342A44164423F191C003B0200D4D7
:1014E0009EE0954B01369E4200D1B7E0934AE40856
:1014F00017407B0771057F0223433F0B4A0D1205FE
:101500003A43ED072A4318001100E0BCBA46B14641
:10151000A846F0BD002C4BD04C46A41BA446002E80
:1015200000D023E104001C4300D1AFE16246541E09
:10153000012A00D115E2804DAC4500D1C8E1A44696
:101540001BE14A46B21A9446002A00DCACE04A4647
:10155000002A43D0784A964200D1AFE180223C0075
:1015600012041443A0466246382A67DC1F2A00DCB6
:101570005FE14746203AD7406246202A05D06446BC
:101580004022121B4446944021434A1E91410C00C4
:101590003C4357E03A000A4300D105E12200013AFA
:1015A000012C00D182E1644CA4455BD0944641E714
:1015B000634C771C274200D0C4E004001C43002E7B
:1015C00000D069E1002C00D1BFE144460C4300D0BB
:1015D000D0E14207DB081343C00829E03A000A4380
:1015E00000D170E162466446013A012C00D1E0E08E
:1015F000514CA44500D161E19446B4E73A001F394B
:10160000CA401100202B03D04022D31A9F403C43F4
:10161000631E9C41002700260C43630700D053E75C
:10162000B446E4087B072343F808434A94451DD099
:101630006246070352053F0B520D60E744460C43D8
:10164000621E9441E4189C429B415F423F183B025A
:10165000E3D5394B01369E4200D0B5E03200002779
:1016600000234CE74207DB081343C0081A0002437B
:1016700000D1E1E180273F0307433F032E4A3F0BA0
:101680003DE7200001F05AFD010018311F2900DC60
:10169000FCE60838844027000024B14200DBFFE666
:1016A000264A761A17400DE7002A2FD04A46921B89
:1016B0009446002E00D1ADE01F4A914500D10FE1C4
:1016C0008022120410436246382A00DD0FE11F2AEF
:1016D00000DD80E1644620221E00121B67460400E4
:1016E00093409440FE405A1E9341F84034431C43BB
:1016F000804464188C42BF417F424E464744A6E76F
:1017000042460A4311004A1E9141ADE60C4C721C40
:10171000224200D0A1E002001A43002E00D0FAE0DD
:10172000002A00D145E13A000A4300D046E14207D1
:10173000DB081343C0087BE7FF070000FFFF7FFFC4
:10174000FE07000047465C1AC21BA342BF417F420E
:10175000B94617004A46BF1A3A0200D58DE0230069
:101760003B4300D08AE60020002561E7B44CA14548
:1017700000D1ADE08024240420436446382C3DDCB5
:1017800062461F2C00DDB7E020251E002D1B040043
:10179000AB40AC40D640D04042465D1EAB413443E6
:1017A000121A904623432CE04207DB081343C0087B
:1017B0003BE75C189C429B4140445B42C7180126B2
:1017C0003B0200D429E702269E4A63081740012203
:1017D00014401C43FB071C437F0873E64446203A31
:1017E000D4406246202A05D067464022D21B474695
:1017F000974039434A1E9141214335E60343581E21
:101800008341CC1AA142BF4143467F4255464E46D2
:10181000DF1B2EE602001A4300D1BDE0624664469B
:10182000013A012C00D1E5E0854CA44558D09446FE
:1018300049E764462022121B444694400F00A1460B
:1018400064469140E7404C464A1E91413C43424623
:101850000C436146CA408018F4E6794CA24200D19C
:10186000FDE6591899429B4140445F42C719FC0765
:10187000490816000C437F08CFE6CC1AA142BF41AD
:1018800043467F42181A5546C71BF7E5C9087B0730
:1018900055460B43F808C8E6002C00D081E04346CB
:1018A0000B4315D1802000250003E3E65C1AA34218
:1018B0009B41C71B5B420126FF1ADAE54207DB08A2
:1018C0001343C008D2E64207DB081343C008ACE666
:1018D00043464246C9085B0755460B43D008C5E658
:1018E000434642465B07C9080B43D008BEE60343A4
:1018F0001C00631E9C41FCE60200203CE2401400F8
:101900006246202A03D04025AD1AA8400343581E42
:101910008341234375E7002AE2D03A000A43CDD041
:101920004207DB0813438022C0081203104206D08E
:10193000FC08144203D12000CB087A0713435A0F46
:10194000DB005207DB08134390E643460B4300D10C
:1019500009E743464246C9085B0755460B43D00892
:1019600066E6CC1AA14289413F1A494255460126F2
:101970007F1A7EE542465C1A871AA3429241524280
:10198000BF1A3A023DD5CC1AA14289414346494289
:101990001F1A55467F1A95E57B07C9080B43F808BF
:1019A00043E64446DB080C4330D142071343C008EA
:1019B0005CE67B07C9080B43F80839E65C189C42D3
:1019C0009B4140445B42C7183B0200D425E61D4BB7
:1019D00001261F4021E60400203AD4406246202A16
:1019E00004D040226646921B904003435A1E934106
:1019F0001C437EE65C188C428941404449424718AA
:101A0000DDE623003B4300D1ADE606E64407234371
:101A10008024C0082403204208D04246D60826422B
:101A200004D155463000CB0851070B435A0FDB0059
:101A3000DB085207134319E60023014A1F005EE545
:101A4000FF070000FFFF7FFFF0B557464E464546B3
:101A5000DE46E0B5814605000C03480092461F00B3
:101A600085B0240B400DCE0F002800D156E1D44B99
:101A7000984200D172E16B0FE4001C4380231B04E9
:101A800023439846CF4BED009B4600239946834461
:101A900000933C037B005046240B5B0DFF0F002B93
:101AA00000D11FE1C64A934200D162E1C549420F0D
:101AB0008C46E40059461443802263441204CB1A36
:101AC00014439B46C200002033007B409A464B469D
:101AD0000F2B27D8BC499B00CB589F46B246009B92
:101AE000022B16D0032B00D18EE2012B00D0D9E0BF
:101AF00000230024002552461B052343D20713432D
:101B00002800190005B0F0BCBB46B246A946A04665
:101B1000F0BD00240025AA4BEDE7BA46A04615000B
:101B20000090DCE7444500D2C7E100D1C2E10123C7
:101B30005B429C462E0040460025E3442302140EDF
:101B40001C431B0C994623041F0C120249460092A9
:101B50000197FEF77BFB02007A430B04310C8046B1
:101B600019438A4207D901235B429C460919E04484
:101B70008C4200D807E2881A4946FEF767FB090441
:101B80008C4631046646019A090C424303003143F6
:101B90008A4204D90919013B8C4200D8EDE1881A28
:101BA000424612041A4390464146009B0E041B0C09
:101BB0001F000293009B360C1B04190C0B0073438F
:101BC000120C7E43039151437A431F0CBC46761896
:101BD0006644B14203D9802149028C466244310CEB
:101BE0008A1831041E04360C8E19904202D312D189
:101BF000B54210D24346591E009B9C4665441F00C7
:101C00009D429B415B421B19C018844200D2A0E157
:101C100000D19BE18846AE1BB542AD41801A6D42B2
:101C2000401B844200D1D5E14946FEF70FFB019AE3
:101C30000B044243310C050019438A4200D96CE180
:101C4000881A4946FEF702FB019A3604424309040A
:101C5000360C03000E43B24200D953E10398B61A82
:101C600002002D041D43029F2B041B0C5A437B438F
:101C70009C46290C4843130C84446344794398429E
:101C800003D98020400284466144180C12041B04CE
:101C9000120C41189B188E4200D2FFE000D1FAE0EE
:101CA00001231D43494A5A44002A00DCAAE06B077D
:101CB00000D03DE1ED084346DB0106D54246444BEA
:101CC0001A4090468022D2005A44424B9A4200DD8C
:101CD0001FE743465B071D43434652055C02240B46
:101CE000530D08E75246224300D17BE0002C00D17F
:101CF000FAE0200001F022FA02000B3A1D23010055
:101D00009B1A52460839DA408C40144352468A40A6
:101D1000314B58449B4683440020D5E64B46234331
:101D2000984644D0002C00D1CEE0200001F006FA05
:101D3000010002000B391D235B1A49461000D940EF
:101D4000083884400B004D4623439846854023487D
:101D5000831A9B460023994600939AE64B462343F9
:101D600098461DD108239946063B002583460093DB
:101D70008FE65246224309D1022349461943184BA4
:101D800089469C4600240220E3449DE603234A46FC
:101D90001A43134B91469C4652460320E34493E674
:101DA0000C239946093BA0468346009371E6042321
:101DB000994600239B4601330025009369E6C046FF
:101DC000FF07000001FCFFFF54430108FF03000070
:101DD000FFFFFFFEFE070000F30300000DFCFFFF06
:101DE00001F8FFFF494601231943894600240120D9
:101DF0006AE6002380249A4600258A4B24037AE66B
:101E000001256D4201239B1A382B00DD70E61F2B44
:101E100000DCBFE01F2149428A1A4146D1400A0036
:101E2000202B04D04146804B5B4499400D436B1EF0
:101E30009D4107232A431D0000241540134200D171
:101E4000D4E00F2100231140042900D1CBE0111D63
:101E50009142924152429B180A00190200D4C2E0FA
:101E600001230024002546E6802341461B03194236
:101E700008D01C4206D11C432403BA461500694B06
:101E8000240B38E68024434624031C432403B24633
:101E9000644B240B2FE6002B00D103E7A619681E24
:101EA000A64200D28DE08E4200D2A3E000D1B3E082
:101EB0000500F5E6AA4200D939E64346DE07580890
:101EC0006B081E43ED0739E6484601F037F901007B
:101ED0000200153120321C2900DC2CE74B46083863
:101EE00083400025984632E701F028F903001A00E4
:101EF000153220301C2A00DC00E75446083B002243
:101F00009C4005E73619013BB44200D9A6E6B2422F
:101F100000D8A3E6831E3619A0E60919013D8C42BC
:101F200000D98DE68A4200D88AE6851E091987E61F
:101F30000F232B40042B00D1BCE605235B42AB42B0
:101F40009B4104355B42ED089844B4E6AF4200D9AA
:101F500060E6824204D800D05CE6AE4200D859E682
:101F600002235B429C46009BE0449C4665449D42A4
:101F70009B415B421B19C0184DE68A4200D80EE611
:101F8000831E09190BE68A4200D8F4E5831E9846A1
:101F90000919F0E52549280059448D4042468A40F8
:101FA000691E8D414146D840D94002432A430B0067
:101FB000510700D151E70F211140042900D046E715
:101FC0004BE705008E4200D06AE6009A934200D0AB
:101FD00066E667E6164A5A44002A00DC10E7012349
:101FE0000025984467E65D075B021C0BD2080023BE
:101FF000154380E50098023D42008242BF417F4286
:102000003C1936190092DDE78024434624031C4323
:102010002403044B240B6EE5009A9A42EAD3050090
:10202000D3E7C046FF0700003E0400001E04000086
:10203000FF030000F0B54E464546DE465746904643
:10204000E0B517001A03120B0500844619480E0369
:102050004C0091465A00DB0F9B46360B640DC90FAE
:10206000520D844219D0824210D0012094420ED1E8
:102070004E450CD10120C44509D1594517D0002C3B
:1020800005D130002843431E984100E00120F0BCF8
:10209000BB46B246A946A046F0BD330001202B4303
:1020A000F5D1A242F3D14B463B43F0D1E2E7002009
:1020B000EDE7C046FF070000F0B54746CE460400F6
:1020C000180016001B031B0B2D4D4A00994680B5C6
:1020D00043000F03A446B0463F0B520DC90F5B0DE2
:1020E000C00FAA4221D0AB4213D0002A22D13C43D8
:1020F000002B02D14D462E4322D0002C10D081421D
:1021000022D00220013908400138C0BCB946B0468F
:10211000F0BD4D462E4329D1002AF0D13C43EED1EB
:102120000028F2D101204042EFE73D0025431DD1B8
:102130009342EED0002BE2D14C462643DFD1E0E7BC
:102140000020002CE1D0DCE79A420ADCE8DB4F45B6
:10215000D7D80ED000204F45D7D20029E2D00800B2
:10216000D3E74342584140000138CEE702204042C5
:10217000CBE7C445C5D80020C445C6D2EDE7C0466C
:10218000FF070000F0B54746CE46040018001600D1
:102190001B031B0B2C4D4A00994680B543000F03CF
:1021A000A446B0463F0B520DC90F5B0DC00FAA42AB
:1021B0000DD0AB4210D0002A27D13C43002B11D1C7
:1021C0004D462E430ED10020002C15D00EE03D00D0
:1021D000254310D1934218D14D462E430BD1002AEE
:1021E00002D13C43002C0BD0814214D00220013993
:1021F0000840013800E00220C0BCB946B046F0BD3E
:102200000028F9D101204042F6E7002BECD14C46E2
:102210002643E9D1EAE79A4204DD434258414000AF
:102220000138E9E79A42EBDB4F45DFD806D00020C2
:102230004F45E1D20029E5D00800DDE7C445D5D8F7
:102240000020C445D8D2F5E7FF070000F0B5574697
:102250004E464546DE46E0B598460C034B00060068
:10226000924687B0240B5B0DCF0F002B00D15CE1B1
:10227000D94A934200D175E1420FE4001443802211
:1022800012041443D54AC5009446634400930023C6
:1022900099469B46434642461E03D20F5B0050467A
:1022A0009046360B5B0D00D120E1CB4A934200D122
:1022B00062E1CA49420F8C4600996344F6008C469D
:1022C000164380229C44120463461643C200002039
:1022D00000930099434601318C4649467B40019367
:1022E0000F2926D8BE4B890059588F464346019383
:1022F0003400150083465B46022B16D0032B00D119
:1023000003E2012B00D0CDE0002200240025019B38
:1023100012052243DB071A432800110007B0F0BC66
:10232000BB46B246A946A046F0BD00240025AA4AF5
:10233000EDE7280C2D042D0C2B00110C1204120CAF
:102340005343984613002F00434399464F434F444D
:10235000BB4647460B003F0CBA464343DA44029360
:10236000D14504D980277F02B9464B440293534696
:102370001B0C9B4653461F0443461B041B0C9846EC
:102380003B0043440493330C3604360C9846330028
:1023900043439946434643432F009A464346774377
:1023A0005D43380C4D444519A94503D980235B0290
:1023B0009946CA443F04280C3F0C2D04ED19270C04
:1023C0002404240C0300200050437A4391463A0031
:1023D00053440593030C9A464A436143494451448C
:1023E000AB44894503D980235B0299464A440004E3
:1023F0000B0C000C09040918200099464346704351
:102400005C437E435F43030C9846A41944444A440A
:102410000397A64204D980235B029846474403975A
:102420002304029E9A46059B5E449846AE42AD4107
:1024300076188E4289410004000C504440446D429D
:102440004719B846934649428946C344D9449842FD
:102450008041A845AD4193459241894589416D42EE
:1024600040422843240C524249420A43039B00192C
:102470008018C7184B46DC0D049B75021D436A1E6D
:1024800095414B46F60D7F0235435A023C431543B6
:10249000FB0100D41CE101216A080D401543E2074D
:1024A000154364084F496144002900DCB0E06B0724
:1024B00009D00F222A40042A05D02A1DAA42AD4184
:1024C0006D4264191500E30104D58021464AC90014
:1024D00014406144454A914200DD26E76207ED0859
:1024E000640249051543240B4A0D10E75246324356
:1024F00000D17FE0002E00D1DCE0300000F01EFEB5
:1025000002000B3A1D2301009B1A52460839DA409B
:102510008E40164352468A40009B3549181A0300E4
:102520008C46634400200093D3E6250005434AD03F
:10253000002C00D1B0E0200000F000FE01000200FD
:102540000B391D2310005B1A310035000838844018
:10255000D94085400C432648831A009300239946AE
:102560009B4697E60500254326D1082200930223C7
:10257000002491469B468DE65246009B324310D183
:10258000154900268C4663444946009302231943AB
:10259000894602209DE65B460197022B00D0ADE6FE
:1025A000C3E60D4A0320944663444A46009303233E
:1025B0001A43914652468CE60C22009303230500F1
:1025C00091469B4666E60423994600230093013317
:1025D00000249B465EE6C046FF07000001FCFFFFAB
:1025E00094430108FF030000FFFFFFFEFE07000009
:1025F0000DFCFFFF494601231943894600260120AF
:1026000067E6002380240025434A019324037EE6E5
:102610000120401A382800DD76E61F285BDD1F22E6
:1026200023005242511ACB401900202803D03B4AC4
:102630006244944025436A1E95412A000A430721BB
:102640000D000024154011425BD00F2100241140E1
:10265000042953D0111D914292415242A4180A00FC
:1026600023024BD501220024002550E680231B03C2
:102670001C4209D01E4207D133431C0343461500B8
:10268000240B254A019342E68022120314432403BB
:10269000214A240B01973AE600F050FD01000200A8
:1026A000153120321C2900DC4BE7340008380025A6
:1026B000844050E700F042FD03001A00153220303C
:1026C0001C2A00DC1EE75646083B00229E4023E7FA
:1026D000009B9C46E6E61249220061442E008D4094
:1026E0008A40C640691E8D4132432A43C440530785
:1026F000B6D00F2111400429ACD1B1E765076402BF
:10270000240BD2081543002201E680221203144351
:102710002403014A240BFAE5FF0700003E040000F1
:102720001E040000F8B557464E464546DE46E0B565
:102730001E0017004A000B03520D5B0A9046420F21
:102740001A43CD0FCD4C3103C300944670007A0F6D
:10275000490AFF009A46B946400DF60F1143A042C0
:1027600000D1B1E001225640B346B54200D188E025
:102770004246121A002A00DCAEE0002800D1C1E077
:10278000BE48804500D151E1802000040143382A31
:1027900000DD7BE11F2A00DDEEE120203E00801AF3
:1027A0000C00D640D140874062468440521A781EC1
:1027B0008741944634432743DC1BA3429B41624636
:1027C0005B42D31A99464B461B0200D418E14B4694
:1027D0005802430A99464B46002B00D137E1484640
:1027E00000F0ACFC010008392023220048465B1AA7
:1027F000DA4088408C4043461043884500DD36E18E
:10280000C91A4B1C1F2B00DDEAE020222600D21A39
:1028100001009440DE40D84000239140621E944164
:102820008146984631430C43630709D00F23234068
:10283000042B05D0231DA342A4416442A1441C00E3
:102840004B461B0200D4DEE041468C4B01319942DD
:1028500000D1E7E04B468A48E408034018004905E8
:102860005B07400223434A0D040B1205ED07224388
:102870002A4318001100F0BCBB46B246A946A04648
:10288000F8BD4246121A002A52DD002800D19CE011
:10289000A04500D1CAE0802000040143382A00DDB1
:1028A00049E11F2A00DC97E110000E002038C640E5
:1028B000202A04D04020821A91400F43B9464C464A
:1028C000621E944134433AE10A003A4328D0B346A9
:1028D000B5422BD06B4A4244002A5DD04246444662
:1028E000821A002C00D0F5E065461D4300D19CE122
:1028F000551E012A00D1FBE1604CA24200D1BDE18E
:102900002A00F0E00800384300D1C3E0501E012A3D
:1029100000D1A8E1594CA24200D187E0020036E77D
:1029200001225640B346B54200D021E7554A424401
:10293000002A00D1B5E042464446821A002C00D15C
:1029400038E14E4EB04200D1DEE1802664463604C6
:102950003443A446382A00DD96E11F2A00DD24E234
:102960002026B41AA24664465646B440A1461C002E
:102970004E46D440264334005646B3405E1EB34113
:102980001C436346D340C918E419BC42BF417F428F
:10299000B94680468944D8E040463B4C013020424D
:1029A00000D0B4E04046002800D044E1604618431F
:1029B00000D190E10800384300D0AAE16146DB086D
:1029C00049070B436146CC0827E00800384361D033
:1029D000501E012A00D139E1A24227D002005DE752
:1029E00002001F39CA401100202B03D04022D31A05
:1029F00098400443631E9C410023994698460C432B
:102A0000630700D012E74B464A46E4085B072343BE
:102A1000D408424619498A420ED024035205240B99
:102A2000520D22E70A00002400231EE7DB0862465D
:102A3000520713436246D4081A00224300D1FCE136
:102A400080221203144324030C4A240B0DE72000B8
:102A500000F074FB010018311F2900DCC4E60838BF
:102A60008440434620000024884500DCC8E6044A30
:102A70005B1A104098468146D6E6C046FF07000024
:102A8000FFFF7FFF01F8FFFFFE0700000F437A1EE4
:102A9000974191E66146DB0849070B436146CC0844
:102AA000B8E74046D34C0130204200D0A2E0404677
:102AB000002800D001E16046184300D15EE1080023
:102AC000384300D05FE16146DB0849070B436146AC
:102AD000CC08A2E7C84DA84200D1CFE080256446CB
:102AE0002D042C43A446382A56DC1F2A00DDD1E0F1
:102AF00020251E00AD1A6446AB40AC40D6405D1E9A
:102B0000AB41344323436446D440091B49E060464B
:102B1000DC1B461AA34280414042814630004E46AB
:102B2000801B8146000276D44B46234300D052E6F8
:102B30000024002571E739430C00621E9441E4181B
:102B40009C429B415B42634499464B461B0200D426
:102B500056E701239C46A84BE044984538D04B46A5
:102B6000A648012203401800630814401C43C30711
:102B70001C434308994657E610000E002038C64013
:102B8000202A04D04020821A91400F43B9464F4674
:102B90007A1E974137430FE662461A4313005A1EC6
:102BA0009341FC1AA742BF417F42CB1B99465D4629
:102BB000804608E666461E4300D1BEE0561E012A46
:102BC00000D109E18C4CA24200D119E13200C1E6EA
:102BD00042460024002348E620200C00801A3E00D4
:102BE00087408440D640781E8741D14034433C43DF
:102BF0008C44A4E7804A904200D1E9E0DF199F426B
:102C00009B4161445B42C918CC077F084B08994639
:102C100080463C43F4E6FC1AA742BF4163467F422C
:102C2000C91ACB1B99465D46D5E5FF084B075D46A3
:102C30003B43CC08EEE662461A4300D082E00B002C
:102C40003B431BD1802400252403F9E6DC199C4278
:102C50009B41614489465B4299444B461B0244D4E4
:102C600001239846CCE6DC1B6246A3429B41511AE5
:102C70005B42CB1A994601239846A4E5FF084B070F
:102C80005D463B43CC08D7E662461A431400631EF8
:102C90009C4179E615006446203DEC40A046202A80
:102CA00005D040256446AA1A944023439A465446C8
:102CB000631E9C414346234373E762461A4323D075
:102CC0000A003A4300D0A0E06246DB0852071343F3
:102CD0006246D408B0E60B003B4300D128E7FF086A
:102CE0004B075D463B43CC0897E60223984636E700
:102CF000FC1AA742BF4163467F42C91ACB1B9946C3
:102D000001235D4698465EE54B07FF083B43CC0830
:102D100092E6DC1B6046A342B641401A7642801B15
:102D20008146000260D5FC1AA742BF4163467F423C
:102D3000C91ACB1B99465D4676E5FF084B073B4316
:102D4000CC0867E60A00DB083A4300D16FE662462A
:102D5000520713436246D40880221203144207D05C
:102D6000C808104204D15D460400FB0849070B4324
:102D70005A0FDB00DB08520713435DE64B07FF08E1
:102D80003B43CC0849E6DC199C429B41614489469F
:102D90005B4299444B461B0200D431E64A46174B2E
:102DA0001A400123914698462AE616006446203EC2
:102DB000F440A046202A05D040266446B21A94402A
:102DC00023439A465446631E9C4143461C43DBE51D
:102DD00002000024002348E5DC19BC42BF416144E5
:102DE00089467F42B94438E74B46234300D19FE6EA
:102DF00006E6C046FE070000FF070000FFFF7FFF5A
:102E0000FF084B073B43CC0816E66246DB08520737
:102E100013436246D40880221203144207D0C80824
:102E2000104204D15D460400FB0849070B435A0FCA
:102E3000DB005207DB081343FEE50023014A1C00B8
:102E400013E5C046FF07000070B505000C481C03E1
:102E500016005B000A034900120B490D240B5B0DA1
:102E6000814208D0064A0020934203D1200030431B
:102E7000431E984170BD01202A43FBD1F2E7C046B2
:102E8000FF0700000A0030B5134C5300090305008A
:102E9000090B00205B0DD20FA34204DD0F488342D3
:102EA00002DD0F4BD01830BD8020400301430D4898
:102EB000C01A1F2808DD0C48C31AD9400B0058421D
:102EC000002AF0D11800EEE7084CC540A446634440
:102ED00099400B002B43F2E7FE0300001D040000A5
:102EE000FFFFFF7F3304000013040000EDFBFFFF32
:102EF00070B5002816D0C317C5185D40C40F280050
:102F000000F01CF9114A121A0A2816DC03002E00E0
:102F100015339E400B23181AC54052052D032D0B67
:102F2000530D03E000240023002500261B052B433E
:102F3000E40723433000190070BD0B38854052056B
:102F40002D0300262D0B530DF0E7C0461E04000094
:102F500010B5041E10D000F0F1F80F4B1B1A0A2810
:102F600011DC0B222100121AD14015300A035B0537
:102F70008440120B5B0D01E0002300221B0513436C
:102F80002000190010BD22000B3882405B0512039F
:102F90000024120B5B0DF1E71E04000070B5430026
:102FA0004602C40FFE201B0E591C750A08420CD0A5
:102FB000E022920094466D07360B63441B053343B1
:102FC000E40723432800190070BD002B14D1002D05
:102FD0001BD0280000F0B2F80A281CDC0B232E00BE
:102FE0001B1ADE40030015339D400E4A3603121AA9
:102FF0005205360B530DE1E7002D09D08022360B28
:103000001203094B6D071643D8E700230026D5E7C6
:103010000026054BD2E703000B3B9D402E00002508
:10302000E3E7C04689030000FF07000002004B00F1
:10303000F0B55B0D0C033D4E640A400F5F1CC90FD9
:103040000443D50037420AD039481E18FE2E16DD3B
:10305000FF200024C0052043C9070843F0BD002B12
:1030600006D12C4326D005229201540AD8B2F1E7AA
:103070002543EDD08020C0030443FF20EAE7002E63
:103080001BDD9201531E9A41E4006D0F22432A4337
:10309000530748D00F231340042B00D00432802361
:1030A000DB0413403FD0701CFE2ED1D09201540A95
:1030B000C0B2CFE700200024CCE73200173222DB79
:1030C0008020000420431E24A41B1F2C1DDD02228F
:1030D0005242961B0200F2401600202C04D0154AE2
:1030E00094466344984005432A00531E9A41324354
:1030F00000265307CED180241300E404012023408E
:103100002242D3D1B0E70023ADE70B4A94462A0010
:10311000E24014002A0063449A409840551EAA4198
:1031200002432243E4E733009EE7C046FE07000067
:1031300080FCFFFFA2FCFFFF82FCFFFF1C2101239C
:103140001B04984201D3000C10391B0A984201D38A
:10315000000A08391B09984201D30009043902A268
:10316000105C40187047C0460403020201010101CF
:10317000000000000000000080B582B000AF802396
:103180005A01A023DB051100180003F0EFFC030037
:103190007B607B681800BD4602B080BD80B582B000
:1031A00000AF80231B01064A1900100003F0DEFC6B
:1031B00003007B607B681800BD4602B080BDC0463E
:1031C0000004005080B582B000AF80235B01064A46
:1031D0001900100003F0CAFC03007B607B68180034
:1031E000BD4602B080BDC0460004005080B582B02C
:1031F00000AF80239B01064A1900100003F0B6FCC3
:1032000003007B607B681800BD4602B080BDC046ED
:103210000004005080B582B000AF8023DB01064A75
:103220001900100003F0A2FC03007B607B6818000B
:10323000BD4602B080BDC0460004005080B582B0DB
:1032400000AF80231B020D4A1900100003F08EFC12
:1032500003003B60FB1D4F221A703B68012B03D11A
:10326000FB1D4F221A7002E0FB1D43221A70FB1D4A
:103270001B781800BD4602B080BDC0460004005057
:1032800080B582B000AF80235A00A023DB05110077
:10329000180003F06BFC03007B607B681800BD46E0
:1032A00002B080BD80B582B000AF0B4B1B68180028
:1032B000FEF74CF8031C7B60084B1B687968181CF0
:1032C000FDF702FD031C0649181CFDF7FDFC031C5D
:1032D000181CBD4602B080BDAC06002004000020D2
:1032E0000000304180B500AF0A4B5B681800FEF764
:1032F0002DF8021C084B1B68191C101CFDF7E4FC80
:10330000031C0649181CFDF7DFFC031C181CBD46F6
:1033100080BDC046AC060020040000200000304103
:1033200080B500AF0A4B9B681800FEF70FF8021C2F
:10333000084B1B68191C101CFDF7C6FC031C8321DD
:10334000C905181CFDF7C0FC031C181CBD4680BD38
:10335000AC0600200400002080B500AF0A4BDB68FB
:103360001800FDF7F3FF021C084B1B68191C101C0A
:10337000FDF7AAFC031C191C181CFDF73FF9031CE0
:10338000181CBD4680BDC046AC06002004000020CD
:1033900080B582B000AF78607B68012B06D10A4B04
:1033A00001220421180003F0FEFB08E07B68002BDB
:1033B00005D1054B00220421180003F0F4FBC046A0
:1033C000BD4602B080BDC046000C005080B582B042
:1033D00000AF0200FB1D1A70FA239B00F91D044880
:1033E000012205F00FF8C046BD4602B080BDC046C0
:1033F0002C03002080B582B000AF7860FA239B00D8
:1034000079680448032204F0FDFFC046BD4602B0BF
:1034100080BDC0462C03002090B585B002AF786017
:103420000A00BB1C1A80BB1C1C887A687968054896
:10343000FA239B000093230005F03CF9C046BD46EB
:1034400003B090BD2C030020F0B5A3B004AF7860AA
:10345000A023DB0500221021180003F0A4FB90201C
:10346000FFF7B4FF7B681800FFF7C4FF6C243B191B
:1034700000221A703B1900225A703B1900229A70E0
:103480003B190022DA703B1900221A713B19002205
:103490005A713B191800FFF7ADFF3B1902211800C4
:1034A000FFF7BAFFA023DB0501221021180003F06B
:1034B0007AFB3B191B781A003B195B784A490825AF
:1034C00078190AF0BBFF7B19180001F0A9FBA023B3
:1034D000DB0500221021180003F065FB9F20FFF799
:1034E00075FF3B1900221A703B1900225A703B19D4
:1034F00000229A703B190022DA703B1900221A71DF
:103500003B1900225A713B1902211800FFF784FF72
:10351000A023DB0501221021180003F044FB3B1916
:103520001B781A003B195B78304978190AF086FF3E
:103530007B19180001F074FBA023DB050022102189
:10354000180003F030FB4B20FFF740FF21007B18F1
:1035500000221A707B1800225A707B1800229A7081
:103560007B180022DA707B1800221A717B18002267
:103570005A71FA239B000C0039191D48042204F0EB
:1035800041FF3B1906211800FFF746FFA023DB058A
:1035900001221021180003F006FB21007B181B7884
:1035A0001E007B185B789C467B189B781A007B1862
:1035B000DB781C007B181B791D007B185B790D499B
:1035C0000820381803930295019400926346320054
:1035D0000AF034FF08203B18180001F021FBC04618
:1035E000BD461FB0F0BDC046203A0108403A010870
:1035F0002C0300205C3A010880B586B004AF7E4BF6
:1036000000221A607C4B00225A607B4B00229A6099
:10361000794B0022DA60784B00221A61764B002247
:103620005A617648FA239B000293062301933B00DC
:10363000009301233B22D02103F084FB3B001B7845
:103640001B021AB23B005B781BB213431AB26C4BDD
:103650001A803B009B781B021AB23B00DB781BB23E
:1036600013431AB2674B1A803B001B791B021AB234
:103670003B005B791BB213431AB2634B1A80604B59
:1036800000229B5E1800FFF733FC00225F4BFEF721
:10369000DBF902000B0010001900FFF7C7FC021C49
:1036A0005B4B1A60574B00229B5E1800FFF720FC13
:1036B0000022564BFEF7C8F902000B00100019005B
:1036C000FFF7B4FC021C534B1A604F4B00229B5E69
:1036D0001800FFF70DFC00224C4BFEF7B5F9020075
:1036E0000B0010001900FFF7A1FC021C4A4B1A60E6
:1036F0004248FA239B000293062301933B00009368
:1037000001234322D02103F01DFB3B001B781B0249
:103710001AB23B005B781BB213431AB23F4B1A80BC
:103720003B009B781B021AB23B00DB781BB21343B1
:103730001AB23B4B1A803B001B791B021AB23B00AA
:103740005B791BB213431AB2364B1A80334B0022FB
:103750009B5E1800FFF7CCFB0022334BFEF774F999
:1037600002000B0010001900FFF760FC021C2F4B39
:103770001A602B4B00229B5E1800FFF7B9FB00225A
:10378000294BFEF761F902000B0010001900FFF74A
:103790004DFC021C264B1A60224B00229B5E180037
:1037A000FFF7A6FB0022204BFEF74EF902000B00AC
:1037B00010001900FFF73AFC021C1E4B1A60144B54
:1037C0001A680D4B1A60134B1A680B4B5A60124B58
:1037D0001A68094B9A60154B1A68074BDA60144B4C
:1037E0001A68054B1A61134B1A68034B5A61024B56
:1037F0001800BD4602B080BDC40C0020D8020020D5
:10380000A00C0020A20C0020A40C00200000D0403E
:10381000AC0C0020B00C0020B40C0020A60C002042
:10382000A80C0020AA0C002000606040B80C00200A
:10383000BC0C0020C00C002080B500AFFFF7DCFE00
:10384000274B1A68264B5B68191C101CFCF7D6FE28
:10385000031C1A1C224B9B68191C101CFCF7CEFE83
:10386000031C2049181CFCF745FE031E01D0012350
:1038700032E01B4B1A681A4B5B68191C101CFCF7D2
:10388000BDFE031C1A1C164B9B68191C101CFCF770
:10389000B5FE031C1449181CFCF718FE031E01D0CA
:1038A000022319E00E4BDA680D4B1B69191C101C22
:1038B000FCF7A4FE031C1A1C094B5B69191C101CA5
:1038C000FCF79CFE031C0749181CFCF713FE031EA3
:1038D00001D0032300E000231800BD4680BDC04690
:1038E000C40C00200000FA440000FAC4F0B5CE4633
:1038F000474680B5A1B016AF3A4B462200211800CA
:1039000009F0B1FD384BDB69012B03D10120FFF732
:103910003FFD02E00020FFF73BFD334BDB6999469A
:10392000314B1B68181CFFF739FB386279622E4B4C
:103930005B68181CFFF732FBB861F9612A4B9B6981
:10394000181CFFF72BFB38617961274B5B69181C4A
:10395000FFF724FBB860F960234B1A6A9046224BAC
:103960009B68181CFFF71AFB386079601E4B1B69B7
:10397000181CFFF713FB04000D001B4BDB68181C21
:10398000FFF70CFB02000B00184E19491548149262
:103990001593129413953B687C68109311944246DA
:1039A0000E92BB68FC680C930D943B697C690A938A
:1039B0000B94104B0893BB69FC69069307940E4B5C
:1039C00004933B6A7C6A029303940C4B009333008C
:1039D0004A460AF033FDC046BD460BB0C0BCB946EE
:1039E000B046F0BD10110020DC0C0020190D0020A5
:1039F000243C0108070D0020040D00200A0D0020C2
:103A000080B584B000AF786015497868FCF794FF02
:103A1000031C181CFDF72CFC0300FB60FB686422F0
:103A200053431800FDF744FC031C191C7868FDF78C
:103A300071FA031CBB600B49B868FCF77DFF031CDF
:103A4000BB60F868FDF734FC031C191CB868FCF770
:103A5000D5FD031CBB60BB68181CBD4604B080BD0F
:103A60000000C8420000704280B586B000AF7860A8
:103A700000237B615A4A7B68110018000BF0CCFBD5
:103A800003003B61A2E07B69012B05D13969554BED
:103A9000062218000AF061FD7B690A2B0DD13B69F3
:103AA0004E2118000AF043FD031E03D04E4B0022A6
:103AB000DA6102E04C4B0122DA617B69032B0AD107
:103AC0003B69180000F020FE031C181CFFF798FF4C
:103AD000021C454B1A607B69042B05D13A69434BA4
:103AE000110018000AF031FD7B69052B0AD13B69F2
:103AF000180000F009FE031C181CFFF781FF021CD0
:103B0000394B5A607B69062B05D13A69384B110055
:103B100018000AF01AFD7B69092B39D1354B0A22AE
:103B20000021180009F09FFC0023FB600BE0FB68FC
:103B30003A69D31819782F4AFB68D3180A1C1A70EF
:103B4000FB680133FB60FB68032BF0DD294B32225D
:103B50001A71284B30225A710623BB600CE0BB68F7
:103B6000023B3A69D3181978224ABB68D3180A1C59
:103B70001A70BB680133BB60BB68072BEFDD1D4BC0
:103B800000221A721B4A1C4B110018000AF0DDFCBF
:103B90007B69072B06D13B69180000F0B5FD021CBC
:103BA000114B9A617B69082B06D13B69180000F024
:103BB000ABFD021C0C4B5A61094B190000200BF0A5
:103BC0002BFB03003B617B6901337B613B69002B6D
:103BD00000D058E7C046C046BD4606B080BDC046CE
:103BE000D02D01080A0D0020DC0C0020040D00205F
:103BF000070D002058110020190D002080B584B059
:103C000000AF78600023FB60174A7B681100180042
:103C10000BF002FB0300BB601DE0FB680F2B06D11D
:103C2000BB68180000F070FD021C104B1A61FB68A5
:103C3000102B06D1BB68180000F066FD021C0B4B70
:103C4000DA60094B190000200BF0E6FA0300BB60B4
:103C5000FB680133FB60BB68002BDED1C046C04669
:103C6000BD4604B080BDC046D02D0108DC0C00204C
:103C700080B584B000AF78600023FB60174A7B6892
:103C8000110018000BF0C8FA0300BB601DE0FB68D0
:103C9000072B06D1BB68180009F09CFA0200104BF4
:103CA0001A62FB68092B06D1BB68180000F02CFDD6
:103CB000021C0B4B9A60094B190000200BF0ACFA68
:103CC0000300BB60FB680133FB60BB68002BDED1E7
:103CD000C046C046BD4604B080BDC046D02D0108D8
:103CE000DC0C002080B584B000AF78607B682A21AE
:103CF00018000AF01CFC03000133102200211800F8
:103D00000BF084FB02000E23FB181A700F23FB1824
:103D100000221A707B6801337B6008E00F22BB1819
:103D2000B9180D22BA18097812784A401A707B68BF
:103D30005A1C7A600D217A181B7813707B181B7837
:103D40002A2BEBD10F23FA180E23FB1812781B78BD
:103D50009A4201D0002300E001231800BD4604B0C0
:103D600080BD0000B0B584B000AF78600023FB6078
:103D70000B257B1900221A707C197B681800FFF74D
:103D8000B1FF030023707B191B78012B01D00023A6
:103D900056E07B681800FCF7B7F90300032B01D845
:103DA00000234DE0284A7B68110018000AF0E9FB67
:103DB000031E06D00123FB607B681800FFF754FE4A
:103DC0003DE0224A7B68110018000AF0DAFB031E6E
:103DD00006D00223FB607B681800FFF749FF2EE046
:103DE0001B4A7B68110018000AF0CBFB031E06D0AB
:103DF0000323FB607B681800FFF700FF1FE0154AF4
:103E00007B68110018000AF0BCFB031E02D00423DB
:103E1000FB6014E0104A7B68110018000AF0B1FB47
:103E2000031E02D00523FB6009E00C4A7B681100E9
:103E300018000AF0A6FB031E01D00623FB60FB68F6
:103E40001800BD4604B0B0BD5C3C0108643C0108EC
:103E50006C3C0108743C01087C3C0108843C01086E
:103E600080B584B000AF0023FB60144B1800FCF752
:103E70004BF90300052B1DD900237B603A1D104927
:103E80000E4B18000BF02BFA0300BB600FE0BB6871
:103E90001800FFF767FF0200FB689B18FB603A1DE4
:103EA000074B190000200BF01AFA0300BB60BB6837
:103EB000002BECD1C046BD4604B080BD280D0020CB
:103EC0001C2D010880B582B000AF00237B600E4B33
:103ED000180000F0A5FE00237B600DE09020FFF7A6
:103EE000B3FA9F20FFF7B0FAFA23DB00180001F0C5
:103EF000FFFB7B6801337B607B68002BEEDDC046F7
:103F0000C046BD4602B080BD283F010880B500AF65
:103F100001F0B2FB00F042F800F0D4FA00F0A4FA8D
:103F200000F086F800F016F900F054F900F090F96E
:103F300000F0CAF900F016FA00F062FA06F032FE5C
:103F40000E4B1A000221102006F026FF02000C4B37
:103F50001A600C4A0C4B0021180006F06BFE0200A0
:103F60000A4B1A600A4A0B4B0021180006F062FE49
:103F70000200094B1A6006F037FEFEE71C440108F8
:103F8000D0110020D44301082D4A0008C811002098
:103F9000F84301083B4A0008CC11002090B593B0CB
:103FA00000AF14243B19180034231A00002109F033
:103FB0005AFA3B1D180010231A00002109F053FA89
:103FC00080239B00180003F001FB3B1902221A60BA
:103FD0003B1980225200DA603B1900221A613B191A
:103FE00040225A613B190022DA613B19180003F0A4
:103FF00039FB031E01D000F03BFE3B1D07221A6077
:104000003B1D00225A603B1D00229A603B1DA022EE
:10401000D201DA603B1D0021180003F033FE031EBD
:1040200001D000F025FEC046BD4613B090BD000093
:1040300080B584B000AF3B1D18000C231A0000218E
:1040400009F011FA3E4B3F4A1A603D4B8022D205DF
:104050005A603B4B00229A60394B0022DA60384BA1
:10406000802292031A61364B04225A61344B00229B
:104070001A76334B00225A76314B00229A76304B17
:104080000422DA612E4B2022002199542C4B00226D
:104090005A622B4B00229A62294B2C220021995400
:1040A000274B00221A63264B00225A63244B00221E
:1040B0009A63234B3C2200219954214B0022DA645D
:1040C0001F4B180001F04CFC031E01D000F0D0FD86
:1040D0003B1D1D4A1A603B1D04225A603B1D0022F5
:1040E0009A603A1D164B1100180001F0E1FD031E05
:1040F00001D000F0BDFD3B1D144A1A603B1D082293
:104100005A603A1D0E4B1100180001F0D1FD031E3C
:1041100001D000F0ADFD3B1D0D4A1A603B1D0C2285
:104120005A603A1D064B1100180001F0C1FD031E34
:1041300001D000F09DFDC046BD4604B080BDC04624
:1041400018020020002401400200000400020024A4
:104150000008002C80B500AF1B4B1C4A1A601A4B9C
:104160001B4A5A60184B00229A60174B0122DA60F2
:10417000154B00221A61144B00225A61124B002287
:104180009A61114B0022DA610F4B00221A620E4B2A
:10419000180002F041FD031E01D000F069FD0A4B3A
:1041A0000021180003F07AF9031E01D000F060FD31
:1041B000054B0021180003F0BDF9031E01D000F0EB
:1041C00057FDC046BD4680BDD802002000540040C7
:1041D000140E000080B500AF1B4B1C4A1A601A4B2E
:1041E000822252005A60184B00229A60164BE0223D
:1041F000D200DA60144B00221A61134B00225A617C
:10420000114B802292009A610F4B0822DA610E4B0B
:1042100000221A620C4B00225A620B4B00229A6257
:10422000094B0722DA62084B00221A63064B082268
:104230005A63054B180004F02DF8031E01D000F05E
:1042400017FDC046BD4680BD2C0300200030014054
:1042500080B584B000AF3B1D18000C231A0000216C
:1042600009F001F9154B164A1A60144B154A5A60A9
:10427000124B00229A60114BF422FF32DA600F4B8E
:1042800000229A610D4B180004F05CFD031E01D062
:1042900000F0EEFC3B1D00221A603B1D00229A60DC
:1042A0003A1D064B1100180004F0C2FF031E01D096
:1042B00000F0DEFCC046BD4604B080BD9003002087
:1042C000001000403F1F000080B500AF234B244A80
:1042D0001A60224B962292015A60204B00229A606B
:1042E0001E4B0022DA601D4B00221A611B4B0C2270
:1042F0005A611A4B00229A61184B0022DA61174B5F
:1043000000221A62154B00225A62144B00229A6254
:10431000124B180005F00CF8031E01D000F0A8FCA9
:104320000E4B0021180006F0D3FA031E01D000F056
:104330009FFC0A4B0021180006F00AFB031E01D067
:1043400000F096FC054B180006F088FA031E01D019
:1043500000F08EFCC046BD4680BDC046DC03002098
:104360000038014080B500AF234B244A1A60224B2D
:10437000962292015A60204B00229A601E4B002226
:10438000DA601D4B00221A611B4B0C225A611A4B3A
:1043900000229A61184B0022DA61174B00221A6240
:1043A000154B00225A62144B00229A62124B1800DD
:1043B00004F0BEFF031E01D000F05AFC0E4B00219A
:1043C000180006F085FA031E01D000F051FC0A4BDC
:1043D0000021180006F0BCFA031E01D000F048FCD2
:1043E000054B180006F03AFA031E01D000F040FC1D
:1043F000C046BD4680BDC046700400200044004059
:1044000080B500AF164B174A1A60154B96229201E1
:104410005A60134B00229A60114B0022DA60104B55
:1044200000221A610E4B0C225A610D4B00229A6138
:104430000B4B0022DA610A4B00221A62084B002261
:104440005A62074B00229A62054B180004F070FF75
:10445000031E01D000F00CFCC046BD4680BDC04626
:10446000040500200048004080B582B000AF144B26
:104470009A6B134B01210A439A63114B9B6B0122E8
:1044800013407B607B6800220321092001F070FE4D
:10449000092001F082FE002203210A2001F068FEBB
:1044A0000A2001F07AFE002203210B2001F060FEB9
:1044B0000B2001F072FEC046BD4602B080BDC04672
:1044C0000010024090B58BB000AF14243B191800C7
:1044D00014231A00002108F0C6FF754B5A6B744B69
:1044E00004210A435A63724B5B6B042213403B6105
:1044F0003B696F4B5A6B6E4B20210A435A636C4BDE
:104500005B6B20221340FB60FB68694B5A6B684B66
:1045100001210A435A63664B5B6B01221340BB6067
:10452000BB68634B5A6B624B02210A435A63604B70
:104530005B6B022213407B607B685D4B5A6B5C4B6C
:1045400008210A435A635A4B5B6B082213403B60B5
:104550003B685849A023DB050022180002F023FB2A
:10456000554B0022C021180002F01DFB534B0022C6
:104570000721180002F017FB8E239B0050480022F1
:10458000190002F010FB3B194A4A1A603B1901223C
:104590005A603B1900229A603B190022DA603A19EE
:1045A000A023DB051100180002F07CF921007B1824
:1045B000F222D2011A600C003B1900225A603B190A
:1045C00000229A603B193E4A1900100002F06AF975
:1045D00021007B18802212021A600C003B19002275
:1045E0005A603B1901229A603B19354A19001000A4
:1045F00002F058F93B19802252001A603B19002240
:104600005A603B1901229A603A19A023DB05110078
:10461000180002F047F93B19802252011A603B1939
:1046200000225A603B1900229A603A19A023DB0548
:104630001100180002F036F93B19C0221A603B192C
:1046400001225A603B1900229A603B190022DA606D
:104650003B19194A1900100002F024F93B190722EE
:104660001A603B1901225A603B1900229A603B19DB
:104670000022DA603B19114A1900100002F012F909
:1046800021007B188E2292001A607B1801225A604A
:104690007B1800229A607B180022DA607B18084A97
:1046A0001900100002F0FEF8C046BD460BB090BDE8
:1046B000001002401080000000080050000C005064
:1046C0000004005080B500AF0C4B0421180002F02C
:1046D00087FA0B4B1B68002B04D1FFF7ADF80200E3
:1046E000084B1A60074B1B68002B03DD054B1A684B
:1046F000034B1A60C046BD4680BDC046000C00504A
:104700001402002010020020B0B588B000AF78601D
:104710000023FB617B681B782D2B04D17B68013360
:104720007B605C4B01E0FE239B053B6115E05A4931
:10473000F869FCF7C9FA031CFB617B681B78303B06
:104740001800FCF7B5FD031C191CF869FBF756FFB0
:10475000031CFB617B6801337B607B681B782F2B1C
:1047600003D97B681B78392BE1D97B681B782C2B0C
:1047700003D07B681B782E2B28D17B6801337B60AC
:10478000464BBB611AE07B681B78303B1800FCF796
:104790008FFD031CB969181CFCF796FA031C191C41
:1047A000F869FBF72BFF031CFB613B49B869FCF779
:1047B000C3F8031CBB617B6801337B607B681B789B
:1047C0002F2B03D97B681B78392BDCD93969F86921
:1047D000FCF77AFA031CFB617B681B78652B03D01E
:1047E0007B681B78452B4FD17B6801337B607B68EE
:1047F0001B782D2B04D17B6801337B60274B00E0B5
:10480000254BFB6000237B6115E023497869FCF7A9
:104810005BFA031C7B617B681B78303B1800FCF75C
:1048200047FD031C191C7869FBF7E8FE031C7B613C
:104830007B6801337B607B681B782F2B03D97B68F7
:104840001B78392BE1D9F868FEF7A8FB04000D00AE
:104850007869FEF7A3FB02000B00200029000DF091
:104860004FFB04000D00F869FEF798FB02000B00F7
:1048700020002900FDF7EAFC02000B0010001900DF
:10488000FEF7D4FB031CFB61FB69181CBD4608B096
:10489000B0BDC046000080BF00002041CDCCCC3D63
:1048A00080B582B000AF7860C046BD4602B080BD22
:1048B00080B582B000AF78602D4B0421180002F063
:1048C0008FF97A682B4B9A4229D12B4B1B68002B0E
:1048D00025D12A4B1800FBF717FC03000A2B09D936
:1048E000264B1800FFF7BCFAFFF700F8FFF7EAFEC7
:1048F00000F0BEF8224B1B68012B10D11F4B1B7818
:10490000002B05D01F4A1D4B0021180008F0ABFDFD
:10491000E1239A001949174B180004F0FBFD7A684F
:10492000194B9A421FD1194B1800FBF7EDFB0200FF
:10493000E1239B009A4209D2154B1B78002B05D02E
:10494000134A124B1100180009F0E4FD0C4B1B68D0
:10495000012B08D10E4B00221A700D490A4B01227F
:10496000180004F0D7FDC046BD4602B080BDC04669
:10497000000C0050700400209C0C0020280D00202A
:1049800000000020E7030000DC030020BC0600203C
:10499000980C002080B582B000AF78607A681C4B1C
:1049A0009A421CD11B4B1B68002B18D11A4B1B6859
:1049B000012B14D1194B1B78002B05D0184A174B2B
:1049C0000021180008F04FFD114B1B680C221A62E1
:1049D000E1239A0011490E4B180004F09BFD7A6800
:1049E000104B9A4210D10C4B1B68012B0CD10E4B73
:1049F00000221A70064B1B680C221A620A49094BE6
:104A00000122180004F086FDC046BD4602B080BDFC
:104A1000700400209C0C002000000020280D0020C5
:104A2000E7030000DC030020980C002080B582B072
:104A300000AF7860FFF746FAFCE780B582B000AFC0
:104A40007860012006F08CF9FBE7000080B582B0A9
:104A500000AF78607B681B68044A934201D100F084
:104A60002BFEC046BD4602B080BDC046002C0140B2
:104A7000F0B5DE4657464E464546E0B58BB008AF2A
:104A8000584B14220021180008F0EDFC564B1E2252
:104A90000021180008F0E7FCFEF76EFB0200534B04
:104AA0001A60FEF77BFB0200504B5A60FEF78AFB50
:104AB00002004E4B9A60FEF799FB02004C4B1A60C5
:104AC000FEF7A8FB02004B4B1A60FEF7B7FB030092
:104AD0001A00494B1A70FEF7D3FB0200474B1A60CD
:104AE000FEF71EFC021C464B1A60FEF735FC021C4A
:104AF000444B1A60FEF7D6FB021C434B1A60FEF7CC
:104B0000F1FB021C404B5A60364B14220021180066
:104B100008F0A9FC344B1E220021180008F0A3FC69
:104B2000324B1B689B46314B5B683B602F4B9E684A
:104B3000364B1A689046364B1A689146354B1A68C0
:104B40009246314B1B68181CFEF728FA04000D0032
:104B50002D4B5B68181CFEF721FA02000B002E4952
:104B600021480692079304940595524603924A46BB
:104B700002924246019200963B685A4609F05EFC5A
:104B80001C4B1B6898461A4B1B6899461C4B1B68AC
:104B9000181CFEF703FA04000D001A4B1B68181CC2
:104BA000FEF7FCF93860796014490968124800780A
:104BB00084461A4E0B486346059304913A687B6815
:104BC00002920393009401954B464246310009F04E
:104BD00035FCC046BD4603B0F0BCBB46B246A94654
:104BE000A046F0BDB4110020701100206411002017
:104BF000981100209C11002008000020A011002026
:104C0000AC110020B0110020A41100209011002050
:104C1000941100200C0200203C4101085C41010875
:104C200080B584B000AF78600E4B1B680C221A620E
:104C30007B681800FBF768FA03009AB20A4B7968A0
:104C4000084804F0CBFB0C217B18084A1A8079181D
:104C500004480A23022204F0C1FBC046BD4604B04A
:104C600080BDC04604050020881300000D0A000026
:104C700080B500AF72B6C046FEE7000080B582B0D6
:104C800000AF154B1A6C144B01210A431A64124BE6
:104C90001B6C012213407B607B680F4BDA6B0E4B61
:104CA000802149050A43DA630B4BDA6B80235B05ED
:104CB00013403B603B6802235B4200220321180043
:104CC00001F056FAC023DB00180000F035FDC046A5
:104CD000BD4602B080BDC0460010024090B58BB00A
:104CE00000AF786014243B19180014231A00002127
:104CF00008F0B9FB7B681B683B4A93426FD13B4B82
:104D00001A6C3A4B802149030A431A64374B1A6CD8
:104D100080235B0313403B613B69344B5A6B334B3D
:104D200001210A435A63314B5B6B01221340FB6044
:104D3000FB682E4B5A6B2D4B02210A435A632B4BB7
:104D40005B6B02221340BB60BB683B1903221A60F5
:104D50003B1903225A603B1900229A603A19A0239A
:104D6000DB051100180001F09DFD3B19204A1A6077
:104D70003B1903225A603B1900229A603B191D4AD5
:104D80001900100001F08EFD1B4B1C4A1A601A4BD3
:104D900005225A60184B00229A60174B0022DA60F5
:104DA000154B80221A61144B802292005A61124BDB
:104DB000802212019A61104B2022DA610E4B0022F0
:104DC0001A620D4B180001F0F9F9031E01D0FFF72C
:104DD0004FFF7B68084A1A65074B7A689A62C0469B
:104DE000BD460BB090BDC0460024014000100240FB
:104DF00002040000000400507C0200200800024071
:104E000090B591B000AF78602C23FB1818001423E4
:104E10001A00002108F027FB10243B1918001C235E
:104E20001A00002108F01FFB7B681B68224A93428E
:104E30003DD13B1920221A603B190022DA603B1950
:104E4000180003F0F3F8031E01D0FFF711FF1B4B0E
:104E50005A6B1A4B02210A435A63184B5B6B0222AE
:104E60001340FB60FB682C217B18C0221A607B1862
:104E700012225A607B1801229A607B180022DA60A5
:104E80007B1806221A617B180D4A1900100001F0E8
:104E900009FD0A4BDA6B094B802189030A43DA6367
:104EA000064BDA6B80239B031340BB60BB68C04694
:104EB000BD4611B090BDC0460054004000100240F5
:104EC0000004005090B58BB000AF786014243B19FB
:104ED000180014231A00002108F0C5FA7B681B682B
:104EE0001B4A934230D11B4B1A6C1A4B802149014B
:104EF0000A431A64174B1A6C80235B0113403B6111
:104F00003B69144B5A6B134B01210A435A63114BF3
:104F10005B6B01221340FB60FB6821007B18E022E1
:104F20001A607B1802225A607B1800229A607B1854
:104F30000022DA607B1800221A617A18A023DB05B0
:104F40001100180001F0AEFCC046BD460BB090BD8C
:104F5000003001400010024080B584B000AF78609E
:104F60007B681B680D4A934213D10D4BDA6B0C4BD7
:104F700010210A43DA630A4BDB6B10221340FB60FB
:104F8000FB6800220321112001F0F2F8112001F04A
:104F900004F9C046BD4604B080BDC04600100040C4
:104FA0000010024090B595B000AF78603C23FB182C
:104FB000180014231A00002108F055FA20243B1988
:104FC00018001C231A00002108F04DFA7B681B68AA
:104FD000AB4A934272D13B1901221A603B1900225D
:104FE0005A603B19180003F021F8031E01D0FFF7A7
:104FF0003FFEA44B1A6CA34B8021C9010A431A64DB
:10500000A04B1A6C8023DB011340FB61FB699D4BB5
:105010005A6B9C4B01210A435A639A4B5B6B0122EA
:105020001340BB61BB693C217B18C022D2001A60CF
:105030007B1802225A607B1800229A607B1800229B
:10504000DA607B1801221A617A18A023DB051100AF
:10505000180001F027FC8C4B8C4A1A608A4B3222D4
:105060005A60894B00229A60874B0022DA60864B97
:1050700080221A61844B00225A61834B00229A617C
:10508000814B0022DA61804B00221A627E4B1800AD
:1050900001F094F8031E01D0FFF7EAFD7B68802140
:1050A000794A5A50784B7A689A62002203211B2071
:1050B00001F05EF81B2001F070F8DDE07B681B68F2
:1050C000734A934272D120217B1802221A607B1806
:1050D00000229A607B18180002F0A8FF031E01D07E
:1050E000FFF7C6FD674BDA6B664B802189020A43E6
:1050F000DA63644BDA6B80239B0213407B617B692C
:10510000604B5A6B5F4B01210A435A635D4B5B6BEB
:10511000012213403B613B693C217B180C221A6041
:105120007B1802225A607B1800229A607B180022AA
:10513000DA607B1801221A617A18A023DB051100BE
:10514000180001F0AFFB534B534A1A60514B342205
:105150005A60504B00229A604E4B0022DA604D4B51
:1051600080221A614B4B00225A614A4B00229A61FD
:10517000484B0022DA61474B00221A62454B180067
:1051800001F01CF8031E01D0FFF772FD7B6880213F
:10519000404A5A503F4B7A689A62002203211C20F1
:1051A00000F0E6FF1C2000F0F8FF65E07B681B685C
:1051B0003A4A934260D1334BDA6B324B8021C902B9
:1051C0000A43DA632F4BDA6B8023DB021340FB6068
:1051D000FB682C4B5A6B2B4B02210A435A63294B19
:1051E0005B6B02221340BB60BB683C217B1805222D
:1051F0001A607B1802225A607B1800229A607B1882
:105200000022DA607B1804221A617B18244A1900F4
:10521000100001F047FB234B234A1A60214B372231
:105220005A60204B10229A601E4B0022DA601D4B00
:1052300080221A611B4B00225A611A4B00229A618C
:10524000184B0022DA61174B00221A62154B180026
:1052500000F0B4FF031E01D0FFF70AFD7B68114A7E
:10526000DA67104B7A689A62002203211D2000F051
:105270007FFF1D2000F091FFC046BD4615B090BDD8
:105280000038014000100240980500201C00024038
:1052900000440040F4050020300002400048004077
:1052A000000400505006002044000240B0B58CB00D
:1052B00000AF78602B23FB1800221A70384B1A6C51
:1052C000374B802109010A431A64354B1A6C80233D
:1052D0001B011340BB60BB680C23FA1810243B1958
:1052E0001100180002F078FE3B19DB687B627B6AD4
:1052F000002B04D102F05AFE0300FB6204E002F02E
:1053000055FE03005B00FB62FB6A26491800FAF7B2
:1053100017FF0300013B3B62234B244A1A60224BD8
:10532000234ADA60204B3A6A5A601F4B00221A6106
:105330001D4B00229A601C4B00229A612B257C1980
:10534000194B180003F0FEFC030023707B191B7837
:10535000002B1ED17C19144B180003F04BFD0300E9
:1053600023707B191B78002B13D10D2000F015FF43
:105370007B68032B09D87B68002219000D2000F000
:10538000F7FE0C4B7A681A6003E02B23FB1801220E
:105390001A702B23FB181B781800BD460CB0B0BD4B
:1053A0000010024040420F00D4110020002C0140A8
:1053B000E70300001000002080B500AFFEE780B5D5
:1053C00000AFFEE780B500AF034B180001F0D2F844
:1053D000C046BD4680BDC0467C02002080B500AFFF
:1053E000054B180001F0C6F8044B180001F0C2F894
:1053F000C046BD4680BDC04698050020F40500208B
:1054000080B500AF054B180001F0B4F8044B18004C
:1054100001F0F2F9C046BD4680BDC04650060020EE
:105420007C02002080B500AF034B180003F038FD6C
:10543000C046BD4680BDC046D411002080B500AF37
:10544000034B180003F02CFDC046BD4680BDC0468E
:105450009003002080B500AF034B180004F0B2F8B1
:10546000C046BD4680BDC046DC03002080B500AF0D
:10547000034B180004F0A6F8C046BD4680BDC046E8
:105480007004002080B500AF034B180004F09AF8B8
:10549000C046BD4680BDC0460405002080B500AFB3
:1054A00001231800BD4680BD80B582B000AF786092
:1054B000396007F095FE030016221A6001235B4253
:1054C0001800BD4602B080BD80B582B000AF7860E4
:1054D00001235A427B6811001800FFF7E5FFFEE741
:1054E00080B586B000AFF860B9607A6000237B6158
:1054F0000AE000E000BF0100BB685A1CBA60CAB2F3
:105500001A707B6901337B617A697B689A42F0DBB0
:105510007B681800BD4606B080BD80B586B000AF80
:10552000F860B9607A6000237B6109E0BB685A1CAF
:10553000BA601B78180000E000BF7B6901337B6113
:105540007A697B689A42F1DB7B681800BD4606B039
:1055500080BD80B582B000AF786001235B42180047
:10556000BD4602B080BD80B582B000AF78603960C2
:105570003B68802292015A6000231800BD4602B0A9
:1055800080BD80B582B000AF786001231800BD46B1
:1055900002B080BD80B584B000AFF860B9607A60B9
:1055A00000231800BD4604B080BD000080B586B061
:1055B00000AF7860144A154BD31A7B617B693B615D
:1055C000134B1B68002B02D1114B124A1A60104B6F
:1055D0001A687B68D3183A699A4207D207F000FE2E
:1055E00003000C221A6001235B4209E0084B1B6890
:1055F000FB60074B1A687B68D218054B1A60FB6882
:105600001800BD4606B080BD0090002000040000D8
:1056100020120020402C002080B500AFC046BD46BF
:1056200080BD00000D488546FFF7F6FF0C480D4988
:105630000D4A002302E0D458C4500433C4188C42ED
:10564000F9D30A4A0A4C002301E013600432A24253
:10565000FBD307F0CDFEFEF759FCFEE700900020DB
:1056600000000020F0010020204A0108F001002085
:10567000402C0020FEE7000080B582B000AFFB1D8B
:1056800000221A700B4B1A680A4B802149000A430A
:105690001A600320FFF70AFE031E03D0FB1D012240
:1056A0001A7001E0FFF7EAFAFB1D1B781800BD46EF
:1056B00002B080BD0020024080B500AF054B1B78D2
:1056C0001A00054B1B68D218034B1A60C046BD4632
:1056D00080BDC046140000202412002080B500AF19
:1056E000024B1B681800BD4680BDC0462412002036
:1056F00080B584B000AF7860FFF7F0FF0300BB60B7
:105700007B68FB60FB68013305D00A4B1B781A00ED
:10571000FB689B18FB60C046FFF7E0FF0200BB6818
:10572000D31AFA689A42F7D8C046C046BD4604B0BC
:1057300080BDC0461400002080B582B000AF786004
:10574000064B1B68064A13401900044B7A680A434B
:105750001A60C046BD4602B080BDC0460000014090
:10576000FFF9FFFF80B582B000AF786039607B68D9
:105770001B68054A1A403B681A437B681A60C0469A
:10578000BD4602B080BDC046FFFF3FFE80B582B07F
:1057900000AF78607B681A68E0235B041340180050
:1057A000BD4602B080BD80B584B000AFF860B9607E
:1057B0007A60FB685B69BA6804210A40072191405E
:1057C0000A00D2431A40BB6804210B407968994013
:1057D0000B001A43FB685A61C046BD4604B080BD49
:1057E00080B582B000AF786039607B685B693A68E9
:1057F00004210A40072191400A001A403B68042115
:105800000B40DA4013001800BD4602B080BD80B5E1
:1058100084B000AFF860B9607A60FB689B6ABA68D0
:105820001F210A400F2191400A00D2431A407B6891
:105830009B0E0F211940BB681F20034099400B00AD
:105840001A43FB689A62C046BD4604B080BD80B56D
:1058500082B000AF786039607B689A6A3B685B030E
:105860005B0B1A437B689A62C046BD4602B080BD9E
:1058700080B582B000AF786039607B689B6A3A6817
:105880005203520BD2431A407B689A62C046BD460F
:1058900002B080BD80B584B000AFF860B9607A60B6
:1058A000FB685B69BA681202D2431A40BB681B02EC
:1058B00079680B4004490B401A43FB685A61C046A3
:1058C000BD4604B080BDC04600FFFF0780B582B072
:1058D00000AF78607B689B68054A134080225205C0
:1058E0001A437B689A60C046BD4602B080BDC04680
:1058F000E8FFFF6F80B582B000AF78607B689A6880
:1059000080235B051A4080235B059A4201D1012365
:1059100000E000231800BD4602B080BD80B582B013
:1059200000AF78607B689B6801221340012B01D196
:10593000012300E000231800BD4602B080BD80B501
:1059400082B000AF78607B689B6804221340042B10
:1059500001D1012300E000231800BD4602B080BD44
:1059600080B588B000AF78601F23FB1800221A7042
:105970000023BB6100237B610023FB607B68002B5D
:1059800001D101237FE17B689B6D002B0AD17B68ED
:105990001800FFF7A3F97B680022DA657B685422C0
:1059A000002199547B681B681800FFF7A3FF031EB2
:1059B00015D17B681B681800FFF788FFB44B1B6884
:1059C000B4491800FAF7BCFB030001335B00FB602D
:1059D00002E0FB68013BFB60FB68002BF9D17B68B0
:1059E0001B681800FFF786FF031E0FD17B689B6DB5
:1059F00010221A437B689A657B68DB6D01221A438B
:105A00007B68DA651F23FB1801221A707B681B680C
:105A10001800FFF794FF03003B617B689B6D102229
:105A2000134000D022E13B69002B00D01EE17B68CF
:105A30009B6D994A134002221A437B689A657B68E2
:105A40001B681800FFF76AFF031E00D0ADE07B68FB
:105A50009A687B681B7E9B031A437B685B7EDB0333
:105A60001A437B689B7E5B031A437B681B6B002B8E
:105A700002D080235B0100E000231A437B68DB68CF
:105A80001A437B681B69002B04DA7B681B695B0087
:105A90005B0801E080239B031A437B682C215B5C3D
:105AA0005B001343BA691343BB617B6820229B5C94
:105AB000012B15D17B689B7E002B05D1BB69802211
:105AC00052021343BB610BE07B689B6D20221A439B
:105AD0007B689A657B68DB6D01221A437B68DA6517
